{
  "contractName": "FAMAsset",
  "abi": [
    {
      "inputs": [],
      "stateMutability": "nonpayable",
      "type": "constructor"
    },
    {
      "anonymous": false,
      "inputs": [
        {
          "indexed": true,
          "internalType": "address",
          "name": "account",
          "type": "address"
        },
        {
          "indexed": true,
          "internalType": "address",
          "name": "operator",
          "type": "address"
        },
        {
          "indexed": false,
          "internalType": "bool",
          "name": "approved",
          "type": "bool"
        }
      ],
      "name": "ApprovalForAll",
      "type": "event"
    },
    {
      "anonymous": false,
      "inputs": [
        {
          "indexed": true,
          "internalType": "address",
          "name": "previousOwner",
          "type": "address"
        },
        {
          "indexed": true,
          "internalType": "address",
          "name": "newOwner",
          "type": "address"
        }
      ],
      "name": "OwnershipTransferred",
      "type": "event"
    },
    {
      "anonymous": false,
      "inputs": [
        {
          "indexed": true,
          "internalType": "address",
          "name": "operator",
          "type": "address"
        },
        {
          "indexed": true,
          "internalType": "address",
          "name": "from",
          "type": "address"
        },
        {
          "indexed": true,
          "internalType": "address",
          "name": "to",
          "type": "address"
        },
        {
          "indexed": false,
          "internalType": "uint256[]",
          "name": "ids",
          "type": "uint256[]"
        },
        {
          "indexed": false,
          "internalType": "uint256[]",
          "name": "values",
          "type": "uint256[]"
        }
      ],
      "name": "TransferBatch",
      "type": "event"
    },
    {
      "anonymous": false,
      "inputs": [
        {
          "indexed": true,
          "internalType": "address",
          "name": "operator",
          "type": "address"
        },
        {
          "indexed": true,
          "internalType": "address",
          "name": "from",
          "type": "address"
        },
        {
          "indexed": true,
          "internalType": "address",
          "name": "to",
          "type": "address"
        },
        {
          "indexed": false,
          "internalType": "uint256",
          "name": "id",
          "type": "uint256"
        },
        {
          "indexed": false,
          "internalType": "uint256",
          "name": "value",
          "type": "uint256"
        }
      ],
      "name": "TransferSingle",
      "type": "event"
    },
    {
      "anonymous": false,
      "inputs": [
        {
          "indexed": false,
          "internalType": "string",
          "name": "value",
          "type": "string"
        },
        {
          "indexed": true,
          "internalType": "uint256",
          "name": "id",
          "type": "uint256"
        }
      ],
      "name": "URI",
      "type": "event"
    },
    {
      "inputs": [
        {
          "internalType": "address",
          "name": "",
          "type": "address"
        }
      ],
      "name": "_minters",
      "outputs": [
        {
          "internalType": "bool",
          "name": "",
          "type": "bool"
        }
      ],
      "stateMutability": "view",
      "type": "function",
      "constant": true
    },
    {
      "inputs": [
        {
          "internalType": "uint256",
          "name": "",
          "type": "uint256"
        }
      ],
      "name": "assets",
      "outputs": [
        {
          "internalType": "uint256",
          "name": "id",
          "type": "uint256"
        },
        {
          "internalType": "uint256",
          "name": "power",
          "type": "uint256"
        },
        {
          "internalType": "uint256",
          "name": "currMinting",
          "type": "uint256"
        },
        {
          "internalType": "uint256",
          "name": "maxMinting",
          "type": "uint256"
        }
      ],
      "stateMutability": "view",
      "type": "function",
      "constant": true
    },
    {
      "inputs": [
        {
          "internalType": "address",
          "name": "account",
          "type": "address"
        },
        {
          "internalType": "uint256",
          "name": "id",
          "type": "uint256"
        }
      ],
      "name": "balanceOf",
      "outputs": [
        {
          "internalType": "uint256",
          "name": "",
          "type": "uint256"
        }
      ],
      "stateMutability": "view",
      "type": "function",
      "constant": true
    },
    {
      "inputs": [
        {
          "internalType": "address[]",
          "name": "accounts",
          "type": "address[]"
        },
        {
          "internalType": "uint256[]",
          "name": "ids",
          "type": "uint256[]"
        }
      ],
      "name": "balanceOfBatch",
      "outputs": [
        {
          "internalType": "uint256[]",
          "name": "",
          "type": "uint256[]"
        }
      ],
      "stateMutability": "view",
      "type": "function",
      "constant": true
    },
    {
      "inputs": [
        {
          "internalType": "address",
          "name": "account",
          "type": "address"
        },
        {
          "internalType": "address",
          "name": "operator",
          "type": "address"
        }
      ],
      "name": "isApprovedForAll",
      "outputs": [
        {
          "internalType": "bool",
          "name": "",
          "type": "bool"
        }
      ],
      "stateMutability": "view",
      "type": "function",
      "constant": true
    },
    {
      "inputs": [],
      "name": "owner",
      "outputs": [
        {
          "internalType": "address",
          "name": "",
          "type": "address"
        }
      ],
      "stateMutability": "view",
      "type": "function",
      "constant": true
    },
    {
      "inputs": [],
      "name": "renounceOwnership",
      "outputs": [],
      "stateMutability": "nonpayable",
      "type": "function"
    },
    {
      "inputs": [
        {
          "internalType": "address",
          "name": "from",
          "type": "address"
        },
        {
          "internalType": "address",
          "name": "to",
          "type": "address"
        },
        {
          "internalType": "uint256[]",
          "name": "ids",
          "type": "uint256[]"
        },
        {
          "internalType": "uint256[]",
          "name": "amounts",
          "type": "uint256[]"
        },
        {
          "internalType": "bytes",
          "name": "data",
          "type": "bytes"
        }
      ],
      "name": "safeBatchTransferFrom",
      "outputs": [],
      "stateMutability": "nonpayable",
      "type": "function"
    },
    {
      "inputs": [
        {
          "internalType": "address",
          "name": "from",
          "type": "address"
        },
        {
          "internalType": "address",
          "name": "to",
          "type": "address"
        },
        {
          "internalType": "uint256",
          "name": "id",
          "type": "uint256"
        },
        {
          "internalType": "uint256",
          "name": "amount",
          "type": "uint256"
        },
        {
          "internalType": "bytes",
          "name": "data",
          "type": "bytes"
        }
      ],
      "name": "safeTransferFrom",
      "outputs": [],
      "stateMutability": "nonpayable",
      "type": "function"
    },
    {
      "inputs": [
        {
          "internalType": "address",
          "name": "operator",
          "type": "address"
        },
        {
          "internalType": "bool",
          "name": "approved",
          "type": "bool"
        }
      ],
      "name": "setApprovalForAll",
      "outputs": [],
      "stateMutability": "nonpayable",
      "type": "function"
    },
    {
      "inputs": [
        {
          "internalType": "bytes4",
          "name": "interfaceId",
          "type": "bytes4"
        }
      ],
      "name": "supportsInterface",
      "outputs": [
        {
          "internalType": "bool",
          "name": "",
          "type": "bool"
        }
      ],
      "stateMutability": "view",
      "type": "function",
      "constant": true
    },
    {
      "inputs": [
        {
          "internalType": "address",
          "name": "newOwner",
          "type": "address"
        }
      ],
      "name": "transferOwnership",
      "outputs": [],
      "stateMutability": "nonpayable",
      "type": "function"
    },
    {
      "inputs": [
        {
          "internalType": "uint256",
          "name": "",
          "type": "uint256"
        }
      ],
      "name": "uri",
      "outputs": [
        {
          "internalType": "string",
          "name": "",
          "type": "string"
        }
      ],
      "stateMutability": "view",
      "type": "function",
      "constant": true
    },
    {
      "inputs": [
        {
          "internalType": "address",
          "name": "to",
          "type": "address"
        },
        {
          "internalType": "uint256",
          "name": "id",
          "type": "uint256"
        },
        {
          "internalType": "uint256",
          "name": "amount",
          "type": "uint256"
        },
        {
          "internalType": "bytes",
          "name": "data",
          "type": "bytes"
        }
      ],
      "name": "mint",
      "outputs": [],
      "stateMutability": "nonpayable",
      "type": "function"
    },
    {
      "inputs": [
        {
          "internalType": "address",
          "name": "to",
          "type": "address"
        },
        {
          "internalType": "uint256[]",
          "name": "ids",
          "type": "uint256[]"
        },
        {
          "internalType": "uint256[]",
          "name": "amounts",
          "type": "uint256[]"
        },
        {
          "internalType": "bytes",
          "name": "data",
          "type": "bytes"
        }
      ],
      "name": "mintBatch",
      "outputs": [],
      "stateMutability": "nonpayable",
      "type": "function"
    },
    {
      "inputs": [
        {
          "internalType": "uint256",
          "name": "id",
          "type": "uint256"
        },
        {
          "internalType": "uint256",
          "name": "power",
          "type": "uint256"
        },
        {
          "internalType": "uint256",
          "name": "maxMinting",
          "type": "uint256"
        }
      ],
      "name": "addType",
      "outputs": [],
      "stateMutability": "nonpayable",
      "type": "function"
    },
    {
      "inputs": [
        {
          "internalType": "uint256",
          "name": "_id",
          "type": "uint256"
        }
      ],
      "name": "getAssetInfo",
      "outputs": [
        {
          "internalType": "uint256",
          "name": "",
          "type": "uint256"
        },
        {
          "internalType": "uint256",
          "name": "",
          "type": "uint256"
        },
        {
          "internalType": "uint256",
          "name": "",
          "type": "uint256"
        },
        {
          "internalType": "uint256",
          "name": "",
          "type": "uint256"
        }
      ],
      "stateMutability": "view",
      "type": "function",
      "constant": true
    },
    {
      "inputs": [
        {
          "internalType": "address",
          "name": "_minter",
          "type": "address"
        }
      ],
      "name": "addMinter",
      "outputs": [],
      "stateMutability": "nonpayable",
      "type": "function"
    },
    {
      "inputs": [
        {
          "internalType": "address",
          "name": "_minter",
          "type": "address"
        }
      ],
      "name": "removeMinter",
      "outputs": [],
      "stateMutability": "nonpayable",
      "type": "function"
    },
    {
      "inputs": [
        {
          "internalType": "uint256[]",
          "name": "ids",
          "type": "uint256[]"
        }
      ],
      "name": "assetPowerBatch",
      "outputs": [
        {
          "internalType": "uint256[]",
          "name": "",
          "type": "uint256[]"
        }
      ],
      "stateMutability": "view",
      "type": "function",
      "constant": true
    },
    {
      "inputs": [
        {
          "internalType": "uint256[]",
          "name": "ids",
          "type": "uint256[]"
        }
      ],
      "name": "assetCurrMintingBatch",
      "outputs": [
        {
          "internalType": "uint256[]",
          "name": "",
          "type": "uint256[]"
        }
      ],
      "stateMutability": "view",
      "type": "function",
      "constant": true
    },
    {
      "inputs": [
        {
          "internalType": "uint256[]",
          "name": "ids",
          "type": "uint256[]"
        }
      ],
      "name": "assetMaxMintingBatch",
      "outputs": [
        {
          "internalType": "uint256[]",
          "name": "",
          "type": "uint256[]"
        }
      ],
      "stateMutability": "view",
      "type": "function",
      "constant": true
    }
  ],
  "bytecode": "0x60806040523480156200001157600080fd5b506040518060200160405280600081525062000033816200018860201b60201c565b50600062000046620001a460201b60201c565b905080600360006101000a81548173ffffffffffffffffffffffffffffffffffffffff021916908373ffffffffffffffffffffffffffffffffffffffff1602179055508073ffffffffffffffffffffffffffffffffffffffff16600073ffffffffffffffffffffffffffffffffffffffff167f8be0079c531659141344cd1fd0a4f28419497f9722a3daafe3b4186f6b6457e060405160405180910390a3506001600460003373ffffffffffffffffffffffffffffffffffffffff1673ffffffffffffffffffffffffffffffffffffffff16815260200190815260200160002060006101000a81548160ff02191690831515021790555062000154600060026103e8620001ac60201b60201c565b6200016b6001600a610384620001ac60201b60201c565b620001826002600761044c620001ac60201b60201c565b62000435565b8060029080519060200190620001a09291906200029d565b5050565b600033905090565b620001bc620001a460201b60201c565b73ffffffffffffffffffffffffffffffffffffffff16620001e26200027360201b60201c565b73ffffffffffffffffffffffffffffffffffffffff16146200023b576040517f08c379a0000000000000000000000000000000000000000000000000000000008152600401620002329062000374565b60405180910390fd5b600060056000858152602001908152602001600020905083816000018190555082816001018190555081816003018190555050505050565b6000600360009054906101000a900473ffffffffffffffffffffffffffffffffffffffff16905090565b828054620002ab90620003a7565b90600052602060002090601f016020900481019282620002cf57600085556200031b565b82601f10620002ea57805160ff19168380011785556200031b565b828001600101855582156200031b579182015b828111156200031a578251825591602001919060010190620002fd565b5b5090506200032a91906200032e565b5090565b5b80821115620003495760008160009055506001016200032f565b5090565b60006200035c60208362000396565b915062000369826200040c565b602082019050919050565b600060208201905081810360008301526200038f816200034d565b9050919050565b600082825260208201905092915050565b60006002820490506001821680620003c057607f821691505b60208210811415620003d757620003d6620003dd565b5b50919050565b7f4e487b7100000000000000000000000000000000000000000000000000000000600052602260045260246000fd5b7f4f776e61626c653a2063616c6c6572206973206e6f7420746865206f776e6572600082015250565b6140db80620004456000396000f3fe608060405234801561001057600080fd5b50600436106101415760003560e01c8063731133e9116100b8578063a22cb4651161007c578063a22cb46514610396578063cf35bdd0146103b2578063e985e9c5146103e5578063f242432a14610415578063f2fde38b14610431578063f637d9501461044d57610141565b8063731133e9146102f45780638248f4f5146103105780638da5cb5b14610340578063983b2d561461035e5780639cfeb6d21461037a57610141565b80633092afd51161010a5780633092afd51461020e5780633575597d1461022a57806340d7f55e1461025a5780634e1273f41461028a5780635aab152a146102ba578063715018a6146102ea57610141565b8062fdd58e1461014657806301ffc9a7146101765780630e89341c146101a65780631f7fdffa146101d65780632eb2c2d6146101f2575b600080fd5b610160600480360381019061015b9190612e6c565b610480565b60405161016d9190613723565b60405180910390f35b610190600480360381019061018b9190612fd5565b610549565b60405161019d9190613506565b60405180910390f35b6101c060048036038101906101bb9190613027565b61062b565b6040516101cd9190613521565b60405180910390f35b6101f060048036038101906101eb9190612d77565b6106bf565b005b61020c60048036038101906102079190612c29565b6109bf565b005b61022860048036038101906102239190612bc4565b610db5565b005b610244600480360381019061023f9190612bc4565b610e8c565b6040516102519190613506565b60405180910390f35b610274600480360381019061026f9190612f94565b610eac565b60405161028191906134ad565b60405180910390f35b6102a4600480360381019061029f9190612f28565b610fe5565b6040516102b191906134ad565b60405180910390f35b6102d460048036038101906102cf9190612f94565b611196565b6040516102e191906134ad565b60405180910390f35b6102f26112cf565b005b61030e60048036038101906103099190612ea8565b61140c565b005b61032a60048036038101906103259190612f94565b611594565b60405161033791906134ad565b60405180910390f35b6103486116cd565b60405161035591906133d0565b60405180910390f35b61037860048036038101906103739190612bc4565b6116f7565b005b610394600480360381019061038f9190613050565b6117ce565b005b6103b060048036038101906103ab9190612e30565b611882565b005b6103cc60048036038101906103c79190613027565b611a03565b6040516103dc9493929190613767565b60405180910390f35b6103ff60048036038101906103fa9190612bed565b611a33565b60405161040c9190613506565b60405180910390f35b61042f600480360381019061042a9190612ce8565b611ac7565b005b61044b60048036038101906104469190612bc4565b611ddf565b005b61046760048036038101906104629190613027565b611f8b565b6040516104779493929190613767565b60405180910390f35b60008073ffffffffffffffffffffffffffffffffffffffff168373ffffffffffffffffffffffffffffffffffffffff1614156104f1576040517f08c379a00000000000000000000000000000000000000000000000000000000081526004016104e8906135a3565b60405180910390fd5b60008083815260200190815260200160002060008473ffffffffffffffffffffffffffffffffffffffff1673ffffffffffffffffffffffffffffffffffffffff16815260200190815260200160002054905092915050565b60007fd9b67a26000000000000000000000000000000000000000000000000000000007bffffffffffffffffffffffffffffffffffffffffffffffffffffffff1916827bffffffffffffffffffffffffffffffffffffffffffffffffffffffff1916148061061457507f0e89341c000000000000000000000000000000000000000000000000000000007bffffffffffffffffffffffffffffffffffffffffffffffffffffffff1916827bffffffffffffffffffffffffffffffffffffffffffffffffffffffff1916145b80610624575061062382611ffc565b5b9050919050565b60606002805461063a90613a0b565b80601f016020809104026020016040519081016040528092919081815260200182805461066690613a0b565b80156106b35780601f10610688576101008083540402835291602001916106b3565b820191906000526020600020905b81548152906001019060200180831161069657829003601f168201915b50505050509050919050565b600460003373ffffffffffffffffffffffffffffffffffffffff1673ffffffffffffffffffffffffffffffffffffffff16815260200190815260200160002060009054906101000a900460ff1661074b576040517f08c379a000000000000000000000000000000000000000000000000000000000815260040161074290613563565b60405180910390fd5b838390508686905014610793576040517f08c379a000000000000000000000000000000000000000000000000000000000815260040161078a906136e3565b60405180910390fd5b60005b868690508110156108e35760008787838181106107dc577f4e487b7100000000000000000000000000000000000000000000000000000000600052603260045260246000fd5b9050602002013590506000868684818110610820577f4e487b7100000000000000000000000000000000000000000000000000000000600052603260045260246000fd5b9050602002013590506000600560008481526020019081526020016000209050600081600301541161085157600080fd5b806003015461086d83836002015461206690919063ffffffff16565b11156108ae576040517f08c379a00000000000000000000000000000000000000000000000000000000081526004016108a5906135e3565b60405180910390fd5b6108c582826002015461206690919063ffffffff16565b816002018190555050505080806108db90613a6e565b915050610796565b506109b687878780806020026020016040519081016040528093929190818152602001838360200280828437600081840152601f19601f82011690508083019250505050505050868680806020026020016040519081016040528093929190818152602001838360200280828437600081840152601f19601f8201169050808301925050505050505085858080601f016020809104026020016040519081016040528093929190818152602001838380828437600081840152601f19601f8201169050808301925050505050505061207c565b50505050505050565b8151835114610a03576040517f08c379a00000000000000000000000000000000000000000000000000000000081526004016109fa906136e3565b60405180910390fd5b600073ffffffffffffffffffffffffffffffffffffffff168473ffffffffffffffffffffffffffffffffffffffff161415610a73576040517f08c379a0000000000000000000000000000000000000000000000000000000008152600401610a6a90613623565b60405180910390fd5b610a7b6122e6565b73ffffffffffffffffffffffffffffffffffffffff168573ffffffffffffffffffffffffffffffffffffffff161480610ac15750610ac085610abb6122e6565b611a33565b5b610b00576040517f08c379a0000000000000000000000000000000000000000000000000000000008152600401610af790613643565b60405180910390fd5b6000610b0a6122e6565b9050610b1a8187878787876122ee565b60005b8451811015610d20576000858281518110610b61577f4e487b7100000000000000000000000000000000000000000000000000000000600052603260045260246000fd5b602002602001015190506000858381518110610ba6577f4e487b7100000000000000000000000000000000000000000000000000000000600052603260045260246000fd5b60200260200101519050600080600084815260200190815260200160002060008b73ffffffffffffffffffffffffffffffffffffffff1673ffffffffffffffffffffffffffffffffffffffff16815260200190815260200160002054905081811015610c47576040517f08c379a0000000000000000000000000000000000000000000000000000000008152600401610c3e90613663565b60405180910390fd5b8181610c539190613921565b60008085815260200190815260200160002060008c73ffffffffffffffffffffffffffffffffffffffff1673ffffffffffffffffffffffffffffffffffffffff168152602001908152602001600020819055508160008085815260200190815260200160002060008b73ffffffffffffffffffffffffffffffffffffffff1673ffffffffffffffffffffffffffffffffffffffff1681526020019081526020016000206000828254610d0591906138cb565b9250508190555050505080610d1990613a6e565b9050610b1d565b508473ffffffffffffffffffffffffffffffffffffffff168673ffffffffffffffffffffffffffffffffffffffff168273ffffffffffffffffffffffffffffffffffffffff167f4a39dc06d4c0dbc64b70af90fd698a233a518aa5d07e595d983b8c0526c8f7fb8787604051610d979291906134cf565b60405180910390a4610dad8187878787876122f6565b505050505050565b610dbd6122e6565b73ffffffffffffffffffffffffffffffffffffffff16610ddb6116cd565b73ffffffffffffffffffffffffffffffffffffffff1614610e31576040517f08c379a0000000000000000000000000000000000000000000000000000000008152600401610e2890613683565b60405180910390fd5b6000600460008373ffffffffffffffffffffffffffffffffffffffff1673ffffffffffffffffffffffffffffffffffffffff16815260200190815260200160002060006101000a81548160ff02191690831515021790555050565b60046020528060005260406000206000915054906101000a900460ff1681565b60606000825167ffffffffffffffff811115610ef1577f4e487b7100000000000000000000000000000000000000000000000000000000600052604160045260246000fd5b604051908082528060200260200182016040528015610f1f5781602001602082028036833780820191505090505b50905060005b8351811015610fdb5760056000858381518110610f6b577f4e487b7100000000000000000000000000000000000000000000000000000000600052603260045260246000fd5b6020026020010151815260200190815260200160002060010154828281518110610fbe577f4e487b7100000000000000000000000000000000000000000000000000000000600052603260045260246000fd5b60200260200101818152505080610fd490613a6e565b9050610f25565b5080915050919050565b6060815183511461102b576040517f08c379a0000000000000000000000000000000000000000000000000000000008152600401611022906136c3565b60405180910390fd5b6000835167ffffffffffffffff81111561106e577f4e487b7100000000000000000000000000000000000000000000000000000000600052604160045260246000fd5b60405190808252806020026020018201604052801561109c5781602001602082028036833780820191505090505b50905060005b845181101561118b576111358582815181106110e7577f4e487b7100000000000000000000000000000000000000000000000000000000600052603260045260246000fd5b6020026020010151858381518110611128577f4e487b7100000000000000000000000000000000000000000000000000000000600052603260045260246000fd5b6020026020010151610480565b82828151811061116e577f4e487b7100000000000000000000000000000000000000000000000000000000600052603260045260246000fd5b6020026020010181815250508061118490613a6e565b90506110a2565b508091505092915050565b60606000825167ffffffffffffffff8111156111db577f4e487b7100000000000000000000000000000000000000000000000000000000600052604160045260246000fd5b6040519080825280602002602001820160405280156112095781602001602082028036833780820191505090505b50905060005b83518110156112c55760056000858381518110611255577f4e487b7100000000000000000000000000000000000000000000000000000000600052603260045260246000fd5b60200260200101518152602001908152602001600020600201548282815181106112a8577f4e487b7100000000000000000000000000000000000000000000000000000000600052603260045260246000fd5b602002602001018181525050806112be90613a6e565b905061120f565b5080915050919050565b6112d76122e6565b73ffffffffffffffffffffffffffffffffffffffff166112f56116cd565b73ffffffffffffffffffffffffffffffffffffffff161461134b576040517f08c379a000000000000000000000000000000000000000000000000000000000815260040161134290613683565b60405180910390fd5b600073ffffffffffffffffffffffffffffffffffffffff16600360009054906101000a900473ffffffffffffffffffffffffffffffffffffffff1673ffffffffffffffffffffffffffffffffffffffff167f8be0079c531659141344cd1fd0a4f28419497f9722a3daafe3b4186f6b6457e060405160405180910390a36000600360006101000a81548173ffffffffffffffffffffffffffffffffffffffff021916908373ffffffffffffffffffffffffffffffffffffffff160217905550565b600460003373ffffffffffffffffffffffffffffffffffffffff1673ffffffffffffffffffffffffffffffffffffffff16815260200190815260200160002060009054906101000a900460ff16611498576040517f08c379a000000000000000000000000000000000000000000000000000000000815260040161148f90613563565b60405180910390fd5b600060056000868152602001908152602001600020905060008160030154116114c057600080fd5b80600301546114dc85836002015461206690919063ffffffff16565b111561151d576040517f08c379a0000000000000000000000000000000000000000000000000000000008152600401611514906135e3565b60405180910390fd5b61153484826002015461206690919063ffffffff16565b816002018190555061158c86868686868080601f016020809104026020016040519081016040528093929190818152602001838380828437600081840152601f19601f820116905080830192505050505050506124dd565b505050505050565b60606000825167ffffffffffffffff8111156115d9577f4e487b7100000000000000000000000000000000000000000000000000000000600052604160045260246000fd5b6040519080825280602002602001820160405280156116075781602001602082028036833780820191505090505b50905060005b83518110156116c35760056000858381518110611653577f4e487b7100000000000000000000000000000000000000000000000000000000600052603260045260246000fd5b60200260200101518152602001908152602001600020600301548282815181106116a6577f4e487b7100000000000000000000000000000000000000000000000000000000600052603260045260246000fd5b602002602001018181525050806116bc90613a6e565b905061160d565b5080915050919050565b6000600360009054906101000a900473ffffffffffffffffffffffffffffffffffffffff16905090565b6116ff6122e6565b73ffffffffffffffffffffffffffffffffffffffff1661171d6116cd565b73ffffffffffffffffffffffffffffffffffffffff1614611773576040517f08c379a000000000000000000000000000000000000000000000000000000000815260040161176a90613683565b60405180910390fd5b6001600460008373ffffffffffffffffffffffffffffffffffffffff1673ffffffffffffffffffffffffffffffffffffffff16815260200190815260200160002060006101000a81548160ff02191690831515021790555050565b6117d66122e6565b73ffffffffffffffffffffffffffffffffffffffff166117f46116cd565b73ffffffffffffffffffffffffffffffffffffffff161461184a576040517f08c379a000000000000000000000000000000000000000000000000000000000815260040161184190613683565b60405180910390fd5b600060056000858152602001908152602001600020905083816000018190555082816001018190555081816003018190555050505050565b8173ffffffffffffffffffffffffffffffffffffffff166118a16122e6565b73ffffffffffffffffffffffffffffffffffffffff1614156118f8576040517f08c379a00000000000000000000000000000000000000000000000000000000081526004016118ef906136a3565b60405180910390fd5b80600160006119056122e6565b73ffffffffffffffffffffffffffffffffffffffff1673ffffffffffffffffffffffffffffffffffffffff16815260200190815260200160002060008473ffffffffffffffffffffffffffffffffffffffff1673ffffffffffffffffffffffffffffffffffffffff16815260200190815260200160002060006101000a81548160ff0219169083151502179055508173ffffffffffffffffffffffffffffffffffffffff166119b26122e6565b73ffffffffffffffffffffffffffffffffffffffff167f17307eab39ab6107e8899845ad3d59bd9653f200f220920489ca2b5937696c31836040516119f79190613506565b60405180910390a35050565b60056020528060005260406000206000915090508060000154908060010154908060020154908060030154905084565b6000600160008473ffffffffffffffffffffffffffffffffffffffff1673ffffffffffffffffffffffffffffffffffffffff16815260200190815260200160002060008373ffffffffffffffffffffffffffffffffffffffff1673ffffffffffffffffffffffffffffffffffffffff16815260200190815260200160002060009054906101000a900460ff16905092915050565b600073ffffffffffffffffffffffffffffffffffffffff168473ffffffffffffffffffffffffffffffffffffffff161415611b37576040517f08c379a0000000000000000000000000000000000000000000000000000000008152600401611b2e90613623565b60405180910390fd5b611b3f6122e6565b73ffffffffffffffffffffffffffffffffffffffff168573ffffffffffffffffffffffffffffffffffffffff161480611b855750611b8485611b7f6122e6565b611a33565b5b611bc4576040517f08c379a0000000000000000000000000000000000000000000000000000000008152600401611bbb90613603565b60405180910390fd5b6000611bce6122e6565b9050611bee818787611bdf88612673565b611be888612673565b876122ee565b600080600086815260200190815260200160002060008873ffffffffffffffffffffffffffffffffffffffff1673ffffffffffffffffffffffffffffffffffffffff16815260200190815260200160002054905083811015611c85576040517f08c379a0000000000000000000000000000000000000000000000000000000008152600401611c7c90613663565b60405180910390fd5b8381611c919190613921565b60008087815260200190815260200160002060008973ffffffffffffffffffffffffffffffffffffffff1673ffffffffffffffffffffffffffffffffffffffff168152602001908152602001600020819055508360008087815260200190815260200160002060008873ffffffffffffffffffffffffffffffffffffffff1673ffffffffffffffffffffffffffffffffffffffff1681526020019081526020016000206000828254611d4391906138cb565b925050819055508573ffffffffffffffffffffffffffffffffffffffff168773ffffffffffffffffffffffffffffffffffffffff168373ffffffffffffffffffffffffffffffffffffffff167fc3d58168c5ae7397731d063d5bbf3d657854427343f4c083240f7aacaa2d0f628888604051611dc092919061373e565b60405180910390a4611dd6828888888888612739565b50505050505050565b611de76122e6565b73ffffffffffffffffffffffffffffffffffffffff16611e056116cd565b73ffffffffffffffffffffffffffffffffffffffff1614611e5b576040517f08c379a0000000000000000000000000000000000000000000000000000000008152600401611e5290613683565b60405180910390fd5b600073ffffffffffffffffffffffffffffffffffffffff168173ffffffffffffffffffffffffffffffffffffffff161415611ecb576040517f08c379a0000000000000000000000000000000000000000000000000000000008152600401611ec2906135c3565b60405180910390fd5b8073ffffffffffffffffffffffffffffffffffffffff16600360009054906101000a900473ffffffffffffffffffffffffffffffffffffffff1673ffffffffffffffffffffffffffffffffffffffff167f8be0079c531659141344cd1fd0a4f28419497f9722a3daafe3b4186f6b6457e060405160405180910390a380600360006101000a81548173ffffffffffffffffffffffffffffffffffffffff021916908373ffffffffffffffffffffffffffffffffffffffff16021790555050565b600080600080600560008681526020019081526020016000206000015460056000878152602001908152602001600020600101546005600088815260200190815260200160002060020154600560008981526020019081526020016000206003015493509350935093509193509193565b60007f01ffc9a7000000000000000000000000000000000000000000000000000000007bffffffffffffffffffffffffffffffffffffffffffffffffffffffff1916827bffffffffffffffffffffffffffffffffffffffffffffffffffffffff1916149050919050565b6000818361207491906138cb565b905092915050565b600073ffffffffffffffffffffffffffffffffffffffff168473ffffffffffffffffffffffffffffffffffffffff1614156120ec576040517f08c379a00000000000000000000000000000000000000000000000000000000081526004016120e390613703565b60405180910390fd5b8151835114612130576040517f08c379a0000000000000000000000000000000000000000000000000000000008152600401612127906136e3565b60405180910390fd5b600061213a6122e6565b905061214b816000878787876122ee565b60005b845181101561225057838181518110612190577f4e487b7100000000000000000000000000000000000000000000000000000000600052603260045260246000fd5b60200260200101516000808784815181106121d4577f4e487b7100000000000000000000000000000000000000000000000000000000600052603260045260246000fd5b6020026020010151815260200190815260200160002060008873ffffffffffffffffffffffffffffffffffffffff1673ffffffffffffffffffffffffffffffffffffffff168152602001908152602001600020600082825461223691906138cb565b92505081905550808061224890613a6e565b91505061214e565b508473ffffffffffffffffffffffffffffffffffffffff16600073ffffffffffffffffffffffffffffffffffffffff168273ffffffffffffffffffffffffffffffffffffffff167f4a39dc06d4c0dbc64b70af90fd698a233a518aa5d07e595d983b8c0526c8f7fb87876040516122c89291906134cf565b60405180910390a46122df816000878787876122f6565b5050505050565b600033905090565b505050505050565b6123158473ffffffffffffffffffffffffffffffffffffffff16612920565b156124d5578373ffffffffffffffffffffffffffffffffffffffff1663bc197c8187878686866040518663ffffffff1660e01b815260040161235b9594939291906133eb565b602060405180830381600087803b15801561237557600080fd5b505af19250505080156123a657506040513d601f19601f820116820180604052508101906123a39190612ffe565b60015b61244c576123b2613b44565b806308c379a0141561240f57506123c7613fb3565b806123d25750612411565b806040517f08c379a00000000000000000000000000000000000000000000000000000000081526004016124069190613521565b60405180910390fd5b505b6040517f08c379a000000000000000000000000000000000000000000000000000000000815260040161244390613543565b60405180910390fd5b63bc197c8160e01b7bffffffffffffffffffffffffffffffffffffffffffffffffffffffff1916817bffffffffffffffffffffffffffffffffffffffffffffffffffffffff1916146124d3576040517f08c379a00000000000000000000000000000000000000000000000000000000081526004016124ca90613583565b60405180910390fd5b505b505050505050565b600073ffffffffffffffffffffffffffffffffffffffff168473ffffffffffffffffffffffffffffffffffffffff16141561254d576040517f08c379a000000000000000000000000000000000000000000000000000000000815260040161254490613703565b60405180910390fd5b60006125576122e6565b90506125788160008761256988612673565b61257288612673565b876122ee565b8260008086815260200190815260200160002060008773ffffffffffffffffffffffffffffffffffffffff1673ffffffffffffffffffffffffffffffffffffffff16815260200190815260200160002060008282546125d791906138cb565b925050819055508473ffffffffffffffffffffffffffffffffffffffff16600073ffffffffffffffffffffffffffffffffffffffff168273ffffffffffffffffffffffffffffffffffffffff167fc3d58168c5ae7397731d063d5bbf3d657854427343f4c083240f7aacaa2d0f62878760405161265592919061373e565b60405180910390a461266c81600087878787612739565b5050505050565b60606000600167ffffffffffffffff8111156126b8577f4e487b7100000000000000000000000000000000000000000000000000000000600052604160045260246000fd5b6040519080825280602002602001820160405280156126e65781602001602082028036833780820191505090505b5090508281600081518110612724577f4e487b7100000000000000000000000000000000000000000000000000000000600052603260045260246000fd5b60200260200101818152505080915050919050565b6127588473ffffffffffffffffffffffffffffffffffffffff16612920565b15612918578373ffffffffffffffffffffffffffffffffffffffff1663f23a6e6187878686866040518663ffffffff1660e01b815260040161279e959493929190613453565b602060405180830381600087803b1580156127b857600080fd5b505af19250505080156127e957506040513d601f19601f820116820180604052508101906127e69190612ffe565b60015b61288f576127f5613b44565b806308c379a01415612852575061280a613fb3565b806128155750612854565b806040517f08c379a00000000000000000000000000000000000000000000000000000000081526004016128499190613521565b60405180910390fd5b505b6040517f08c379a000000000000000000000000000000000000000000000000000000000815260040161288690613543565b60405180910390fd5b63f23a6e6160e01b7bffffffffffffffffffffffffffffffffffffffffffffffffffffffff1916817bffffffffffffffffffffffffffffffffffffffffffffffffffffffff191614612916576040517f08c379a000000000000000000000000000000000000000000000000000000000815260040161290d90613583565b60405180910390fd5b505b505050505050565b600080823b905060008111915050919050565b6000612946612941846137d1565b6137ac565b9050808382526020820190508285602086028201111561296557600080fd5b60005b85811015612995578161297b8882612a49565b845260208401935060208301925050600181019050612968565b5050509392505050565b60006129b26129ad846137fd565b6137ac565b905080838252602082019050828560208602820111156129d157600080fd5b60005b85811015612a0157816129e78882612baf565b8452602084019350602083019250506001810190506129d4565b5050509392505050565b6000612a1e612a1984613829565b6137ac565b905082815260208101848484011115612a3657600080fd5b612a418482856139c9565b509392505050565b600081359050612a5881614049565b92915050565b600082601f830112612a6f57600080fd5b8135612a7f848260208601612933565b91505092915050565b60008083601f840112612a9a57600080fd5b8235905067ffffffffffffffff811115612ab357600080fd5b602083019150836020820283011115612acb57600080fd5b9250929050565b600082601f830112612ae357600080fd5b8135612af384826020860161299f565b91505092915050565b600081359050612b0b81614060565b92915050565b600081359050612b2081614077565b92915050565b600081519050612b3581614077565b92915050565b60008083601f840112612b4d57600080fd5b8235905067ffffffffffffffff811115612b6657600080fd5b602083019150836001820283011115612b7e57600080fd5b9250929050565b600082601f830112612b9657600080fd5b8135612ba6848260208601612a0b565b91505092915050565b600081359050612bbe8161408e565b92915050565b600060208284031215612bd657600080fd5b6000612be484828501612a49565b91505092915050565b60008060408385031215612c0057600080fd5b6000612c0e85828601612a49565b9250506020612c1f85828601612a49565b9150509250929050565b600080600080600060a08688031215612c4157600080fd5b6000612c4f88828901612a49565b9550506020612c6088828901612a49565b945050604086013567ffffffffffffffff811115612c7d57600080fd5b612c8988828901612ad2565b935050606086013567ffffffffffffffff811115612ca657600080fd5b612cb288828901612ad2565b925050608086013567ffffffffffffffff811115612ccf57600080fd5b612cdb88828901612b85565b9150509295509295909350565b600080600080600060a08688031215612d0057600080fd5b6000612d0e88828901612a49565b9550506020612d1f88828901612a49565b9450506040612d3088828901612baf565b9350506060612d4188828901612baf565b925050608086013567ffffffffffffffff811115612d5e57600080fd5b612d6a88828901612b85565b9150509295509295909350565b60008060008060008060006080888a031215612d9257600080fd5b6000612da08a828b01612a49565b975050602088013567ffffffffffffffff811115612dbd57600080fd5b612dc98a828b01612a88565b9650965050604088013567ffffffffffffffff811115612de857600080fd5b612df48a828b01612a88565b9450945050606088013567ffffffffffffffff811115612e1357600080fd5b612e1f8a828b01612b3b565b925092505092959891949750929550565b60008060408385031215612e4357600080fd5b6000612e5185828601612a49565b9250506020612e6285828601612afc565b9150509250929050565b60008060408385031215612e7f57600080fd5b6000612e8d85828601612a49565b9250506020612e9e85828601612baf565b9150509250929050565b600080600080600060808688031215612ec057600080fd5b6000612ece88828901612a49565b9550506020612edf88828901612baf565b9450506040612ef088828901612baf565b935050606086013567ffffffffffffffff811115612f0d57600080fd5b612f1988828901612b3b565b92509250509295509295909350565b60008060408385031215612f3b57600080fd5b600083013567ffffffffffffffff811115612f5557600080fd5b612f6185828601612a5e565b925050602083013567ffffffffffffffff811115612f7e57600080fd5b612f8a85828601612ad2565b9150509250929050565b600060208284031215612fa657600080fd5b600082013567ffffffffffffffff811115612fc057600080fd5b612fcc84828501612ad2565b91505092915050565b600060208284031215612fe757600080fd5b6000612ff584828501612b11565b91505092915050565b60006020828403121561301057600080fd5b600061301e84828501612b26565b91505092915050565b60006020828403121561303957600080fd5b600061304784828501612baf565b91505092915050565b60008060006060848603121561306557600080fd5b600061307386828701612baf565b935050602061308486828701612baf565b925050604061309586828701612baf565b9150509250925092565b60006130ab83836133b2565b60208301905092915050565b6130c081613955565b82525050565b60006130d18261386a565b6130db8185613898565b93506130e68361385a565b8060005b838110156131175781516130fe888261309f565b97506131098361388b565b9250506001810190506130ea565b5085935050505092915050565b61312d81613967565b82525050565b600061313e82613875565b61314881856138a9565b93506131588185602086016139d8565b61316181613b66565b840191505092915050565b600061317782613880565b61318181856138ba565b93506131918185602086016139d8565b61319a81613b66565b840191505092915050565b60006131b26034836138ba565b91506131bd82613b84565b604082019050919050565b60006131d56007836138ba565b91506131e082613bd3565b602082019050919050565b60006131f86028836138ba565b915061320382613bfc565b604082019050919050565b600061321b602b836138ba565b915061322682613c4b565b604082019050919050565b600061323e6026836138ba565b915061324982613c9a565b604082019050919050565b6000613261601a836138ba565b915061326c82613ce9565b602082019050919050565b60006132846029836138ba565b915061328f82613d12565b604082019050919050565b60006132a76025836138ba565b91506132b282613d61565b604082019050919050565b60006132ca6032836138ba565b91506132d582613db0565b604082019050919050565b60006132ed602a836138ba565b91506132f882613dff565b604082019050919050565b60006133106020836138ba565b915061331b82613e4e565b602082019050919050565b60006133336029836138ba565b915061333e82613e77565b604082019050919050565b60006133566029836138ba565b915061336182613ec6565b604082019050919050565b60006133796028836138ba565b915061338482613f15565b604082019050919050565b600061339c6021836138ba565b91506133a782613f64565b604082019050919050565b6133bb816139bf565b82525050565b6133ca816139bf565b82525050565b60006020820190506133e560008301846130b7565b92915050565b600060a08201905061340060008301886130b7565b61340d60208301876130b7565b818103604083015261341f81866130c6565b9050818103606083015261343381856130c6565b905081810360808301526134478184613133565b90509695505050505050565b600060a08201905061346860008301886130b7565b61347560208301876130b7565b61348260408301866133c1565b61348f60608301856133c1565b81810360808301526134a18184613133565b90509695505050505050565b600060208201905081810360008301526134c781846130c6565b905092915050565b600060408201905081810360008301526134e981856130c6565b905081810360208301526134fd81846130c6565b90509392505050565b600060208201905061351b6000830184613124565b92915050565b6000602082019050818103600083015261353b818461316c565b905092915050565b6000602082019050818103600083015261355c816131a5565b9050919050565b6000602082019050818103600083015261357c816131c8565b9050919050565b6000602082019050818103600083015261359c816131eb565b9050919050565b600060208201905081810360008301526135bc8161320e565b9050919050565b600060208201905081810360008301526135dc81613231565b9050919050565b600060208201905081810360008301526135fc81613254565b9050919050565b6000602082019050818103600083015261361c81613277565b9050919050565b6000602082019050818103600083015261363c8161329a565b9050919050565b6000602082019050818103600083015261365c816132bd565b9050919050565b6000602082019050818103600083015261367c816132e0565b9050919050565b6000602082019050818103600083015261369c81613303565b9050919050565b600060208201905081810360008301526136bc81613326565b9050919050565b600060208201905081810360008301526136dc81613349565b9050919050565b600060208201905081810360008301526136fc8161336c565b9050919050565b6000602082019050818103600083015261371c8161338f565b9050919050565b600060208201905061373860008301846133c1565b92915050565b600060408201905061375360008301856133c1565b61376060208301846133c1565b9392505050565b600060808201905061377c60008301876133c1565b61378960208301866133c1565b61379660408301856133c1565b6137a360608301846133c1565b95945050505050565b60006137b66137c7565b90506137c28282613a3d565b919050565b6000604051905090565b600067ffffffffffffffff8211156137ec576137eb613b15565b5b602082029050602081019050919050565b600067ffffffffffffffff82111561381857613817613b15565b5b602082029050602081019050919050565b600067ffffffffffffffff82111561384457613843613b15565b5b61384d82613b66565b9050602081019050919050565b6000819050602082019050919050565b600081519050919050565b600081519050919050565b600081519050919050565b6000602082019050919050565b600082825260208201905092915050565b600082825260208201905092915050565b600082825260208201905092915050565b60006138d6826139bf565b91506138e1836139bf565b9250827fffffffffffffffffffffffffffffffffffffffffffffffffffffffffffffffff0382111561391657613915613ab7565b5b828201905092915050565b600061392c826139bf565b9150613937836139bf565b92508282101561394a57613949613ab7565b5b828203905092915050565b60006139608261399f565b9050919050565b60008115159050919050565b60007fffffffff0000000000000000000000000000000000000000000000000000000082169050919050565b600073ffffffffffffffffffffffffffffffffffffffff82169050919050565b6000819050919050565b82818337600083830152505050565b60005b838110156139f65780820151818401526020810190506139db565b83811115613a05576000848401525b50505050565b60006002820490506001821680613a2357607f821691505b60208210811415613a3757613a36613ae6565b5b50919050565b613a4682613b66565b810181811067ffffffffffffffff82111715613a6557613a64613b15565b5b80604052505050565b6000613a79826139bf565b91507fffffffffffffffffffffffffffffffffffffffffffffffffffffffffffffffff821415613aac57613aab613ab7565b5b600182019050919050565b7f4e487b7100000000000000000000000000000000000000000000000000000000600052601160045260246000fd5b7f4e487b7100000000000000000000000000000000000000000000000000000000600052602260045260246000fd5b7f4e487b7100000000000000000000000000000000000000000000000000000000600052604160045260246000fd5b600060033d1115613b635760046000803e613b60600051613b77565b90505b90565b6000601f19601f8301169050919050565b60008160e01c9050919050565b7f455243313135353a207472616e7366657220746f206e6f6e204552433131353560008201527f526563656976657220696d706c656d656e746572000000000000000000000000602082015250565b7f216d696e74657200000000000000000000000000000000000000000000000000600082015250565b7f455243313135353a204552433131353552656365697665722072656a6563746560008201527f6420746f6b656e73000000000000000000000000000000000000000000000000602082015250565b7f455243313135353a2062616c616e636520717565727920666f7220746865207a60008201527f65726f2061646472657373000000000000000000000000000000000000000000602082015250565b7f4f776e61626c653a206e6577206f776e657220697320746865207a65726f206160008201527f6464726573730000000000000000000000000000000000000000000000000000602082015250565b7f457863656564206d6178206d696e74696e6720616c6c6f776564000000000000600082015250565b7f455243313135353a2063616c6c6572206973206e6f74206f776e6572206e6f7260008201527f20617070726f7665640000000000000000000000000000000000000000000000602082015250565b7f455243313135353a207472616e7366657220746f20746865207a65726f20616460008201527f6472657373000000000000000000000000000000000000000000000000000000602082015250565b7f455243313135353a207472616e736665722063616c6c6572206973206e6f742060008201527f6f776e6572206e6f7220617070726f7665640000000000000000000000000000602082015250565b7f455243313135353a20696e73756666696369656e742062616c616e636520666f60008201527f72207472616e7366657200000000000000000000000000000000000000000000602082015250565b7f4f776e61626c653a2063616c6c6572206973206e6f7420746865206f776e6572600082015250565b7f455243313135353a2073657474696e6720617070726f76616c2073746174757360008201527f20666f722073656c660000000000000000000000000000000000000000000000602082015250565b7f455243313135353a206163636f756e747320616e6420696473206c656e67746860008201527f206d69736d617463680000000000000000000000000000000000000000000000602082015250565b7f455243313135353a2069647320616e6420616d6f756e7473206c656e6774682060008201527f6d69736d61746368000000000000000000000000000000000000000000000000602082015250565b7f455243313135353a206d696e7420746f20746865207a65726f2061646472657360008201527f7300000000000000000000000000000000000000000000000000000000000000602082015250565b600060443d1015613fc357614046565b613fcb6137c7565b60043d036004823e80513d602482011167ffffffffffffffff82111715613ff3575050614046565b808201805167ffffffffffffffff8111156140115750505050614046565b80602083010160043d03850181111561402e575050505050614046565b61403d82602001850186613a3d565b82955050505050505b90565b61405281613955565b811461405d57600080fd5b50565b61406981613967565b811461407457600080fd5b50565b61408081613973565b811461408b57600080fd5b50565b614097816139bf565b81146140a257600080fd5b5056fea2646970667358221220c2add7ea14a229ec98a3d5ba60581dc8fce73cc160def276f4ca68a55805faa864736f6c63430008040033",
  "immutableReferences": {},
  "source": "pragma solidity ^0.8.0;\n\nimport \"@openzeppelin/contracts/token/ERC1155/ERC1155.sol\";\nimport \"@openzeppelin/contracts/token/ERC1155/utils/ERC1155Receiver.sol\";\nimport \"@openzeppelin/contracts/utils/math/SafeMath.sol\";\nimport \"@openzeppelin/contracts/access/Ownable.sol\";\nimport \"./interfaces/IFAMAsset.sol\";\n\n\ncontract FAMAsset is ERC1155, IFAMAsset, Ownable {\n    using SafeMath for uint256;\n\n    mapping (address => bool) public _minters;\n    mapping (uint256 => Asset) public assets;\n\n    struct Asset {\n        uint256 id;\n        uint256 power;\n        uint256 currMinting;\n        uint256 maxMinting;\n    }\n\n    constructor() public ERC1155(\"\"){\n        _minters[msg.sender] = true;\n\n        addType(0, 2, 1000);\n        addType(1, 10, 900);\n        addType(2, 7, 1100);\n    }\n\n    function mint(address to, uint256 id, uint256 amount, bytes calldata data) override external {\n        require(_minters[msg.sender], \"!minter\");\n        Asset storage asset = assets[id];\n        require(asset.maxMinting > 0);\n        require(asset.currMinting.add(amount) <= asset.maxMinting, \"Exceed max minting allowed\");\n        asset.currMinting = asset.currMinting.add(amount);\n        \n        _mint( to,  id,  amount, data);\n    }\n\n    function mintBatch(address to, uint256[] calldata ids, uint256[] calldata amounts, bytes calldata data) override external {\n        require(_minters[msg.sender], \"!minter\");\n        require(ids.length == amounts.length, \"ERC1155: ids and amounts length mismatch\");\n\n        for (uint256 i = 0; i < ids.length; i++) {\n            uint256 id = ids[i];\n            uint256 amount = amounts[i];\n            Asset storage asset = assets[id];\n            require(asset.maxMinting > 0);\n            require(asset.currMinting.add(amount) <= asset.maxMinting, \"Exceed max minting allowed\");\n            asset.currMinting = asset.currMinting.add(amount); \n        }\n        _mintBatch( to,  ids,  amounts, data);\n    }\n\n    function addType(uint256 id, uint256 power, uint256 maxMinting) public onlyOwner {\n        Asset storage asset = assets[id];\n        asset.id = id;\n        asset.power = power;\n        //asset.currMinting = 0;\n        asset.maxMinting = maxMinting;\n    }\n    function getAssetInfo(uint256 _id) override external view returns(uint256, uint256, uint256, uint256){\n        return(assets[_id].id, assets[_id].power, assets[_id].currMinting, assets[_id].maxMinting);\n    }\n\n    function addMinter(address _minter) external onlyOwner {\n        _minters[_minter] = true;\n    }\n    \n    function removeMinter(address _minter) external onlyOwner {\n        _minters[_minter] = false;\n    }\n\n\n    function assetPowerBatch(uint256[] memory ids) override public view returns (uint256[] memory) {\n        uint256[] memory batch = new uint256[](ids.length);\n        for (uint256 i = 0; i < ids.length; ++i) {\n            batch[i] = assets[ids[i]].power;\n        }\n        return batch;\n    }\n    function assetCurrMintingBatch(uint256[] memory ids) override public view returns (uint256[] memory) {\n        uint256[] memory batch = new uint256[](ids.length);\n        for (uint256 i = 0; i < ids.length; ++i) {\n            batch[i] = assets[ids[i]].currMinting;\n        }\n        return batch;\n    }\n    function assetMaxMintingBatch(uint256[] memory ids) override public view returns (uint256[] memory) {\n        uint256[] memory batch = new uint256[](ids.length);\n        for (uint256 i = 0; i < ids.length; ++i) {\n            batch[i] = assets[ids[i]].maxMinting;\n        }\n        return batch;\n    }\n}",
  "sourcePath": "/Users/p489548/SmartContracts/FAMSystem/contracts/FAMAsset.sol",
  "compiler": {
    "name": "solc",
    "version": "0.8.4+commit.c7e474f2.Emscripten.clang"
  },
  "schemaVersion": "3.3.4",
  "updatedAt": "2021-05-12T16:27:38.459Z",
  "networkType": "ethereum",
  "devdoc": {
    "kind": "dev",
    "methods": {
      "balanceOf(address,uint256)": {
        "details": "See {IERC1155-balanceOf}. Requirements: - `account` cannot be the zero address."
      },
      "balanceOfBatch(address[],uint256[])": {
        "details": "See {IERC1155-balanceOfBatch}. Requirements: - `accounts` and `ids` must have the same length."
      },
      "isApprovedForAll(address,address)": {
        "details": "See {IERC1155-isApprovedForAll}."
      },
      "owner()": {
        "details": "Returns the address of the current owner."
      },
      "renounceOwnership()": {
        "details": "Leaves the contract without owner. It will not be possible to call `onlyOwner` functions anymore. Can only be called by the current owner. NOTE: Renouncing ownership will leave the contract without an owner, thereby removing any functionality that is only available to the owner."
      },
      "safeBatchTransferFrom(address,address,uint256[],uint256[],bytes)": {
        "details": "See {IERC1155-safeBatchTransferFrom}."
      },
      "safeTransferFrom(address,address,uint256,uint256,bytes)": {
        "details": "See {IERC1155-safeTransferFrom}."
      },
      "setApprovalForAll(address,bool)": {
        "details": "See {IERC1155-setApprovalForAll}."
      },
      "supportsInterface(bytes4)": {
        "details": "See {IERC165-supportsInterface}."
      },
      "transferOwnership(address)": {
        "details": "Transfers ownership of the contract to a new account (`newOwner`). Can only be called by the current owner."
      },
      "uri(uint256)": {
        "details": "See {IERC1155MetadataURI-uri}. This implementation returns the same URI for *all* token types. It relies on the token type ID substitution mechanism https://eips.ethereum.org/EIPS/eip-1155#metadata[defined in the EIP]. Clients calling this function must replace the `\\{id\\}` substring with the actual token type ID."
      }
    },
    "version": 1
  },
  "userdoc": {
    "kind": "user",
    "methods": {},
    "version": 1
  }
}