{
  "contractName": "IngotFarm",
  "abi": [
    {
      "inputs": [
        {
          "internalType": "contract IIngotToken",
          "name": "_token",
          "type": "address"
        },
        {
          "internalType": "contract IIngotNFT",
          "name": "_asset",
          "type": "address"
        }
      ],
      "stateMutability": "nonpayable",
      "type": "constructor"
    },
    {
      "anonymous": false,
      "inputs": [
        {
          "indexed": true,
          "internalType": "address",
          "name": "previousOwner",
          "type": "address"
        },
        {
          "indexed": true,
          "internalType": "address",
          "name": "newOwner",
          "type": "address"
        }
      ],
      "name": "OwnershipTransferred",
      "type": "event"
    },
    {
      "inputs": [],
      "name": "SAFE_MULTIPLIER",
      "outputs": [
        {
          "internalType": "uint256",
          "name": "",
          "type": "uint256"
        }
      ],
      "stateMutability": "view",
      "type": "function",
      "constant": true
    },
    {
      "inputs": [],
      "name": "asset",
      "outputs": [
        {
          "internalType": "contract IIngotNFT",
          "name": "",
          "type": "address"
        }
      ],
      "stateMutability": "view",
      "type": "function",
      "constant": true
    },
    {
      "inputs": [],
      "name": "owner",
      "outputs": [
        {
          "internalType": "address",
          "name": "",
          "type": "address"
        }
      ],
      "stateMutability": "view",
      "type": "function",
      "constant": true
    },
    {
      "inputs": [],
      "name": "renounceOwnership",
      "outputs": [],
      "stateMutability": "nonpayable",
      "type": "function"
    },
    {
      "inputs": [],
      "name": "rewardForBlock",
      "outputs": [
        {
          "internalType": "uint256",
          "name": "",
          "type": "uint256"
        }
      ],
      "stateMutability": "view",
      "type": "function",
      "constant": true
    },
    {
      "inputs": [],
      "name": "rewardInfo",
      "outputs": [
        {
          "internalType": "uint256",
          "name": "lastRewardBlock",
          "type": "uint256"
        },
        {
          "internalType": "uint256",
          "name": "accTokenPerShare",
          "type": "uint256"
        },
        {
          "internalType": "uint256",
          "name": "accShare",
          "type": "uint256"
        }
      ],
      "stateMutability": "view",
      "type": "function",
      "constant": true
    },
    {
      "inputs": [],
      "name": "startBlock",
      "outputs": [
        {
          "internalType": "uint256",
          "name": "",
          "type": "uint256"
        }
      ],
      "stateMutability": "view",
      "type": "function",
      "constant": true
    },
    {
      "inputs": [
        {
          "internalType": "bytes4",
          "name": "interfaceId",
          "type": "bytes4"
        }
      ],
      "name": "supportsInterface",
      "outputs": [
        {
          "internalType": "bool",
          "name": "",
          "type": "bool"
        }
      ],
      "stateMutability": "view",
      "type": "function",
      "constant": true
    },
    {
      "inputs": [],
      "name": "token",
      "outputs": [
        {
          "internalType": "contract IIngotToken",
          "name": "",
          "type": "address"
        }
      ],
      "stateMutability": "view",
      "type": "function",
      "constant": true
    },
    {
      "inputs": [
        {
          "internalType": "address",
          "name": "newOwner",
          "type": "address"
        }
      ],
      "name": "transferOwnership",
      "outputs": [],
      "stateMutability": "nonpayable",
      "type": "function"
    },
    {
      "inputs": [],
      "name": "pendingReward",
      "outputs": [
        {
          "internalType": "uint256",
          "name": "",
          "type": "uint256"
        }
      ],
      "stateMutability": "view",
      "type": "function",
      "constant": true
    },
    {
      "inputs": [],
      "name": "claim",
      "outputs": [],
      "stateMutability": "nonpayable",
      "type": "function"
    },
    {
      "inputs": [
        {
          "internalType": "uint256[]",
          "name": "_ids",
          "type": "uint256[]"
        },
        {
          "internalType": "uint256[]",
          "name": "_values",
          "type": "uint256[]"
        }
      ],
      "name": "retrieve",
      "outputs": [],
      "stateMutability": "nonpayable",
      "type": "function"
    },
    {
      "inputs": [],
      "name": "updatePool",
      "outputs": [],
      "stateMutability": "nonpayable",
      "type": "function"
    },
    {
      "inputs": [
        {
          "internalType": "address",
          "name": "addr",
          "type": "address"
        }
      ],
      "name": "getUserInfo",
      "outputs": [
        {
          "internalType": "uint256",
          "name": "",
          "type": "uint256"
        },
        {
          "internalType": "uint256",
          "name": "",
          "type": "uint256"
        },
        {
          "internalType": "uint256",
          "name": "",
          "type": "uint256"
        }
      ],
      "stateMutability": "view",
      "type": "function",
      "constant": true
    },
    {
      "inputs": [
        {
          "internalType": "address",
          "name": "addr",
          "type": "address"
        },
        {
          "internalType": "uint256",
          "name": "assetType",
          "type": "uint256"
        }
      ],
      "name": "getUserNumberAsset",
      "outputs": [
        {
          "internalType": "uint256",
          "name": "",
          "type": "uint256"
        }
      ],
      "stateMutability": "view",
      "type": "function",
      "constant": true
    },
    {
      "inputs": [
        {
          "internalType": "address",
          "name": "userAddress",
          "type": "address"
        }
      ],
      "name": "checkLengthSetKeys",
      "outputs": [
        {
          "internalType": "uint256",
          "name": "",
          "type": "uint256"
        }
      ],
      "stateMutability": "view",
      "type": "function",
      "constant": true
    },
    {
      "inputs": [
        {
          "internalType": "address",
          "name": "userAddress",
          "type": "address"
        },
        {
          "internalType": "uint256",
          "name": "i",
          "type": "uint256"
        }
      ],
      "name": "checkSetKeys",
      "outputs": [
        {
          "internalType": "uint256",
          "name": "",
          "type": "uint256"
        }
      ],
      "stateMutability": "view",
      "type": "function",
      "constant": true
    },
    {
      "inputs": [
        {
          "internalType": "address",
          "name": "_operator",
          "type": "address"
        },
        {
          "internalType": "address",
          "name": "_from",
          "type": "address"
        },
        {
          "internalType": "uint256",
          "name": "_id",
          "type": "uint256"
        },
        {
          "internalType": "uint256",
          "name": "_value",
          "type": "uint256"
        },
        {
          "internalType": "bytes",
          "name": "_data",
          "type": "bytes"
        }
      ],
      "name": "onERC1155Received",
      "outputs": [
        {
          "internalType": "bytes4",
          "name": "",
          "type": "bytes4"
        }
      ],
      "stateMutability": "nonpayable",
      "type": "function"
    },
    {
      "inputs": [
        {
          "internalType": "address",
          "name": "_operator",
          "type": "address"
        },
        {
          "internalType": "address",
          "name": "_from",
          "type": "address"
        },
        {
          "internalType": "uint256[]",
          "name": "_ids",
          "type": "uint256[]"
        },
        {
          "internalType": "uint256[]",
          "name": "_values",
          "type": "uint256[]"
        },
        {
          "internalType": "bytes",
          "name": "_data",
          "type": "bytes"
        }
      ],
      "name": "onERC1155BatchReceived",
      "outputs": [
        {
          "internalType": "bytes4",
          "name": "",
          "type": "bytes4"
        }
      ],
      "stateMutability": "nonpayable",
      "type": "function"
    },
    {
      "inputs": [
        {
          "internalType": "uint256",
          "name": "_tokenPerBlock",
          "type": "uint256"
        }
      ],
      "name": "setRewardPerBlock",
      "outputs": [],
      "stateMutability": "nonpayable",
      "type": "function"
    }
  ],
  "bytecode": "0x608060405262000019670de0b6b3a764000060286200012e565b6008553480156200002957600080fd5b50604051620019a1380380620019a18339810160408190526200004c91620000f0565b6001600081815581546001600160a01b031916339081179092556040518291907f8be0079c531659141344cd1fd0a4f28419497f9722a3daafe3b4186f6b6457e0908290a350600280546001600160a01b039384166001600160a01b03199182161790915560038054929093169116179055604080516060810182524380825260006020830181905291909201819052600591909155600681905560075562000173565b6000806040838503121562000103578182fd5b825162000110816200015a565b602084015190925062000123816200015a565b809150509250929050565b60008160001904831182151516156200015557634e487b7160e01b81526011600452602481fd5b500290565b6001600160a01b03811681146200017057600080fd5b50565b61181e80620001836000396000f3fe608060405234801561001057600080fd5b50600436106101375760003560e01c80638da5cb5b116100b8578063e3161ddd1161007c578063e3161ddd146102db578063e5969b26146102e3578063ee9c746f146102f6578063f23a6e6114610309578063f2fde38b1461031c578063fc0c546a1461032f57600080fd5b80638da5cb5b1461026a578063bb872b4a1461027b578063bc197c811461028e578063c9f67072146102ba578063dc7e0ce8146102cc57600080fd5b806348cd4cb1116100ff57806348cd4cb1146101f25780634e71d92d146101fb5780636386c1c714610205578063715018a614610259578063804a5b4d1461026157600080fd5b806301ffc9a71461013c578063137ee36e1461016457806316897eaa1461017a57806324cfe7d71461018d57806338d52e0f146101c7575b600080fd5b61014f61014a36600461153e565b610342565b60405190151581526020015b60405180910390f35b61016c610379565b60405190815260200161015b565b61016c61018836600461136d565b610483565b61016c61019b3660046114b4565b6001600160a01b0391909116600090815260096020908152604080832093835260029093019052205490565b6003546101da906001600160a01b031681565b6040516001600160a01b03909116815260200161015b565b61016c60045481565b6102036104a4565b005b61023e61021336600461136d565b6001600160a01b03166000908152600960205260409020600381015460048201546005909201549092565b6040805193845260208401929092529082015260600161015b565b610203610644565b61016c60085481565b6001546001600160a01b03166101da565b610203610289366004611566565b6106b8565b6102a161029c366004611387565b6106e7565b6040516001600160e01b0319909116815260200161015b565b60055460065460075461023e92919083565b61016c670de0b6b3a764000081565b6102036108e8565b61016c6102f13660046114b4565b610942565b6102036103043660046114dd565b61096b565b6102a161031736600461143e565b610c32565b61020361032a36600461136d565b610d74565b6002546101da906001600160a01b031681565b60006001600160e01b03198216630271189760e51b148061037357506301ffc9a760e01b6001600160e01b03198316145b92915050565b3360009081526009602052604081206007546103b45760048101546103ae906103a390600a610e5f565b600483015490610e6b565b91505090565b6008546005546000916103d2916103cc904390610e6b565b90610e77565b600754909150600090610404906103fb906103f585670de0b6b3a7640000610e77565b90610e5f565b60065490610e83565b9050600061042b670de0b6b3a76400006103f5848760030154610e7790919063ffffffff16565b90506000610446856005015483610e6b90919063ffffffff16565b90506000610461828760040154610e8390919063ffffffff16565b905061047861047182600a610e5f565b8290610e6b565b965050505050505090565b6001600160a01b038116600090815260096020526040812061037390610e8f565b600260005414156104d05760405162461bcd60e51b81526004016104c7906116fc565b60405180910390fd5b600260009081553381526009602052604090206104eb6108e8565b6104f481610e99565b600654600382015461051391670de0b6b3a7640000916103f591610e77565b60058201556004810154801561063b5760006004830181905561053782600a610e5f565b6002549091506001600160a01b03166340c10f1961055d6001546001600160a01b031690565b6040516001600160e01b031960e084901b1681526001600160a01b03909116600482015260248101849052604401600060405180830381600087803b1580156105a557600080fd5b505af11580156105b9573d6000803e3d6000fd5b50506002546001600160a01b031691506340c10f199050336105db8585610e6b565b6040516001600160e01b031960e085901b1681526001600160a01b0390921660048301526024820152604401600060405180830381600087803b15801561062157600080fd5b505af1158015610635573d6000803e3d6000fd5b50505050505b50506001600055565b6001546001600160a01b0316331461066e5760405162461bcd60e51b81526004016104c7906116c7565b6001546040516000916001600160a01b0316907f8be0079c531659141344cd1fd0a4f28419497f9722a3daafe3b4186f6b6457e0908390a3600180546001600160a01b0319169055565b6001546001600160a01b031633146106e25760405162461bcd60e51b81526004016104c7906116c7565b600855565b60006002600054141561070c5760405162461bcd60e51b81526004016104c7906116fc565b60026000556003546001600160a01b0316331461073b5760405162461bcd60e51b81526004016104c790611645565b8584146107815760405162461bcd60e51b81526020600482015260146024820152734172726179206d75737420626520657175616c2160601b60448201526064016104c7565b6001600160a01b0388166000908152600960205260408120905b8781101561084f5760008989838181106107c557634e487b7160e01b600052603260045260246000fd5b9050602002013590506108118888848181106107f157634e487b7160e01b600052603260045260246000fd5b600085815260028801602090815260409091205493910201359050610e83565b600082815260028501602052604090205561082c8382610f05565b61083c5761083a8382610f1d565b505b5080610847816117a1565b91505061079b565b50600381015461085d6108e8565b61086682610e99565b61086f82610f29565b600654600383015461088e91670de0b6b3a7640000916103f591610e77565b600583015560038201546007546108b09183916108aa91610e83565b90610e6b565b60075550506001600055507fbc197c819b3e337a6f9652dd10becd7eef83032af3b9d958d3d42f669414662198975050505050505050565b60055443116108f357565b6007546109005743600555565b600854600554600091610918916103cc904390610e6b565b600754909150610938906103fb906103f584670de0b6b3a7640000610e77565b6006555043600555565b6001600160a01b03821660009081526009602052604081206109649083611017565b9392505050565b6002600054141561098e5760405162461bcd60e51b81526004016104c7906116fc565b600260005581516109b15760405162461bcd60e51b81526004016104c790611697565b60008151116109d25760405162461bcd60e51b81526004016104c790611697565b80518251146109f35760405162461bcd60e51b81526004016104c790611697565b336000908152600960205260408120905b8351811015610b61576000848281518110610a2f57634e487b7160e01b600052603260045260246000fd5b602002602001015190506000848381518110610a5b57634e487b7160e01b600052603260045260246000fd5b602002602001015111610a805760405162461bcd60e51b81526004016104c790611697565b838281518110610aa057634e487b7160e01b600052603260045260246000fd5b6020026020010151836002016000838152602001908152602001600020541015610adc5760405162461bcd60e51b81526004016104c790611697565b610b2b848381518110610aff57634e487b7160e01b600052603260045260246000fd5b602002602001015184600201600084815260200190815260200160002054610e6b90919063ffffffff16565b60008281526002850160205260409020819055610b4e57610b4c8382611023565b505b5080610b59816117a1565b915050610a04565b506003810154610b6f6108e8565b610b7882610e99565b610b8182610f29565b6006546003830154610ba091670de0b6b3a7640000916103f591610e77565b60058301556003820154600754610bbc9183916108aa91610e83565b600755600354604051631759616b60e11b81526001600160a01b0390911690632eb2c2d690610bf59030903390899089906004016115ed565b600060405180830381600087803b158015610c0f57600080fd5b505af1158015610c23573d6000803e3d6000fd5b50506001600055505050505050565b600060026000541415610c575760405162461bcd60e51b81526004016104c7906116fc565b60026000556003546001600160a01b03163314610c865760405162461bcd60e51b81526004016104c790611645565b6001600160a01b03861660009081526009602090815260408083208884526002810190925290912054610cb99086610e83565b6000878152600283016020526040902055610cd48187610f05565b610ce457610ce28187610f1d565b505b6003810154610cf16108e8565b610cfa82610e99565b610d0382610f29565b6006546003830154610d2291670de0b6b3a7640000916103f591610e77565b60058301556003820154600754610d3e9183916108aa91610e83565b60075550506001600055507ff23a6e612e1ff4830e658fe43f4e3cb4a5f8170bd5d9e69fb5d7a7fa9e4fdf979695505050505050565b6001546001600160a01b03163314610d9e5760405162461bcd60e51b81526004016104c7906116c7565b6001600160a01b038116610e035760405162461bcd60e51b815260206004820152602660248201527f4f776e61626c653a206e6577206f776e657220697320746865207a65726f206160448201526564647265737360d01b60648201526084016104c7565b6001546040516001600160a01b038084169216907f8be0079c531659141344cd1fd0a4f28419497f9722a3daafe3b4186f6b6457e090600090a3600180546001600160a01b0319166001600160a01b0392909216919091179055565b6000610964828461174b565b6000610964828461178a565b6000610964828461176b565b60006109648284611733565b6000610373825490565b600381015415610f02576000610ecd670de0b6b3a76400006103f56005600101548560030154610e7790919063ffffffff16565b90506000610ee8836005015483610e6b90919063ffffffff16565b6004840154909150610efa9082610e83565b600484015550505b50565b60008181526001830160205260408120541515610964565b6000610964838361102f565b6000805b610f3683610e8f565b81101561100e576000610f498483611017565b600354604051630f637d9560e41b8152600481018390529192506000916001600160a01b039091169063f637d9509060240160806040518083038186803b158015610f9357600080fd5b505afa158015610fa7573d6000803e3d6000fd5b505050506040513d601f19601f82011682018060405250810190610fcb919061157e565b50506000848152600288016020526040902054909250610ff79150610ff09083610e77565b8590610e83565b935050508080611006906117a1565b915050610f2d565b50600390910155565b6000610964838361107e565b60006109648383611112565b600081815260018301602052604081205461107657508154600181810184556000848152602080822090930184905584548482528286019093526040902091909155610373565b506000610373565b815460009082106110dc5760405162461bcd60e51b815260206004820152602260248201527f456e756d657261626c655365743a20696e646578206f7574206f6620626f756e604482015261647360f01b60648201526084016104c7565b8260000182815481106110ff57634e487b7160e01b600052603260045260246000fd5b9060005260206000200154905092915050565b6000818152600183016020526040812054801561121f57600061113660018361178a565b855490915060009061114a9060019061178a565b9050600086600001828154811061117157634e487b7160e01b600052603260045260246000fd5b90600052602060002001549050808760000184815481106111a257634e487b7160e01b600052603260045260246000fd5b6000918252602080832090910192909255828152600189019091526040902084905586548790806111e357634e487b7160e01b600052603160045260246000fd5b60019003818190600052602060002001600090559055866001016000878152602001908152602001600020600090556001945050505050610373565b6000915050610373565b80356001600160a01b038116811461124057600080fd5b919050565b60008083601f840112611256578081fd5b50813567ffffffffffffffff81111561126d578182fd5b6020830191508360208260051b850101111561128857600080fd5b9250929050565b600082601f83011261129f578081fd5b8135602067ffffffffffffffff808311156112bc576112bc6117d2565b8260051b604051601f19603f830116810181811084821117156112e1576112e16117d2565b604052848152838101925086840182880185018910156112ff578687fd5b8692505b85831015611321578035845292840192600192909201918401611303565b50979650505050505050565b60008083601f84011261133e578182fd5b50813567ffffffffffffffff811115611355578182fd5b60208301915083602082850101111561128857600080fd5b60006020828403121561137e578081fd5b61096482611229565b60008060008060008060008060a0898b0312156113a2578384fd5b6113ab89611229565b97506113b960208a01611229565b9650604089013567ffffffffffffffff808211156113d5578586fd5b6113e18c838d01611245565b909850965060608b01359150808211156113f9578586fd5b6114058c838d01611245565b909650945060808b013591508082111561141d578384fd5b5061142a8b828c0161132d565b999c989b5096995094979396929594505050565b60008060008060008060a08789031215611456578182fd5b61145f87611229565b955061146d60208801611229565b94506040870135935060608701359250608087013567ffffffffffffffff811115611496578283fd5b6114a289828a0161132d565b979a9699509497509295939492505050565b600080604083850312156114c6578182fd5b6114cf83611229565b946020939093013593505050565b600080604083850312156114ef578182fd5b823567ffffffffffffffff80821115611506578384fd5b6115128683870161128f565b93506020850135915080821115611527578283fd5b506115348582860161128f565b9150509250929050565b60006020828403121561154f578081fd5b81356001600160e01b031981168114610964578182fd5b600060208284031215611577578081fd5b5035919050565b60008060008060808587031215611593578384fd5b505082516020840151604085015160609095015191969095509092509050565b6000815180845260208085019450808401835b838110156115e2578151875295820195908201906001016115c6565b509495945050505050565b6001600160a01b0385811682528416602082015260a060408201819052600090611619908301856115b3565b828103606084015261162b81856115b3565b838103608090940193909352508152602001949350505050565b60208082526032908201527f506f6f6c3a2072656365697665642041737365742066726f6d20756e61757468604082015271195b9d1a58d85d19590818dbdb9d1c9858dd60721b606082015260800190565b602080825260169082015275141bdbdb0e881a5b9d985b1a5908185c99dd5b595b9d60521b604082015260600190565b6020808252818101527f4f776e61626c653a2063616c6c6572206973206e6f7420746865206f776e6572604082015260600190565b6020808252601f908201527f5265656e7472616e637947756172643a207265656e7472616e742063616c6c00604082015260600190565b60008219821115611746576117466117bc565b500190565b60008261176657634e487b7160e01b81526012600452602481fd5b500490565b6000816000190483118215151615611785576117856117bc565b500290565b60008282101561179c5761179c6117bc565b500390565b60006000198214156117b5576117b56117bc565b5060010190565b634e487b7160e01b600052601160045260246000fd5b634e487b7160e01b600052604160045260246000fdfea2646970667358221220055a304e63191d26dc41a8f0b07b3844f1825c6b8a424b758f690a7ff4bcc34e64736f6c63430008040033",
  "immutableReferences": {},
  "source": "pragma solidity ^0.8.0;\n\nimport \"@openzeppelin/contracts/token/ERC20/IERC20.sol\";\nimport \"@openzeppelin/contracts/token/ERC1155/utils/ERC1155Receiver.sol\";\nimport \"@openzeppelin/contracts/token/ERC20/utils/SafeERC20.sol\";\nimport \"@openzeppelin/contracts/utils/structs/EnumerableSet.sol\";\nimport \"@openzeppelin/contracts/security/ReentrancyGuard.sol\";\nimport \"@openzeppelin/contracts/utils/math/SafeMath.sol\";\nimport \"@openzeppelin/contracts/access/Ownable.sol\";\n\nimport \"./interfaces/IIngotToken.sol\";\nimport \"./interfaces/IIngotNFT.sol\";\n\ncontract IngotFarm is ERC1155Receiver, ReentrancyGuard, Ownable{\n    using SafeMath for uint256;\n    using SafeERC20 for IERC20;\n    using EnumerableSet for EnumerableSet.UintSet;\n\n    struct UserInfo {\n        EnumerableSet.UintSet keys;\n        mapping(uint256 => uint256) values;\n\n        uint256 totalPower;\n        uint256 pendingReward;\n        uint256 rewardDebt;\n    }\n\n    // Info of Reward.\n    struct RewardInfo {\n        // Last block number that INGOTs distribution occurs.\n        uint256 lastRewardBlock;\n        // Accumulated INGOTs per share.\n        uint256 accTokenPerShare;\n        // Accumulated Share\n        uint256 accShare;\n    }\n\n    IIngotToken public token;\n    IIngotNFT public asset;\n\n    uint256 public startBlock;\n    \n    uint256 public constant SAFE_MULTIPLIER = 1e18;\n    \n    // farm pool info\n    RewardInfo public rewardInfo;\n    uint256 public rewardForBlock = 40 * SAFE_MULTIPLIER;\n\n    mapping(address => UserInfo) private userInfo;\n\n    constructor(IIngotToken _token, IIngotNFT _asset) public {\n        token = _token;\n        asset = _asset;\n\n        rewardInfo = RewardInfo({\n            lastRewardBlock: block.number,\n            accTokenPerShare: 0,\n            accShare: 0\n        });\n    }\n\n    /* ========== PUBLIC ========== */\n\n    function pendingReward() external view returns(uint256){\n        UserInfo storage user = userInfo[msg.sender];\n        if(rewardInfo.accShare == 0){\n            return user.pendingReward.sub(user.pendingReward.div(10));\n        }\n        uint256 reward = (block.number.sub(rewardInfo.lastRewardBlock)).mul(rewardForBlock);\n        uint256 accTokenPerShare = rewardInfo.accTokenPerShare.add(\n            reward.mul(SAFE_MULTIPLIER).div(rewardInfo.accShare));\n        uint256 totalReward = user.totalPower.mul(accTokenPerShare).div(SAFE_MULTIPLIER);\n        uint256 pending = totalReward.sub(user.rewardDebt);\n        uint256 accPendingReward = user.pendingReward.add(pending);\n\n        return accPendingReward.sub(accPendingReward.div(10));\n    }\n\n    function claim() public nonReentrant {\n        UserInfo storage user = userInfo[msg.sender];\n        updatePool();\n        _updateUserReward(user);\n        user.rewardDebt = user.totalPower.mul(rewardInfo.accTokenPerShare).div(SAFE_MULTIPLIER);\n        uint256 pendingReward = user.pendingReward;\n        if(pendingReward > 0){\n            user.pendingReward = 0;\n            uint256 devReward = pendingReward.div(10);\n            token.mint(owner(), devReward);\n            token.mint(msg.sender, pendingReward.sub(devReward));\n        }\n    }\n\n    function retrieve(uint256[] memory _ids, uint256[] memory _values) public nonReentrant {\n        require(_ids.length > 0, \"Pool: invalid argument\");\n        require(_values.length > 0, \"Pool: invalid argument\");\n        require(_ids.length == _values.length, \"Pool: invalid argument\");\n\n        UserInfo storage user = userInfo[msg.sender];\n        for (uint256 i = 0; i < _ids.length; i++) {\n            uint256 id = _ids[i];\n            require(_values[i]> 0 , \"Pool: invalid argument\");\n            require(user.values[id] >= _values[i] , \"Pool: invalid argument\");\n            \n            user.values[id] = user.values[id].sub(_values[i]);\n            \n            if(user.values[id] == 0){\n                user.keys.remove(id);\n            }            \n        }\n        uint256 oldPower = user.totalPower;\n        updatePool();\n        _updateUserReward(user);\n        _updateUserPower(user);\n        user.rewardDebt = user.totalPower.mul(rewardInfo.accTokenPerShare).div(SAFE_MULTIPLIER);\n        rewardInfo.accShare = rewardInfo.accShare.add(user.totalPower).sub(oldPower);\n\n        asset.safeBatchTransferFrom(address(this), msg.sender, _ids, _values, \"\");\n\n    }\n\n    function updatePool() public {\n        if (block.number <= rewardInfo.lastRewardBlock) {\n            return;\n        }\n\n        if (rewardInfo.accShare == 0) {\n            rewardInfo.lastRewardBlock = block.number;\n            return;\n        }\n\n        uint256 reward = (block.number.sub(rewardInfo.lastRewardBlock)).mul(rewardForBlock);\n\n        rewardInfo.accTokenPerShare = rewardInfo.accTokenPerShare.add(\n            reward.mul(SAFE_MULTIPLIER).div(rewardInfo.accShare)\n        );\n\n        rewardInfo.lastRewardBlock = block.number;\n    }\n\n    function getUserInfo(address addr) public view returns(uint256, uint256, uint256){\n        return(userInfo[addr].totalPower, userInfo[addr].pendingReward, userInfo[addr].rewardDebt );\n    }\n\n    function getUserNumberAsset(address addr, uint256 assetType) public view returns(uint256){\n        return userInfo[addr].values[assetType];\n    }\n\n    function checkLengthSetKeys(address userAddress) external view returns(uint256){\n        return userInfo[userAddress].keys.length();\n    }\n\n    function checkSetKeys(address userAddress, uint256 i) external view returns(uint256){\n        return userInfo[userAddress].keys.at(i); \n    }\n\n    /* ========== ERC1155Receiver ========== */\n\n    function onERC1155Received(address _operator, address _from, uint256 _id, uint256 _value, bytes calldata _data)\n    external override nonReentrant fromAssetAddress returns (bytes4) {\n        \n        UserInfo storage user = userInfo[_from];\n        \n        user.values[_id] = user.values[_id].add(_value);\n\n        if(!user.keys.contains(_id)){\n            user.keys.add(_id);\n        }\n        \n        uint256 oldPower = user.totalPower;\n        updatePool();\n        _updateUserReward(user);\n        _updateUserPower(user);\n        user.rewardDebt = user.totalPower.mul(rewardInfo.accTokenPerShare).div(SAFE_MULTIPLIER);\n        rewardInfo.accShare = rewardInfo.accShare.add(user.totalPower).sub(oldPower);\n\n\n        return\n            bytes4(\n                keccak256(\n                    \"onERC1155Received(address,address,uint256,uint256,bytes)\"\n                )\n            );\n            \n    }\n\n    function onERC1155BatchReceived(address _operator, address _from, uint256[] calldata _ids, uint256[] calldata _values, bytes calldata _data)\n    external override nonReentrant fromAssetAddress returns (bytes4) {\n        require(_ids.length == _values.length, \"Array must be equal!\");\n        \n        UserInfo storage user = userInfo[_from];\n\n        for (uint256 i = 0; i < _ids.length; i++) {\n            uint256 id = _ids[i];\n            user.values[id] = user.values[id].add(_values[i]);\n            if(!user.keys.contains(id)){\n                user.keys.add(id);\n            }\n        }\n        \n        uint256 oldPower = user.totalPower;\n        updatePool();\n        _updateUserReward(user);\n        _updateUserPower(user);\n        user.rewardDebt = user.totalPower.mul(rewardInfo.accTokenPerShare).div(SAFE_MULTIPLIER);\n        rewardInfo.accShare = rewardInfo.accShare.add(user.totalPower).sub(oldPower);\n\n         return\n            bytes4(\n                keccak256(\n                    \"onERC1155BatchReceived(address,address,uint256[],uint256[],bytes)\"\n                )\n            );\n    }\n\n    /* ========== PRIVATE ========== */\n\n    function _updateUserPower(UserInfo storage _user) private\n    {\n        uint256 totalPower = 0;\n        for (uint256 i = 0; i < _user.keys.length(); i++) {\n            uint256 id = _user.keys.at(i);\n            (, uint256 _power, ,) = asset.getAssetInfo(id);\n            \n            totalPower = totalPower.add(_user.values[id].mul(_power));\n        }\n\n        _user.totalPower = totalPower;\n    }\n\n\n    function _updateUserReward(UserInfo storage user) private{\n        if(user.totalPower > 0){\n            uint256 totalReward = user.totalPower.mul(rewardInfo.accTokenPerShare).div(SAFE_MULTIPLIER);\n            uint256 pending = totalReward.sub(user.rewardDebt);\n            user.pendingReward = user.pendingReward.add(pending);\n        }       \n    }\n\n    /* ========== OWNER ONLY FUNCTIONS ========== */\n\n    function setRewardPerBlock(uint256 _tokenPerBlock) external onlyOwner {\n        rewardForBlock = _tokenPerBlock;\n    }\n\n    /* ========== MODIFIER ========== */\n\n    modifier fromAssetAddress() {\n        require(\n            msg.sender == address(asset),\n            \"Pool: received Asset from unauthenticated contract\"\n        );\n        _;\n    }\n\n}",
  "sourcePath": "/Users/p489548/SmartContracts/Ingot Farming Project/ingot-contracts/contracts/IngotFarm.sol",
  "compiler": {
    "name": "solc",
    "version": "0.8.4+commit.c7e474f2.Emscripten.clang"
  },
  "schemaVersion": "3.3.4",
  "updatedAt": "2021-06-06T10:43:13.070Z",
  "networkType": "ethereum",
  "devdoc": {
    "kind": "dev",
    "methods": {
      "owner()": {
        "details": "Returns the address of the current owner."
      },
      "renounceOwnership()": {
        "details": "Leaves the contract without owner. It will not be possible to call `onlyOwner` functions anymore. Can only be called by the current owner. NOTE: Renouncing ownership will leave the contract without an owner, thereby removing any functionality that is only available to the owner."
      },
      "supportsInterface(bytes4)": {
        "details": "See {IERC165-supportsInterface}."
      },
      "transferOwnership(address)": {
        "details": "Transfers ownership of the contract to a new account (`newOwner`). Can only be called by the current owner."
      }
    },
    "version": 1
  },
  "userdoc": {
    "kind": "user",
    "methods": {},
    "version": 1
  }
}