{
  "contractName": "IngotNFT",
  "abi": [
    {
      "inputs": [],
      "stateMutability": "nonpayable",
      "type": "constructor"
    },
    {
      "anonymous": false,
      "inputs": [
        {
          "indexed": true,
          "internalType": "address",
          "name": "account",
          "type": "address"
        },
        {
          "indexed": true,
          "internalType": "address",
          "name": "operator",
          "type": "address"
        },
        {
          "indexed": false,
          "internalType": "bool",
          "name": "approved",
          "type": "bool"
        }
      ],
      "name": "ApprovalForAll",
      "type": "event"
    },
    {
      "anonymous": false,
      "inputs": [
        {
          "indexed": true,
          "internalType": "address",
          "name": "previousOwner",
          "type": "address"
        },
        {
          "indexed": true,
          "internalType": "address",
          "name": "newOwner",
          "type": "address"
        }
      ],
      "name": "OwnershipTransferred",
      "type": "event"
    },
    {
      "anonymous": false,
      "inputs": [
        {
          "indexed": true,
          "internalType": "address",
          "name": "operator",
          "type": "address"
        },
        {
          "indexed": true,
          "internalType": "address",
          "name": "from",
          "type": "address"
        },
        {
          "indexed": true,
          "internalType": "address",
          "name": "to",
          "type": "address"
        },
        {
          "indexed": false,
          "internalType": "uint256[]",
          "name": "ids",
          "type": "uint256[]"
        },
        {
          "indexed": false,
          "internalType": "uint256[]",
          "name": "values",
          "type": "uint256[]"
        }
      ],
      "name": "TransferBatch",
      "type": "event"
    },
    {
      "anonymous": false,
      "inputs": [
        {
          "indexed": true,
          "internalType": "address",
          "name": "operator",
          "type": "address"
        },
        {
          "indexed": true,
          "internalType": "address",
          "name": "from",
          "type": "address"
        },
        {
          "indexed": true,
          "internalType": "address",
          "name": "to",
          "type": "address"
        },
        {
          "indexed": false,
          "internalType": "uint256",
          "name": "id",
          "type": "uint256"
        },
        {
          "indexed": false,
          "internalType": "uint256",
          "name": "value",
          "type": "uint256"
        }
      ],
      "name": "TransferSingle",
      "type": "event"
    },
    {
      "anonymous": false,
      "inputs": [
        {
          "indexed": false,
          "internalType": "string",
          "name": "value",
          "type": "string"
        },
        {
          "indexed": true,
          "internalType": "uint256",
          "name": "id",
          "type": "uint256"
        }
      ],
      "name": "URI",
      "type": "event"
    },
    {
      "inputs": [
        {
          "internalType": "address",
          "name": "",
          "type": "address"
        }
      ],
      "name": "_minters",
      "outputs": [
        {
          "internalType": "bool",
          "name": "",
          "type": "bool"
        }
      ],
      "stateMutability": "view",
      "type": "function",
      "constant": true
    },
    {
      "inputs": [
        {
          "internalType": "uint256",
          "name": "",
          "type": "uint256"
        }
      ],
      "name": "assets",
      "outputs": [
        {
          "internalType": "uint256",
          "name": "id",
          "type": "uint256"
        },
        {
          "internalType": "uint256",
          "name": "power",
          "type": "uint256"
        },
        {
          "internalType": "uint256",
          "name": "currMinting",
          "type": "uint256"
        },
        {
          "internalType": "uint256",
          "name": "maxMinting",
          "type": "uint256"
        }
      ],
      "stateMutability": "view",
      "type": "function",
      "constant": true
    },
    {
      "inputs": [
        {
          "internalType": "address",
          "name": "account",
          "type": "address"
        },
        {
          "internalType": "uint256",
          "name": "id",
          "type": "uint256"
        }
      ],
      "name": "balanceOf",
      "outputs": [
        {
          "internalType": "uint256",
          "name": "",
          "type": "uint256"
        }
      ],
      "stateMutability": "view",
      "type": "function",
      "constant": true
    },
    {
      "inputs": [
        {
          "internalType": "address[]",
          "name": "accounts",
          "type": "address[]"
        },
        {
          "internalType": "uint256[]",
          "name": "ids",
          "type": "uint256[]"
        }
      ],
      "name": "balanceOfBatch",
      "outputs": [
        {
          "internalType": "uint256[]",
          "name": "",
          "type": "uint256[]"
        }
      ],
      "stateMutability": "view",
      "type": "function",
      "constant": true
    },
    {
      "inputs": [
        {
          "internalType": "address",
          "name": "account",
          "type": "address"
        },
        {
          "internalType": "address",
          "name": "operator",
          "type": "address"
        }
      ],
      "name": "isApprovedForAll",
      "outputs": [
        {
          "internalType": "bool",
          "name": "",
          "type": "bool"
        }
      ],
      "stateMutability": "view",
      "type": "function",
      "constant": true
    },
    {
      "inputs": [],
      "name": "owner",
      "outputs": [
        {
          "internalType": "address",
          "name": "",
          "type": "address"
        }
      ],
      "stateMutability": "view",
      "type": "function",
      "constant": true
    },
    {
      "inputs": [],
      "name": "renounceOwnership",
      "outputs": [],
      "stateMutability": "nonpayable",
      "type": "function"
    },
    {
      "inputs": [
        {
          "internalType": "address",
          "name": "from",
          "type": "address"
        },
        {
          "internalType": "address",
          "name": "to",
          "type": "address"
        },
        {
          "internalType": "uint256[]",
          "name": "ids",
          "type": "uint256[]"
        },
        {
          "internalType": "uint256[]",
          "name": "amounts",
          "type": "uint256[]"
        },
        {
          "internalType": "bytes",
          "name": "data",
          "type": "bytes"
        }
      ],
      "name": "safeBatchTransferFrom",
      "outputs": [],
      "stateMutability": "nonpayable",
      "type": "function"
    },
    {
      "inputs": [
        {
          "internalType": "address",
          "name": "from",
          "type": "address"
        },
        {
          "internalType": "address",
          "name": "to",
          "type": "address"
        },
        {
          "internalType": "uint256",
          "name": "id",
          "type": "uint256"
        },
        {
          "internalType": "uint256",
          "name": "amount",
          "type": "uint256"
        },
        {
          "internalType": "bytes",
          "name": "data",
          "type": "bytes"
        }
      ],
      "name": "safeTransferFrom",
      "outputs": [],
      "stateMutability": "nonpayable",
      "type": "function"
    },
    {
      "inputs": [
        {
          "internalType": "address",
          "name": "operator",
          "type": "address"
        },
        {
          "internalType": "bool",
          "name": "approved",
          "type": "bool"
        }
      ],
      "name": "setApprovalForAll",
      "outputs": [],
      "stateMutability": "nonpayable",
      "type": "function"
    },
    {
      "inputs": [
        {
          "internalType": "bytes4",
          "name": "interfaceId",
          "type": "bytes4"
        }
      ],
      "name": "supportsInterface",
      "outputs": [
        {
          "internalType": "bool",
          "name": "",
          "type": "bool"
        }
      ],
      "stateMutability": "view",
      "type": "function",
      "constant": true
    },
    {
      "inputs": [
        {
          "internalType": "address",
          "name": "newOwner",
          "type": "address"
        }
      ],
      "name": "transferOwnership",
      "outputs": [],
      "stateMutability": "nonpayable",
      "type": "function"
    },
    {
      "inputs": [
        {
          "internalType": "uint256",
          "name": "",
          "type": "uint256"
        }
      ],
      "name": "uri",
      "outputs": [
        {
          "internalType": "string",
          "name": "",
          "type": "string"
        }
      ],
      "stateMutability": "view",
      "type": "function",
      "constant": true
    },
    {
      "inputs": [
        {
          "internalType": "address",
          "name": "to",
          "type": "address"
        },
        {
          "internalType": "uint256",
          "name": "id",
          "type": "uint256"
        },
        {
          "internalType": "uint256",
          "name": "amount",
          "type": "uint256"
        },
        {
          "internalType": "bytes",
          "name": "data",
          "type": "bytes"
        }
      ],
      "name": "mint",
      "outputs": [],
      "stateMutability": "nonpayable",
      "type": "function"
    },
    {
      "inputs": [
        {
          "internalType": "address",
          "name": "to",
          "type": "address"
        },
        {
          "internalType": "uint256[]",
          "name": "ids",
          "type": "uint256[]"
        },
        {
          "internalType": "uint256[]",
          "name": "amounts",
          "type": "uint256[]"
        },
        {
          "internalType": "bytes",
          "name": "data",
          "type": "bytes"
        }
      ],
      "name": "mintBatch",
      "outputs": [],
      "stateMutability": "nonpayable",
      "type": "function"
    },
    {
      "inputs": [
        {
          "internalType": "uint256",
          "name": "id",
          "type": "uint256"
        },
        {
          "internalType": "uint256",
          "name": "power",
          "type": "uint256"
        },
        {
          "internalType": "uint256",
          "name": "maxMinting",
          "type": "uint256"
        }
      ],
      "name": "addType",
      "outputs": [],
      "stateMutability": "nonpayable",
      "type": "function"
    },
    {
      "inputs": [
        {
          "internalType": "uint256[]",
          "name": "ids",
          "type": "uint256[]"
        },
        {
          "internalType": "uint256[]",
          "name": "amounts",
          "type": "uint256[]"
        }
      ],
      "name": "burnAssetBatch",
      "outputs": [],
      "stateMutability": "nonpayable",
      "type": "function"
    },
    {
      "inputs": [
        {
          "internalType": "address",
          "name": "_minter",
          "type": "address"
        }
      ],
      "name": "addMinter",
      "outputs": [],
      "stateMutability": "nonpayable",
      "type": "function"
    },
    {
      "inputs": [
        {
          "internalType": "address",
          "name": "_minter",
          "type": "address"
        }
      ],
      "name": "removeMinter",
      "outputs": [],
      "stateMutability": "nonpayable",
      "type": "function"
    },
    {
      "inputs": [
        {
          "internalType": "uint256",
          "name": "_id",
          "type": "uint256"
        }
      ],
      "name": "getAssetInfo",
      "outputs": [
        {
          "internalType": "uint256",
          "name": "",
          "type": "uint256"
        },
        {
          "internalType": "uint256",
          "name": "",
          "type": "uint256"
        },
        {
          "internalType": "uint256",
          "name": "",
          "type": "uint256"
        },
        {
          "internalType": "uint256",
          "name": "",
          "type": "uint256"
        }
      ],
      "stateMutability": "view",
      "type": "function",
      "constant": true
    },
    {
      "inputs": [
        {
          "internalType": "uint256[]",
          "name": "ids",
          "type": "uint256[]"
        }
      ],
      "name": "assetPowerBatch",
      "outputs": [
        {
          "internalType": "uint256[]",
          "name": "",
          "type": "uint256[]"
        }
      ],
      "stateMutability": "view",
      "type": "function",
      "constant": true
    },
    {
      "inputs": [
        {
          "internalType": "uint256[]",
          "name": "ids",
          "type": "uint256[]"
        }
      ],
      "name": "assetCurrMintingBatch",
      "outputs": [
        {
          "internalType": "uint256[]",
          "name": "",
          "type": "uint256[]"
        }
      ],
      "stateMutability": "view",
      "type": "function",
      "constant": true
    },
    {
      "inputs": [
        {
          "internalType": "uint256[]",
          "name": "ids",
          "type": "uint256[]"
        }
      ],
      "name": "assetMaxMintingBatch",
      "outputs": [
        {
          "internalType": "uint256[]",
          "name": "",
          "type": "uint256[]"
        }
      ],
      "stateMutability": "view",
      "type": "function",
      "constant": true
    }
  ],
  "bytecode": "0x60806040523480156200001157600080fd5b506040805160208101909152600081526200002c816200015c565b50600380546001600160a01b0319163390811790915560405181906000907f8be0079c531659141344cd1fd0a4f28419497f9722a3daafe3b4186f6b6457e0908290a350336000908152600460205260408120805460ff191660011790556200009a90600a611b5862000175565b620000ab6001600e61153162000175565b620000bc6002601361106c62000175565b620000cd6003601a610cba62000175565b620000de600460236109dd62000175565b620000ef6005602f6107a562000175565b62000100600660416105ec62000175565b620001116007605761049762000175565b620001226008607661038e62000175565b62000133600960a06102c262000175565b62000144600a60d761022362000175565b62000156600b6101226101a862000175565b620002d8565b805162000171906002906020840190620001f5565b5050565b6003546001600160a01b03163314620001d45760405162461bcd60e51b815260206004820181905260248201527f4f776e61626c653a2063616c6c6572206973206e6f7420746865206f776e6572604482015260640160405180910390fd5b60008381526005602052604090209283556001830191909155600390910155565b82805462000203906200029b565b90600052602060002090601f01602090048101928262000227576000855562000272565b82601f106200024257805160ff191683800117855562000272565b8280016001018555821562000272579182015b828111156200027257825182559160200191906001019062000255565b506200028092915062000284565b5090565b5b8082111562000280576000815560010162000285565b600181811c90821680620002b057607f821691505b60208210811415620002d257634e487b7160e01b600052602260045260246000fd5b50919050565b61257980620002e86000396000f3fe608060405234801561001057600080fd5b506004361061014c5760003560e01c8063715018a6116100c3578063a22cb4651161007c578063a22cb465146102e0578063cf35bdd0146102f3578063e985e9c514610348578063f242432a14610384578063f2fde38b14610397578063f637d950146103aa57600080fd5b8063715018a614610271578063731133e9146102795780638248f4f51461028c5780638da5cb5b1461029f578063983b2d56146102ba5780639cfeb6d2146102cd57600080fd5b80632eb2c2d6116101155780632eb2c2d6146101e25780633092afd5146101f55780633575597d1461020857806340d7f55e1461022b5780634e1273f41461024b5780635aab152a1461025e57600080fd5b8062fdd58e1461015157806301ffc9a714610177578063062035521461019a5780630e89341c146101af5780631f7fdffa146101cf575b600080fd5b61016461015f366004611deb565b6103e0565b6040519081526020015b60405180910390f35b61018a610185366004611fc6565b610477565b604051901515815260200161016e565b6101ad6101a8366004611f7d565b6104c9565b005b6101c26101bd366004611ffe565b610624565b60405161016e91906121aa565b6101ad6101dd366004611d0b565b6106b8565b6101ad6101f0366004611c04565b6108e1565b6101ad610203366004611bb8565b610b67565b61018a610216366004611bb8565b60046020526000908152604090205460ff1681565b61023e610239366004611f43565b610bb2565b60405161016e9190612169565b61023e610259366004611e79565b610c95565b61023e61026c366004611f43565b610df6565b6101ad610ed2565b6101ad610287366004611e14565b610f46565b61023e61029a366004611f43565b611066565b6003546040516001600160a01b03909116815260200161016e565b6101ad6102c8366004611bb8565b611142565b6101ad6102db366004612016565b611190565b6101ad6102ee366004611db1565b6111db565b610328610301366004611ffe565b60056020526000908152604090208054600182015460028301546003909301549192909184565b60408051948552602085019390935291830152606082015260800161016e565b61018a610356366004611bd2565b6001600160a01b03918216600090815260016020908152604080832093909416825291909152205460ff1690565b6101ad610392366004611ca9565b6112b2565b6101ad6103a5366004611bb8565b611459565b6103286103b8366004611ffe565b6000908152600560205260409020805460018201546002830154600390930154919390929190565b60006001600160a01b0383166104515760405162461bcd60e51b815260206004820152602b60248201527f455243313135353a2062616c616e636520717565727920666f7220746865207a60448201526a65726f206164647265737360a81b60648201526084015b60405180910390fd5b506000908152602081815260408083206001600160a01b03949094168352929052205490565b60006001600160e01b03198216636cdb3d1360e11b14806104a857506001600160e01b031982166303a24d0760e21b145b806104c357506301ffc9a760e01b6001600160e01b03198316145b92915050565b6003546001600160a01b031633146104f35760405162461bcd60e51b815260040161044890612294565b60008251116105145760405162461bcd60e51b8152600401610448906122c9565b80518251146105355760405162461bcd60e51b8152600401610448906122c9565b60005b825181101561061f57600083828151811061056357634e487b7160e01b600052603260045260246000fd5b60200260200101519050600083838151811061058f57634e487b7160e01b600052603260045260246000fd5b60200260200101519050600060056000848152602001908152602001600020905060008160030154116105d45760405162461bcd60e51b8152600401610448906122c9565b816105e8576002810154600382015561060b565b6003810154610605906105fb9084611544565b8260020154611557565b60038201555b5050508061061890612442565b9050610538565b505050565b606060028054610633906123db565b80601f016020809104026020016040519081016040528092919081815260200182805461065f906123db565b80156106ac5780601f10610681576101008083540402835291602001916106ac565b820191906000526020600020905b81548152906001019060200180831161068f57829003601f168201915b50505050509050919050565b3360009081526004602052604090205460ff166107015760405162461bcd60e51b815260206004820152600760248201526610b6b4b73a32b960c91b6044820152606401610448565b8483146107205760405162461bcd60e51b815260040161044890612300565b60005b8581101561083557600087878381811061074d57634e487b7160e01b600052603260045260246000fd5b905060200201359050600086868481811061077857634e487b7160e01b600052603260045260246000fd5b905060200201359050600060056000848152602001908152602001600020905060008160030154116107a957600080fd5b600381015460028201546107bd908461156e565b111561080b5760405162461bcd60e51b815260206004820152601a60248201527f457863656564206d6178206d696e74696e6720616c6c6f7765640000000000006044820152606401610448565b600281015461081a908361156e565b6002909101555081905061082d81612442565b915050610723565b506108d88787878080602002602001604051908101604052809392919081815260200183836020028082843760009201919091525050604080516020808b0282810182019093528a82529093508a92508991829185019084908082843760009201919091525050604080516020601f8a01819004810282018101909252888152925088915087908190840183828082843760009201919091525061157a92505050565b50505050505050565b81518351146109025760405162461bcd60e51b815260040161044890612300565b6001600160a01b0384166109285760405162461bcd60e51b815260040161044890612205565b6001600160a01b03851633148061094457506109448533610356565b6109ab5760405162461bcd60e51b815260206004820152603260248201527f455243313135353a207472616e736665722063616c6c6572206973206e6f74206044820152711bdddb995c881b9bdc88185c1c1c9bdd995960721b6064820152608401610448565b3360005b8451811015610af95760008582815181106109da57634e487b7160e01b600052603260045260246000fd5b602002602001015190506000858381518110610a0657634e487b7160e01b600052603260045260246000fd5b602090810291909101810151600084815280835260408082206001600160a01b038e168352909352919091205490915081811015610a565760405162461bcd60e51b81526004016104489061224a565b610a6082826123c4565b60008085815260200190815260200160002060008c6001600160a01b03166001600160a01b03168152602001908152602001600020819055508160008085815260200190815260200160002060008b6001600160a01b03166001600160a01b031681526020019081526020016000206000828254610ade91906123ac565b9250508190555050505080610af290612442565b90506109af565b50846001600160a01b0316866001600160a01b0316826001600160a01b03167f4a39dc06d4c0dbc64b70af90fd698a233a518aa5d07e595d983b8c0526c8f7fb8787604051610b4992919061217c565b60405180910390a4610b5f8187878787876116dd565b505050505050565b6003546001600160a01b03163314610b915760405162461bcd60e51b815260040161044890612294565b6001600160a01b03166000908152600460205260409020805460ff19169055565b6060600082516001600160401b03811115610bdd57634e487b7160e01b600052604160045260246000fd5b604051908082528060200260200182016040528015610c06578160200160208202803683370190505b50905060005b8351811015610c8e5760056000858381518110610c3957634e487b7160e01b600052603260045260246000fd5b6020026020010151815260200190815260200160002060010154828281518110610c7357634e487b7160e01b600052603260045260246000fd5b6020908102919091010152610c8781612442565b9050610c0c565b5092915050565b60608151835114610cfa5760405162461bcd60e51b815260206004820152602960248201527f455243313135353a206163636f756e747320616e6420696473206c656e677468604482015268040dad2e6dac2e8c6d60bb1b6064820152608401610448565b600083516001600160401b03811115610d2357634e487b7160e01b600052604160045260246000fd5b604051908082528060200260200182016040528015610d4c578160200160208202803683370190505b50905060005b8451811015610dee57610db3858281518110610d7e57634e487b7160e01b600052603260045260246000fd5b6020026020010151858381518110610da657634e487b7160e01b600052603260045260246000fd5b60200260200101516103e0565b828281518110610dd357634e487b7160e01b600052603260045260246000fd5b6020908102919091010152610de781612442565b9050610d52565b509392505050565b6060600082516001600160401b03811115610e2157634e487b7160e01b600052604160045260246000fd5b604051908082528060200260200182016040528015610e4a578160200160208202803683370190505b50905060005b8351811015610c8e5760056000858381518110610e7d57634e487b7160e01b600052603260045260246000fd5b6020026020010151815260200190815260200160002060020154828281518110610eb757634e487b7160e01b600052603260045260246000fd5b6020908102919091010152610ecb81612442565b9050610e50565b6003546001600160a01b03163314610efc5760405162461bcd60e51b815260040161044890612294565b6003546040516000916001600160a01b0316907f8be0079c531659141344cd1fd0a4f28419497f9722a3daafe3b4186f6b6457e0908390a3600380546001600160a01b0319169055565b3360009081526004602052604090205460ff16610f8f5760405162461bcd60e51b815260206004820152600760248201526610b6b4b73a32b960c91b6044820152606401610448565b60008481526005602052604090206003810154610fab57600080fd5b60038101546002820154610fbf908661156e565b111561100d5760405162461bcd60e51b815260206004820152601a60248201527f457863656564206d6178206d696e74696e6720616c6c6f7765640000000000006044820152606401610448565b600281015461101c908561156e565b8160020181905550610b5f86868686868080601f01602080910402602001604051908101604052809392919081815260200183838082843760009201919091525061184892505050565b6060600082516001600160401b0381111561109157634e487b7160e01b600052604160045260246000fd5b6040519080825280602002602001820160405280156110ba578160200160208202803683370190505b50905060005b8351811015610c8e57600560008583815181106110ed57634e487b7160e01b600052603260045260246000fd5b602002602001015181526020019081526020016000206003015482828151811061112757634e487b7160e01b600052603260045260246000fd5b602090810291909101015261113b81612442565b90506110c0565b6003546001600160a01b0316331461116c5760405162461bcd60e51b815260040161044890612294565b6001600160a01b03166000908152600460205260409020805460ff19166001179055565b6003546001600160a01b031633146111ba5760405162461bcd60e51b815260040161044890612294565b60008381526005602052604090209283556001830191909155600390910155565b336001600160a01b03831614156112465760405162461bcd60e51b815260206004820152602960248201527f455243313135353a2073657474696e6720617070726f76616c20737461747573604482015268103337b91039b2b63360b91b6064820152608401610448565b3360008181526001602090815260408083206001600160a01b03871680855290835292819020805460ff191686151590811790915590519081529192917f17307eab39ab6107e8899845ad3d59bd9653f200f220920489ca2b5937696c31910160405180910390a35050565b6001600160a01b0384166112d85760405162461bcd60e51b815260040161044890612205565b6001600160a01b0385163314806112f457506112f48533610356565b6113525760405162461bcd60e51b815260206004820152602960248201527f455243313135353a2063616c6c6572206973206e6f74206f776e6572206e6f7260448201526808185c1c1c9bdd995960ba1b6064820152608401610448565b336113728187876113628861190f565b61136b8861190f565b5050505050565b6000848152602081815260408083206001600160a01b038a168452909152902054838110156113b35760405162461bcd60e51b81526004016104489061224a565b6113bd84826123c4565b6000868152602081815260408083206001600160a01b038c811685529252808320939093558816815290812080548692906113f99084906123ac565b909155505060408051868152602081018690526001600160a01b03808916928a821692918616917fc3d58168c5ae7397731d063d5bbf3d657854427343f4c083240f7aacaa2d0f62910160405180910390a46108d8828888888888611968565b6003546001600160a01b031633146114835760405162461bcd60e51b815260040161044890612294565b6001600160a01b0381166114e85760405162461bcd60e51b815260206004820152602660248201527f4f776e61626c653a206e6577206f776e657220697320746865207a65726f206160448201526564647265737360d01b6064820152608401610448565b6003546040516001600160a01b038084169216907f8be0079c531659141344cd1fd0a4f28419497f9722a3daafe3b4186f6b6457e090600090a3600380546001600160a01b0319166001600160a01b0392909216919091179055565b600061155082846123c4565b9392505050565b6000818310156115675781611550565b5090919050565b600061155082846123ac565b6001600160a01b0384166115a05760405162461bcd60e51b815260040161044890612348565b81518351146115c15760405162461bcd60e51b815260040161044890612300565b3360005b8451811015611679578381815181106115ee57634e487b7160e01b600052603260045260246000fd5b602002602001015160008087848151811061161957634e487b7160e01b600052603260045260246000fd5b602002602001015181526020019081526020016000206000886001600160a01b03166001600160a01b03168152602001908152602001600020600082825461166191906123ac565b9091555081905061167181612442565b9150506115c5565b50846001600160a01b031660006001600160a01b0316826001600160a01b03167f4a39dc06d4c0dbc64b70af90fd698a233a518aa5d07e595d983b8c0526c8f7fb87876040516116ca92919061217c565b60405180910390a461136b816000878787875b6001600160a01b0384163b15610b5f5760405163bc197c8160e01b81526001600160a01b0385169063bc197c819061172190899089908890889088906004016120c6565b602060405180830381600087803b15801561173b57600080fd5b505af192505050801561176b575060408051601f3d908101601f1916820190925261176891810190611fe2565b60015b61181857611777612489565b806308c379a014156117b1575061178c6124a1565b8061179757506117b3565b8060405162461bcd60e51b815260040161044891906121aa565b505b60405162461bcd60e51b815260206004820152603460248201527f455243313135353a207472616e7366657220746f206e6f6e20455243313135356044820152732932b1b2b4bb32b91034b6b83632b6b2b73a32b960611b6064820152608401610448565b6001600160e01b0319811663bc197c8160e01b146108d85760405162461bcd60e51b8152600401610448906121bd565b6001600160a01b03841661186e5760405162461bcd60e51b815260040161044890612348565b3361187f816000876113628861190f565b6000848152602081815260408083206001600160a01b0389168452909152812080548592906118af9084906123ac565b909155505060408051858152602081018590526001600160a01b0380881692600092918516917fc3d58168c5ae7397731d063d5bbf3d657854427343f4c083240f7aacaa2d0f62910160405180910390a461136b81600087878787611968565b6040805160018082528183019092526060916000919060208083019080368337019050509050828160008151811061195757634e487b7160e01b600052603260045260246000fd5b602090810291909101015292915050565b6001600160a01b0384163b15610b5f5760405163f23a6e6160e01b81526001600160a01b0385169063f23a6e61906119ac9089908990889088908890600401612124565b602060405180830381600087803b1580156119c657600080fd5b505af19250505080156119f6575060408051601f3d908101601f191682019092526119f391810190611fe2565b60015b611a0257611777612489565b6001600160e01b0319811663f23a6e6160e01b146108d85760405162461bcd60e51b8152600401610448906121bd565b80356001600160a01b0381168114611a4957600080fd5b919050565b60008083601f840112611a5f578182fd5b5081356001600160401b03811115611a75578182fd5b6020830191508360208260051b8501011115611a9057600080fd5b9250929050565b600082601f830112611aa7578081fd5b81356020611ab482612389565b604051611ac18282612416565b8381528281019150858301600585901b87018401881015611ae0578586fd5b855b85811015611afe57813584529284019290840190600101611ae2565b5090979650505050505050565b60008083601f840112611b1c578182fd5b5081356001600160401b03811115611b32578182fd5b602083019150836020828501011115611a9057600080fd5b600082601f830112611b5a578081fd5b81356001600160401b03811115611b7357611b73612473565b604051611b8a601f8301601f191660200182612416565b818152846020838601011115611b9e578283fd5b816020850160208301379081016020019190915292915050565b600060208284031215611bc9578081fd5b61155082611a32565b60008060408385031215611be4578081fd5b611bed83611a32565b9150611bfb60208401611a32565b90509250929050565b600080600080600060a08688031215611c1b578081fd5b611c2486611a32565b9450611c3260208701611a32565b935060408601356001600160401b0380821115611c4d578283fd5b611c5989838a01611a97565b94506060880135915080821115611c6e578283fd5b611c7a89838a01611a97565b93506080880135915080821115611c8f578283fd5b50611c9c88828901611b4a565b9150509295509295909350565b600080600080600060a08688031215611cc0578081fd5b611cc986611a32565b9450611cd760208701611a32565b9350604086013592506060860135915060808601356001600160401b03811115611cff578182fd5b611c9c88828901611b4a565b60008060008060008060006080888a031215611d25578182fd5b611d2e88611a32565b965060208801356001600160401b0380821115611d49578384fd5b611d558b838c01611a4e565b909850965060408a0135915080821115611d6d578384fd5b611d798b838c01611a4e565b909650945060608a0135915080821115611d91578384fd5b50611d9e8a828b01611b0b565b989b979a50959850939692959293505050565b60008060408385031215611dc3578182fd5b611dcc83611a32565b915060208301358015158114611de0578182fd5b809150509250929050565b60008060408385031215611dfd578182fd5b611e0683611a32565b946020939093013593505050565b600080600080600060808688031215611e2b578283fd5b611e3486611a32565b9450602086013593506040860135925060608601356001600160401b03811115611e5c578182fd5b611e6888828901611b0b565b969995985093965092949392505050565b60008060408385031215611e8b578182fd5b82356001600160401b0380821115611ea1578384fd5b818501915085601f830112611eb4578384fd5b81356020611ec182612389565b604051611ece8282612416565b8381528281019150858301600585901b870184018b1015611eed578889fd5b8896505b84871015611f1657611f0281611a32565b835260019690960195918301918301611ef1565b5096505086013592505080821115611f2c578283fd5b50611f3985828601611a97565b9150509250929050565b600060208284031215611f54578081fd5b81356001600160401b03811115611f69578182fd5b611f7584828501611a97565b949350505050565b60008060408385031215611f8f578182fd5b82356001600160401b0380821115611fa5578384fd5b611fb186838701611a97565b93506020850135915080821115611f2c578283fd5b600060208284031215611fd7578081fd5b81356115508161252a565b600060208284031215611ff3578081fd5b81516115508161252a565b60006020828403121561200f578081fd5b5035919050565b60008060006060848603121561202a578081fd5b505081359360208301359350604090920135919050565b6000815180845260208085019450808401835b8381101561207057815187529582019590820190600101612054565b509495945050505050565b60008151808452815b818110156120a057602081850181015186830182015201612084565b818111156120b15782602083870101525b50601f01601f19169290920160200192915050565b6001600160a01b0386811682528516602082015260a0604082018190526000906120f290830186612041565b82810360608401526121048186612041565b90508281036080840152612118818561207b565b98975050505050505050565b6001600160a01b03868116825285166020820152604081018490526060810183905260a06080820181905260009061215e9083018461207b565b979650505050505050565b6020815260006115506020830184612041565b60408152600061218f6040830185612041565b82810360208401526121a18185612041565b95945050505050565b602081526000611550602083018461207b565b60208082526028908201527f455243313135353a204552433131353552656365697665722072656a656374656040820152676420746f6b656e7360c01b606082015260800190565b60208082526025908201527f455243313135353a207472616e7366657220746f20746865207a65726f206164604082015264647265737360d81b606082015260800190565b6020808252602a908201527f455243313135353a20696e73756666696369656e742062616c616e636520666f60408201526939103a3930b739b332b960b11b606082015260800190565b6020808252818101527f4f776e61626c653a2063616c6c6572206973206e6f7420746865206f776e6572604082015260600190565b6020808252601a908201527f496e676f744e46543a20696e76616c696420617267756d656e74000000000000604082015260600190565b60208082526028908201527f455243313135353a2069647320616e6420616d6f756e7473206c656e677468206040820152670dad2e6dac2e8c6d60c31b606082015260800190565b60208082526021908201527f455243313135353a206d696e7420746f20746865207a65726f206164647265736040820152607360f81b606082015260800190565b60006001600160401b038211156123a2576123a2612473565b5060051b60200190565b600082198211156123bf576123bf61245d565b500190565b6000828210156123d6576123d661245d565b500390565b600181811c908216806123ef57607f821691505b6020821081141561241057634e487b7160e01b600052602260045260246000fd5b50919050565b601f8201601f191681016001600160401b038111828210171561243b5761243b612473565b6040525050565b60006000198214156124565761245661245d565b5060010190565b634e487b7160e01b600052601160045260246000fd5b634e487b7160e01b600052604160045260246000fd5b600060033d111561249e57600481823e5160e01c5b90565b600060443d10156124af5790565b6040516003193d81016004833e81513d6001600160401b0381602484011181841117156124de57505050505090565b82850191508151818111156124f65750505050505090565b843d87010160208285010111156125105750505050505090565b61251f60208286010187612416565b509095945050505050565b6001600160e01b03198116811461254057600080fd5b5056fea26469706673582212209e66715f9185dc2f593fe9e69dabb18a73011f79aefad18d26a4e6fe74a2d77864736f6c63430008040033",
  "immutableReferences": {},
  "source": "pragma solidity ^0.8.0;\n\nimport \"@openzeppelin/contracts/token/ERC1155/ERC1155.sol\";\nimport \"@openzeppelin/contracts/token/ERC1155/utils/ERC1155Receiver.sol\";\nimport \"@openzeppelin/contracts/utils/math/SafeMath.sol\";\nimport \"@openzeppelin/contracts/utils/math/Math.sol\";\nimport \"@openzeppelin/contracts/access/Ownable.sol\";\nimport \"./interfaces/IIngotNFT.sol\";\n\ncontract IngotNFT is ERC1155, IIngotNFT, Ownable {\n    using SafeMath for uint256;\n\n    mapping (address => bool) public _minters;\n    mapping (uint256 => Asset) public assets;\n\n    struct Asset {\n        uint256 id;\n        uint256 power;\n        uint256 currMinting;\n        uint256 maxMinting;\n    }\n\n    constructor() public ERC1155(\"\"){\n        _minters[msg.sender] = true;\n\n        addType(0, 10, 7000);\n        addType(1, 14, 5425);\n        addType(2, 19, 4204);\n        addType(3, 26, 3258);\n        addType(4, 35, 2525);\n        addType(5, 47, 1957);\n        addType(6, 65, 1516);\n        addType(7, 87, 1175);\n        addType(8, 118, 910);\n        addType(9, 160, 706);\n        addType(10, 215, 547);\n        addType(11, 290, 424);\n\n    }\n\n    /* ========== MINTER ONLY FUNCTIONS ========== */\n\n    function mint(address to, uint256 id, uint256 amount, bytes calldata data) override external {\n        require(_minters[msg.sender], \"!minter\");\n        Asset storage asset = assets[id];\n        require(asset.maxMinting > 0);\n        require(asset.currMinting.add(amount) <= asset.maxMinting, \"Exceed max minting allowed\");\n        asset.currMinting = asset.currMinting.add(amount);\n        \n        _mint( to,  id,  amount, data);\n    }\n\n    function mintBatch(address to, uint256[] calldata ids, uint256[] calldata amounts, bytes calldata data) override external {\n        require(_minters[msg.sender], \"!minter\");\n        require(ids.length == amounts.length, \"ERC1155: ids and amounts length mismatch\");\n\n        for (uint256 i = 0; i < ids.length; i++) {\n            uint256 id = ids[i];\n            uint256 amount = amounts[i];\n            Asset storage asset = assets[id];\n            require(asset.maxMinting > 0);\n            require(asset.currMinting.add(amount) <= asset.maxMinting, \"Exceed max minting allowed\");\n            asset.currMinting = asset.currMinting.add(amount); \n        }\n        _mintBatch( to,  ids,  amounts, data);\n    }\n\n    /* ========== OWNER ONLY FUNCTIONS ========== */\n\n    function addType(uint256 id, uint256 power, uint256 maxMinting) public onlyOwner {\n        Asset storage asset = assets[id];\n        asset.id = id;\n        asset.power = power;\n        asset.maxMinting = maxMinting;\n    }\n\n    function burnAssetBatch(uint256[] memory ids, uint256[] memory amounts) public onlyOwner {\n        require(ids.length > 0, \"IngotNFT: invalid argument\");\n        require(ids.length == amounts.length, \"IngotNFT: invalid argument\");\n        \n        for (uint256 i = 0; i < ids.length; ++i) {\n            uint256 id = ids[i];\n            uint256 amount = amounts[i];\n            Asset storage asset = assets[id];\n            require(asset.maxMinting > 0, \"IngotNFT: invalid argument\");\n            if(amount == 0){\n                asset.maxMinting = asset.currMinting;\n            }else{\n                asset.maxMinting = Math.max( asset.maxMinting.sub(amount), asset.currMinting);\n            }\n        }\n    }\n\n    function addMinter(address _minter) external onlyOwner {\n        _minters[_minter] = true;\n    }\n\n    function removeMinter(address _minter) external onlyOwner {\n        _minters[_minter] = false;\n    }\n\n    /* ========== PUBLIC ========== */\n\n    function getAssetInfo(uint256 _id) override external view returns(uint256, uint256, uint256, uint256){\n        return(assets[_id].id, assets[_id].power, assets[_id].currMinting, assets[_id].maxMinting);\n    }\n\n    function assetPowerBatch(uint256[] memory ids) override public view returns (uint256[] memory) {\n        uint256[] memory batch = new uint256[](ids.length);\n        for (uint256 i = 0; i < ids.length; ++i) {\n            batch[i] = assets[ids[i]].power;\n        }\n        return batch;\n    }\n\n    function assetCurrMintingBatch(uint256[] memory ids) override public view returns (uint256[] memory) {\n        uint256[] memory batch = new uint256[](ids.length);\n        for (uint256 i = 0; i < ids.length; ++i) {\n            batch[i] = assets[ids[i]].currMinting;\n        }\n        return batch;\n    }\n\n    function assetMaxMintingBatch(uint256[] memory ids) override public view returns (uint256[] memory) {\n        uint256[] memory batch = new uint256[](ids.length);\n        for (uint256 i = 0; i < ids.length; ++i) {\n            batch[i] = assets[ids[i]].maxMinting;\n        }\n        return batch;\n    }\n}",
  "sourcePath": "/Users/p489548/SmartContracts/Ingot Farming Project/ingot-contracts/contracts/IngotNFT.sol",
  "compiler": {
    "name": "solc",
    "version": "0.8.4+commit.c7e474f2.Emscripten.clang"
  },
  "schemaVersion": "3.3.4",
  "updatedAt": "2021-06-06T10:43:13.054Z",
  "networkType": "ethereum",
  "devdoc": {
    "kind": "dev",
    "methods": {
      "balanceOf(address,uint256)": {
        "details": "See {IERC1155-balanceOf}. Requirements: - `account` cannot be the zero address."
      },
      "balanceOfBatch(address[],uint256[])": {
        "details": "See {IERC1155-balanceOfBatch}. Requirements: - `accounts` and `ids` must have the same length."
      },
      "isApprovedForAll(address,address)": {
        "details": "See {IERC1155-isApprovedForAll}."
      },
      "owner()": {
        "details": "Returns the address of the current owner."
      },
      "renounceOwnership()": {
        "details": "Leaves the contract without owner. It will not be possible to call `onlyOwner` functions anymore. Can only be called by the current owner. NOTE: Renouncing ownership will leave the contract without an owner, thereby removing any functionality that is only available to the owner."
      },
      "safeBatchTransferFrom(address,address,uint256[],uint256[],bytes)": {
        "details": "See {IERC1155-safeBatchTransferFrom}."
      },
      "safeTransferFrom(address,address,uint256,uint256,bytes)": {
        "details": "See {IERC1155-safeTransferFrom}."
      },
      "setApprovalForAll(address,bool)": {
        "details": "See {IERC1155-setApprovalForAll}."
      },
      "supportsInterface(bytes4)": {
        "details": "See {IERC165-supportsInterface}."
      },
      "transferOwnership(address)": {
        "details": "Transfers ownership of the contract to a new account (`newOwner`). Can only be called by the current owner."
      },
      "uri(uint256)": {
        "details": "See {IERC1155MetadataURI-uri}. This implementation returns the same URI for *all* token types. It relies on the token type ID substitution mechanism https://eips.ethereum.org/EIPS/eip-1155#metadata[defined in the EIP]. Clients calling this function must replace the `\\{id\\}` substring with the actual token type ID."
      }
    },
    "version": 1
  },
  "userdoc": {
    "kind": "user",
    "methods": {},
    "version": 1
  }
}