{
  "contractName": "IngotFarm",
  "abi": [
    {
      "inputs": [
        {
          "internalType": "contract IIngotToken",
          "name": "_token",
          "type": "address"
        },
        {
          "internalType": "contract IIngotNFT",
          "name": "_asset",
          "type": "address"
        }
      ],
      "stateMutability": "nonpayable",
      "type": "constructor"
    },
    {
      "anonymous": false,
      "inputs": [
        {
          "indexed": true,
          "internalType": "address",
          "name": "previousOwner",
          "type": "address"
        },
        {
          "indexed": true,
          "internalType": "address",
          "name": "newOwner",
          "type": "address"
        }
      ],
      "name": "OwnershipTransferred",
      "type": "event"
    },
    {
      "inputs": [],
      "name": "SAFE_MULTIPLIER",
      "outputs": [
        {
          "internalType": "uint256",
          "name": "",
          "type": "uint256"
        }
      ],
      "stateMutability": "view",
      "type": "function",
      "constant": true
    },
    {
      "inputs": [],
      "name": "asset",
      "outputs": [
        {
          "internalType": "contract IIngotNFT",
          "name": "",
          "type": "address"
        }
      ],
      "stateMutability": "view",
      "type": "function",
      "constant": true
    },
    {
      "inputs": [],
      "name": "owner",
      "outputs": [
        {
          "internalType": "address",
          "name": "",
          "type": "address"
        }
      ],
      "stateMutability": "view",
      "type": "function",
      "constant": true
    },
    {
      "inputs": [],
      "name": "renounceOwnership",
      "outputs": [],
      "stateMutability": "nonpayable",
      "type": "function"
    },
    {
      "inputs": [],
      "name": "rewardForBlock",
      "outputs": [
        {
          "internalType": "uint256",
          "name": "",
          "type": "uint256"
        }
      ],
      "stateMutability": "view",
      "type": "function",
      "constant": true
    },
    {
      "inputs": [],
      "name": "rewardInfo",
      "outputs": [
        {
          "internalType": "uint256",
          "name": "lastRewardBlock",
          "type": "uint256"
        },
        {
          "internalType": "uint256",
          "name": "accTokenPerShare",
          "type": "uint256"
        },
        {
          "internalType": "uint256",
          "name": "accShare",
          "type": "uint256"
        }
      ],
      "stateMutability": "view",
      "type": "function",
      "constant": true
    },
    {
      "inputs": [
        {
          "internalType": "bytes4",
          "name": "interfaceId",
          "type": "bytes4"
        }
      ],
      "name": "supportsInterface",
      "outputs": [
        {
          "internalType": "bool",
          "name": "",
          "type": "bool"
        }
      ],
      "stateMutability": "view",
      "type": "function",
      "constant": true
    },
    {
      "inputs": [],
      "name": "token",
      "outputs": [
        {
          "internalType": "contract IIngotToken",
          "name": "",
          "type": "address"
        }
      ],
      "stateMutability": "view",
      "type": "function",
      "constant": true
    },
    {
      "inputs": [
        {
          "internalType": "address",
          "name": "newOwner",
          "type": "address"
        }
      ],
      "name": "transferOwnership",
      "outputs": [],
      "stateMutability": "nonpayable",
      "type": "function"
    },
    {
      "inputs": [],
      "name": "pendingReward",
      "outputs": [
        {
          "internalType": "uint256",
          "name": "",
          "type": "uint256"
        }
      ],
      "stateMutability": "view",
      "type": "function",
      "constant": true
    },
    {
      "inputs": [],
      "name": "claim",
      "outputs": [],
      "stateMutability": "nonpayable",
      "type": "function"
    },
    {
      "inputs": [
        {
          "internalType": "uint256[]",
          "name": "_ids",
          "type": "uint256[]"
        },
        {
          "internalType": "uint256[]",
          "name": "_values",
          "type": "uint256[]"
        }
      ],
      "name": "retrieve",
      "outputs": [],
      "stateMutability": "nonpayable",
      "type": "function"
    },
    {
      "inputs": [],
      "name": "updatePool",
      "outputs": [],
      "stateMutability": "nonpayable",
      "type": "function"
    },
    {
      "inputs": [
        {
          "internalType": "address",
          "name": "addr",
          "type": "address"
        }
      ],
      "name": "getUserInfo",
      "outputs": [
        {
          "internalType": "uint256",
          "name": "",
          "type": "uint256"
        },
        {
          "internalType": "uint256",
          "name": "",
          "type": "uint256"
        },
        {
          "internalType": "uint256",
          "name": "",
          "type": "uint256"
        }
      ],
      "stateMutability": "view",
      "type": "function",
      "constant": true
    },
    {
      "inputs": [
        {
          "internalType": "address",
          "name": "addr",
          "type": "address"
        },
        {
          "internalType": "uint256",
          "name": "assetType",
          "type": "uint256"
        }
      ],
      "name": "getUserNumberAsset",
      "outputs": [
        {
          "internalType": "uint256",
          "name": "",
          "type": "uint256"
        }
      ],
      "stateMutability": "view",
      "type": "function",
      "constant": true
    },
    {
      "inputs": [
        {
          "internalType": "address",
          "name": "userAddress",
          "type": "address"
        }
      ],
      "name": "checkLengthSetKeys",
      "outputs": [
        {
          "internalType": "uint256",
          "name": "",
          "type": "uint256"
        }
      ],
      "stateMutability": "view",
      "type": "function",
      "constant": true
    },
    {
      "inputs": [
        {
          "internalType": "address",
          "name": "userAddress",
          "type": "address"
        },
        {
          "internalType": "uint256",
          "name": "i",
          "type": "uint256"
        }
      ],
      "name": "checkSetKeys",
      "outputs": [
        {
          "internalType": "uint256",
          "name": "",
          "type": "uint256"
        }
      ],
      "stateMutability": "view",
      "type": "function",
      "constant": true
    },
    {
      "inputs": [
        {
          "internalType": "address",
          "name": "_operator",
          "type": "address"
        },
        {
          "internalType": "address",
          "name": "_from",
          "type": "address"
        },
        {
          "internalType": "uint256",
          "name": "_id",
          "type": "uint256"
        },
        {
          "internalType": "uint256",
          "name": "_value",
          "type": "uint256"
        },
        {
          "internalType": "bytes",
          "name": "_data",
          "type": "bytes"
        }
      ],
      "name": "onERC1155Received",
      "outputs": [
        {
          "internalType": "bytes4",
          "name": "",
          "type": "bytes4"
        }
      ],
      "stateMutability": "nonpayable",
      "type": "function"
    },
    {
      "inputs": [
        {
          "internalType": "address",
          "name": "_operator",
          "type": "address"
        },
        {
          "internalType": "address",
          "name": "_from",
          "type": "address"
        },
        {
          "internalType": "uint256[]",
          "name": "_ids",
          "type": "uint256[]"
        },
        {
          "internalType": "uint256[]",
          "name": "_values",
          "type": "uint256[]"
        },
        {
          "internalType": "bytes",
          "name": "_data",
          "type": "bytes"
        }
      ],
      "name": "onERC1155BatchReceived",
      "outputs": [
        {
          "internalType": "bytes4",
          "name": "",
          "type": "bytes4"
        }
      ],
      "stateMutability": "nonpayable",
      "type": "function"
    },
    {
      "inputs": [
        {
          "internalType": "uint256",
          "name": "_tokenPerBlock",
          "type": "uint256"
        }
      ],
      "name": "setRewardPerBlock",
      "outputs": [],
      "stateMutability": "nonpayable",
      "type": "function"
    }
  ],
  "bytecode": "0x608060405262000019670de0b6b3a764000060006200012f565b6007553480156200002957600080fd5b506040516200194c3803806200194c8339810160408190526200004c91620000f0565b6001600081815581546001600160a01b031916339081179092556040518291907f8be0079c531659141344cd1fd0a4f28419497f9722a3daafe3b4186f6b6457e0908290a350600280546001600160a01b039384166001600160a01b03199182161790915560038054929093169116179055604080516060810182524380825260006020830181905291909201819052600491909155600581905560065562000176565b600080604083850312156200010457600080fd5b825162000111816200015d565b602084015190925062000124816200015d565b809150509250929050565b60008160001904831182151516156200015857634e487b7160e01b600052601160045260246000fd5b500290565b6001600160a01b03811681146200017357600080fd5b50565b6117c680620001866000396000f3fe608060405234801561001057600080fd5b506004361061012c5760003560e01c8063bb872b4a116100ad578063e5969b2611610071578063e5969b26146102cf578063ee9c746f146102e2578063f23a6e61146102f5578063f2fde38b14610308578063fc0c546a1461031b57600080fd5b8063bb872b4a14610267578063bc197c811461027a578063c9f67072146102a6578063dc7e0ce8146102b8578063e3161ddd146102c757600080fd5b80634e71d92d116100f45780634e71d92d146101e75780636386c1c7146101f1578063715018a614610245578063804a5b4d1461024d5780638da5cb5b1461025657600080fd5b806301ffc9a714610131578063137ee36e1461015957806316897eaa1461016f57806324cfe7d71461018257806338d52e0f146101bc575b600080fd5b61014461013f3660046114b0565b61032e565b60405190151581526020015b60405180910390f35b610161610365565b604051908152602001610150565b61016161017d3660046112d4565b61046f565b610161610190366004611422565b6001600160a01b0391909116600090815260086020908152604080832093835260029093019052205490565b6003546101cf906001600160a01b031681565b6040516001600160a01b039091168152602001610150565b6101ef610490565b005b61022a6101ff3660046112d4565b6001600160a01b03166000908152600860205260409020600381015460048201546005909201549092565b60408051938452602084019290925290820152606001610150565b6101ef610630565b61016160075481565b6001546001600160a01b03166101cf565b6101ef6102753660046114da565b6106a4565b61028d6102883660046112ef565b6106d3565b6040516001600160e01b03199091168152602001610150565b60045460055460065461022a92919083565b610161670de0b6b3a764000081565b6101ef6108b8565b6101616102dd366004611422565b610912565b6101ef6102f036600461144c565b61093b565b61028d6103033660046113aa565b610bca565b6101ef6103163660046112d4565b610d0c565b6002546101cf906001600160a01b031681565b60006001600160e01b03198216630271189760e51b148061035f57506301ffc9a760e01b6001600160e01b03198316145b92915050565b3360009081526008602052604081206006546103a057600481015461039a9061038f90600a610df7565b600483015490610e03565b91505090565b6007546004546000916103be916103b8904390610e03565b90610e0f565b6006549091506000906103f0906103e7906103e185670de0b6b3a7640000610e0f565b90610df7565b60055490610e1b565b90506000610417670de0b6b3a76400006103e1848760030154610e0f90919063ffffffff16565b90506000610432856005015483610e0390919063ffffffff16565b9050600061044d828760040154610e1b90919063ffffffff16565b905061046461045d82600a610df7565b8290610e03565b965050505050505090565b6001600160a01b038116600090815260086020526040812061035f90610e27565b600260005414156104bc5760405162461bcd60e51b81526004016104b390611676565b60405180910390fd5b600260009081553381526008602052604090206104d76108b8565b6104e081610e31565b60055460038201546104ff91670de0b6b3a7640000916103e191610e0f565b6005820155600481015480156106275760006004830181905561052382600a610df7565b6002549091506001600160a01b03166340c10f196105496001546001600160a01b031690565b6040516001600160e01b031960e084901b1681526001600160a01b03909116600482015260248101849052604401600060405180830381600087803b15801561059157600080fd5b505af11580156105a5573d6000803e3d6000fd5b50506002546001600160a01b031691506340c10f199050336105c78585610e03565b6040516001600160e01b031960e085901b1681526001600160a01b0390921660048301526024820152604401600060405180830381600087803b15801561060d57600080fd5b505af1158015610621573d6000803e3d6000fd5b50505050505b50506001600055565b6001546001600160a01b0316331461065a5760405162461bcd60e51b81526004016104b390611641565b6001546040516000916001600160a01b0316907f8be0079c531659141344cd1fd0a4f28419497f9722a3daafe3b4186f6b6457e0908390a3600180546001600160a01b0319169055565b6001546001600160a01b031633146106ce5760405162461bcd60e51b81526004016104b390611641565b600755565b6000600260005414156106f85760405162461bcd60e51b81526004016104b390611676565b60026000556003546001600160a01b031633146107275760405162461bcd60e51b81526004016104b3906115bf565b85841461076d5760405162461bcd60e51b81526020600482015260146024820152734172726179206d75737420626520657175616c2160601b60448201526064016104b3565b6001600160a01b0388166000908152600860205260408120905b8781101561081f5760008989838181106107a3576107a3611764565b9050602002013590506107e18888848181106107c1576107c1611764565b600085815260028801602090815260409091205493910201359050610e1b565b60008281526002850160205260409020556107fc8382610e9d565b61080c5761080a8382610eb5565b505b50806108178161171d565b915050610787565b50600381015461082d6108b8565b61083682610e31565b61083f82610ec1565b600554600383015461085e91670de0b6b3a7640000916103e191610e0f565b6005830155600382015460065461088091839161087a91610e1b565b90610e03565b60065550506001600055507fbc197c819b3e337a6f9652dd10becd7eef83032af3b9d958d3d42f669414662198975050505050505050565b60045443116108c357565b6006546108d05743600455565b6007546004546000916108e8916103b8904390610e03565b600654909150610908906103e7906103e184670de0b6b3a7640000610e0f565b6005555043600455565b6001600160a01b03821660009081526008602052604081206109349083610faf565b9392505050565b6002600054141561095e5760405162461bcd60e51b81526004016104b390611676565b600260005581516109815760405162461bcd60e51b81526004016104b390611611565b60008151116109a25760405162461bcd60e51b81526004016104b390611611565b80518251146109c35760405162461bcd60e51b81526004016104b390611611565b336000908152600860205260408120905b8351811015610af95760008482815181106109f1576109f1611764565b602002602001015190506000848381518110610a0f57610a0f611764565b602002602001015111610a345760405162461bcd60e51b81526004016104b390611611565b838281518110610a4657610a46611764565b6020026020010151836002016000838152602001908152602001600020541015610a825760405162461bcd60e51b81526004016104b390611611565b610ac3848381518110610a9757610a97611764565b602002602001015184600201600084815260200190815260200160002054610e0390919063ffffffff16565b60008281526002850160205260409020819055610ae657610ae48382610fbb565b505b5080610af18161171d565b9150506109d4565b506003810154610b076108b8565b610b1082610e31565b610b1982610ec1565b6005546003830154610b3891670de0b6b3a7640000916103e191610e0f565b60058301556003820154600654610b5491839161087a91610e1b565b600655600354604051631759616b60e11b81526001600160a01b0390911690632eb2c2d690610b8d903090339089908990600401611564565b600060405180830381600087803b158015610ba757600080fd5b505af1158015610bbb573d6000803e3d6000fd5b50506001600055505050505050565b600060026000541415610bef5760405162461bcd60e51b81526004016104b390611676565b60026000556003546001600160a01b03163314610c1e5760405162461bcd60e51b81526004016104b3906115bf565b6001600160a01b03861660009081526008602090815260408083208884526002810190925290912054610c519086610e1b565b6000878152600283016020526040902055610c6c8187610e9d565b610c7c57610c7a8187610eb5565b505b6003810154610c896108b8565b610c9282610e31565b610c9b82610ec1565b6005546003830154610cba91670de0b6b3a7640000916103e191610e0f565b60058301556003820154600654610cd691839161087a91610e1b565b60065550506001600055507ff23a6e612e1ff4830e658fe43f4e3cb4a5f8170bd5d9e69fb5d7a7fa9e4fdf979695505050505050565b6001546001600160a01b03163314610d365760405162461bcd60e51b81526004016104b390611641565b6001600160a01b038116610d9b5760405162461bcd60e51b815260206004820152602660248201527f4f776e61626c653a206e6577206f776e657220697320746865207a65726f206160448201526564647265737360d01b60648201526084016104b3565b6001546040516001600160a01b038084169216907f8be0079c531659141344cd1fd0a4f28419497f9722a3daafe3b4186f6b6457e090600090a3600180546001600160a01b0319166001600160a01b0392909216919091179055565b600061093482846116c5565b60006109348284611706565b600061093482846116e7565b600061093482846116ad565b600061035f825490565b600381015415610e9a576000610e65670de0b6b3a76400006103e16004600101548560030154610e0f90919063ffffffff16565b90506000610e80836005015483610e0390919063ffffffff16565b6004840154909150610e929082610e1b565b600484015550505b50565b60008181526001830160205260408120541515610934565b60006109348383610fc7565b6000805b610ece83610e27565b811015610fa6576000610ee18483610faf565b600354604051630f637d9560e41b8152600481018390529192506000916001600160a01b039091169063f637d9509060240160806040518083038186803b158015610f2b57600080fd5b505afa158015610f3f573d6000803e3d6000fd5b505050506040513d601f19601f82011682018060405250810190610f6391906114f3565b50506000848152600288016020526040902054909250610f8f9150610f889083610e0f565b8590610e1b565b935050508080610f9e9061171d565b915050610ec5565b50600390910155565b60006109348383611016565b6000610934838361109c565b600081815260018301602052604081205461100e5750815460018181018455600084815260208082209093018490558454848252828601909352604090209190915561035f565b50600061035f565b815460009082106110745760405162461bcd60e51b815260206004820152602260248201527f456e756d657261626c655365743a20696e646578206f7574206f6620626f756e604482015261647360f01b60648201526084016104b3565b82600001828154811061108957611089611764565b9060005260206000200154905092915050565b6000818152600183016020526040812054801561117f5760006110c0600183611706565b85549091506000906110d490600190611706565b905060008660000182815481106110ed576110ed611764565b906000526020600020015490508087600001848154811061111057611110611764565b6000918252602080832090910192909255828152600189019091526040902084905586548790806111435761114361174e565b6001900381819060005260206000200160009055905586600101600087815260200190815260200160002060009055600194505050505061035f565b600091505061035f565b80356001600160a01b03811681146111a057600080fd5b919050565b60008083601f8401126111b757600080fd5b50813567ffffffffffffffff8111156111cf57600080fd5b6020830191508360208260051b85010111156111ea57600080fd5b9250929050565b600082601f83011261120257600080fd5b8135602067ffffffffffffffff8083111561121f5761121f61177a565b8260051b604051601f19603f830116810181811084821117156112445761124461177a565b6040528481528381019250868401828801850189101561126357600080fd5b600092505b85831015611286578035845292840192600192909201918401611268565b50979650505050505050565b60008083601f8401126112a457600080fd5b50813567ffffffffffffffff8111156112bc57600080fd5b6020830191508360208285010111156111ea57600080fd5b6000602082840312156112e657600080fd5b61093482611189565b60008060008060008060008060a0898b03121561130b57600080fd5b61131489611189565b975061132260208a01611189565b9650604089013567ffffffffffffffff8082111561133f57600080fd5b61134b8c838d016111a5565b909850965060608b013591508082111561136457600080fd5b6113708c838d016111a5565b909650945060808b013591508082111561138957600080fd5b506113968b828c01611292565b999c989b5096995094979396929594505050565b60008060008060008060a087890312156113c357600080fd5b6113cc87611189565b95506113da60208801611189565b94506040870135935060608701359250608087013567ffffffffffffffff81111561140457600080fd5b61141089828a01611292565b979a9699509497509295939492505050565b6000806040838503121561143557600080fd5b61143e83611189565b946020939093013593505050565b6000806040838503121561145f57600080fd5b823567ffffffffffffffff8082111561147757600080fd5b611483868387016111f1565b9350602085013591508082111561149957600080fd5b506114a6858286016111f1565b9150509250929050565b6000602082840312156114c257600080fd5b81356001600160e01b03198116811461093457600080fd5b6000602082840312156114ec57600080fd5b5035919050565b6000806000806080858703121561150957600080fd5b505082516020840151604085015160609095015191969095509092509050565b600081518084526020808501945080840160005b838110156115595781518752958201959082019060010161153d565b509495945050505050565b6001600160a01b0385811682528416602082015260a06040820181905260009061159090830185611529565b82810360608401526115a28185611529565b838103608090940193909352505060008152602001949350505050565b60208082526032908201527f506f6f6c3a2072656365697665642041737365742066726f6d20756e61757468604082015271195b9d1a58d85d19590818dbdb9d1c9858dd60721b606082015260800190565b602080825260169082015275141bdbdb0e881a5b9d985b1a5908185c99dd5b595b9d60521b604082015260600190565b6020808252818101527f4f776e61626c653a2063616c6c6572206973206e6f7420746865206f776e6572604082015260600190565b6020808252601f908201527f5265656e7472616e637947756172643a207265656e7472616e742063616c6c00604082015260600190565b600082198211156116c0576116c0611738565b500190565b6000826116e257634e487b7160e01b600052601260045260246000fd5b500490565b600081600019048311821515161561170157611701611738565b500290565b60008282101561171857611718611738565b500390565b600060001982141561173157611731611738565b5060010190565b634e487b7160e01b600052601160045260246000fd5b634e487b7160e01b600052603160045260246000fd5b634e487b7160e01b600052603260045260246000fd5b634e487b7160e01b600052604160045260246000fdfea2646970667358221220f92ac791babf7bae4f6567baabeec276df67d71ed9e21a308e46d28769dae70c64736f6c63430008060033",
  "immutableReferences": {},
  "source": "pragma solidity ^0.8.0;\n\nimport \"@openzeppelin/contracts/token/ERC20/IERC20.sol\";\nimport \"@openzeppelin/contracts/token/ERC1155/utils/ERC1155Receiver.sol\";\nimport \"@openzeppelin/contracts/token/ERC20/utils/SafeERC20.sol\";\nimport \"@openzeppelin/contracts/utils/structs/EnumerableSet.sol\";\nimport \"@openzeppelin/contracts/security/ReentrancyGuard.sol\";\nimport \"@openzeppelin/contracts/utils/math/SafeMath.sol\";\nimport \"@openzeppelin/contracts/access/Ownable.sol\";\n\nimport \"./interfaces/IIngotToken.sol\";\nimport \"./interfaces/IIngotNFT.sol\";\n\ncontract IngotFarm is ERC1155Receiver, ReentrancyGuard, Ownable{\n    using SafeMath for uint256;\n    using SafeERC20 for IERC20;\n    using EnumerableSet for EnumerableSet.UintSet;\n\n    struct UserInfo {\n        EnumerableSet.UintSet keys;\n        mapping(uint256 => uint256) values;\n\n        uint256 totalPower;\n        uint256 pendingReward;\n        uint256 rewardDebt;\n    }\n\n    // Info of Reward.\n    struct RewardInfo {\n        // Last block number that INGOTs distribution occurs.\n        uint256 lastRewardBlock;\n        // Accumulated INGOTs per share.\n        uint256 accTokenPerShare;\n        // Accumulated Share\n        uint256 accShare;\n    }\n\n    IIngotToken public token;\n    IIngotNFT public asset;\n    \n    uint256 public constant SAFE_MULTIPLIER = 1e18;\n    \n    // farm pool info\n    RewardInfo public rewardInfo;\n    uint256 public rewardForBlock = 0 * SAFE_MULTIPLIER;\n\n    mapping(address => UserInfo) private userInfo;\n\n    constructor(IIngotToken _token, IIngotNFT _asset) public {\n        token = _token;\n        asset = _asset;\n\n        rewardInfo = RewardInfo({\n            lastRewardBlock: block.number,\n            accTokenPerShare: 0,\n            accShare: 0\n        });\n    }\n\n    /* ========== PUBLIC ========== */\n\n    function pendingReward() external view returns(uint256){\n        UserInfo storage user = userInfo[msg.sender];\n        if(rewardInfo.accShare == 0){\n            return user.pendingReward.sub(user.pendingReward.div(10));\n        }\n        uint256 reward = (block.number.sub(rewardInfo.lastRewardBlock)).mul(rewardForBlock);\n        uint256 accTokenPerShare = rewardInfo.accTokenPerShare.add(\n            reward.mul(SAFE_MULTIPLIER).div(rewardInfo.accShare));\n        uint256 totalReward = user.totalPower.mul(accTokenPerShare).div(SAFE_MULTIPLIER);\n        uint256 pending = totalReward.sub(user.rewardDebt);\n        uint256 accPendingReward = user.pendingReward.add(pending);\n\n        return accPendingReward.sub(accPendingReward.div(10));\n    }\n\n    function claim() public nonReentrant {\n        UserInfo storage user = userInfo[msg.sender];\n        updatePool();\n        _updateUserReward(user);\n        user.rewardDebt = user.totalPower.mul(rewardInfo.accTokenPerShare).div(SAFE_MULTIPLIER);\n        uint256 pendingReward = user.pendingReward;\n        if(pendingReward > 0){\n            user.pendingReward = 0;\n            uint256 devReward = pendingReward.div(10);\n            token.mint(owner(), devReward);\n            token.mint(msg.sender, pendingReward.sub(devReward));\n        }\n    }\n\n    function retrieve(uint256[] memory _ids, uint256[] memory _values) public nonReentrant {\n        require(_ids.length > 0, \"Pool: invalid argument\");\n        require(_values.length > 0, \"Pool: invalid argument\");\n        require(_ids.length == _values.length, \"Pool: invalid argument\");\n\n        UserInfo storage user = userInfo[msg.sender];\n        for (uint256 i = 0; i < _ids.length; i++) {\n            uint256 id = _ids[i];\n            require(_values[i]> 0 , \"Pool: invalid argument\");\n            require(user.values[id] >= _values[i] , \"Pool: invalid argument\");\n            \n            user.values[id] = user.values[id].sub(_values[i]);\n            \n            if(user.values[id] == 0){\n                user.keys.remove(id);\n            }            \n        }\n        uint256 oldPower = user.totalPower;\n        updatePool();\n        _updateUserReward(user);\n        _updateUserPower(user);\n        user.rewardDebt = user.totalPower.mul(rewardInfo.accTokenPerShare).div(SAFE_MULTIPLIER);\n        rewardInfo.accShare = rewardInfo.accShare.add(user.totalPower).sub(oldPower);\n\n        asset.safeBatchTransferFrom(address(this), msg.sender, _ids, _values, \"\");\n\n    }\n\n    function updatePool() public {\n        if (block.number <= rewardInfo.lastRewardBlock) {\n            return;\n        }\n\n        if (rewardInfo.accShare == 0) {\n            rewardInfo.lastRewardBlock = block.number;\n            return;\n        }\n\n        uint256 reward = (block.number.sub(rewardInfo.lastRewardBlock)).mul(rewardForBlock);\n\n        rewardInfo.accTokenPerShare = rewardInfo.accTokenPerShare.add(\n            reward.mul(SAFE_MULTIPLIER).div(rewardInfo.accShare)\n        );\n\n        rewardInfo.lastRewardBlock = block.number;\n    }\n\n    function getUserInfo(address addr) public view returns(uint256, uint256, uint256){\n        return(userInfo[addr].totalPower, userInfo[addr].pendingReward, userInfo[addr].rewardDebt );\n    }\n\n    function getUserNumberAsset(address addr, uint256 assetType) public view returns(uint256){\n        return userInfo[addr].values[assetType];\n    }\n\n    function checkLengthSetKeys(address userAddress) external view returns(uint256){\n        return userInfo[userAddress].keys.length();\n    }\n\n    function checkSetKeys(address userAddress, uint256 i) external view returns(uint256){\n        return userInfo[userAddress].keys.at(i); \n    }\n\n    /* ========== ERC1155Receiver ========== */\n\n    function onERC1155Received(address _operator, address _from, uint256 _id, uint256 _value, bytes calldata _data)\n    external override nonReentrant fromAssetAddress returns (bytes4) {\n        \n        UserInfo storage user = userInfo[_from];\n        \n        user.values[_id] = user.values[_id].add(_value);\n\n        if(!user.keys.contains(_id)){\n            user.keys.add(_id);\n        }\n        \n        uint256 oldPower = user.totalPower;\n        updatePool();\n        _updateUserReward(user);\n        _updateUserPower(user);\n        user.rewardDebt = user.totalPower.mul(rewardInfo.accTokenPerShare).div(SAFE_MULTIPLIER);\n        rewardInfo.accShare = rewardInfo.accShare.add(user.totalPower).sub(oldPower);\n\n\n        return\n            bytes4(\n                keccak256(\n                    \"onERC1155Received(address,address,uint256,uint256,bytes)\"\n                )\n            );\n            \n    }\n\n    function onERC1155BatchReceived(address _operator, address _from, uint256[] calldata _ids, uint256[] calldata _values, bytes calldata _data)\n    external override nonReentrant fromAssetAddress returns (bytes4) {\n        require(_ids.length == _values.length, \"Array must be equal!\");\n        \n        UserInfo storage user = userInfo[_from];\n\n        for (uint256 i = 0; i < _ids.length; i++) {\n            uint256 id = _ids[i];\n            user.values[id] = user.values[id].add(_values[i]);\n            if(!user.keys.contains(id)){\n                user.keys.add(id);\n            }\n        }\n        \n        uint256 oldPower = user.totalPower;\n        updatePool();\n        _updateUserReward(user);\n        _updateUserPower(user);\n        user.rewardDebt = user.totalPower.mul(rewardInfo.accTokenPerShare).div(SAFE_MULTIPLIER);\n        rewardInfo.accShare = rewardInfo.accShare.add(user.totalPower).sub(oldPower);\n\n         return\n            bytes4(\n                keccak256(\n                    \"onERC1155BatchReceived(address,address,uint256[],uint256[],bytes)\"\n                )\n            );\n    }\n\n    /* ========== PRIVATE ========== */\n\n    function _updateUserPower(UserInfo storage _user) private\n    {\n        uint256 totalPower = 0;\n        for (uint256 i = 0; i < _user.keys.length(); i++) {\n            uint256 id = _user.keys.at(i);\n            (, uint256 _power, ,) = asset.getAssetInfo(id);\n            \n            totalPower = totalPower.add(_user.values[id].mul(_power));\n        }\n\n        _user.totalPower = totalPower;\n    }\n\n\n    function _updateUserReward(UserInfo storage user) private{\n        if(user.totalPower > 0){\n            uint256 totalReward = user.totalPower.mul(rewardInfo.accTokenPerShare).div(SAFE_MULTIPLIER);\n            uint256 pending = totalReward.sub(user.rewardDebt);\n            user.pendingReward = user.pendingReward.add(pending);\n        }       \n    }\n\n    /* ========== OWNER ONLY FUNCTIONS ========== */\n\n    function setRewardPerBlock(uint256 _tokenPerBlock) external onlyOwner {\n        rewardForBlock = _tokenPerBlock;\n    }\n\n    /* ========== MODIFIER ========== */\n\n    modifier fromAssetAddress() {\n        require(\n            msg.sender == address(asset),\n            \"Pool: received Asset from unauthenticated contract\"\n        );\n        _;\n    }\n\n}",
  "sourcePath": "/Users/p489548/SmartContracts/Ingot Farming Project/ingot-contracts/contracts/IngotFarm.sol",
  "compiler": {
    "name": "solc",
    "version": "0.8.6+commit.11564f7e.Emscripten.clang"
  },
  "schemaVersion": "3.4.2",
  "updatedAt": "2021-07-30T11:25:24.755Z",
  "networkType": "ethereum",
  "devdoc": {
    "kind": "dev",
    "methods": {
      "owner()": {
        "details": "Returns the address of the current owner."
      },
      "renounceOwnership()": {
        "details": "Leaves the contract without owner. It will not be possible to call `onlyOwner` functions anymore. Can only be called by the current owner. NOTE: Renouncing ownership will leave the contract without an owner, thereby removing any functionality that is only available to the owner."
      },
      "supportsInterface(bytes4)": {
        "details": "See {IERC165-supportsInterface}."
      },
      "transferOwnership(address)": {
        "details": "Transfers ownership of the contract to a new account (`newOwner`). Can only be called by the current owner."
      }
    },
    "version": 1
  },
  "userdoc": {
    "kind": "user",
    "methods": {},
    "version": 1
  }
}