{
  "contractName": "IngotNFT",
  "abi": [
    {
      "inputs": [],
      "stateMutability": "nonpayable",
      "type": "constructor"
    },
    {
      "anonymous": false,
      "inputs": [
        {
          "indexed": true,
          "internalType": "address",
          "name": "account",
          "type": "address"
        },
        {
          "indexed": true,
          "internalType": "address",
          "name": "operator",
          "type": "address"
        },
        {
          "indexed": false,
          "internalType": "bool",
          "name": "approved",
          "type": "bool"
        }
      ],
      "name": "ApprovalForAll",
      "type": "event"
    },
    {
      "anonymous": false,
      "inputs": [
        {
          "indexed": true,
          "internalType": "address",
          "name": "previousOwner",
          "type": "address"
        },
        {
          "indexed": true,
          "internalType": "address",
          "name": "newOwner",
          "type": "address"
        }
      ],
      "name": "OwnershipTransferred",
      "type": "event"
    },
    {
      "anonymous": false,
      "inputs": [
        {
          "indexed": true,
          "internalType": "address",
          "name": "operator",
          "type": "address"
        },
        {
          "indexed": true,
          "internalType": "address",
          "name": "from",
          "type": "address"
        },
        {
          "indexed": true,
          "internalType": "address",
          "name": "to",
          "type": "address"
        },
        {
          "indexed": false,
          "internalType": "uint256[]",
          "name": "ids",
          "type": "uint256[]"
        },
        {
          "indexed": false,
          "internalType": "uint256[]",
          "name": "values",
          "type": "uint256[]"
        }
      ],
      "name": "TransferBatch",
      "type": "event"
    },
    {
      "anonymous": false,
      "inputs": [
        {
          "indexed": true,
          "internalType": "address",
          "name": "operator",
          "type": "address"
        },
        {
          "indexed": true,
          "internalType": "address",
          "name": "from",
          "type": "address"
        },
        {
          "indexed": true,
          "internalType": "address",
          "name": "to",
          "type": "address"
        },
        {
          "indexed": false,
          "internalType": "uint256",
          "name": "id",
          "type": "uint256"
        },
        {
          "indexed": false,
          "internalType": "uint256",
          "name": "value",
          "type": "uint256"
        }
      ],
      "name": "TransferSingle",
      "type": "event"
    },
    {
      "anonymous": false,
      "inputs": [
        {
          "indexed": false,
          "internalType": "string",
          "name": "value",
          "type": "string"
        },
        {
          "indexed": true,
          "internalType": "uint256",
          "name": "id",
          "type": "uint256"
        }
      ],
      "name": "URI",
      "type": "event"
    },
    {
      "inputs": [
        {
          "internalType": "address",
          "name": "",
          "type": "address"
        }
      ],
      "name": "_minters",
      "outputs": [
        {
          "internalType": "bool",
          "name": "",
          "type": "bool"
        }
      ],
      "stateMutability": "view",
      "type": "function",
      "constant": true
    },
    {
      "inputs": [
        {
          "internalType": "uint256",
          "name": "",
          "type": "uint256"
        }
      ],
      "name": "assets",
      "outputs": [
        {
          "internalType": "uint256",
          "name": "id",
          "type": "uint256"
        },
        {
          "internalType": "uint256",
          "name": "power",
          "type": "uint256"
        },
        {
          "internalType": "uint256",
          "name": "currMinting",
          "type": "uint256"
        },
        {
          "internalType": "uint256",
          "name": "maxMinting",
          "type": "uint256"
        }
      ],
      "stateMutability": "view",
      "type": "function",
      "constant": true
    },
    {
      "inputs": [
        {
          "internalType": "address",
          "name": "account",
          "type": "address"
        },
        {
          "internalType": "uint256",
          "name": "id",
          "type": "uint256"
        }
      ],
      "name": "balanceOf",
      "outputs": [
        {
          "internalType": "uint256",
          "name": "",
          "type": "uint256"
        }
      ],
      "stateMutability": "view",
      "type": "function",
      "constant": true
    },
    {
      "inputs": [
        {
          "internalType": "address[]",
          "name": "accounts",
          "type": "address[]"
        },
        {
          "internalType": "uint256[]",
          "name": "ids",
          "type": "uint256[]"
        }
      ],
      "name": "balanceOfBatch",
      "outputs": [
        {
          "internalType": "uint256[]",
          "name": "",
          "type": "uint256[]"
        }
      ],
      "stateMutability": "view",
      "type": "function",
      "constant": true
    },
    {
      "inputs": [
        {
          "internalType": "address",
          "name": "account",
          "type": "address"
        },
        {
          "internalType": "address",
          "name": "operator",
          "type": "address"
        }
      ],
      "name": "isApprovedForAll",
      "outputs": [
        {
          "internalType": "bool",
          "name": "",
          "type": "bool"
        }
      ],
      "stateMutability": "view",
      "type": "function",
      "constant": true
    },
    {
      "inputs": [],
      "name": "owner",
      "outputs": [
        {
          "internalType": "address",
          "name": "",
          "type": "address"
        }
      ],
      "stateMutability": "view",
      "type": "function",
      "constant": true
    },
    {
      "inputs": [],
      "name": "renounceOwnership",
      "outputs": [],
      "stateMutability": "nonpayable",
      "type": "function"
    },
    {
      "inputs": [
        {
          "internalType": "address",
          "name": "from",
          "type": "address"
        },
        {
          "internalType": "address",
          "name": "to",
          "type": "address"
        },
        {
          "internalType": "uint256[]",
          "name": "ids",
          "type": "uint256[]"
        },
        {
          "internalType": "uint256[]",
          "name": "amounts",
          "type": "uint256[]"
        },
        {
          "internalType": "bytes",
          "name": "data",
          "type": "bytes"
        }
      ],
      "name": "safeBatchTransferFrom",
      "outputs": [],
      "stateMutability": "nonpayable",
      "type": "function"
    },
    {
      "inputs": [
        {
          "internalType": "address",
          "name": "from",
          "type": "address"
        },
        {
          "internalType": "address",
          "name": "to",
          "type": "address"
        },
        {
          "internalType": "uint256",
          "name": "id",
          "type": "uint256"
        },
        {
          "internalType": "uint256",
          "name": "amount",
          "type": "uint256"
        },
        {
          "internalType": "bytes",
          "name": "data",
          "type": "bytes"
        }
      ],
      "name": "safeTransferFrom",
      "outputs": [],
      "stateMutability": "nonpayable",
      "type": "function"
    },
    {
      "inputs": [
        {
          "internalType": "address",
          "name": "operator",
          "type": "address"
        },
        {
          "internalType": "bool",
          "name": "approved",
          "type": "bool"
        }
      ],
      "name": "setApprovalForAll",
      "outputs": [],
      "stateMutability": "nonpayable",
      "type": "function"
    },
    {
      "inputs": [
        {
          "internalType": "bytes4",
          "name": "interfaceId",
          "type": "bytes4"
        }
      ],
      "name": "supportsInterface",
      "outputs": [
        {
          "internalType": "bool",
          "name": "",
          "type": "bool"
        }
      ],
      "stateMutability": "view",
      "type": "function",
      "constant": true
    },
    {
      "inputs": [
        {
          "internalType": "address",
          "name": "newOwner",
          "type": "address"
        }
      ],
      "name": "transferOwnership",
      "outputs": [],
      "stateMutability": "nonpayable",
      "type": "function"
    },
    {
      "inputs": [
        {
          "internalType": "uint256",
          "name": "",
          "type": "uint256"
        }
      ],
      "name": "uri",
      "outputs": [
        {
          "internalType": "string",
          "name": "",
          "type": "string"
        }
      ],
      "stateMutability": "view",
      "type": "function",
      "constant": true
    },
    {
      "inputs": [
        {
          "internalType": "address",
          "name": "to",
          "type": "address"
        },
        {
          "internalType": "uint256",
          "name": "id",
          "type": "uint256"
        },
        {
          "internalType": "uint256",
          "name": "amount",
          "type": "uint256"
        },
        {
          "internalType": "bytes",
          "name": "data",
          "type": "bytes"
        }
      ],
      "name": "mint",
      "outputs": [],
      "stateMutability": "nonpayable",
      "type": "function"
    },
    {
      "inputs": [
        {
          "internalType": "address",
          "name": "to",
          "type": "address"
        },
        {
          "internalType": "uint256[]",
          "name": "ids",
          "type": "uint256[]"
        },
        {
          "internalType": "uint256[]",
          "name": "amounts",
          "type": "uint256[]"
        },
        {
          "internalType": "bytes",
          "name": "data",
          "type": "bytes"
        }
      ],
      "name": "mintBatch",
      "outputs": [],
      "stateMutability": "nonpayable",
      "type": "function"
    },
    {
      "inputs": [
        {
          "internalType": "string",
          "name": "_newuri",
          "type": "string"
        }
      ],
      "name": "setURI",
      "outputs": [],
      "stateMutability": "nonpayable",
      "type": "function"
    },
    {
      "inputs": [
        {
          "internalType": "uint256",
          "name": "id",
          "type": "uint256"
        },
        {
          "internalType": "uint256",
          "name": "power",
          "type": "uint256"
        },
        {
          "internalType": "uint256",
          "name": "maxMinting",
          "type": "uint256"
        }
      ],
      "name": "addType",
      "outputs": [],
      "stateMutability": "nonpayable",
      "type": "function"
    },
    {
      "inputs": [
        {
          "internalType": "uint256[]",
          "name": "ids",
          "type": "uint256[]"
        },
        {
          "internalType": "uint256[]",
          "name": "amounts",
          "type": "uint256[]"
        }
      ],
      "name": "burnAssetBatch",
      "outputs": [],
      "stateMutability": "nonpayable",
      "type": "function"
    },
    {
      "inputs": [
        {
          "internalType": "address",
          "name": "_minter",
          "type": "address"
        }
      ],
      "name": "addMinter",
      "outputs": [],
      "stateMutability": "nonpayable",
      "type": "function"
    },
    {
      "inputs": [
        {
          "internalType": "address",
          "name": "_minter",
          "type": "address"
        }
      ],
      "name": "removeMinter",
      "outputs": [],
      "stateMutability": "nonpayable",
      "type": "function"
    },
    {
      "inputs": [
        {
          "internalType": "uint256",
          "name": "_id",
          "type": "uint256"
        }
      ],
      "name": "getAssetInfo",
      "outputs": [
        {
          "internalType": "uint256",
          "name": "",
          "type": "uint256"
        },
        {
          "internalType": "uint256",
          "name": "",
          "type": "uint256"
        },
        {
          "internalType": "uint256",
          "name": "",
          "type": "uint256"
        },
        {
          "internalType": "uint256",
          "name": "",
          "type": "uint256"
        }
      ],
      "stateMutability": "view",
      "type": "function",
      "constant": true
    },
    {
      "inputs": [
        {
          "internalType": "uint256[]",
          "name": "ids",
          "type": "uint256[]"
        }
      ],
      "name": "assetPowerBatch",
      "outputs": [
        {
          "internalType": "uint256[]",
          "name": "",
          "type": "uint256[]"
        }
      ],
      "stateMutability": "view",
      "type": "function",
      "constant": true
    },
    {
      "inputs": [
        {
          "internalType": "uint256[]",
          "name": "ids",
          "type": "uint256[]"
        }
      ],
      "name": "assetCurrMintingBatch",
      "outputs": [
        {
          "internalType": "uint256[]",
          "name": "",
          "type": "uint256[]"
        }
      ],
      "stateMutability": "view",
      "type": "function",
      "constant": true
    },
    {
      "inputs": [
        {
          "internalType": "uint256[]",
          "name": "ids",
          "type": "uint256[]"
        }
      ],
      "name": "assetMaxMintingBatch",
      "outputs": [
        {
          "internalType": "uint256[]",
          "name": "",
          "type": "uint256[]"
        }
      ],
      "stateMutability": "view",
      "type": "function",
      "constant": true
    }
  ],
  "bytecode": "0x60806040523480156200001157600080fd5b50604051806060016040528060378152602001620028d460379139620000378162000167565b50600380546001600160a01b0319163390811790915560405181906000907f8be0079c531659141344cd1fd0a4f28419497f9722a3daafe3b4186f6b6457e0908290a350336000908152600460205260408120805460ff19166001179055620000a590600a611b5862000180565b620000b66001600e61153162000180565b620000c76002601361106c62000180565b620000d86003601a610cba62000180565b620000e9600460236109dd62000180565b620000fa6005602f6107a562000180565b6200010b600660416105ec62000180565b6200011c6007605761049762000180565b6200012d6008607661038e62000180565b6200013e600960a06102c262000180565b6200014f600a60d761022362000180565b62000161600b6101226101a862000180565b620002e3565b80516200017c90600290602084019062000200565b5050565b6003546001600160a01b03163314620001df5760405162461bcd60e51b815260206004820181905260248201527f4f776e61626c653a2063616c6c6572206973206e6f7420746865206f776e6572604482015260640160405180910390fd5b60008381526005602052604090209283556001830191909155600390910155565b8280546200020e90620002a6565b90600052602060002090601f0160209004810192826200023257600085556200027d565b82601f106200024d57805160ff19168380011785556200027d565b828001600101855582156200027d579182015b828111156200027d57825182559160200191906001019062000260565b506200028b9291506200028f565b5090565b5b808211156200028b576000815560010162000290565b600181811c90821680620002bb57607f821691505b60208210811415620002dd57634e487b7160e01b600052602260045260246000fd5b50919050565b6125e180620002f36000396000f3fe608060405234801561001057600080fd5b50600436106101575760003560e01c8063715018a6116100c3578063a22cb4651161007c578063a22cb465146102fe578063cf35bdd014610311578063e985e9c514610366578063f242432a146103a2578063f2fde38b146103b5578063f637d950146103c857600080fd5b8063715018a61461028f578063731133e9146102975780638248f4f5146102aa5780638da5cb5b146102bd578063983b2d56146102d85780639cfeb6d2146102eb57600080fd5b80632eb2c2d6116101155780632eb2c2d6146102005780633092afd5146102135780633575597d1461022657806340d7f55e146102495780634e1273f4146102695780635aab152a1461027c57600080fd5b8062fdd58e1461015c57806301ffc9a71461018257806302fe5305146101a557806306203552146101ba5780630e89341c146101cd5780631f7fdffa146101ed575b600080fd5b61016f61016a366004611ddf565b6103fe565b6040519081526020015b60405180910390f35b610195610190366004611fc8565b610495565b6040519015158152602001610179565b6101b86101b3366004612002565b6104e7565b005b6101b86101c8366004611f7c565b61051d565b6101e06101db36600461204a565b61065c565b60405161017991906121fb565b6101b86101fb366004611cf9565b6106f0565b6101b861020e366004611bec565b6108fd565b6101b8610221366004611b9e565b610b67565b610195610234366004611b9e565b60046020526000908152604090205460ff1681565b61025c610257366004611f40565b610bb2565b60405161017991906121ba565b61025c610277366004611e70565b610c6b565b61025c61028a366004611f40565b610d94565b6101b8610e46565b6101b86102a5366004611e09565b610eba565b61025c6102b8366004611f40565b610fda565b6003546040516001600160a01b039091168152602001610179565b6101b86102e6366004611b9e565b61108c565b6101b86102f9366004612063565b6110da565b6101b861030c366004611da3565b611125565b61034661031f36600461204a565b60056020526000908152604090208054600182015460028301546003909301549192909184565b604080519485526020850193909352918301526060820152608001610179565b610195610374366004611bb9565b6001600160a01b03918216600090815260016020908152604080832093909416825291909152205460ff1690565b6101b86103b0366004611c95565b6111fc565b6101b86103c3366004611b9e565b6113a3565b6103466103d636600461204a565b6000908152600560205260409020805460018201546002830154600390930154919390929190565b60006001600160a01b03831661046f5760405162461bcd60e51b815260206004820152602b60248201527f455243313135353a2062616c616e636520717565727920666f7220746865207a60448201526a65726f206164647265737360a81b60648201526084015b60405180910390fd5b506000908152602081815260408083206001600160a01b03949094168352929052205490565b60006001600160e01b03198216636cdb3d1360e11b14806104c657506001600160e01b031982166303a24d0760e21b145b806104e157506301ffc9a760e01b6001600160e01b03198316145b92915050565b6003546001600160a01b031633146105115760405162461bcd60e51b8152600401610466906122e5565b61051a8161148e565b50565b6003546001600160a01b031633146105475760405162461bcd60e51b8152600401610466906122e5565b60008251116105685760405162461bcd60e51b81526004016104669061231a565b80518251146105895760405162461bcd60e51b81526004016104669061231a565b60005b82518110156106575760008382815181106105a9576105a96124c4565b6020026020010151905060008383815181106105c7576105c76124c4565b602002602001015190506000600560008481526020019081526020016000209050600081600301541161060c5760405162461bcd60e51b81526004016104669061231a565b816106205760028101546003820155610643565b600381015461063d9061063390846114a5565b82600201546114b8565b60038201555b5050508061065090612493565b905061058c565b505050565b60606002805461066b9061242c565b80601f01602080910402602001604051908101604052809291908181526020018280546106979061242c565b80156106e45780601f106106b9576101008083540402835291602001916106e4565b820191906000526020600020905b8154815290600101906020018083116106c757829003601f168201915b50505050509050919050565b3360009081526004602052604090205460ff166107395760405162461bcd60e51b815260206004820152600760248201526610b6b4b73a32b960c91b6044820152606401610466565b8483146107585760405162461bcd60e51b815260040161046690612351565b60005b85811015610851576000878783818110610777576107776124c4565b9050602002013590506000868684818110610794576107946124c4565b905060200201359050600060056000848152602001908152602001600020905060008160030154116107c557600080fd5b600381015460028201546107d990846114cf565b11156108275760405162461bcd60e51b815260206004820152601a60248201527f457863656564206d6178206d696e74696e6720616c6c6f7765640000000000006044820152606401610466565b600281015461083690836114cf565b6002909101555081905061084981612493565b91505061075b565b506108f48787878080602002602001604051908101604052809392919081815260200183836020028082843760009201919091525050604080516020808b0282810182019093528a82529093508a92508991829185019084908082843760009201919091525050604080516020601f8a0181900481028201810190925288815292508891508790819084018382808284376000920191909152506114db92505050565b50505050505050565b815183511461091e5760405162461bcd60e51b815260040161046690612351565b6001600160a01b0384166109445760405162461bcd60e51b815260040161046690612256565b6001600160a01b03851633148061096057506109608533610374565b6109c75760405162461bcd60e51b815260206004820152603260248201527f455243313135353a207472616e736665722063616c6c6572206973206e6f74206044820152711bdddb995c881b9bdc88185c1c1c9bdd995960721b6064820152608401610466565b3360005b8451811015610af95760008582815181106109e8576109e86124c4565b602002602001015190506000858381518110610a0657610a066124c4565b602090810291909101810151600084815280835260408082206001600160a01b038e168352909352919091205490915081811015610a565760405162461bcd60e51b81526004016104669061229b565b610a608282612415565b60008085815260200190815260200160002060008c6001600160a01b03166001600160a01b03168152602001908152602001600020819055508160008085815260200190815260200160002060008b6001600160a01b03166001600160a01b031681526020019081526020016000206000828254610ade91906123fd565b9250508190555050505080610af290612493565b90506109cb565b50846001600160a01b0316866001600160a01b0316826001600160a01b03167f4a39dc06d4c0dbc64b70af90fd698a233a518aa5d07e595d983b8c0526c8f7fb8787604051610b499291906121cd565b60405180910390a4610b5f818787878787611622565b505050505050565b6003546001600160a01b03163314610b915760405162461bcd60e51b8152600401610466906122e5565b6001600160a01b03166000908152600460205260409020805460ff19169055565b6060600082516001600160401b03811115610bcf57610bcf6124da565b604051908082528060200260200182016040528015610bf8578160200160208202803683370190505b50905060005b8351811015610c645760056000858381518110610c1d57610c1d6124c4565b6020026020010151815260200190815260200160002060010154828281518110610c4957610c496124c4565b6020908102919091010152610c5d81612493565b9050610bfe565b5092915050565b60608151835114610cd05760405162461bcd60e51b815260206004820152602960248201527f455243313135353a206163636f756e747320616e6420696473206c656e677468604482015268040dad2e6dac2e8c6d60bb1b6064820152608401610466565b600083516001600160401b03811115610ceb57610ceb6124da565b604051908082528060200260200182016040528015610d14578160200160208202803683370190505b50905060005b8451811015610d8c57610d5f858281518110610d3857610d386124c4565b6020026020010151858381518110610d5257610d526124c4565b60200260200101516103fe565b828281518110610d7157610d716124c4565b6020908102919091010152610d8581612493565b9050610d1a565b509392505050565b6060600082516001600160401b03811115610db157610db16124da565b604051908082528060200260200182016040528015610dda578160200160208202803683370190505b50905060005b8351811015610c645760056000858381518110610dff57610dff6124c4565b6020026020010151815260200190815260200160002060020154828281518110610e2b57610e2b6124c4565b6020908102919091010152610e3f81612493565b9050610de0565b6003546001600160a01b03163314610e705760405162461bcd60e51b8152600401610466906122e5565b6003546040516000916001600160a01b0316907f8be0079c531659141344cd1fd0a4f28419497f9722a3daafe3b4186f6b6457e0908390a3600380546001600160a01b0319169055565b3360009081526004602052604090205460ff16610f035760405162461bcd60e51b815260206004820152600760248201526610b6b4b73a32b960c91b6044820152606401610466565b60008481526005602052604090206003810154610f1f57600080fd5b60038101546002820154610f3390866114cf565b1115610f815760405162461bcd60e51b815260206004820152601a60248201527f457863656564206d6178206d696e74696e6720616c6c6f7765640000000000006044820152606401610466565b6002810154610f9090856114cf565b8160020181905550610b5f86868686868080601f01602080910402602001604051908101604052809392919081815260200183838082843760009201919091525061178d92505050565b6060600082516001600160401b03811115610ff757610ff76124da565b604051908082528060200260200182016040528015611020578160200160208202803683370190505b50905060005b8351811015610c645760056000858381518110611045576110456124c4565b6020026020010151815260200190815260200160002060030154828281518110611071576110716124c4565b602090810291909101015261108581612493565b9050611026565b6003546001600160a01b031633146110b65760405162461bcd60e51b8152600401610466906122e5565b6001600160a01b03166000908152600460205260409020805460ff19166001179055565b6003546001600160a01b031633146111045760405162461bcd60e51b8152600401610466906122e5565b60008381526005602052604090209283556001830191909155600390910155565b336001600160a01b03831614156111905760405162461bcd60e51b815260206004820152602960248201527f455243313135353a2073657474696e6720617070726f76616c20737461747573604482015268103337b91039b2b63360b91b6064820152608401610466565b3360008181526001602090815260408083206001600160a01b03871680855290835292819020805460ff191686151590811790915590519081529192917f17307eab39ab6107e8899845ad3d59bd9653f200f220920489ca2b5937696c31910160405180910390a35050565b6001600160a01b0384166112225760405162461bcd60e51b815260040161046690612256565b6001600160a01b03851633148061123e575061123e8533610374565b61129c5760405162461bcd60e51b815260206004820152602960248201527f455243313135353a2063616c6c6572206973206e6f74206f776e6572206e6f7260448201526808185c1c1c9bdd995960ba1b6064820152608401610466565b336112bc8187876112ac88611854565b6112b588611854565b5050505050565b6000848152602081815260408083206001600160a01b038a168452909152902054838110156112fd5760405162461bcd60e51b81526004016104669061229b565b6113078482612415565b6000868152602081815260408083206001600160a01b038c811685529252808320939093558816815290812080548692906113439084906123fd565b909155505060408051868152602081018690526001600160a01b03808916928a821692918616917fc3d58168c5ae7397731d063d5bbf3d657854427343f4c083240f7aacaa2d0f62910160405180910390a46108f482888888888861189f565b6003546001600160a01b031633146113cd5760405162461bcd60e51b8152600401610466906122e5565b6001600160a01b0381166114325760405162461bcd60e51b815260206004820152602660248201527f4f776e61626c653a206e6577206f776e657220697320746865207a65726f206160448201526564647265737360d01b6064820152608401610466565b6003546040516001600160a01b038084169216907f8be0079c531659141344cd1fd0a4f28419497f9722a3daafe3b4186f6b6457e090600090a3600380546001600160a01b0319166001600160a01b0392909216919091179055565b80516114a1906002906020840190611969565b5050565b60006114b18284612415565b9392505050565b6000818310156114c857816114b1565b5090919050565b60006114b182846123fd565b6001600160a01b0384166115015760405162461bcd60e51b815260040161046690612399565b81518351146115225760405162461bcd60e51b815260040161046690612351565b3360005b84518110156115be57838181518110611541576115416124c4565b602002602001015160008087848151811061155e5761155e6124c4565b602002602001015181526020019081526020016000206000886001600160a01b03166001600160a01b0316815260200190815260200160002060008282546115a691906123fd565b909155508190506115b681612493565b915050611526565b50846001600160a01b031660006001600160a01b0316826001600160a01b03167f4a39dc06d4c0dbc64b70af90fd698a233a518aa5d07e595d983b8c0526c8f7fb878760405161160f9291906121cd565b60405180910390a46112b5816000878787875b6001600160a01b0384163b15610b5f5760405163bc197c8160e01b81526001600160a01b0385169063bc197c81906116669089908990889088908890600401612117565b602060405180830381600087803b15801561168057600080fd5b505af19250505080156116b0575060408051601f3d908101601f191682019092526116ad91810190611fe5565b60015b61175d576116bc6124f0565b806308c379a014156116f657506116d161250c565b806116dc57506116f8565b8060405162461bcd60e51b815260040161046691906121fb565b505b60405162461bcd60e51b815260206004820152603460248201527f455243313135353a207472616e7366657220746f206e6f6e20455243313135356044820152732932b1b2b4bb32b91034b6b83632b6b2b73a32b960611b6064820152608401610466565b6001600160e01b0319811663bc197c8160e01b146108f45760405162461bcd60e51b81526004016104669061220e565b6001600160a01b0384166117b35760405162461bcd60e51b815260040161046690612399565b336117c4816000876112ac88611854565b6000848152602081815260408083206001600160a01b0389168452909152812080548592906117f49084906123fd565b909155505060408051858152602081018590526001600160a01b0380881692600092918516917fc3d58168c5ae7397731d063d5bbf3d657854427343f4c083240f7aacaa2d0f62910160405180910390a46112b58160008787878761189f565b6040805160018082528183019092526060916000919060208083019080368337019050509050828160008151811061188e5761188e6124c4565b602090810291909101015292915050565b6001600160a01b0384163b15610b5f5760405163f23a6e6160e01b81526001600160a01b0385169063f23a6e61906118e39089908990889088908890600401612175565b602060405180830381600087803b1580156118fd57600080fd5b505af192505050801561192d575060408051601f3d908101601f1916820190925261192a91810190611fe5565b60015b611939576116bc6124f0565b6001600160e01b0319811663f23a6e6160e01b146108f45760405162461bcd60e51b81526004016104669061220e565b8280546119759061242c565b90600052602060002090601f01602090048101928261199757600085556119dd565b82601f106119b057805160ff19168380011785556119dd565b828001600101855582156119dd579182015b828111156119dd5782518255916020019190600101906119c2565b506119e99291506119ed565b5090565b5b808211156119e957600081556001016119ee565b60006001600160401b03831115611a1b57611a1b6124da565b604051611a32601f8501601f191660200182612467565b809150838152848484011115611a4757600080fd5b83836020830137600060208583010152509392505050565b80356001600160a01b0381168114611a7657600080fd5b919050565b60008083601f840112611a8d57600080fd5b5081356001600160401b03811115611aa457600080fd5b6020830191508360208260051b8501011115611abf57600080fd5b9250929050565b600082601f830112611ad757600080fd5b81356020611ae4826123da565b604051611af18282612467565b8381528281019150858301600585901b87018401881015611b1157600080fd5b60005b85811015611b3057813584529284019290840190600101611b14565b5090979650505050505050565b60008083601f840112611b4f57600080fd5b5081356001600160401b03811115611b6657600080fd5b602083019150836020828501011115611abf57600080fd5b600082601f830112611b8f57600080fd5b6114b183833560208501611a02565b600060208284031215611bb057600080fd5b6114b182611a5f565b60008060408385031215611bcc57600080fd5b611bd583611a5f565b9150611be360208401611a5f565b90509250929050565b600080600080600060a08688031215611c0457600080fd5b611c0d86611a5f565b9450611c1b60208701611a5f565b935060408601356001600160401b0380821115611c3757600080fd5b611c4389838a01611ac6565b94506060880135915080821115611c5957600080fd5b611c6589838a01611ac6565b93506080880135915080821115611c7b57600080fd5b50611c8888828901611b7e565b9150509295509295909350565b600080600080600060a08688031215611cad57600080fd5b611cb686611a5f565b9450611cc460208701611a5f565b9350604086013592506060860135915060808601356001600160401b03811115611ced57600080fd5b611c8888828901611b7e565b60008060008060008060006080888a031215611d1457600080fd5b611d1d88611a5f565b965060208801356001600160401b0380821115611d3957600080fd5b611d458b838c01611a7b565b909850965060408a0135915080821115611d5e57600080fd5b611d6a8b838c01611a7b565b909650945060608a0135915080821115611d8357600080fd5b50611d908a828b01611b3d565b989b979a50959850939692959293505050565b60008060408385031215611db657600080fd5b611dbf83611a5f565b915060208301358015158114611dd457600080fd5b809150509250929050565b60008060408385031215611df257600080fd5b611dfb83611a5f565b946020939093013593505050565b600080600080600060808688031215611e2157600080fd5b611e2a86611a5f565b9450602086013593506040860135925060608601356001600160401b03811115611e5357600080fd5b611e5f88828901611b3d565b969995985093965092949392505050565b60008060408385031215611e8357600080fd5b82356001600160401b0380821115611e9a57600080fd5b818501915085601f830112611eae57600080fd5b81356020611ebb826123da565b604051611ec88282612467565b8381528281019150858301600585901b870184018b1015611ee857600080fd5b600096505b84871015611f1257611efe81611a5f565b835260019690960195918301918301611eed565b5096505086013592505080821115611f2957600080fd5b50611f3685828601611ac6565b9150509250929050565b600060208284031215611f5257600080fd5b81356001600160401b03811115611f6857600080fd5b611f7484828501611ac6565b949350505050565b60008060408385031215611f8f57600080fd5b82356001600160401b0380821115611fa657600080fd5b611fb286838701611ac6565b93506020850135915080821115611f2957600080fd5b600060208284031215611fda57600080fd5b81356114b181612595565b600060208284031215611ff757600080fd5b81516114b181612595565b60006020828403121561201457600080fd5b81356001600160401b0381111561202a57600080fd5b8201601f8101841361203b57600080fd5b611f7484823560208401611a02565b60006020828403121561205c57600080fd5b5035919050565b60008060006060848603121561207857600080fd5b505081359360208301359350604090920135919050565b600081518084526020808501945080840160005b838110156120bf578151875295820195908201906001016120a3565b509495945050505050565b6000815180845260005b818110156120f0576020818501810151868301820152016120d4565b81811115612102576000602083870101525b50601f01601f19169290920160200192915050565b6001600160a01b0386811682528516602082015260a0604082018190526000906121439083018661208f565b8281036060840152612155818661208f565b9050828103608084015261216981856120ca565b98975050505050505050565b6001600160a01b03868116825285166020820152604081018490526060810183905260a0608082018190526000906121af908301846120ca565b979650505050505050565b6020815260006114b1602083018461208f565b6040815260006121e0604083018561208f565b82810360208401526121f2818561208f565b95945050505050565b6020815260006114b160208301846120ca565b60208082526028908201527f455243313135353a204552433131353552656365697665722072656a656374656040820152676420746f6b656e7360c01b606082015260800190565b60208082526025908201527f455243313135353a207472616e7366657220746f20746865207a65726f206164604082015264647265737360d81b606082015260800190565b6020808252602a908201527f455243313135353a20696e73756666696369656e742062616c616e636520666f60408201526939103a3930b739b332b960b11b606082015260800190565b6020808252818101527f4f776e61626c653a2063616c6c6572206973206e6f7420746865206f776e6572604082015260600190565b6020808252601a908201527f496e676f744e46543a20696e76616c696420617267756d656e74000000000000604082015260600190565b60208082526028908201527f455243313135353a2069647320616e6420616d6f756e7473206c656e677468206040820152670dad2e6dac2e8c6d60c31b606082015260800190565b60208082526021908201527f455243313135353a206d696e7420746f20746865207a65726f206164647265736040820152607360f81b606082015260800190565b60006001600160401b038211156123f3576123f36124da565b5060051b60200190565b60008219821115612410576124106124ae565b500190565b600082821015612427576124276124ae565b500390565b600181811c9082168061244057607f821691505b6020821081141561246157634e487b7160e01b600052602260045260246000fd5b50919050565b601f8201601f191681016001600160401b038111828210171561248c5761248c6124da565b6040525050565b60006000198214156124a7576124a76124ae565b5060010190565b634e487b7160e01b600052601160045260246000fd5b634e487b7160e01b600052603260045260246000fd5b634e487b7160e01b600052604160045260246000fd5b600060033d11156125095760046000803e5060005160e01c5b90565b600060443d101561251a5790565b6040516003193d81016004833e81513d6001600160401b03816024840111818411171561254957505050505090565b82850191508151818111156125615750505050505090565b843d870101602082850101111561257b5750505050505090565b61258a60208286010187612467565b509095945050505050565b6001600160e01b03198116811461051a57600080fdfea264697066735822122068864c84f1d84272e4e33b0ddf199272959041d8e6a867dfe07e71217f46db3864736f6c6343000806003368747470733a2f2f6170702e696e676f746661726d696e672e66696e616e63652f6170692f696e676f746e66742f7b69647d2e6a736f6e",
  "immutableReferences": {},
  "source": "pragma solidity ^0.8.0;\n\nimport \"@openzeppelin/contracts/token/ERC1155/ERC1155.sol\";\nimport \"@openzeppelin/contracts/token/ERC1155/utils/ERC1155Receiver.sol\";\nimport \"@openzeppelin/contracts/utils/math/SafeMath.sol\";\nimport \"@openzeppelin/contracts/utils/math/Math.sol\";\nimport \"@openzeppelin/contracts/access/Ownable.sol\";\nimport \"./interfaces/IIngotNFT.sol\";\n\ncontract IngotNFT is ERC1155, IIngotNFT, Ownable {\n    using SafeMath for uint256;\n\n    mapping (address => bool) public _minters;\n    mapping (uint256 => Asset) public assets;\n\n    struct Asset {\n        uint256 id;\n        uint256 power;\n        uint256 currMinting;\n        uint256 maxMinting;\n    }\n\n    constructor() public ERC1155(\"https://app.ingotfarming.finance/api/ingotnft/{id}.json\"){\n        _minters[msg.sender] = true;\n\n        addType(0, 10, 7000);\n        addType(1, 14, 5425);\n        addType(2, 19, 4204);\n        addType(3, 26, 3258);\n        addType(4, 35, 2525);\n        addType(5, 47, 1957);\n        addType(6, 65, 1516);\n        addType(7, 87, 1175);\n        addType(8, 118, 910);\n        addType(9, 160, 706);\n        addType(10, 215, 547);\n        addType(11, 290, 424);\n\n    }\n\n    /* ========== MINTER ONLY FUNCTIONS ========== */\n\n    function mint(address to, uint256 id, uint256 amount, bytes calldata data) override external {\n        require(_minters[msg.sender], \"!minter\");\n        Asset storage asset = assets[id];\n        require(asset.maxMinting > 0);\n        require(asset.currMinting.add(amount) <= asset.maxMinting, \"Exceed max minting allowed\");\n        asset.currMinting = asset.currMinting.add(amount);\n        \n        _mint( to,  id,  amount, data);\n    }\n\n    function mintBatch(address to, uint256[] calldata ids, uint256[] calldata amounts, bytes calldata data) override external {\n        require(_minters[msg.sender], \"!minter\");\n        require(ids.length == amounts.length, \"ERC1155: ids and amounts length mismatch\");\n\n        for (uint256 i = 0; i < ids.length; i++) {\n            uint256 id = ids[i];\n            uint256 amount = amounts[i];\n            Asset storage asset = assets[id];\n            require(asset.maxMinting > 0);\n            require(asset.currMinting.add(amount) <= asset.maxMinting, \"Exceed max minting allowed\");\n            asset.currMinting = asset.currMinting.add(amount); \n        }\n        _mintBatch( to,  ids,  amounts, data);\n    }\n\n    /* ========== OWNER ONLY FUNCTIONS ========== */\n\n    function setURI(string memory _newuri) external onlyOwner {\n        _setURI(_newuri);\n    }\n\n    function addType(uint256 id, uint256 power, uint256 maxMinting) public onlyOwner {\n        Asset storage asset = assets[id];\n        asset.id = id;\n        asset.power = power;\n        asset.maxMinting = maxMinting;\n    }\n\n    function burnAssetBatch(uint256[] memory ids, uint256[] memory amounts) public onlyOwner {\n        require(ids.length > 0, \"IngotNFT: invalid argument\");\n        require(ids.length == amounts.length, \"IngotNFT: invalid argument\");\n        \n        for (uint256 i = 0; i < ids.length; ++i) {\n            uint256 id = ids[i];\n            uint256 amount = amounts[i];\n            Asset storage asset = assets[id];\n            require(asset.maxMinting > 0, \"IngotNFT: invalid argument\");\n            if(amount == 0){\n                asset.maxMinting = asset.currMinting;\n            }else{\n                asset.maxMinting = Math.max( asset.maxMinting.sub(amount), asset.currMinting);\n            }\n        }\n    }\n\n    function addMinter(address _minter) external onlyOwner {\n        _minters[_minter] = true;\n    }\n\n    function removeMinter(address _minter) external onlyOwner {\n        _minters[_minter] = false;\n    }\n\n    /* ========== PUBLIC ========== */\n\n    function getAssetInfo(uint256 _id) override external view returns(uint256, uint256, uint256, uint256){\n        return(assets[_id].id, assets[_id].power, assets[_id].currMinting, assets[_id].maxMinting);\n    }\n\n    function assetPowerBatch(uint256[] memory ids) override public view returns (uint256[] memory) {\n        uint256[] memory batch = new uint256[](ids.length);\n        for (uint256 i = 0; i < ids.length; ++i) {\n            batch[i] = assets[ids[i]].power;\n        }\n        return batch;\n    }\n\n    function assetCurrMintingBatch(uint256[] memory ids) override public view returns (uint256[] memory) {\n        uint256[] memory batch = new uint256[](ids.length);\n        for (uint256 i = 0; i < ids.length; ++i) {\n            batch[i] = assets[ids[i]].currMinting;\n        }\n        return batch;\n    }\n\n    function assetMaxMintingBatch(uint256[] memory ids) override public view returns (uint256[] memory) {\n        uint256[] memory batch = new uint256[](ids.length);\n        for (uint256 i = 0; i < ids.length; ++i) {\n            batch[i] = assets[ids[i]].maxMinting;\n        }\n        return batch;\n    }\n}",
  "sourcePath": "/Users/p489548/SmartContracts/Ingot Farming Project/ingot-contracts/contracts/IngotNFT.sol",
  "compiler": {
    "name": "solc",
    "version": "0.8.6+commit.11564f7e.Emscripten.clang"
  },
  "schemaVersion": "3.4.2",
  "updatedAt": "2021-07-30T11:25:24.732Z",
  "networkType": "ethereum",
  "devdoc": {
    "kind": "dev",
    "methods": {
      "balanceOf(address,uint256)": {
        "details": "See {IERC1155-balanceOf}. Requirements: - `account` cannot be the zero address."
      },
      "balanceOfBatch(address[],uint256[])": {
        "details": "See {IERC1155-balanceOfBatch}. Requirements: - `accounts` and `ids` must have the same length."
      },
      "isApprovedForAll(address,address)": {
        "details": "See {IERC1155-isApprovedForAll}."
      },
      "owner()": {
        "details": "Returns the address of the current owner."
      },
      "renounceOwnership()": {
        "details": "Leaves the contract without owner. It will not be possible to call `onlyOwner` functions anymore. Can only be called by the current owner. NOTE: Renouncing ownership will leave the contract without an owner, thereby removing any functionality that is only available to the owner."
      },
      "safeBatchTransferFrom(address,address,uint256[],uint256[],bytes)": {
        "details": "See {IERC1155-safeBatchTransferFrom}."
      },
      "safeTransferFrom(address,address,uint256,uint256,bytes)": {
        "details": "See {IERC1155-safeTransferFrom}."
      },
      "setApprovalForAll(address,bool)": {
        "details": "See {IERC1155-setApprovalForAll}."
      },
      "supportsInterface(bytes4)": {
        "details": "See {IERC165-supportsInterface}."
      },
      "transferOwnership(address)": {
        "details": "Transfers ownership of the contract to a new account (`newOwner`). Can only be called by the current owner."
      },
      "uri(uint256)": {
        "details": "See {IERC1155MetadataURI-uri}. This implementation returns the same URI for *all* token types. It relies on the token type ID substitution mechanism https://eips.ethereum.org/EIPS/eip-1155#metadata[defined in the EIP]. Clients calling this function must replace the `\\{id\\}` substring with the actual token type ID."
      }
    },
    "version": 1
  },
  "userdoc": {
    "kind": "user",
    "methods": {},
    "version": 1
  }
}