{
  "contractName": "IngotNFT",
  "abi": [
    {
      "inputs": [],
      "stateMutability": "nonpayable",
      "type": "constructor"
    },
    {
      "anonymous": false,
      "inputs": [
        {
          "indexed": true,
          "internalType": "address",
          "name": "account",
          "type": "address"
        },
        {
          "indexed": true,
          "internalType": "address",
          "name": "operator",
          "type": "address"
        },
        {
          "indexed": false,
          "internalType": "bool",
          "name": "approved",
          "type": "bool"
        }
      ],
      "name": "ApprovalForAll",
      "type": "event"
    },
    {
      "anonymous": false,
      "inputs": [
        {
          "indexed": true,
          "internalType": "address",
          "name": "previousOwner",
          "type": "address"
        },
        {
          "indexed": true,
          "internalType": "address",
          "name": "newOwner",
          "type": "address"
        }
      ],
      "name": "OwnershipTransferred",
      "type": "event"
    },
    {
      "anonymous": false,
      "inputs": [
        {
          "indexed": true,
          "internalType": "address",
          "name": "operator",
          "type": "address"
        },
        {
          "indexed": true,
          "internalType": "address",
          "name": "from",
          "type": "address"
        },
        {
          "indexed": true,
          "internalType": "address",
          "name": "to",
          "type": "address"
        },
        {
          "indexed": false,
          "internalType": "uint256[]",
          "name": "ids",
          "type": "uint256[]"
        },
        {
          "indexed": false,
          "internalType": "uint256[]",
          "name": "values",
          "type": "uint256[]"
        }
      ],
      "name": "TransferBatch",
      "type": "event"
    },
    {
      "anonymous": false,
      "inputs": [
        {
          "indexed": true,
          "internalType": "address",
          "name": "operator",
          "type": "address"
        },
        {
          "indexed": true,
          "internalType": "address",
          "name": "from",
          "type": "address"
        },
        {
          "indexed": true,
          "internalType": "address",
          "name": "to",
          "type": "address"
        },
        {
          "indexed": false,
          "internalType": "uint256",
          "name": "id",
          "type": "uint256"
        },
        {
          "indexed": false,
          "internalType": "uint256",
          "name": "value",
          "type": "uint256"
        }
      ],
      "name": "TransferSingle",
      "type": "event"
    },
    {
      "anonymous": false,
      "inputs": [
        {
          "indexed": false,
          "internalType": "string",
          "name": "value",
          "type": "string"
        },
        {
          "indexed": true,
          "internalType": "uint256",
          "name": "id",
          "type": "uint256"
        }
      ],
      "name": "URI",
      "type": "event"
    },
    {
      "inputs": [
        {
          "internalType": "address",
          "name": "",
          "type": "address"
        }
      ],
      "name": "_minters",
      "outputs": [
        {
          "internalType": "bool",
          "name": "",
          "type": "bool"
        }
      ],
      "stateMutability": "view",
      "type": "function"
    },
    {
      "inputs": [
        {
          "internalType": "uint256",
          "name": "",
          "type": "uint256"
        }
      ],
      "name": "assets",
      "outputs": [
        {
          "internalType": "uint256",
          "name": "id",
          "type": "uint256"
        },
        {
          "internalType": "uint256",
          "name": "power",
          "type": "uint256"
        },
        {
          "internalType": "uint256",
          "name": "currMinting",
          "type": "uint256"
        },
        {
          "internalType": "uint256",
          "name": "maxMinting",
          "type": "uint256"
        }
      ],
      "stateMutability": "view",
      "type": "function"
    },
    {
      "inputs": [
        {
          "internalType": "address",
          "name": "account",
          "type": "address"
        },
        {
          "internalType": "uint256",
          "name": "id",
          "type": "uint256"
        }
      ],
      "name": "balanceOf",
      "outputs": [
        {
          "internalType": "uint256",
          "name": "",
          "type": "uint256"
        }
      ],
      "stateMutability": "view",
      "type": "function"
    },
    {
      "inputs": [
        {
          "internalType": "address[]",
          "name": "accounts",
          "type": "address[]"
        },
        {
          "internalType": "uint256[]",
          "name": "ids",
          "type": "uint256[]"
        }
      ],
      "name": "balanceOfBatch",
      "outputs": [
        {
          "internalType": "uint256[]",
          "name": "",
          "type": "uint256[]"
        }
      ],
      "stateMutability": "view",
      "type": "function"
    },
    {
      "inputs": [
        {
          "internalType": "address",
          "name": "account",
          "type": "address"
        },
        {
          "internalType": "address",
          "name": "operator",
          "type": "address"
        }
      ],
      "name": "isApprovedForAll",
      "outputs": [
        {
          "internalType": "bool",
          "name": "",
          "type": "bool"
        }
      ],
      "stateMutability": "view",
      "type": "function"
    },
    {
      "inputs": [],
      "name": "owner",
      "outputs": [
        {
          "internalType": "address",
          "name": "",
          "type": "address"
        }
      ],
      "stateMutability": "view",
      "type": "function"
    },
    {
      "inputs": [],
      "name": "renounceOwnership",
      "outputs": [],
      "stateMutability": "nonpayable",
      "type": "function"
    },
    {
      "inputs": [
        {
          "internalType": "address",
          "name": "from",
          "type": "address"
        },
        {
          "internalType": "address",
          "name": "to",
          "type": "address"
        },
        {
          "internalType": "uint256[]",
          "name": "ids",
          "type": "uint256[]"
        },
        {
          "internalType": "uint256[]",
          "name": "amounts",
          "type": "uint256[]"
        },
        {
          "internalType": "bytes",
          "name": "data",
          "type": "bytes"
        }
      ],
      "name": "safeBatchTransferFrom",
      "outputs": [],
      "stateMutability": "nonpayable",
      "type": "function"
    },
    {
      "inputs": [
        {
          "internalType": "address",
          "name": "from",
          "type": "address"
        },
        {
          "internalType": "address",
          "name": "to",
          "type": "address"
        },
        {
          "internalType": "uint256",
          "name": "id",
          "type": "uint256"
        },
        {
          "internalType": "uint256",
          "name": "amount",
          "type": "uint256"
        },
        {
          "internalType": "bytes",
          "name": "data",
          "type": "bytes"
        }
      ],
      "name": "safeTransferFrom",
      "outputs": [],
      "stateMutability": "nonpayable",
      "type": "function"
    },
    {
      "inputs": [
        {
          "internalType": "address",
          "name": "operator",
          "type": "address"
        },
        {
          "internalType": "bool",
          "name": "approved",
          "type": "bool"
        }
      ],
      "name": "setApprovalForAll",
      "outputs": [],
      "stateMutability": "nonpayable",
      "type": "function"
    },
    {
      "inputs": [
        {
          "internalType": "bytes4",
          "name": "interfaceId",
          "type": "bytes4"
        }
      ],
      "name": "supportsInterface",
      "outputs": [
        {
          "internalType": "bool",
          "name": "",
          "type": "bool"
        }
      ],
      "stateMutability": "view",
      "type": "function"
    },
    {
      "inputs": [
        {
          "internalType": "address",
          "name": "newOwner",
          "type": "address"
        }
      ],
      "name": "transferOwnership",
      "outputs": [],
      "stateMutability": "nonpayable",
      "type": "function"
    },
    {
      "inputs": [
        {
          "internalType": "uint256",
          "name": "",
          "type": "uint256"
        }
      ],
      "name": "uri",
      "outputs": [
        {
          "internalType": "string",
          "name": "",
          "type": "string"
        }
      ],
      "stateMutability": "view",
      "type": "function"
    },
    {
      "inputs": [
        {
          "internalType": "address",
          "name": "to",
          "type": "address"
        },
        {
          "internalType": "uint256",
          "name": "id",
          "type": "uint256"
        },
        {
          "internalType": "uint256",
          "name": "amount",
          "type": "uint256"
        },
        {
          "internalType": "bytes",
          "name": "data",
          "type": "bytes"
        }
      ],
      "name": "mint",
      "outputs": [],
      "stateMutability": "nonpayable",
      "type": "function"
    },
    {
      "inputs": [
        {
          "internalType": "address",
          "name": "to",
          "type": "address"
        },
        {
          "internalType": "uint256[]",
          "name": "ids",
          "type": "uint256[]"
        },
        {
          "internalType": "uint256[]",
          "name": "amounts",
          "type": "uint256[]"
        },
        {
          "internalType": "bytes",
          "name": "data",
          "type": "bytes"
        }
      ],
      "name": "mintBatch",
      "outputs": [],
      "stateMutability": "nonpayable",
      "type": "function"
    },
    {
      "inputs": [
        {
          "internalType": "uint256",
          "name": "id",
          "type": "uint256"
        },
        {
          "internalType": "uint256",
          "name": "power",
          "type": "uint256"
        },
        {
          "internalType": "uint256",
          "name": "maxMinting",
          "type": "uint256"
        }
      ],
      "name": "addType",
      "outputs": [],
      "stateMutability": "nonpayable",
      "type": "function"
    },
    {
      "inputs": [
        {
          "internalType": "uint256[]",
          "name": "ids",
          "type": "uint256[]"
        },
        {
          "internalType": "uint256[]",
          "name": "amounts",
          "type": "uint256[]"
        }
      ],
      "name": "burnAssetBatch",
      "outputs": [],
      "stateMutability": "nonpayable",
      "type": "function"
    },
    {
      "inputs": [
        {
          "internalType": "address",
          "name": "_minter",
          "type": "address"
        }
      ],
      "name": "addMinter",
      "outputs": [],
      "stateMutability": "nonpayable",
      "type": "function"
    },
    {
      "inputs": [
        {
          "internalType": "address",
          "name": "_minter",
          "type": "address"
        }
      ],
      "name": "removeMinter",
      "outputs": [],
      "stateMutability": "nonpayable",
      "type": "function"
    },
    {
      "inputs": [
        {
          "internalType": "uint256",
          "name": "_id",
          "type": "uint256"
        }
      ],
      "name": "getAssetInfo",
      "outputs": [
        {
          "internalType": "uint256",
          "name": "",
          "type": "uint256"
        },
        {
          "internalType": "uint256",
          "name": "",
          "type": "uint256"
        },
        {
          "internalType": "uint256",
          "name": "",
          "type": "uint256"
        },
        {
          "internalType": "uint256",
          "name": "",
          "type": "uint256"
        }
      ],
      "stateMutability": "view",
      "type": "function"
    },
    {
      "inputs": [
        {
          "internalType": "uint256[]",
          "name": "ids",
          "type": "uint256[]"
        }
      ],
      "name": "assetPowerBatch",
      "outputs": [
        {
          "internalType": "uint256[]",
          "name": "",
          "type": "uint256[]"
        }
      ],
      "stateMutability": "view",
      "type": "function"
    },
    {
      "inputs": [
        {
          "internalType": "uint256[]",
          "name": "ids",
          "type": "uint256[]"
        }
      ],
      "name": "assetCurrMintingBatch",
      "outputs": [
        {
          "internalType": "uint256[]",
          "name": "",
          "type": "uint256[]"
        }
      ],
      "stateMutability": "view",
      "type": "function"
    },
    {
      "inputs": [
        {
          "internalType": "uint256[]",
          "name": "ids",
          "type": "uint256[]"
        }
      ],
      "name": "assetMaxMintingBatch",
      "outputs": [
        {
          "internalType": "uint256[]",
          "name": "",
          "type": "uint256[]"
        }
      ],
      "stateMutability": "view",
      "type": "function"
    }
  ],
  "bytecode": "0x60806040523480156200001157600080fd5b506040805160208101909152600081526200002c816200015c565b50600380546001600160a01b0319163390811790915560405181906000907f8be0079c531659141344cd1fd0a4f28419497f9722a3daafe3b4186f6b6457e0908290a350336000908152600460205260408120805460ff191660011790556200009a90600a611b5862000175565b620000ab6001600e61153162000175565b620000bc6002601361106c62000175565b620000cd6003601a610cba62000175565b620000de600460236109dd62000175565b620000ef6005602f6107a562000175565b62000100600660416105ec62000175565b620001116007605761049762000175565b620001226008607661038e62000175565b62000133600960a06102c262000175565b62000144600a60d761022362000175565b62000156600b6101226101a862000175565b620002d8565b805162000171906002906020840190620001f5565b5050565b6003546001600160a01b03163314620001d45760405162461bcd60e51b815260206004820181905260248201527f4f776e61626c653a2063616c6c6572206973206e6f7420746865206f776e6572604482015260640160405180910390fd5b60008381526005602052604090209283556001830191909155600390910155565b82805462000203906200029b565b90600052602060002090601f01602090048101928262000227576000855562000272565b82601f106200024257805160ff191683800117855562000272565b8280016001018555821562000272579182015b828111156200027257825182559160200191906001019062000255565b506200028092915062000284565b5090565b5b8082111562000280576000815560010162000285565b600181811c90821680620002b057607f821691505b60208210811415620002d257634e487b7160e01b600052602260045260246000fd5b50919050565b61248e80620002e86000396000f3fe608060405234801561001057600080fd5b506004361061014c5760003560e01c8063715018a6116100c3578063a22cb4651161007c578063a22cb465146102e0578063cf35bdd0146102f3578063e985e9c514610348578063f242432a14610384578063f2fde38b14610397578063f637d950146103aa57600080fd5b8063715018a614610271578063731133e9146102795780638248f4f51461028c5780638da5cb5b1461029f578063983b2d56146102ba5780639cfeb6d2146102cd57600080fd5b80632eb2c2d6116101155780632eb2c2d6146101e25780633092afd5146101f55780633575597d1461020857806340d7f55e1461022b5780634e1273f41461024b5780635aab152a1461025e57600080fd5b8062fdd58e1461015157806301ffc9a714610177578063062035521461019a5780630e89341c146101af5780631f7fdffa146101cf575b600080fd5b61016461015f366004611cd1565b6103e0565b6040519081526020015b60405180910390f35b61018a610185366004611eba565b610477565b604051901515815260200161016e565b6101ad6101a8366004611e6e565b6104c9565b005b6101c26101bd366004611ef4565b610608565b60405161016e91906120a5565b6101ad6101dd366004611beb565b61069c565b6101ad6101f0366004611ade565b6108a9565b6101ad610203366004611a90565b610b13565b61018a610216366004611a90565b60046020526000908152604090205460ff1681565b61023e610239366004611e32565b610b5e565b60405161016e9190612064565b61023e610259366004611d62565b610c17565b61023e61026c366004611e32565b610d40565b6101ad610df2565b6101ad610287366004611cfb565b610e66565b61023e61029a366004611e32565b610f86565b6003546040516001600160a01b03909116815260200161016e565b6101ad6102c8366004611a90565b611038565b6101ad6102db366004611f0d565b611086565b6101ad6102ee366004611c95565b6110d1565b610328610301366004611ef4565b60056020526000908152604090208054600182015460028301546003909301549192909184565b60408051948552602085019390935291830152606082015260800161016e565b61018a610356366004611aab565b6001600160a01b03918216600090815260016020908152604080832093909416825291909152205460ff1690565b6101ad610392366004611b87565b6111a8565b6101ad6103a5366004611a90565b61134f565b6103286103b8366004611ef4565b6000908152600560205260409020805460018201546002830154600390930154919390929190565b60006001600160a01b0383166104515760405162461bcd60e51b815260206004820152602b60248201527f455243313135353a2062616c616e636520717565727920666f7220746865207a60448201526a65726f206164647265737360a81b60648201526084015b60405180910390fd5b506000908152602081815260408083206001600160a01b03949094168352929052205490565b60006001600160e01b03198216636cdb3d1360e11b14806104a857506001600160e01b031982166303a24d0760e21b145b806104c357506301ffc9a760e01b6001600160e01b03198316145b92915050565b6003546001600160a01b031633146104f35760405162461bcd60e51b81526004016104489061218f565b60008251116105145760405162461bcd60e51b8152600401610448906121c4565b80518251146105355760405162461bcd60e51b8152600401610448906121c4565b60005b82518110156106035760008382815181106105555761055561236e565b6020026020010151905060008383815181106105735761057361236e565b60200260200101519050600060056000848152602001908152602001600020905060008160030154116105b85760405162461bcd60e51b8152600401610448906121c4565b816105cc57600281015460038201556105ef565b60038101546105e9906105df908461143a565b826002015461144d565b60038201555b505050806105fc9061233d565b9050610538565b505050565b606060028054610617906122d6565b80601f0160208091040260200160405190810160405280929190818152602001828054610643906122d6565b80156106905780601f1061066557610100808354040283529160200191610690565b820191906000526020600020905b81548152906001019060200180831161067357829003601f168201915b50505050509050919050565b3360009081526004602052604090205460ff166106e55760405162461bcd60e51b815260206004820152600760248201526610b6b4b73a32b960c91b6044820152606401610448565b8483146107045760405162461bcd60e51b8152600401610448906121fb565b60005b858110156107fd5760008787838181106107235761072361236e565b90506020020135905060008686848181106107405761074061236e565b9050602002013590506000600560008481526020019081526020016000209050600081600301541161077157600080fd5b600381015460028201546107859084611464565b11156107d35760405162461bcd60e51b815260206004820152601a60248201527f457863656564206d6178206d696e74696e6720616c6c6f7765640000000000006044820152606401610448565b60028101546107e29083611464565b600290910155508190506107f58161233d565b915050610707565b506108a08787878080602002602001604051908101604052809392919081815260200183836020028082843760009201919091525050604080516020808b0282810182019093528a82529093508a92508991829185019084908082843760009201919091525050604080516020601f8a01819004810282018101909252888152925088915087908190840183828082843760009201919091525061147092505050565b50505050505050565b81518351146108ca5760405162461bcd60e51b8152600401610448906121fb565b6001600160a01b0384166108f05760405162461bcd60e51b815260040161044890612100565b6001600160a01b03851633148061090c575061090c8533610356565b6109735760405162461bcd60e51b815260206004820152603260248201527f455243313135353a207472616e736665722063616c6c6572206973206e6f74206044820152711bdddb995c881b9bdc88185c1c1c9bdd995960721b6064820152608401610448565b3360005b8451811015610aa55760008582815181106109945761099461236e565b6020026020010151905060008583815181106109b2576109b261236e565b602090810291909101810151600084815280835260408082206001600160a01b038e168352909352919091205490915081811015610a025760405162461bcd60e51b815260040161044890612145565b610a0c82826122bf565b60008085815260200190815260200160002060008c6001600160a01b03166001600160a01b03168152602001908152602001600020819055508160008085815260200190815260200160002060008b6001600160a01b03166001600160a01b031681526020019081526020016000206000828254610a8a91906122a7565b9250508190555050505080610a9e9061233d565b9050610977565b50846001600160a01b0316866001600160a01b0316826001600160a01b03167f4a39dc06d4c0dbc64b70af90fd698a233a518aa5d07e595d983b8c0526c8f7fb8787604051610af5929190612077565b60405180910390a4610b0b8187878787876115b7565b505050505050565b6003546001600160a01b03163314610b3d5760405162461bcd60e51b81526004016104489061218f565b6001600160a01b03166000908152600460205260409020805460ff19169055565b6060600082516001600160401b03811115610b7b57610b7b612384565b604051908082528060200260200182016040528015610ba4578160200160208202803683370190505b50905060005b8351811015610c105760056000858381518110610bc957610bc961236e565b6020026020010151815260200190815260200160002060010154828281518110610bf557610bf561236e565b6020908102919091010152610c098161233d565b9050610baa565b5092915050565b60608151835114610c7c5760405162461bcd60e51b815260206004820152602960248201527f455243313135353a206163636f756e747320616e6420696473206c656e677468604482015268040dad2e6dac2e8c6d60bb1b6064820152608401610448565b600083516001600160401b03811115610c9757610c97612384565b604051908082528060200260200182016040528015610cc0578160200160208202803683370190505b50905060005b8451811015610d3857610d0b858281518110610ce457610ce461236e565b6020026020010151858381518110610cfe57610cfe61236e565b60200260200101516103e0565b828281518110610d1d57610d1d61236e565b6020908102919091010152610d318161233d565b9050610cc6565b509392505050565b6060600082516001600160401b03811115610d5d57610d5d612384565b604051908082528060200260200182016040528015610d86578160200160208202803683370190505b50905060005b8351811015610c105760056000858381518110610dab57610dab61236e565b6020026020010151815260200190815260200160002060020154828281518110610dd757610dd761236e565b6020908102919091010152610deb8161233d565b9050610d8c565b6003546001600160a01b03163314610e1c5760405162461bcd60e51b81526004016104489061218f565b6003546040516000916001600160a01b0316907f8be0079c531659141344cd1fd0a4f28419497f9722a3daafe3b4186f6b6457e0908390a3600380546001600160a01b0319169055565b3360009081526004602052604090205460ff16610eaf5760405162461bcd60e51b815260206004820152600760248201526610b6b4b73a32b960c91b6044820152606401610448565b60008481526005602052604090206003810154610ecb57600080fd5b60038101546002820154610edf9086611464565b1115610f2d5760405162461bcd60e51b815260206004820152601a60248201527f457863656564206d6178206d696e74696e6720616c6c6f7765640000000000006044820152606401610448565b6002810154610f3c9085611464565b8160020181905550610b0b86868686868080601f01602080910402602001604051908101604052809392919081815260200183838082843760009201919091525061172292505050565b6060600082516001600160401b03811115610fa357610fa3612384565b604051908082528060200260200182016040528015610fcc578160200160208202803683370190505b50905060005b8351811015610c105760056000858381518110610ff157610ff161236e565b602002602001015181526020019081526020016000206003015482828151811061101d5761101d61236e565b60209081029190910101526110318161233d565b9050610fd2565b6003546001600160a01b031633146110625760405162461bcd60e51b81526004016104489061218f565b6001600160a01b03166000908152600460205260409020805460ff19166001179055565b6003546001600160a01b031633146110b05760405162461bcd60e51b81526004016104489061218f565b60008381526005602052604090209283556001830191909155600390910155565b336001600160a01b038316141561113c5760405162461bcd60e51b815260206004820152602960248201527f455243313135353a2073657474696e6720617070726f76616c20737461747573604482015268103337b91039b2b63360b91b6064820152608401610448565b3360008181526001602090815260408083206001600160a01b03871680855290835292819020805460ff191686151590811790915590519081529192917f17307eab39ab6107e8899845ad3d59bd9653f200f220920489ca2b5937696c31910160405180910390a35050565b6001600160a01b0384166111ce5760405162461bcd60e51b815260040161044890612100565b6001600160a01b0385163314806111ea57506111ea8533610356565b6112485760405162461bcd60e51b815260206004820152602960248201527f455243313135353a2063616c6c6572206973206e6f74206f776e6572206e6f7260448201526808185c1c1c9bdd995960ba1b6064820152608401610448565b33611268818787611258886117e9565b611261886117e9565b5050505050565b6000848152602081815260408083206001600160a01b038a168452909152902054838110156112a95760405162461bcd60e51b815260040161044890612145565b6112b384826122bf565b6000868152602081815260408083206001600160a01b038c811685529252808320939093558816815290812080548692906112ef9084906122a7565b909155505060408051868152602081018690526001600160a01b03808916928a821692918616917fc3d58168c5ae7397731d063d5bbf3d657854427343f4c083240f7aacaa2d0f62910160405180910390a46108a0828888888888611834565b6003546001600160a01b031633146113795760405162461bcd60e51b81526004016104489061218f565b6001600160a01b0381166113de5760405162461bcd60e51b815260206004820152602660248201527f4f776e61626c653a206e6577206f776e657220697320746865207a65726f206160448201526564647265737360d01b6064820152608401610448565b6003546040516001600160a01b038084169216907f8be0079c531659141344cd1fd0a4f28419497f9722a3daafe3b4186f6b6457e090600090a3600380546001600160a01b0319166001600160a01b0392909216919091179055565b600061144682846122bf565b9392505050565b60008183101561145d5781611446565b5090919050565b600061144682846122a7565b6001600160a01b0384166114965760405162461bcd60e51b815260040161044890612243565b81518351146114b75760405162461bcd60e51b8152600401610448906121fb565b3360005b8451811015611553578381815181106114d6576114d661236e565b60200260200101516000808784815181106114f3576114f361236e565b602002602001015181526020019081526020016000206000886001600160a01b03166001600160a01b03168152602001908152602001600020600082825461153b91906122a7565b9091555081905061154b8161233d565b9150506114bb565b50846001600160a01b031660006001600160a01b0316826001600160a01b03167f4a39dc06d4c0dbc64b70af90fd698a233a518aa5d07e595d983b8c0526c8f7fb87876040516115a4929190612077565b60405180910390a4611261816000878787875b6001600160a01b0384163b15610b0b5760405163bc197c8160e01b81526001600160a01b0385169063bc197c81906115fb9089908990889088908890600401611fc1565b602060405180830381600087803b15801561161557600080fd5b505af1925050508015611645575060408051601f3d908101601f1916820190925261164291810190611ed7565b60015b6116f25761165161239a565b806308c379a0141561168b57506116666123b6565b80611671575061168d565b8060405162461bcd60e51b815260040161044891906120a5565b505b60405162461bcd60e51b815260206004820152603460248201527f455243313135353a207472616e7366657220746f206e6f6e20455243313135356044820152732932b1b2b4bb32b91034b6b83632b6b2b73a32b960611b6064820152608401610448565b6001600160e01b0319811663bc197c8160e01b146108a05760405162461bcd60e51b8152600401610448906120b8565b6001600160a01b0384166117485760405162461bcd60e51b815260040161044890612243565b3361175981600087611258886117e9565b6000848152602081815260408083206001600160a01b0389168452909152812080548592906117899084906122a7565b909155505060408051858152602081018590526001600160a01b0380881692600092918516917fc3d58168c5ae7397731d063d5bbf3d657854427343f4c083240f7aacaa2d0f62910160405180910390a461126181600087878787611834565b604080516001808252818301909252606091600091906020808301908036833701905050905082816000815181106118235761182361236e565b602090810291909101015292915050565b6001600160a01b0384163b15610b0b5760405163f23a6e6160e01b81526001600160a01b0385169063f23a6e6190611878908990899088908890889060040161201f565b602060405180830381600087803b15801561189257600080fd5b505af19250505080156118c2575060408051601f3d908101601f191682019092526118bf91810190611ed7565b60015b6118ce5761165161239a565b6001600160e01b0319811663f23a6e6160e01b146108a05760405162461bcd60e51b8152600401610448906120b8565b80356001600160a01b038116811461191557600080fd5b919050565b60008083601f84011261192c57600080fd5b5081356001600160401b0381111561194357600080fd5b6020830191508360208260051b850101111561195e57600080fd5b9250929050565b600082601f83011261197657600080fd5b8135602061198382612284565b6040516119908282612311565b8381528281019150858301600585901b870184018810156119b057600080fd5b60005b858110156119cf578135845292840192908401906001016119b3565b5090979650505050505050565b60008083601f8401126119ee57600080fd5b5081356001600160401b03811115611a0557600080fd5b60208301915083602082850101111561195e57600080fd5b600082601f830112611a2e57600080fd5b81356001600160401b03811115611a4757611a47612384565b604051611a5e601f8301601f191660200182612311565b818152846020838601011115611a7357600080fd5b816020850160208301376000918101602001919091529392505050565b600060208284031215611aa257600080fd5b611446826118fe565b60008060408385031215611abe57600080fd5b611ac7836118fe565b9150611ad5602084016118fe565b90509250929050565b600080600080600060a08688031215611af657600080fd5b611aff866118fe565b9450611b0d602087016118fe565b935060408601356001600160401b0380821115611b2957600080fd5b611b3589838a01611965565b94506060880135915080821115611b4b57600080fd5b611b5789838a01611965565b93506080880135915080821115611b6d57600080fd5b50611b7a88828901611a1d565b9150509295509295909350565b600080600080600060a08688031215611b9f57600080fd5b611ba8866118fe565b9450611bb6602087016118fe565b9350604086013592506060860135915060808601356001600160401b03811115611bdf57600080fd5b611b7a88828901611a1d565b60008060008060008060006080888a031215611c0657600080fd5b611c0f886118fe565b965060208801356001600160401b0380821115611c2b57600080fd5b611c378b838c0161191a565b909850965060408a0135915080821115611c5057600080fd5b611c5c8b838c0161191a565b909650945060608a0135915080821115611c7557600080fd5b50611c828a828b016119dc565b989b979a50959850939692959293505050565b60008060408385031215611ca857600080fd5b611cb1836118fe565b915060208301358015158114611cc657600080fd5b809150509250929050565b60008060408385031215611ce457600080fd5b611ced836118fe565b946020939093013593505050565b600080600080600060808688031215611d1357600080fd5b611d1c866118fe565b9450602086013593506040860135925060608601356001600160401b03811115611d4557600080fd5b611d51888289016119dc565b969995985093965092949392505050565b60008060408385031215611d7557600080fd5b82356001600160401b0380821115611d8c57600080fd5b818501915085601f830112611da057600080fd5b81356020611dad82612284565b604051611dba8282612311565b8381528281019150858301600585901b870184018b1015611dda57600080fd5b600096505b84871015611e0457611df0816118fe565b835260019690960195918301918301611ddf565b5096505086013592505080821115611e1b57600080fd5b50611e2885828601611965565b9150509250929050565b600060208284031215611e4457600080fd5b81356001600160401b03811115611e5a57600080fd5b611e6684828501611965565b949350505050565b60008060408385031215611e8157600080fd5b82356001600160401b0380821115611e9857600080fd5b611ea486838701611965565b93506020850135915080821115611e1b57600080fd5b600060208284031215611ecc57600080fd5b81356114468161243f565b600060208284031215611ee957600080fd5b81516114468161243f565b600060208284031215611f0657600080fd5b5035919050565b600080600060608486031215611f2257600080fd5b505081359360208301359350604090920135919050565b600081518084526020808501945080840160005b83811015611f6957815187529582019590820190600101611f4d565b509495945050505050565b6000815180845260005b81811015611f9a57602081850181015186830182015201611f7e565b81811115611fac576000602083870101525b50601f01601f19169290920160200192915050565b6001600160a01b0386811682528516602082015260a060408201819052600090611fed90830186611f39565b8281036060840152611fff8186611f39565b905082810360808401526120138185611f74565b98975050505050505050565b6001600160a01b03868116825285166020820152604081018490526060810183905260a06080820181905260009061205990830184611f74565b979650505050505050565b6020815260006114466020830184611f39565b60408152600061208a6040830185611f39565b828103602084015261209c8185611f39565b95945050505050565b6020815260006114466020830184611f74565b60208082526028908201527f455243313135353a204552433131353552656365697665722072656a656374656040820152676420746f6b656e7360c01b606082015260800190565b60208082526025908201527f455243313135353a207472616e7366657220746f20746865207a65726f206164604082015264647265737360d81b606082015260800190565b6020808252602a908201527f455243313135353a20696e73756666696369656e742062616c616e636520666f60408201526939103a3930b739b332b960b11b606082015260800190565b6020808252818101527f4f776e61626c653a2063616c6c6572206973206e6f7420746865206f776e6572604082015260600190565b6020808252601a908201527f496e676f744e46543a20696e76616c696420617267756d656e74000000000000604082015260600190565b60208082526028908201527f455243313135353a2069647320616e6420616d6f756e7473206c656e677468206040820152670dad2e6dac2e8c6d60c31b606082015260800190565b60208082526021908201527f455243313135353a206d696e7420746f20746865207a65726f206164647265736040820152607360f81b606082015260800190565b60006001600160401b0382111561229d5761229d612384565b5060051b60200190565b600082198211156122ba576122ba612358565b500190565b6000828210156122d1576122d1612358565b500390565b600181811c908216806122ea57607f821691505b6020821081141561230b57634e487b7160e01b600052602260045260246000fd5b50919050565b601f8201601f191681016001600160401b038111828210171561233657612336612384565b6040525050565b600060001982141561235157612351612358565b5060010190565b634e487b7160e01b600052601160045260246000fd5b634e487b7160e01b600052603260045260246000fd5b634e487b7160e01b600052604160045260246000fd5b600060033d11156123b35760046000803e5060005160e01c5b90565b600060443d10156123c45790565b6040516003193d81016004833e81513d6001600160401b0381602484011181841117156123f357505050505090565b828501915081518181111561240b5750505050505090565b843d87010160208285010111156124255750505050505090565b61243460208286010187612311565b509095945050505050565b6001600160e01b03198116811461245557600080fd5b5056fea2646970667358221220afdc189fe5f7ea4b383f8fe2ed328e76ef11a00545b388aa7d0cda0c33bd9d1a64736f6c63430008060033",
  "immutableReferences": {},
  "source": "pragma solidity ^0.8.0;\n\nimport \"@openzeppelin/contracts/token/ERC1155/ERC1155.sol\";\nimport \"@openzeppelin/contracts/token/ERC1155/utils/ERC1155Receiver.sol\";\nimport \"@openzeppelin/contracts/utils/math/SafeMath.sol\";\nimport \"@openzeppelin/contracts/utils/math/Math.sol\";\nimport \"@openzeppelin/contracts/access/Ownable.sol\";\nimport \"./interfaces/IIngotNFT.sol\";\n\ncontract IngotNFT is ERC1155, IIngotNFT, Ownable {\n    using SafeMath for uint256;\n\n    mapping (address => bool) public _minters;\n    mapping (uint256 => Asset) public assets;\n\n    struct Asset {\n        uint256 id;\n        uint256 power;\n        uint256 currMinting;\n        uint256 maxMinting;\n    }\n\n    constructor() public ERC1155(\"\"){\n        _minters[msg.sender] = true;\n\n        addType(0, 10, 7000);\n        addType(1, 14, 5425);\n        addType(2, 19, 4204);\n        addType(3, 26, 3258);\n        addType(4, 35, 2525);\n        addType(5, 47, 1957);\n        addType(6, 65, 1516);\n        addType(7, 87, 1175);\n        addType(8, 118, 910);\n        addType(9, 160, 706);\n        addType(10, 215, 547);\n        addType(11, 290, 424);\n\n    }\n\n    /* ========== MINTER ONLY FUNCTIONS ========== */\n\n    function mint(address to, uint256 id, uint256 amount, bytes calldata data) override external {\n        require(_minters[msg.sender], \"!minter\");\n        Asset storage asset = assets[id];\n        require(asset.maxMinting > 0);\n        require(asset.currMinting.add(amount) <= asset.maxMinting, \"Exceed max minting allowed\");\n        asset.currMinting = asset.currMinting.add(amount);\n        \n        _mint( to,  id,  amount, data);\n    }\n\n    function mintBatch(address to, uint256[] calldata ids, uint256[] calldata amounts, bytes calldata data) override external {\n        require(_minters[msg.sender], \"!minter\");\n        require(ids.length == amounts.length, \"ERC1155: ids and amounts length mismatch\");\n\n        for (uint256 i = 0; i < ids.length; i++) {\n            uint256 id = ids[i];\n            uint256 amount = amounts[i];\n            Asset storage asset = assets[id];\n            require(asset.maxMinting > 0);\n            require(asset.currMinting.add(amount) <= asset.maxMinting, \"Exceed max minting allowed\");\n            asset.currMinting = asset.currMinting.add(amount); \n        }\n        _mintBatch( to,  ids,  amounts, data);\n    }\n\n    /* ========== OWNER ONLY FUNCTIONS ========== */\n\n    function addType(uint256 id, uint256 power, uint256 maxMinting) public onlyOwner {\n        Asset storage asset = assets[id];\n        asset.id = id;\n        asset.power = power;\n        asset.maxMinting = maxMinting;\n    }\n\n    function burnAssetBatch(uint256[] memory ids, uint256[] memory amounts) public onlyOwner {\n        require(ids.length > 0, \"IngotNFT: invalid argument\");\n        require(ids.length == amounts.length, \"IngotNFT: invalid argument\");\n        \n        for (uint256 i = 0; i < ids.length; ++i) {\n            uint256 id = ids[i];\n            uint256 amount = amounts[i];\n            Asset storage asset = assets[id];\n            require(asset.maxMinting > 0, \"IngotNFT: invalid argument\");\n            if(amount == 0){\n                asset.maxMinting = asset.currMinting;\n            }else{\n                asset.maxMinting = Math.max( asset.maxMinting.sub(amount), asset.currMinting);\n            }\n        }\n    }\n\n    function addMinter(address _minter) external onlyOwner {\n        _minters[_minter] = true;\n    }\n\n    function removeMinter(address _minter) external onlyOwner {\n        _minters[_minter] = false;\n    }\n\n    /* ========== PUBLIC ========== */\n\n    function getAssetInfo(uint256 _id) override external view returns(uint256, uint256, uint256, uint256){\n        return(assets[_id].id, assets[_id].power, assets[_id].currMinting, assets[_id].maxMinting);\n    }\n\n    function assetPowerBatch(uint256[] memory ids) override public view returns (uint256[] memory) {\n        uint256[] memory batch = new uint256[](ids.length);\n        for (uint256 i = 0; i < ids.length; ++i) {\n            batch[i] = assets[ids[i]].power;\n        }\n        return batch;\n    }\n\n    function assetCurrMintingBatch(uint256[] memory ids) override public view returns (uint256[] memory) {\n        uint256[] memory batch = new uint256[](ids.length);\n        for (uint256 i = 0; i < ids.length; ++i) {\n            batch[i] = assets[ids[i]].currMinting;\n        }\n        return batch;\n    }\n\n    function assetMaxMintingBatch(uint256[] memory ids) override public view returns (uint256[] memory) {\n        uint256[] memory batch = new uint256[](ids.length);\n        for (uint256 i = 0; i < ids.length; ++i) {\n            batch[i] = assets[ids[i]].maxMinting;\n        }\n        return batch;\n    }\n}",
  "sourcePath": "/Users/p489548/SmartContracts/Ingot Farming Project/ingot-contracts/contracts/IngotNFT.sol",
  "compiler": {
    "name": "solc",
    "version": "0.8.6+commit.11564f7e.Emscripten.clang"
  },
  "schemaVersion": "3.3.4",
  "updatedAt": "2021-07-04T12:20:46.618Z",
  "devdoc": {
    "kind": "dev",
    "methods": {
      "balanceOf(address,uint256)": {
        "details": "See {IERC1155-balanceOf}. Requirements: - `account` cannot be the zero address."
      },
      "balanceOfBatch(address[],uint256[])": {
        "details": "See {IERC1155-balanceOfBatch}. Requirements: - `accounts` and `ids` must have the same length."
      },
      "isApprovedForAll(address,address)": {
        "details": "See {IERC1155-isApprovedForAll}."
      },
      "owner()": {
        "details": "Returns the address of the current owner."
      },
      "renounceOwnership()": {
        "details": "Leaves the contract without owner. It will not be possible to call `onlyOwner` functions anymore. Can only be called by the current owner. NOTE: Renouncing ownership will leave the contract without an owner, thereby removing any functionality that is only available to the owner."
      },
      "safeBatchTransferFrom(address,address,uint256[],uint256[],bytes)": {
        "details": "See {IERC1155-safeBatchTransferFrom}."
      },
      "safeTransferFrom(address,address,uint256,uint256,bytes)": {
        "details": "See {IERC1155-safeTransferFrom}."
      },
      "setApprovalForAll(address,bool)": {
        "details": "See {IERC1155-setApprovalForAll}."
      },
      "supportsInterface(bytes4)": {
        "details": "See {IERC165-supportsInterface}."
      },
      "transferOwnership(address)": {
        "details": "Transfers ownership of the contract to a new account (`newOwner`). Can only be called by the current owner."
      },
      "uri(uint256)": {
        "details": "See {IERC1155MetadataURI-uri}. This implementation returns the same URI for *all* token types. It relies on the token type ID substitution mechanism https://eips.ethereum.org/EIPS/eip-1155#metadata[defined in the EIP]. Clients calling this function must replace the `\\{id\\}` substring with the actual token type ID."
      }
    },
    "version": 1
  },
  "userdoc": {
    "kind": "user",
    "methods": {},
    "version": 1
  }
}