{
  "contractName": "MasterChef",
  "abi": [
    {
      "inputs": [
        {
          "internalType": "contract IIngotToken",
          "name": "_cake",
          "type": "address"
        },
        {
          "internalType": "address",
          "name": "_devaddr",
          "type": "address"
        },
        {
          "internalType": "uint256",
          "name": "_cakePerBlock",
          "type": "uint256"
        },
        {
          "internalType": "uint256",
          "name": "_startBlock",
          "type": "uint256"
        }
      ],
      "stateMutability": "nonpayable",
      "type": "constructor"
    },
    {
      "anonymous": false,
      "inputs": [
        {
          "indexed": true,
          "internalType": "address",
          "name": "user",
          "type": "address"
        },
        {
          "indexed": true,
          "internalType": "uint256",
          "name": "pid",
          "type": "uint256"
        },
        {
          "indexed": false,
          "internalType": "uint256",
          "name": "amount",
          "type": "uint256"
        }
      ],
      "name": "Deposit",
      "type": "event"
    },
    {
      "anonymous": false,
      "inputs": [
        {
          "indexed": true,
          "internalType": "address",
          "name": "user",
          "type": "address"
        },
        {
          "indexed": true,
          "internalType": "uint256",
          "name": "pid",
          "type": "uint256"
        },
        {
          "indexed": false,
          "internalType": "uint256",
          "name": "amount",
          "type": "uint256"
        }
      ],
      "name": "EmergencyWithdraw",
      "type": "event"
    },
    {
      "anonymous": false,
      "inputs": [
        {
          "indexed": true,
          "internalType": "address",
          "name": "previousOwner",
          "type": "address"
        },
        {
          "indexed": true,
          "internalType": "address",
          "name": "newOwner",
          "type": "address"
        }
      ],
      "name": "OwnershipTransferred",
      "type": "event"
    },
    {
      "anonymous": false,
      "inputs": [
        {
          "indexed": true,
          "internalType": "address",
          "name": "user",
          "type": "address"
        },
        {
          "indexed": false,
          "internalType": "uint256",
          "name": "cakePerBlock",
          "type": "uint256"
        }
      ],
      "name": "UpdateEmissionRate",
      "type": "event"
    },
    {
      "anonymous": false,
      "inputs": [
        {
          "indexed": true,
          "internalType": "address",
          "name": "user",
          "type": "address"
        },
        {
          "indexed": true,
          "internalType": "uint256",
          "name": "pid",
          "type": "uint256"
        },
        {
          "indexed": false,
          "internalType": "uint256",
          "name": "amount",
          "type": "uint256"
        }
      ],
      "name": "Withdraw",
      "type": "event"
    },
    {
      "inputs": [],
      "name": "BONUS_MULTIPLIER",
      "outputs": [
        {
          "internalType": "uint256",
          "name": "",
          "type": "uint256"
        }
      ],
      "stateMutability": "view",
      "type": "function",
      "constant": true
    },
    {
      "inputs": [],
      "name": "cake",
      "outputs": [
        {
          "internalType": "contract IIngotToken",
          "name": "",
          "type": "address"
        }
      ],
      "stateMutability": "view",
      "type": "function",
      "constant": true
    },
    {
      "inputs": [],
      "name": "cakePerBlock",
      "outputs": [
        {
          "internalType": "uint256",
          "name": "",
          "type": "uint256"
        }
      ],
      "stateMutability": "view",
      "type": "function",
      "constant": true
    },
    {
      "inputs": [],
      "name": "devaddr",
      "outputs": [
        {
          "internalType": "address",
          "name": "",
          "type": "address"
        }
      ],
      "stateMutability": "view",
      "type": "function",
      "constant": true
    },
    {
      "inputs": [],
      "name": "owner",
      "outputs": [
        {
          "internalType": "address",
          "name": "",
          "type": "address"
        }
      ],
      "stateMutability": "view",
      "type": "function",
      "constant": true
    },
    {
      "inputs": [
        {
          "internalType": "uint256",
          "name": "",
          "type": "uint256"
        }
      ],
      "name": "poolInfo",
      "outputs": [
        {
          "internalType": "contract IERC20",
          "name": "lpToken",
          "type": "address"
        },
        {
          "internalType": "uint256",
          "name": "allocPoint",
          "type": "uint256"
        },
        {
          "internalType": "uint256",
          "name": "lastRewardBlock",
          "type": "uint256"
        },
        {
          "internalType": "uint256",
          "name": "accCakePerShare",
          "type": "uint256"
        }
      ],
      "stateMutability": "view",
      "type": "function",
      "constant": true
    },
    {
      "inputs": [],
      "name": "renounceOwnership",
      "outputs": [],
      "stateMutability": "nonpayable",
      "type": "function"
    },
    {
      "inputs": [],
      "name": "startBlock",
      "outputs": [
        {
          "internalType": "uint256",
          "name": "",
          "type": "uint256"
        }
      ],
      "stateMutability": "view",
      "type": "function",
      "constant": true
    },
    {
      "inputs": [],
      "name": "totalAllocPoint",
      "outputs": [
        {
          "internalType": "uint256",
          "name": "",
          "type": "uint256"
        }
      ],
      "stateMutability": "view",
      "type": "function",
      "constant": true
    },
    {
      "inputs": [
        {
          "internalType": "address",
          "name": "newOwner",
          "type": "address"
        }
      ],
      "name": "transferOwnership",
      "outputs": [],
      "stateMutability": "nonpayable",
      "type": "function"
    },
    {
      "inputs": [
        {
          "internalType": "uint256",
          "name": "",
          "type": "uint256"
        },
        {
          "internalType": "address",
          "name": "",
          "type": "address"
        }
      ],
      "name": "userInfo",
      "outputs": [
        {
          "internalType": "uint256",
          "name": "amount",
          "type": "uint256"
        },
        {
          "internalType": "uint256",
          "name": "rewardDebt",
          "type": "uint256"
        }
      ],
      "stateMutability": "view",
      "type": "function",
      "constant": true
    },
    {
      "inputs": [
        {
          "internalType": "uint256",
          "name": "multiplierNumber",
          "type": "uint256"
        }
      ],
      "name": "updateMultiplier",
      "outputs": [],
      "stateMutability": "nonpayable",
      "type": "function"
    },
    {
      "inputs": [],
      "name": "poolLength",
      "outputs": [
        {
          "internalType": "uint256",
          "name": "",
          "type": "uint256"
        }
      ],
      "stateMutability": "view",
      "type": "function",
      "constant": true
    },
    {
      "inputs": [
        {
          "internalType": "uint256",
          "name": "_allocPoint",
          "type": "uint256"
        },
        {
          "internalType": "contract IERC20",
          "name": "_lpToken",
          "type": "address"
        },
        {
          "internalType": "bool",
          "name": "_withUpdate",
          "type": "bool"
        }
      ],
      "name": "add",
      "outputs": [],
      "stateMutability": "nonpayable",
      "type": "function"
    },
    {
      "inputs": [
        {
          "internalType": "uint256",
          "name": "_pid",
          "type": "uint256"
        },
        {
          "internalType": "uint256",
          "name": "_allocPoint",
          "type": "uint256"
        },
        {
          "internalType": "bool",
          "name": "_withUpdate",
          "type": "bool"
        }
      ],
      "name": "set",
      "outputs": [],
      "stateMutability": "nonpayable",
      "type": "function"
    },
    {
      "inputs": [
        {
          "internalType": "uint256",
          "name": "_from",
          "type": "uint256"
        },
        {
          "internalType": "uint256",
          "name": "_to",
          "type": "uint256"
        }
      ],
      "name": "getMultiplier",
      "outputs": [
        {
          "internalType": "uint256",
          "name": "",
          "type": "uint256"
        }
      ],
      "stateMutability": "view",
      "type": "function",
      "constant": true
    },
    {
      "inputs": [
        {
          "internalType": "uint256",
          "name": "_pid",
          "type": "uint256"
        },
        {
          "internalType": "address",
          "name": "_user",
          "type": "address"
        }
      ],
      "name": "pendingCake",
      "outputs": [
        {
          "internalType": "uint256",
          "name": "",
          "type": "uint256"
        }
      ],
      "stateMutability": "view",
      "type": "function",
      "constant": true
    },
    {
      "inputs": [],
      "name": "massUpdatePools",
      "outputs": [],
      "stateMutability": "nonpayable",
      "type": "function"
    },
    {
      "inputs": [
        {
          "internalType": "uint256",
          "name": "_pid",
          "type": "uint256"
        }
      ],
      "name": "updatePool",
      "outputs": [],
      "stateMutability": "nonpayable",
      "type": "function"
    },
    {
      "inputs": [
        {
          "internalType": "uint256",
          "name": "_pid",
          "type": "uint256"
        },
        {
          "internalType": "uint256",
          "name": "_amount",
          "type": "uint256"
        }
      ],
      "name": "deposit",
      "outputs": [],
      "stateMutability": "nonpayable",
      "type": "function"
    },
    {
      "inputs": [
        {
          "internalType": "uint256",
          "name": "_pid",
          "type": "uint256"
        },
        {
          "internalType": "uint256",
          "name": "_amount",
          "type": "uint256"
        }
      ],
      "name": "withdraw",
      "outputs": [],
      "stateMutability": "nonpayable",
      "type": "function"
    },
    {
      "inputs": [
        {
          "internalType": "uint256",
          "name": "_pid",
          "type": "uint256"
        }
      ],
      "name": "emergencyWithdraw",
      "outputs": [],
      "stateMutability": "nonpayable",
      "type": "function"
    },
    {
      "inputs": [
        {
          "internalType": "address",
          "name": "_devaddr",
          "type": "address"
        }
      ],
      "name": "dev",
      "outputs": [],
      "stateMutability": "nonpayable",
      "type": "function"
    },
    {
      "inputs": [
        {
          "internalType": "uint256",
          "name": "_cakePerBlock",
          "type": "uint256"
        }
      ],
      "name": "updateEmissionRate",
      "outputs": [],
      "stateMutability": "nonpayable",
      "type": "function"
    },
    {
      "inputs": [
        {
          "internalType": "uint256",
          "name": "_startBlock",
          "type": "uint256"
        }
      ],
      "name": "updateStartBlock",
      "outputs": [],
      "stateMutability": "nonpayable",
      "type": "function"
    }
  ],
  "bytecode": "0x60806040526001600455600060075534801561001a57600080fd5b50604051620017703803806200177083398101604081905261003b916100ba565b600080546001600160a01b031916339081178255604051909182917f8be0079c531659141344cd1fd0a4f28419497f9722a3daafe3b4186f6b6457e0908290a350600180546001600160a01b039586166001600160a01b031991821617909155600280549490951693169290921790925560039190915560085561011a565b600080600080608085870312156100d057600080fd5b84516100db81610102565b60208601519094506100ec81610102565b6040860151606090960151949790965092505050565b6001600160a01b038116811461011757600080fd5b50565b611646806200012a6000396000f3fe608060405234801561001057600080fd5b50600436106101735760003560e01c8063630b5ba1116100de5780638dbb1e3a11610097578063dce1748411610071578063dce1748414610343578063e2bbb15814610356578063f2fde38b14610369578063fac2b9ba1461037c57600080fd5b80638dbb1e3a146102d657806393f1a40b146102e9578063d49e77cd1461033057600080fd5b8063630b5ba11461027257806364482f791461027a578063715018a61461028d5780638aa28550146102955780638d88a90e1461029e5780638da5cb5b146102b157600080fd5b80631eaaa045116101305780631eaaa0451461020a578063441a3e701461021d57806348cd4cb11461023057806351eb05a6146102395780635312ea8e1461024c5780635ffe61461461025f57600080fd5b80630755e0b614610178578063081e3eda146101945780630ba84cd21461019c5780631175a1dd146101b15780631526fe27146101c457806317caf6f114610201575b600080fd5b61018160035481565b6040519081526020015b60405180910390f35b600554610181565b6101af6101aa36600461138f565b61038f565b005b6101816101bf3660046113c1565b610407565b6101d76101d236600461138f565b61058b565b604080516001600160a01b039095168552602085019390935291830152606082015260800161018b565b61018160075481565b6101af6102183660046113f1565b6105cf565b6101af61022b366004611433565b61071c565b61018160085481565b6101af61024736600461138f565b610876565b6101af61025a36600461138f565b610a99565b6101af61026d36600461138f565b610b3b565b6101af610b6a565b6101af610288366004611455565b610b95565b6101af610c4f565b61018160045481565b6101af6102ac366004611355565b610cc3565b6000546001600160a01b03165b6040516001600160a01b03909116815260200161018b565b6101816102e4366004611433565b610d2b565b61031b6102f73660046113c1565b60066020908152600092835260408084209091529082529020805460019091015482565b6040805192835260208301919091520161018b565b6002546102be906001600160a01b031681565b6001546102be906001600160a01b031681565b6101af610364366004611433565b610d46565b6101af610377366004611355565b610e64565b6101af61038a36600461138f565b610f4e565b6000546001600160a01b031633146103c25760405162461bcd60e51b81526004016103b9906114d2565b60405180910390fd5b6103ca610b6a565b600381905560405181815233907fe2492e003bbe8afa53088b406f0c1cb5d9e280370fc72a74cf116ffd343c40539060200160405180910390a250565b6000806005848154811061041d5761041d6115d4565b600091825260208083208784526006825260408085206001600160a01b038981168752935280852060049485029092016003810154815492516370a0823160e01b8152309681019690965290965091949193919216906370a082319060240160206040518083038186803b15801561049457600080fd5b505afa1580156104a8573d6000803e3d6000fd5b505050506040513d601f19601f820116820180604052508101906104cc91906113a8565b90508360020154431180156104e057508015155b1561054f5760006104f5856002015443610d2b565b90506000610528600754610522886001015461051c60035487610fc590919063ffffffff16565b90610fc5565b90610fd1565b905061054a6105438461052284670de0b6b3a7640000610fc5565b8590610fdd565b935050505b610580836001015461057a670de0b6b3a7640000610522868860000154610fc590919063ffffffff16565b90610fe9565b979650505050505050565b6005818154811061059b57600080fd5b600091825260209091206004909102018054600182015460028301546003909301546001600160a01b039092169350919084565b6000546001600160a01b031633146105f95760405162461bcd60e51b81526004016103b9906114d2565b801561060757610607610b6a565b6000600854431161061a5760085461061c565b435b60075490915061062c9085610fdd565b600755604080516080810182526001600160a01b0394851681526020810195865290810191825260006060820181815260058054600181018255925291517f036b6384b5eca791c62761152d0c79bb0604c104a5fb6f4eb0703f3154bb3db0600490920291820180546001600160a01b031916919096161790945593517f036b6384b5eca791c62761152d0c79bb0604c104a5fb6f4eb0703f3154bb3db1840155517f036b6384b5eca791c62761152d0c79bb0604c104a5fb6f4eb0703f3154bb3db28301555090517f036b6384b5eca791c62761152d0c79bb0604c104a5fb6f4eb0703f3154bb3db390910155565b600060058381548110610731576107316115d4565b60009182526020808320868452600682526040808520338652909252922080546004909202909201925083111561079f5760405162461bcd60e51b81526020600482015260126024820152711dda5d1a191c985dce881b9bdd0819dbdbd960721b60448201526064016103b9565b6107a884610876565b60006107d9826001015461057a670de0b6b3a764000061052287600301548760000154610fc590919063ffffffff16565b905080156107eb576107eb3382610ff5565b83156108155781546107fd9085610fe9565b82558254610815906001600160a01b03163386611080565b6003830154825461083391670de0b6b3a76400009161052291610fc5565b6001830155604051848152859033907ff279e6a1f5e320cca91135676d9cb6e44ca8a08c0b88342bcdb1144f6511b5689060200160405180910390a35050505050565b60006005828154811061088b5761088b6115d4565b90600052602060002090600402019050806002015443116108aa575050565b80546040516370a0823160e01b81523060048201526000916001600160a01b0316906370a082319060240160206040518083038186803b1580156108ed57600080fd5b505afa158015610901573d6000803e3d6000fd5b505050506040513d601f19601f8201168201806040525081019061092591906113a8565b90508061093757504360029091015550565b6000610947836002015443610d2b565b9050600061096e600754610522866001015461051c60035487610fc590919063ffffffff16565b6001546002549192506001600160a01b03908116916340c10f19911661099584600a610fd1565b6040516001600160e01b031960e085901b1681526001600160a01b0390921660048301526024820152604401600060405180830381600087803b1580156109db57600080fd5b505af11580156109ef573d6000803e3d6000fd5b50506001546040516340c10f1960e01b8152306004820152602481018590526001600160a01b0390911692506340c10f199150604401600060405180830381600087803b158015610a3f57600080fd5b505af1158015610a53573d6000803e3d6000fd5b50505050610a84610a7984610522670de0b6b3a764000085610fc590919063ffffffff16565b600386015490610fdd565b60038501555050436002909201919091555050565b600060058281548110610aae57610aae6115d4565b60009182526020808320858452600682526040808520338087529352909320805460049093029093018054909450610af3926001600160a01b03919091169190611080565b8054604051908152839033907fbb757047c2b5f3974fe26b7c10f732e7bce710b0952a71082702781e62ae05959060200160405180910390a360008082556001909101555050565b6000546001600160a01b03163314610b655760405162461bcd60e51b81526004016103b9906114d2565b600455565b60055460005b81811015610b9157610b8181610876565b610b8a816115a3565b9050610b70565b5050565b6000546001600160a01b03163314610bbf5760405162461bcd60e51b81526004016103b9906114d2565b8015610bcd57610bcd610b6a565b600060058481548110610be257610be26115d4565b90600052602060002090600402016001015490508260058581548110610c0a57610c0a6115d4565b906000526020600020906004020160010181905550828114610c4957610c4583610c3f83600754610fe990919063ffffffff16565b90610fdd565b6007555b50505050565b6000546001600160a01b03163314610c795760405162461bcd60e51b81526004016103b9906114d2565b600080546040516001600160a01b03909116907f8be0079c531659141344cd1fd0a4f28419497f9722a3daafe3b4186f6b6457e0908390a3600080546001600160a01b0319169055565b6002546001600160a01b03163314610d095760405162461bcd60e51b81526020600482015260096024820152686465763a207775743f60b81b60448201526064016103b9565b600280546001600160a01b0319166001600160a01b0392909216919091179055565b600454600090610d3f9061051c8486610fe9565b9392505050565b600060058381548110610d5b57610d5b6115d4565b60009182526020808320868452600682526040808520338652909252922060049091029091019150610d8c84610876565b805415610dd8576000610dc4826001015461057a670de0b6b3a764000061052287600301548760000154610fc590919063ffffffff16565b90508015610dd657610dd63382610ff5565b505b8215610e04578154610df5906001600160a01b03163330866110e3565b8054610e019084610fdd565b81555b60038201548154610e2291670de0b6b3a76400009161052291610fc5565b6001820155604051838152849033907f90890809c654f11d6e72a28fa60149770a0d11ec6c92319d6ceb2bb0a4ea1a159060200160405180910390a350505050565b6000546001600160a01b03163314610e8e5760405162461bcd60e51b81526004016103b9906114d2565b6001600160a01b038116610ef35760405162461bcd60e51b815260206004820152602660248201527f4f776e61626c653a206e6577206f776e657220697320746865207a65726f206160448201526564647265737360d01b60648201526084016103b9565b600080546040516001600160a01b03808516939216917f8be0079c531659141344cd1fd0a4f28419497f9722a3daafe3b4186f6b6457e091a3600080546001600160a01b0319166001600160a01b0392909216919091179055565b6000546001600160a01b03163314610f785760405162461bcd60e51b81526004016103b9906114d2565b4360085411610fc05760405162461bcd60e51b815260206004820152601460248201527311985c9b48185b1c9958591e481cdd185c9d195960621b60448201526064016103b9565b600855565b6000610d3f8284611541565b6000610d3f828461151f565b6000610d3f8284611507565b6000610d3f8284611560565b60015460405163a9059cbb60e01b81526001600160a01b038481166004830152602482018490529091169063a9059cbb90604401602060405180830381600087803b15801561104357600080fd5b505af1158015611057573d6000803e3d6000fd5b505050506040513d601f19601f8201168201806040525081019061107b9190611372565b505050565b6040516001600160a01b03831660248201526044810182905261107b90849063a9059cbb60e01b906064015b60408051601f198184030181529190526020810180516001600160e01b03166001600160e01b03199093169290921790915261111b565b6040516001600160a01b0380851660248301528316604482015260648101829052610c499085906323b872dd60e01b906084016110ac565b6000611170826040518060400160405280602081526020017f5361666545524332303a206c6f772d6c6576656c2063616c6c206661696c6564815250856001600160a01b03166111ed9092919063ffffffff16565b80519091501561107b578080602001905181019061118e9190611372565b61107b5760405162461bcd60e51b815260206004820152602a60248201527f5361666545524332303a204552433230206f7065726174696f6e20646964206e6044820152691bdd081cdd58d8d9595960b21b60648201526084016103b9565b60606111fc8484600085611204565b949350505050565b6060824710156112655760405162461bcd60e51b815260206004820152602660248201527f416464726573733a20696e73756666696369656e742062616c616e636520666f6044820152651c8818d85b1b60d21b60648201526084016103b9565b843b6112b35760405162461bcd60e51b815260206004820152601d60248201527f416464726573733a2063616c6c20746f206e6f6e2d636f6e747261637400000060448201526064016103b9565b600080866001600160a01b031685876040516112cf9190611483565b60006040518083038185875af1925050503d806000811461130c576040519150601f19603f3d011682016040523d82523d6000602084013e611311565b606091505b50915091506105808282866060831561132b575081610d3f565b82511561133b5782518084602001fd5b8160405162461bcd60e51b81526004016103b9919061149f565b60006020828403121561136757600080fd5b8135610d3f816115ea565b60006020828403121561138457600080fd5b8151610d3f81611602565b6000602082840312156113a157600080fd5b5035919050565b6000602082840312156113ba57600080fd5b5051919050565b600080604083850312156113d457600080fd5b8235915060208301356113e6816115ea565b809150509250929050565b60008060006060848603121561140657600080fd5b833592506020840135611418816115ea565b9150604084013561142881611602565b809150509250925092565b6000806040838503121561144657600080fd5b50508035926020909101359150565b60008060006060848603121561146a57600080fd5b8335925060208401359150604084013561142881611602565b60008251611495818460208701611577565b9190910192915050565b60208152600082518060208401526114be816040850160208701611577565b601f01601f19169190910160400192915050565b6020808252818101527f4f776e61626c653a2063616c6c6572206973206e6f7420746865206f776e6572604082015260600190565b6000821982111561151a5761151a6115be565b500190565b60008261153c57634e487b7160e01b600052601260045260246000fd5b500490565b600081600019048311821515161561155b5761155b6115be565b500290565b600082821015611572576115726115be565b500390565b60005b8381101561159257818101518382015260200161157a565b83811115610c495750506000910152565b60006000198214156115b7576115b76115be565b5060010190565b634e487b7160e01b600052601160045260246000fd5b634e487b7160e01b600052603260045260246000fd5b6001600160a01b03811681146115ff57600080fd5b50565b80151581146115ff57600080fdfea2646970667358221220b07200060f0a4fe1ff009b92c48f83489d50c319dd6e6bf6178502200c72a1e464736f6c63430008060033",
  "immutableReferences": {},
  "source": "\npragma solidity ^0.8.0;\n\nimport \"@openzeppelin/contracts/token/ERC20/IERC20.sol\";\nimport \"@openzeppelin/contracts/token/ERC20/utils/SafeERC20.sol\";\nimport \"@openzeppelin/contracts/utils/math/SafeMath.sol\";\nimport \"@openzeppelin/contracts/access/Ownable.sol\";\n\nimport \"./interfaces/IIngotToken.sol\";\n\n// MasterChef is the master of Cake. He can make Cake and he is a fair guy.\n//\n// Note that it's ownable and the owner wields tremendous power. The ownership\n// will be transferred to a governance smart contract once CAKE is sufficiently\n// distributed and the community can show to govern itself.\n//\n// Have fun reading it. Hopefully it's bug-free. God bless.\ncontract MasterChef is Ownable {\n    using SafeMath for uint256;\n    using SafeERC20 for IERC20;\n\n    // Info of each user.\n    struct UserInfo {\n        uint256 amount;     // How many LP tokens the user has provided.\n        uint256 rewardDebt; // Reward debt. See explanation below.\n        //\n        // We do some fancy math here. Basically, any point in time, the amount of CAKEs\n        // entitled to a user but is pending to be distributed is:\n        //\n        //   pending reward = (user.amount * pool.accCakePerShare) - user.rewardDebt\n        //\n        // Whenever a user deposits or withdraws LP tokens to a pool. Here's what happens:\n        //   1. The pool's `accCakePerShare` (and `lastRewardBlock`) gets updated.\n        //   2. User receives the pending reward sent to his/her address.\n        //   3. User's `amount` gets updated.\n        //   4. User's `rewardDebt` gets updated.\n    }\n\n    // Info of each pool.\n    struct PoolInfo {\n        IERC20 lpToken;           // Address of LP token contract.\n        uint256 allocPoint;       // How many allocation points assigned to this pool. CAKEs to distribute per block.\n        uint256 lastRewardBlock;  // Last block number that CAKEs distribution occurs.\n        uint256 accCakePerShare; // Accumulated CAKEs per share, times 1e18. See below.\n    }\n\n    // The CAKE TOKEN!\n    IIngotToken public cake;\n    // Dev address.\n    address public devaddr;\n    // CAKE tokens created per block.\n    uint256 public cakePerBlock;\n    // Bonus muliplier for early cake makers.\n    uint256 public BONUS_MULTIPLIER = 1;\n\n    // Info of each pool.\n    PoolInfo[] public poolInfo;\n    // Info of each user that stakes LP tokens.\n    mapping (uint256 => mapping (address => UserInfo)) public userInfo;\n    // Total allocation points. Must be the sum of all allocation points in all pools.\n    uint256 public totalAllocPoint = 0;\n    // The block number when CAKE mining starts.\n    uint256 public startBlock;\n\n    event Deposit(address indexed user, uint256 indexed pid, uint256 amount);\n    event Withdraw(address indexed user, uint256 indexed pid, uint256 amount);\n    event EmergencyWithdraw(address indexed user, uint256 indexed pid, uint256 amount);\n    event UpdateEmissionRate(address indexed user, uint256 cakePerBlock);\n\n    constructor(\n        IIngotToken _cake,\n        address _devaddr,\n        uint256 _cakePerBlock,\n        uint256 _startBlock\n    ) public {\n        cake = _cake;\n        devaddr = _devaddr;\n        cakePerBlock = _cakePerBlock;\n        startBlock = _startBlock;\n    }\n\n    function updateMultiplier(uint256 multiplierNumber) public onlyOwner {\n        BONUS_MULTIPLIER = multiplierNumber;\n    }\n\n    function poolLength() external view returns (uint256) {\n        return poolInfo.length;\n    }\n\n    // Add a new lp to the pool. Can only be called by the owner.\n    // XXX DO NOT add the same LP token more than once. Rewards will be messed up if you do.\n    function add(uint256 _allocPoint, IERC20 _lpToken, bool _withUpdate) public onlyOwner {\n        if (_withUpdate) {\n            massUpdatePools();\n        }\n        uint256 lastRewardBlock = block.number > startBlock ? block.number : startBlock;\n        totalAllocPoint = totalAllocPoint.add(_allocPoint);\n        poolInfo.push(PoolInfo({\n            lpToken: _lpToken,\n            allocPoint: _allocPoint,\n            lastRewardBlock: lastRewardBlock,\n            accCakePerShare: 0\n        }));\n    }\n\n    // Update the given pool's CAKE allocation point. Can only be called by the owner.\n    function set(uint256 _pid, uint256 _allocPoint, bool _withUpdate) public onlyOwner {\n        if (_withUpdate) {\n            massUpdatePools();\n        }\n        uint256 prevAllocPoint = poolInfo[_pid].allocPoint;\n        poolInfo[_pid].allocPoint = _allocPoint;\n        if (prevAllocPoint != _allocPoint) {\n            totalAllocPoint = totalAllocPoint.sub(prevAllocPoint).add(_allocPoint);\n        }\n    }\n\n    // Return reward multiplier over the given _from to _to block.\n    function getMultiplier(uint256 _from, uint256 _to) public view returns (uint256) {\n        return _to.sub(_from).mul(BONUS_MULTIPLIER);\n    }\n\n    // View function to see pending CAKEs on frontend.\n    function pendingCake(uint256 _pid, address _user) external view returns (uint256) {\n        PoolInfo storage pool = poolInfo[_pid];\n        UserInfo storage user = userInfo[_pid][_user];\n        uint256 accCakePerShare = pool.accCakePerShare;\n        uint256 lpSupply = pool.lpToken.balanceOf(address(this));\n        if (block.number > pool.lastRewardBlock && lpSupply != 0) {\n            uint256 multiplier = getMultiplier(pool.lastRewardBlock, block.number);\n            uint256 cakeReward = multiplier.mul(cakePerBlock).mul(pool.allocPoint).div(totalAllocPoint);\n            accCakePerShare = accCakePerShare.add(cakeReward.mul(1e18).div(lpSupply));\n        }\n        return user.amount.mul(accCakePerShare).div(1e18).sub(user.rewardDebt);\n    }\n\n    // Update reward variables for all pools. Be careful of gas spending!\n    function massUpdatePools() public {\n        uint256 length = poolInfo.length;\n        for (uint256 pid = 0; pid < length; ++pid) {\n            updatePool(pid);\n        }\n    }\n\n    // Update reward variables of the given pool to be up-to-date.\n    function updatePool(uint256 _pid) public {\n        PoolInfo storage pool = poolInfo[_pid];\n        if (block.number <= pool.lastRewardBlock) {\n            return;\n        }\n        uint256 lpSupply = pool.lpToken.balanceOf(address(this));\n        if (lpSupply == 0) {\n            pool.lastRewardBlock = block.number;\n            return;\n        }\n        uint256 multiplier = getMultiplier(pool.lastRewardBlock, block.number);\n        uint256 cakeReward = multiplier.mul(cakePerBlock).mul(pool.allocPoint).div(totalAllocPoint);\n        cake.mint(devaddr, cakeReward.div(10));\n        cake.mint(address(this), cakeReward);\n        pool.accCakePerShare = pool.accCakePerShare.add(cakeReward.mul(1e18).div(lpSupply));\n        pool.lastRewardBlock = block.number;\n    }\n\n    // Deposit LP tokens to MasterChef for CAKE allocation.\n    function deposit(uint256 _pid, uint256 _amount) public {\n\n        PoolInfo storage pool = poolInfo[_pid];\n        UserInfo storage user = userInfo[_pid][msg.sender];\n        updatePool(_pid);\n        if (user.amount > 0) {\n            uint256 pending = user.amount.mul(pool.accCakePerShare).div(1e18).sub(user.rewardDebt);\n            if(pending > 0) {\n                safeCakeTransfer(msg.sender, pending);\n            }\n        }\n        if (_amount > 0) {\n            pool.lpToken.safeTransferFrom(address(msg.sender), address(this), _amount);\n            user.amount = user.amount.add(_amount);\n        }\n        user.rewardDebt = user.amount.mul(pool.accCakePerShare).div(1e18);\n        emit Deposit(msg.sender, _pid, _amount);\n    }\n\n    // Withdraw LP tokens from MasterChef.\n    function withdraw(uint256 _pid, uint256 _amount) public {\n\n        PoolInfo storage pool = poolInfo[_pid];\n        UserInfo storage user = userInfo[_pid][msg.sender];\n        require(user.amount >= _amount, \"withdraw: not good\");\n\n        updatePool(_pid);\n        uint256 pending = user.amount.mul(pool.accCakePerShare).div(1e18).sub(user.rewardDebt);\n        if(pending > 0) {\n            safeCakeTransfer(msg.sender, pending);\n        }\n        if(_amount > 0) {\n            user.amount = user.amount.sub(_amount);\n            pool.lpToken.safeTransfer(address(msg.sender), _amount);\n        }\n        user.rewardDebt = user.amount.mul(pool.accCakePerShare).div(1e18);\n        emit Withdraw(msg.sender, _pid, _amount);\n    }\n\n    // Withdraw without caring about rewards. EMERGENCY ONLY.\n    function emergencyWithdraw(uint256 _pid) public {\n        PoolInfo storage pool = poolInfo[_pid];\n        UserInfo storage user = userInfo[_pid][msg.sender];\n        pool.lpToken.safeTransfer(address(msg.sender), user.amount);\n        emit EmergencyWithdraw(msg.sender, _pid, user.amount);\n        user.amount = 0;\n        user.rewardDebt = 0;\n    }\n\n    // Safe cake transfer function, just in case if rounding error causes pool to not have enough CAKEs.\n    function safeCakeTransfer(address _to, uint256 _amount) internal {\n        cake.transfer(_to, _amount);\n    }\n\n    // Update dev address by the previous dev.\n    function dev(address _devaddr) public {\n        require(msg.sender == devaddr, \"dev: wut?\");\n        devaddr = _devaddr;\n    }\n\n    function updateEmissionRate(uint256 _cakePerBlock) external onlyOwner {\n        massUpdatePools();\n        cakePerBlock = _cakePerBlock;\n        emit UpdateEmissionRate(msg.sender, _cakePerBlock);\n    }\n\n    // Only update before start of farm\n    function updateStartBlock(uint256 _startBlock) external onlyOwner {\n\t    require(startBlock > block.number, \"Farm already started\");\n        startBlock = _startBlock;\n    }\n}",
  "sourcePath": "/Users/p489548/SmartContracts/Ingot Farming Project/ingot-contracts/contracts/MasterChef.sol",
  "compiler": {
    "name": "solc",
    "version": "0.8.6+commit.11564f7e.Emscripten.clang"
  },
  "schemaVersion": "3.4.2",
  "updatedAt": "2021-07-30T11:26:06.630Z",
  "networkType": "ethereum",
  "devdoc": {
    "kind": "dev",
    "methods": {
      "owner()": {
        "details": "Returns the address of the current owner."
      },
      "renounceOwnership()": {
        "details": "Leaves the contract without owner. It will not be possible to call `onlyOwner` functions anymore. Can only be called by the current owner. NOTE: Renouncing ownership will leave the contract without an owner, thereby removing any functionality that is only available to the owner."
      },
      "transferOwnership(address)": {
        "details": "Transfers ownership of the contract to a new account (`newOwner`). Can only be called by the current owner."
      }
    },
    "version": 1
  },
  "userdoc": {
    "kind": "user",
    "methods": {},
    "version": 1
  }
}