{
  "contractName": "Pool",
  "abi": [
    {
      "inputs": [
        {
          "internalType": "contract IFAMToken",
          "name": "_token",
          "type": "address"
        },
        {
          "internalType": "contract IFAMAsset",
          "name": "_asset",
          "type": "address"
        }
      ],
      "stateMutability": "nonpayable",
      "type": "constructor"
    },
    {
      "inputs": [],
      "name": "REWARD_TIME",
      "outputs": [
        {
          "internalType": "uint256",
          "name": "",
          "type": "uint256"
        }
      ],
      "stateMutability": "view",
      "type": "function",
      "constant": true
    },
    {
      "inputs": [],
      "name": "SAFE_MULTIPLIER",
      "outputs": [
        {
          "internalType": "uint256",
          "name": "",
          "type": "uint256"
        }
      ],
      "stateMutability": "view",
      "type": "function",
      "constant": true
    },
    {
      "inputs": [],
      "name": "asset",
      "outputs": [
        {
          "internalType": "contract IFAMAsset",
          "name": "",
          "type": "address"
        }
      ],
      "stateMutability": "view",
      "type": "function",
      "constant": true
    },
    {
      "inputs": [],
      "name": "startBlock",
      "outputs": [
        {
          "internalType": "uint256",
          "name": "",
          "type": "uint256"
        }
      ],
      "stateMutability": "view",
      "type": "function",
      "constant": true
    },
    {
      "inputs": [
        {
          "internalType": "bytes4",
          "name": "interfaceId",
          "type": "bytes4"
        }
      ],
      "name": "supportsInterface",
      "outputs": [
        {
          "internalType": "bool",
          "name": "",
          "type": "bool"
        }
      ],
      "stateMutability": "view",
      "type": "function",
      "constant": true
    },
    {
      "inputs": [],
      "name": "token",
      "outputs": [
        {
          "internalType": "contract IFAMToken",
          "name": "",
          "type": "address"
        }
      ],
      "stateMutability": "view",
      "type": "function",
      "constant": true
    },
    {
      "inputs": [
        {
          "internalType": "address",
          "name": "addr",
          "type": "address"
        }
      ],
      "name": "getUserInfo",
      "outputs": [
        {
          "internalType": "uint256",
          "name": "",
          "type": "uint256"
        },
        {
          "internalType": "uint256",
          "name": "",
          "type": "uint256"
        },
        {
          "internalType": "uint256",
          "name": "",
          "type": "uint256"
        },
        {
          "internalType": "uint256",
          "name": "",
          "type": "uint256"
        }
      ],
      "stateMutability": "view",
      "type": "function",
      "constant": true
    },
    {
      "inputs": [
        {
          "internalType": "address",
          "name": "addr",
          "type": "address"
        },
        {
          "internalType": "uint256",
          "name": "assetType",
          "type": "uint256"
        }
      ],
      "name": "getUserNumberAsset",
      "outputs": [
        {
          "internalType": "uint256",
          "name": "",
          "type": "uint256"
        }
      ],
      "stateMutability": "view",
      "type": "function",
      "constant": true
    },
    {
      "inputs": [],
      "name": "stimateReward",
      "outputs": [
        {
          "internalType": "uint256",
          "name": "",
          "type": "uint256"
        }
      ],
      "stateMutability": "view",
      "type": "function",
      "constant": true
    },
    {
      "inputs": [],
      "name": "claim",
      "outputs": [],
      "stateMutability": "nonpayable",
      "type": "function"
    },
    {
      "inputs": [
        {
          "internalType": "uint256[]",
          "name": "_ids",
          "type": "uint256[]"
        },
        {
          "internalType": "uint256[]",
          "name": "_values",
          "type": "uint256[]"
        }
      ],
      "name": "retrieve",
      "outputs": [],
      "stateMutability": "nonpayable",
      "type": "function"
    },
    {
      "inputs": [
        {
          "internalType": "address",
          "name": "_user",
          "type": "address"
        }
      ],
      "name": "pendingAlpa",
      "outputs": [
        {
          "internalType": "uint256",
          "name": "",
          "type": "uint256"
        }
      ],
      "stateMutability": "view",
      "type": "function",
      "constant": true
    },
    {
      "inputs": [
        {
          "internalType": "address",
          "name": "_operator",
          "type": "address"
        },
        {
          "internalType": "address",
          "name": "_from",
          "type": "address"
        },
        {
          "internalType": "uint256",
          "name": "_id",
          "type": "uint256"
        },
        {
          "internalType": "uint256",
          "name": "_value",
          "type": "uint256"
        },
        {
          "internalType": "bytes",
          "name": "_data",
          "type": "bytes"
        }
      ],
      "name": "onERC1155Received",
      "outputs": [
        {
          "internalType": "bytes4",
          "name": "",
          "type": "bytes4"
        }
      ],
      "stateMutability": "nonpayable",
      "type": "function"
    },
    {
      "inputs": [
        {
          "internalType": "address",
          "name": "_operator",
          "type": "address"
        },
        {
          "internalType": "address",
          "name": "_from",
          "type": "address"
        },
        {
          "internalType": "uint256[]",
          "name": "_ids",
          "type": "uint256[]"
        },
        {
          "internalType": "uint256[]",
          "name": "_values",
          "type": "uint256[]"
        },
        {
          "internalType": "bytes",
          "name": "_data",
          "type": "bytes"
        }
      ],
      "name": "onERC1155BatchReceived",
      "outputs": [
        {
          "internalType": "bytes4",
          "name": "",
          "type": "bytes4"
        }
      ],
      "stateMutability": "nonpayable",
      "type": "function"
    }
  ],
  "bytecode": "0x60806040523480156200001157600080fd5b506040516200220838038062002208833981810160405260408110156200003757600080fd5b8101908080519060200190929190805190602001909291905050506200006a6301ffc9a760e01b6200011c60201b60201c565b6200008b63bc197c8160e01b63f23a6e6160e01b186200011c60201b60201c565b6001808190555081600260006101000a81548173ffffffffffffffffffffffffffffffffffffffff021916908373ffffffffffffffffffffffffffffffffffffffff16021790555080600360006101000a81548173ffffffffffffffffffffffffffffffffffffffff021916908373ffffffffffffffffffffffffffffffffffffffff160217905550505062000225565b63ffffffff60e01b817bffffffffffffffffffffffffffffffffffffffffffffffffffffffff19161415620001b9576040517f08c379a000000000000000000000000000000000000000000000000000000000815260040180806020018281038252601c8152602001807f4552433136353a20696e76616c696420696e746572666163652069640000000081525060200191505060405180910390fd5b6001600080837bffffffffffffffffffffffffffffffffffffffffffffffffffffffff19167bffffffffffffffffffffffffffffffffffffffffffffffffffffffff1916815260200190815260200160002060006101000a81548160ff02191690831515021790555050565b611fd380620002356000396000f3fe608060405234801561001057600080fd5b50600436106100ea5760003560e01c8063817742de1161008c578063dc7e0ce811610066578063dc7e0ce8146104de578063ee9c746f146104fc578063f23a6e6114610648578063fc0c546a14610767576100ea565b8063817742de146102b3578063bc197c81146102d1578063c4b0e31e14610486576100ea565b806338d52e0f116100c857806338d52e0f146101d457806348cd4cb11461021e5780634e71d92d1461023c5780636386c1c714610246576100ea565b806301ffc9a7146100ef578063072361681461015457806324cfe7d714610172575b600080fd5b61013a6004803603602081101561010557600080fd5b8101908080357bffffffffffffffffffffffffffffffffffffffffffffffffffffffff191690602001909291905050506107b1565b604051808215151515815260200191505060405180910390f35b61015c610818565b6040518082815260200191505060405180910390f35b6101be6004803603604081101561018857600080fd5b81019080803573ffffffffffffffffffffffffffffffffffffffff1690602001909291908035906020019092919050505061081f565b6040518082815260200191505060405180910390f35b6101dc61087d565b604051808273ffffffffffffffffffffffffffffffffffffffff1673ffffffffffffffffffffffffffffffffffffffff16815260200191505060405180910390f35b6102266108a3565b6040518082815260200191505060405180910390f35b6102446108a9565b005b6102886004803603602081101561025c57600080fd5b81019080803573ffffffffffffffffffffffffffffffffffffffff169060200190929190505050610a5f565b6040518085815260200184815260200183815260200182815260200194505050505060405180910390f35b6102bb610b80565b6040518082815260200191505060405180910390f35b610432600480360360a08110156102e757600080fd5b81019080803573ffffffffffffffffffffffffffffffffffffffff169060200190929190803573ffffffffffffffffffffffffffffffffffffffff1690602001909291908035906020019064010000000081111561034457600080fd5b82018360208201111561035657600080fd5b8035906020019184602083028401116401000000008311171561037857600080fd5b90919293919293908035906020019064010000000081111561039957600080fd5b8201836020820111156103ab57600080fd5b803590602001918460208302840111640100000000831117156103cd57600080fd5b9091929391929390803590602001906401000000008111156103ee57600080fd5b82018360208201111561040057600080fd5b8035906020019184600183028401116401000000008311171561042257600080fd5b9091929391929390505050610c47565b60405180827bffffffffffffffffffffffffffffffffffffffffffffffffffffffff19167bffffffffffffffffffffffffffffffffffffffffffffffffffffffff1916815260200191505060405180910390f35b6104c86004803603602081101561049c57600080fd5b81019080803573ffffffffffffffffffffffffffffffffffffffff169060200190929190505050610f2b565b6040518082815260200191505060405180910390f35b6104e6610f32565b6040518082815260200191505060405180910390f35b6106466004803603604081101561051257600080fd5b810190808035906020019064010000000081111561052f57600080fd5b82018360208201111561054157600080fd5b8035906020019184602083028401116401000000008311171561056357600080fd5b919080806020026020016040519081016040528093929190818152602001838360200280828437600081840152601f19601f820116905080830192505050505050509192919290803590602001906401000000008111156105c357600080fd5b8201836020820111156105d557600080fd5b803590602001918460208302840111640100000000831117156105f757600080fd5b919080806020026020016040519081016040528093929190818152602001838360200280828437600081840152601f19601f820116905080830192505050505050509192919290505050610f3e565b005b610713600480360360a081101561065e57600080fd5b81019080803573ffffffffffffffffffffffffffffffffffffffff169060200190929190803573ffffffffffffffffffffffffffffffffffffffff1690602001909291908035906020019092919080359060200190929190803590602001906401000000008111156106cf57600080fd5b8201836020820111156106e157600080fd5b8035906020019184600183028401116401000000008311171561070357600080fd5b90919293919293905050506114ff565b60405180827bffffffffffffffffffffffffffffffffffffffffffffffffffffffff19167bffffffffffffffffffffffffffffffffffffffffffffffffffffffff1916815260200191505060405180910390f35b61076f61171d565b604051808273ffffffffffffffffffffffffffffffffffffffff1673ffffffffffffffffffffffffffffffffffffffff16815260200191505060405180910390f35b6000806000837bffffffffffffffffffffffffffffffffffffffffffffffffffffffff19167bffffffffffffffffffffffffffffffffffffffffffffffffffffffff1916815260200190815260200160002060009054906101000a900460ff169050919050565b6201518081565b6000600560008473ffffffffffffffffffffffffffffffffffffffff1673ffffffffffffffffffffffffffffffffffffffff168152602001908152602001600020600201600083815260200190815260200160002054905092915050565b600360009054906101000a900473ffffffffffffffffffffffffffffffffffffffff1681565b60045481565b60026001541415610922576040517f08c379a000000000000000000000000000000000000000000000000000000000815260040180806020018281038252601f8152602001807f5265656e7472616e637947756172643a207265656e7472616e742063616c6c0081525060200191505060405180910390fd5b60026001819055506000600560003373ffffffffffffffffffffffffffffffffffffffff1673ffffffffffffffffffffffffffffffffffffffff168152602001908152602001600020905061097681611743565b600081600401549050600082600401819055506000811115610a5457600260009054906101000a900473ffffffffffffffffffffffffffffffffffffffff1673ffffffffffffffffffffffffffffffffffffffff166340c10f1933836040518363ffffffff1660e01b8152600401808373ffffffffffffffffffffffffffffffffffffffff1673ffffffffffffffffffffffffffffffffffffffff16815260200182815260200192505050600060405180830381600087803b158015610a3b57600080fd5b505af1158015610a4f573d6000803e3d6000fd5b505050505b505060018081905550565b600080600080600560008673ffffffffffffffffffffffffffffffffffffffff1673ffffffffffffffffffffffffffffffffffffffff16815260200190815260200160002060030154600560008773ffffffffffffffffffffffffffffffffffffffff1673ffffffffffffffffffffffffffffffffffffffff16815260200190815260200160002060040154600560008873ffffffffffffffffffffffffffffffffffffffff1673ffffffffffffffffffffffffffffffffffffffff16815260200190815260200160002060050154600560008973ffffffffffffffffffffffffffffffffffffffff1673ffffffffffffffffffffffffffffffffffffffff1681526020019081526020016000206006015493509350935093509193509193565b600080600560003373ffffffffffffffffffffffffffffffffffffffff1673ffffffffffffffffffffffffffffffffffffffff1681526020019081526020016000209050600080610bde8360050154426117e990919063ffffffff16565b9150610c3c610c2962015180610c1b670de0b6b3a7640000610c0d87896003015461186c90919063ffffffff16565b61186c90919063ffffffff16565b6118f290919063ffffffff16565b846004015461197b90919063ffffffff16565b905080935050505090565b600060026001541415610cc2576040517f08c379a000000000000000000000000000000000000000000000000000000000815260040180806020018281038252601f8152602001807f5265656e7472616e637947756172643a207265656e7472616e742063616c6c0081525060200191505060405180910390fd5b6002600181905550600360009054906101000a900473ffffffffffffffffffffffffffffffffffffffff1673ffffffffffffffffffffffffffffffffffffffff163373ffffffffffffffffffffffffffffffffffffffff1614610d70576040517f08c379a0000000000000000000000000000000000000000000000000000000008152600401808060200182810382526032815260200180611ed26032913960400191505060405180910390fd5b848490508787905014610deb576040517f08c379a00000000000000000000000000000000000000000000000000000000081526004018080602001828103825260148152602001807f4172726179206d75737420626520657175616c2100000000000000000000000081525060200191505060405180910390fd5b6000600560008a73ffffffffffffffffffffffffffffffffffffffff1673ffffffffffffffffffffffffffffffffffffffff1681526020019081526020016000209050610e3781611743565b60008090505b88889050811015610ef2576000898983818110610e5657fe5b905060200201359050610e99888884818110610e6e57fe5b905060200201358460020160008481526020019081526020016000205461197b90919063ffffffff16565b83600201600083815260200190815260200160002081905550610ec88184600001611a0390919063ffffffff16565b610ee457610ee28184600001611a1d90919063ffffffff16565b505b508080600101915050610e3d565b50610efc81611a37565b6040518080611f2560419139604101905060405180910390209150506001808190555098975050505050505050565b6000919050565b670de0b6b3a764000081565b60026001541415610fb7576040517f08c379a000000000000000000000000000000000000000000000000000000000815260040180806020018281038252601f8152602001807f5265656e7472616e637947756172643a207265656e7472616e742063616c6c0081525060200191505060405180910390fd5b60026001819055506000825111611036576040517f08c379a00000000000000000000000000000000000000000000000000000000081526004018080602001828103825260168152602001807f506f6f6c3a20696e76616c696420617267756d656e740000000000000000000081525060200191505060405180910390fd5b60008151116110ad576040517f08c379a00000000000000000000000000000000000000000000000000000000081526004018080602001828103825260168152602001807f506f6f6c3a20696e76616c696420617267756d656e740000000000000000000081525060200191505060405180910390fd5b8051825114611124576040517f08c379a00000000000000000000000000000000000000000000000000000000081526004018080602001828103825260168152602001807f506f6f6c3a20696e76616c696420617267756d656e740000000000000000000081525060200191505060405180910390fd5b6000600560003373ffffffffffffffffffffffffffffffffffffffff1673ffffffffffffffffffffffffffffffffffffffff168152602001908152602001600020905061117081611743565b60008090505b835181101561135657600084828151811061118d57fe5b6020026020010151905060008483815181106111a557fe5b602002602001015111611220576040517f08c379a00000000000000000000000000000000000000000000000000000000081526004018080602001828103825260168152602001807f506f6f6c3a20696e76616c696420617267756d656e740000000000000000000081525060200191505060405180910390fd5b83828151811061122c57fe5b60200260200101518360020160008381526020019081526020016000205410156112be576040517f08c379a00000000000000000000000000000000000000000000000000000000081526004018080602001828103825260168152602001807f506f6f6c3a20696e76616c696420617267756d656e740000000000000000000081525060200191505060405180910390fd5b6112f98483815181106112cd57fe5b6020026020010151846002016000848152602001908152602001600020546117e990919063ffffffff16565b836002016000838152602001908152602001600020819055506000836002016000838152602001908152602001600020541415611348576113468184600001611c5790919063ffffffff16565b505b508080600101915050611176565b5061136081611a37565b600360009054906101000a900473ffffffffffffffffffffffffffffffffffffffff1673ffffffffffffffffffffffffffffffffffffffff16632eb2c2d6303386866040518563ffffffff1660e01b8152600401808573ffffffffffffffffffffffffffffffffffffffff1673ffffffffffffffffffffffffffffffffffffffff1681526020018473ffffffffffffffffffffffffffffffffffffffff1673ffffffffffffffffffffffffffffffffffffffff168152602001806020018060200180602001848103845286818151815260200191508051906020019060200280838360005b83811015611460578082015181840152602081019050611445565b50505050905001848103835285818151815260200191508051906020019060200280838360005b838110156114a2578082015181840152602081019050611487565b50505050905001848103825260008152602001602001975050505050505050600060405180830381600087803b1580156114db57600080fd5b505af11580156114ef573d6000803e3d6000fd5b5050505050600180819055505050565b60006002600154141561157a576040517f08c379a000000000000000000000000000000000000000000000000000000000815260040180806020018281038252601f8152602001807f5265656e7472616e637947756172643a207265656e7472616e742063616c6c0081525060200191505060405180910390fd5b6002600181905550600360009054906101000a900473ffffffffffffffffffffffffffffffffffffffff1673ffffffffffffffffffffffffffffffffffffffff163373ffffffffffffffffffffffffffffffffffffffff1614611628576040517f08c379a0000000000000000000000000000000000000000000000000000000008152600401808060200182810382526032815260200180611ed26032913960400191505060405180910390fd5b6000600560008873ffffffffffffffffffffffffffffffffffffffff1673ffffffffffffffffffffffffffffffffffffffff168152602001908152602001600020905061167481611743565b61169c858260020160008981526020019081526020016000205461197b90919063ffffffff16565b816002016000888152602001908152602001600020819055506116cb8682600001611a0390919063ffffffff16565b6116e7576116e58682600001611a1d90919063ffffffff16565b505b6116f081611a37565b6040518080611f666038913960380190506040518091039020915050600180819055509695505050505050565b600260009054906101000a900473ffffffffffffffffffffffffffffffffffffffff1681565b80600601544311611753576117e6565b600061176c8260050154426117e990919063ffffffff16565b90506117ca6117b7620151806117a9670de0b6b3a764000061179b86886003015461186c90919063ffffffff16565b61186c90919063ffffffff16565b6118f290919063ffffffff16565b836004015461197b90919063ffffffff16565b8260040181905550438260060181905550428260050181905550505b50565b600082821115611861576040517f08c379a000000000000000000000000000000000000000000000000000000000815260040180806020018281038252601e8152602001807f536166654d6174683a207375627472616374696f6e206f766572666c6f77000081525060200191505060405180910390fd5b818303905092915050565b60008083141561187f57600090506118ec565b600082840290508284828161189057fe5b04146118e7576040517f08c379a0000000000000000000000000000000000000000000000000000000008152600401808060200182810382526021815260200180611f046021913960400191505060405180910390fd5b809150505b92915050565b6000808211611969576040517f08c379a000000000000000000000000000000000000000000000000000000000815260040180806020018281038252601a8152602001807f536166654d6174683a206469766973696f6e206279207a65726f00000000000081525060200191505060405180910390fd5b81838161197257fe5b04905092915050565b6000808284019050838110156119f9576040517f08c379a000000000000000000000000000000000000000000000000000000000815260040180806020018281038252601b8152602001807f536166654d6174683a206164646974696f6e206f766572666c6f77000000000081525060200191505060405180910390fd5b8091505092915050565b6000611a15836000018360001b611c71565b905092915050565b6000611a2f836000018360001b611c94565b905092915050565b600080905060008090505b611a4e83600001611d04565b811015611c49576000611a6d8285600001611d1990919063ffffffff16565b90506000600360009054906101000a900473ffffffffffffffffffffffffffffffffffffffff1673ffffffffffffffffffffffffffffffffffffffff16639a4b8c0d836040518263ffffffff1660e01b81526004018082815260200191505060006040518083038186803b158015611ae457600080fd5b505afa158015611af8573d6000803e3d6000fd5b505050506040513d6000823e3d601f19601f820116820180604052506060811015611b2257600080fd5b810190808051906020019092919080516040519392919084640100000000821115611b4c57600080fd5b83820191506020820185811115611b6257600080fd5b8251866001820283011164010000000082111715611b7f57600080fd5b8083526020830192505050908051906020019080838360005b83811015611bb3578082015181840152602081019050611b98565b50505050905090810190601f168015611be05780820380516001836020036101000a031916815260200191505b506040526020018051906020019092919050505092505050611c38611c298263ffffffff168760020160008681526020019081526020016000205461186c90919063ffffffff16565b8561197b90919063ffffffff16565b935050508080600101915050611a42565b508082600301819055505050565b6000611c69836000018360001b611d33565b905092915050565b600080836001016000848152602001908152602001600020541415905092915050565b6000611ca08383611c71565b611cf9578260000182908060018154018082558091505060019003906000526020600020016000909190919091505582600001805490508360010160008481526020019081526020016000208190555060019050611cfe565b600090505b92915050565b6000611d1282600001611e1b565b9050919050565b6000611d288360000183611e2c565b60001c905092915050565b60008083600101600084815260200190815260200160002054905060008114611e0f5760006001820390506000600186600001805490500390506000866000018281548110611d7e57fe5b9060005260206000200154905080876000018481548110611d9b57fe5b9060005260206000200181905550600183018760010160008381526020019081526020016000208190555086600001805480611dd357fe5b60019003818190600052602060002001600090559055866001016000878152602001908152602001600020600090556001945050505050611e15565b60009150505b92915050565b600081600001805490509050919050565b600081836000018054905011611e8d576040517f08c379a0000000000000000000000000000000000000000000000000000000008152600401808060200182810382526022815260200180611eb06022913960400191505060405180910390fd5b826000018281548110611e9c57fe5b906000526020600020015490509291505056fe456e756d657261626c655365743a20696e646578206f7574206f6620626f756e6473506f6f6c3a2072656365697665642041737365742066726f6d20756e61757468656e7469636174656420636f6e7472616374536166654d6174683a206d756c7469706c69636174696f6e206f766572666c6f776f6e455243313135354261746368526563656976656428616464726573732c616464726573732c75696e743235365b5d2c75696e743235365b5d2c6279746573296f6e45524331313535526563656976656428616464726573732c616464726573732c75696e743235362c75696e743235362c627974657329a2646970667358221220674738ea6ac87f2e5b82a9fce479cb894f3665f1e3432c5db4937d4747b0240064736f6c63430006020033",
  "source": "pragma solidity ^0.6.0;\n\nimport \"@openzeppelin/contracts/token/ERC20/IERC20.sol\";\nimport \"@openzeppelin/contracts/token/ERC1155/ERC1155Receiver.sol\";\nimport \"@openzeppelin/contracts/token/ERC20/SafeERC20.sol\";\nimport \"@openzeppelin/contracts/utils/EnumerableSet.sol\";\nimport \"@openzeppelin/contracts/utils/ReentrancyGuard.sol\";\nimport \"@openzeppelin/contracts/math/SafeMath.sol\";\nimport \"@openzeppelin/contracts/access/Ownable.sol\";\n\nimport \"./interfaces/IFAMToken.sol\";\nimport \"./interfaces/IFAMAsset.sol\";\n\ncontract Pool is ERC1155Receiver, ReentrancyGuard{\n    using SafeMath for uint256;\n    using SafeERC20 for IERC20;\n\n    using EnumerableSet for EnumerableSet.UintSet;\n\n    IFAMToken public token;\n    IFAMAsset public asset;\n\n    uint256 public startBlock;\n    \n    uint256 public constant REWARD_TIME = 86400;\n    uint256 public constant SAFE_MULTIPLIER = 1e18;\n    \n    struct UserInfo {\n        EnumerableSet.UintSet keys;\n        mapping(uint256 => uint256) values;\n\n        uint256 totalPower;\n\n        uint256 lastReward;\n        uint256 lastUpdateTime;\n        uint256 lastUpdateBlock;\n\n    }\n    mapping(address => UserInfo) private userInfo;\n\n    constructor(IFAMToken _token, IFAMAsset _asset) public {\n        token = _token;\n        asset = _asset;\n    }\n\n    function getUserInfo(address addr) public view returns(uint256, uint256, uint256, uint256){\n        return(userInfo[addr].totalPower, userInfo[addr].lastReward, userInfo[addr].lastUpdateTime, userInfo[addr].lastUpdateBlock);\n    }\n    function getUserNumberAsset(address addr, uint256 assetType) public view returns(uint256){\n        return userInfo[addr].values[assetType];\n    }\n\n    // todo to REVIEW!\n    function stimateReward() public view returns(uint256){\n        UserInfo storage _user = userInfo[msg.sender];\n        uint256 secondsElaps;\n        uint256 previewReward;\n        secondsElaps = block.timestamp.sub(_user.lastUpdateTime);\n        previewReward = _user.lastReward.add((_user.totalPower.mul(secondsElaps).mul(SAFE_MULTIPLIER)).div(REWARD_TIME));\n        return previewReward;\n    }\n\n    function claim() public nonReentrant {\n        UserInfo storage user = userInfo[msg.sender];\n        _updateUserReward(user);\n        uint256 reward = user.lastReward;\n        user.lastReward = 0;\n        if (reward > 0) {\n            token.mint(msg.sender,reward);\n        }\n    }\n\n    function retrieve(uint256[] memory _ids, uint256[] memory _values) public nonReentrant {\n        require(_ids.length > 0, \"Pool: invalid argument\");\n        require(_values.length > 0, \"Pool: invalid argument\");\n        require(_ids.length == _values.length, \"Pool: invalid argument\");\n\n        UserInfo storage user = userInfo[msg.sender];\n        _updateUserReward(user);\n\n        for (uint256 i = 0; i < _ids.length; i++) {\n            uint256 id = _ids[i];\n            require(_values[i]> 0 , \"Pool: invalid argument\");\n            require(user.values[id] >= _values[i] , \"Pool: invalid argument\");\n            \n            user.values[id] = user.values[id].sub(_values[i]);\n            \n            if(user.values[id] == 0){\n                user.keys.remove(id);\n            }            \n        }\n        _updateTotalPower(user);\n        asset.safeBatchTransferFrom(address(this), msg.sender, _ids, _values, \"\");\n\n    }\n\n    function pendingAlpa(address _user) external view returns (uint256) {\n\n    }\n\n\n    function _updateUserReward(UserInfo storage _user) private\n    {\n        \n        if (block.number <= _user.lastUpdateBlock) {\n            return;\n        }\n        uint256 secondsElaps;\n        secondsElaps = block.timestamp.sub(_user.lastUpdateTime);\n\n        // lR = lR + totalPower * secondsElaps/REWARD_TIME * SAFE_MULTIPLIER\n        _user.lastReward = _user.lastReward.add((_user.totalPower.mul(secondsElaps).mul(SAFE_MULTIPLIER)).div(REWARD_TIME));\n        _user.lastUpdateBlock = block.number;\n        _user.lastUpdateTime = block.timestamp;\n    }\n\n    function _updateTotalPower(UserInfo storage _user) private\n    {\n        uint256 totalPower = 0;\n        for (uint256 i = 0; i < _user.keys.length(); i++) {\n            uint256 id = _user.keys.at(i);\n            (, , uint32 _power) = asset.getAssetType(id);\n            \n            totalPower = totalPower.add(_user.values[id].mul(_power));\n        }\n\n        _user.totalPower = totalPower;\n    }\n\n    /* ========== ERC1155Receiver ========== */\n\n    /**\n     * @dev onERC1155Received implementation per IERC1155Receiver spec\n     */\n    function onERC1155Received(address _operator, address _from, uint256 _id, uint256 _value, bytes calldata _data)\n    external override nonReentrant fromAssetAddress returns (bytes4) {\n        \n        UserInfo storage user = userInfo[_from];\n        _updateUserReward(user);\n        \n        user.values[_id] = user.values[_id].add(_value);\n\n        if(!user.keys.contains(_id)){\n            user.keys.add(_id);\n        }\n\n        _updateTotalPower(user);\n\n        return\n            bytes4(\n                keccak256(\n                    \"onERC1155Received(address,address,uint256,uint256,bytes)\"\n                )\n            );\n            \n    }\n\n    function onERC1155BatchReceived(address _operator, address _from, uint256[] calldata _ids, uint256[] calldata _values, bytes calldata _data)\n    external override nonReentrant fromAssetAddress returns (bytes4) {\n        require(_ids.length == _values.length, \"Array must be equal!\");\n        \n        UserInfo storage user = userInfo[_from];\n        _updateUserReward(user);\n\n        for (uint256 i = 0; i < _ids.length; i++) {\n            uint256 id = _ids[i];\n            user.values[id] = user.values[id].add(_values[i]);\n            if(!user.keys.contains(id)){\n                user.keys.add(id);\n            }\n        }\n\n        _updateTotalPower(user);\n\n         return\n            bytes4(\n                keccak256(\n                    \"onERC1155BatchReceived(address,address,uint256[],uint256[],bytes)\"\n                )\n            );\n    }\n\n\n    /* ========== MODIFIER ========== */\n\n    modifier fromAssetAddress() {\n        require(\n            msg.sender == address(asset),\n            \"Pool: received Asset from unauthenticated contract\"\n        );\n        _;\n    }\n\n}",
  "sourcePath": "/Users/p489548/SmartContracts/tokenfarm/contracts/Pool.sol",
  "compiler": {
    "name": "solc",
    "version": "0.6.2+commit.bacdbe57.Emscripten.clang"
  },
  "schemaVersion": "3.3.4",
  "updatedAt": "2021-03-30T20:57:00.810Z",
  "networkType": "ethereum",
  "devdoc": {
    "methods": {
      "onERC1155Received(address,address,uint256,uint256,bytes)": {
        "details": "onERC1155Received implementation per IERC1155Receiver spec"
      },
      "supportsInterface(bytes4)": {
        "details": "See {IERC165-supportsInterface}.     * Time complexity O(1), guaranteed to always use less than 30 000 gas."
      }
    }
  },
  "userdoc": {
    "methods": {}
  }
}