{
  "contractName": "PrivateSale",
  "abi": [
    {
      "inputs": [
        {
          "internalType": "contract IIngotToken",
          "name": "_token",
          "type": "address"
        }
      ],
      "stateMutability": "nonpayable",
      "type": "constructor"
    },
    {
      "anonymous": false,
      "inputs": [
        {
          "indexed": true,
          "internalType": "address",
          "name": "previousOwner",
          "type": "address"
        },
        {
          "indexed": true,
          "internalType": "address",
          "name": "newOwner",
          "type": "address"
        }
      ],
      "name": "OwnershipTransferred",
      "type": "event"
    },
    {
      "inputs": [],
      "name": "ETH_CAP",
      "outputs": [
        {
          "internalType": "uint256",
          "name": "",
          "type": "uint256"
        }
      ],
      "stateMutability": "view",
      "type": "function",
      "constant": true
    },
    {
      "inputs": [],
      "name": "MAX_ETH_USER",
      "outputs": [
        {
          "internalType": "uint256",
          "name": "",
          "type": "uint256"
        }
      ],
      "stateMutability": "view",
      "type": "function",
      "constant": true
    },
    {
      "inputs": [],
      "name": "MIN_ETH_USER",
      "outputs": [
        {
          "internalType": "uint256",
          "name": "",
          "type": "uint256"
        }
      ],
      "stateMutability": "view",
      "type": "function",
      "constant": true
    },
    {
      "inputs": [],
      "name": "RATIO_WEI_TOKEN",
      "outputs": [
        {
          "internalType": "uint256",
          "name": "",
          "type": "uint256"
        }
      ],
      "stateMutability": "view",
      "type": "function",
      "constant": true
    },
    {
      "inputs": [],
      "name": "SAFE_MULTIPLIER",
      "outputs": [
        {
          "internalType": "uint256",
          "name": "",
          "type": "uint256"
        }
      ],
      "stateMutability": "view",
      "type": "function",
      "constant": true
    },
    {
      "inputs": [],
      "name": "isPrivateSale",
      "outputs": [
        {
          "internalType": "bool",
          "name": "",
          "type": "bool"
        }
      ],
      "stateMutability": "view",
      "type": "function",
      "constant": true
    },
    {
      "inputs": [],
      "name": "owner",
      "outputs": [
        {
          "internalType": "address",
          "name": "",
          "type": "address"
        }
      ],
      "stateMutability": "view",
      "type": "function",
      "constant": true
    },
    {
      "inputs": [],
      "name": "renounceOwnership",
      "outputs": [],
      "stateMutability": "nonpayable",
      "type": "function"
    },
    {
      "inputs": [],
      "name": "token",
      "outputs": [
        {
          "internalType": "contract IIngotToken",
          "name": "",
          "type": "address"
        }
      ],
      "stateMutability": "view",
      "type": "function",
      "constant": true
    },
    {
      "inputs": [
        {
          "internalType": "address",
          "name": "newOwner",
          "type": "address"
        }
      ],
      "name": "transferOwnership",
      "outputs": [],
      "stateMutability": "nonpayable",
      "type": "function"
    },
    {
      "inputs": [
        {
          "internalType": "address",
          "name": "",
          "type": "address"
        }
      ],
      "name": "users",
      "outputs": [
        {
          "internalType": "uint256",
          "name": "",
          "type": "uint256"
        }
      ],
      "stateMutability": "view",
      "type": "function",
      "constant": true
    },
    {
      "inputs": [],
      "name": "weiRaised",
      "outputs": [
        {
          "internalType": "uint256",
          "name": "",
          "type": "uint256"
        }
      ],
      "stateMutability": "view",
      "type": "function",
      "constant": true
    },
    {
      "inputs": [],
      "name": "buyTokens",
      "outputs": [],
      "stateMutability": "payable",
      "type": "function",
      "payable": true
    },
    {
      "inputs": [],
      "name": "extractEther",
      "outputs": [],
      "stateMutability": "nonpayable",
      "type": "function"
    },
    {
      "inputs": [
        {
          "internalType": "uint256",
          "name": "cap",
          "type": "uint256"
        }
      ],
      "name": "setMaxETHUser",
      "outputs": [],
      "stateMutability": "nonpayable",
      "type": "function"
    },
    {
      "inputs": [
        {
          "internalType": "uint256",
          "name": "cap",
          "type": "uint256"
        }
      ],
      "name": "setMinETHUser",
      "outputs": [],
      "stateMutability": "nonpayable",
      "type": "function"
    },
    {
      "inputs": [
        {
          "internalType": "uint256",
          "name": "cap",
          "type": "uint256"
        }
      ],
      "name": "setETHCap",
      "outputs": [],
      "stateMutability": "nonpayable",
      "type": "function"
    },
    {
      "inputs": [
        {
          "internalType": "uint256",
          "name": "ratio",
          "type": "uint256"
        }
      ],
      "name": "setRatioWeiToken",
      "outputs": [],
      "stateMutability": "nonpayable",
      "type": "function"
    },
    {
      "inputs": [
        {
          "internalType": "bool",
          "name": "flag",
          "type": "bool"
        }
      ],
      "name": "setIsPrivateSale",
      "outputs": [],
      "stateMutability": "nonpayable",
      "type": "function"
    }
  ],
  "bytecode": "0x6080604052610017670de0b6b3a7640000600161011a565b60045567016345785d8a0000600555600060065561003f670de0b6b3a76400006103e861011a565b60075561079e6008556009805460ff1916600117905534801561006157600080fd5b50604051610b14380380610b14833981016040819052610080916100ea565b600080546001600160a01b031916339081178255604051909182917f8be0079c531659141344cd1fd0a4f28419497f9722a3daafe3b4186f6b6457e0908290a35060018055600280546001600160a01b0319166001600160a01b0392909216919091179055610147565b6000602082840312156100fc57600080fd5b81516001600160a01b038116811461011357600080fd5b9392505050565b600081600019048311821515161561014257634e487b7160e01b600052601160045260246000fd5b500290565b6109be806101566000396000f3fe6080604052600436106101145760003560e01c8063a12b03e9116100a0578063e931e39d11610064578063e931e39d146102bd578063f2fde38b146102d3578063f803d171146102f3578063f88f499314610313578063fc0c546a1461033357600080fd5b8063a12b03e91461022c578063a7e5e15d1461024c578063a87430ba1461026c578063d0febe4c14610299578063dc7e0ce8146102a157600080fd5b8063715018a6116100e7578063715018a6146101a45780638da5cb5b146101b9578063919a8c16146101eb5780639d837ccd146102015780639fee597b1461021757600080fd5b80630adeeea41461011957806314be7793146101425780634042b66f1461016c57806345c3bba714610182575b600080fd5b34801561012557600080fd5b5061012f60045481565b6040519081526020015b60405180910390f35b34801561014e57600080fd5b5060095461015c9060ff1681565b6040519015158152602001610139565b34801561017857600080fd5b5061012f60065481565b34801561018e57600080fd5b506101a261019d3660046108ed565b610353565b005b3480156101b057600080fd5b506101a261038b565b3480156101c557600080fd5b506000546001600160a01b03165b6040516001600160a01b039091168152602001610139565b3480156101f757600080fd5b5061012f60055481565b34801561020d57600080fd5b5061012f60075481565b34801561022357600080fd5b506101a26103ff565b34801561023857600080fd5b506101a26102473660046108ed565b610466565b34801561025857600080fd5b506101a26102673660046108cb565b610495565b34801561027857600080fd5b5061012f6102873660046108a2565b60036020526000908152604090205481565b6101a26104d2565b3480156102ad57600080fd5b5061012f670de0b6b3a764000081565b3480156102c957600080fd5b5061012f60085481565b3480156102df57600080fd5b506101a26102ee3660046108a2565b61073b565b3480156102ff57600080fd5b506101a261030e3660046108ed565b610825565b34801561031f57600080fd5b506101a261032e3660046108ed565b610854565b34801561033f57600080fd5b506002546101d3906001600160a01b031681565b6000546001600160a01b031633146103865760405162461bcd60e51b815260040161037d90610906565b60405180910390fd5b600455565b6000546001600160a01b031633146103b55760405162461bcd60e51b815260040161037d90610906565b600080546040516001600160a01b03909116907f8be0079c531659141344cd1fd0a4f28419497f9722a3daafe3b4186f6b6457e0908390a3600080546001600160a01b0319169055565b6000546001600160a01b031633146104295760405162461bcd60e51b815260040161037d90610906565b600080546040516001600160a01b03909116914780156108fc02929091818181858888f19350505050158015610463573d6000803e3d6000fd5b50565b6000546001600160a01b031633146104905760405162461bcd60e51b815260040161037d90610906565b600555565b6000546001600160a01b031633146104bf5760405162461bcd60e51b815260040161037d90610906565b6009805460ff1916911515919091179055565b600260015414156105255760405162461bcd60e51b815260206004820152601f60248201527f5265656e7472616e637947756172643a207265656e7472616e742063616c6c00604482015260640161037d565b600260015560095460ff166105715760405162461bcd60e51b8152602060048201526012602482015271141c9a5d985d194814d85b1948115b99195960721b604482015260640161037d565b60055434908110156105c55760405162461bcd60e51b815260206004820152601e60248201527f507269766174652053616c653a20696e76616c696420617267756d656e740000604482015260640161037d565b6007546006546105d59083610883565b11156106175760405162461bcd60e51b81526020600482015260116024820152701155120810d0540813dd995c9b1a5b5a5d607a1b604482015260640161037d565b600454336000908152600360205260409020546106349083610883565b111561067b5760405162461bcd60e51b815260206004820152601660248201527511551208141154881554d1548813dd995c9b1a5b5a5d60521b604482015260640161037d565b60006106926008548361089690919063ffffffff16565b336000908152600360205260409020549091506106af9083610883565b336000908152600360205260409020556006546106cc9083610883565b6006556002546040516340c10f1960e01b8152336004820152602481018390526001600160a01b03909116906340c10f1990604401600060405180830381600087803b15801561071b57600080fd5b505af115801561072f573d6000803e3d6000fd5b50506001805550505050565b6000546001600160a01b031633146107655760405162461bcd60e51b815260040161037d90610906565b6001600160a01b0381166107ca5760405162461bcd60e51b815260206004820152602660248201527f4f776e61626c653a206e6577206f776e657220697320746865207a65726f206160448201526564647265737360d01b606482015260840161037d565b600080546040516001600160a01b03808516939216917f8be0079c531659141344cd1fd0a4f28419497f9722a3daafe3b4186f6b6457e091a3600080546001600160a01b0319166001600160a01b0392909216919091179055565b6000546001600160a01b0316331461084f5760405162461bcd60e51b815260040161037d90610906565b600755565b6000546001600160a01b0316331461087e5760405162461bcd60e51b815260040161037d90610906565b600855565b600061088f828461093b565b9392505050565b600061088f8284610953565b6000602082840312156108b457600080fd5b81356001600160a01b038116811461088f57600080fd5b6000602082840312156108dd57600080fd5b8135801515811461088f57600080fd5b6000602082840312156108ff57600080fd5b5035919050565b6020808252818101527f4f776e61626c653a2063616c6c6572206973206e6f7420746865206f776e6572604082015260600190565b6000821982111561094e5761094e610972565b500190565b600081600019048311821515161561096d5761096d610972565b500290565b634e487b7160e01b600052601160045260246000fdfea26469706673582212206739291e643cf3ede39526a11fe201caac1f656fed81bffee1d8e530c8ea903c64736f6c63430008060033",
  "immutableReferences": {},
  "source": "pragma solidity ^0.8.0;\n\nimport \"@openzeppelin/contracts/token/ERC20/utils/SafeERC20.sol\";\nimport \"@openzeppelin/contracts/security/ReentrancyGuard.sol\";\nimport \"@openzeppelin/contracts/utils/math/SafeMath.sol\";\nimport \"@openzeppelin/contracts/access/Ownable.sol\";\n\nimport \"./interfaces/IIngotToken.sol\";\n\ncontract PrivateSale is Ownable, ReentrancyGuard{\n    using SafeMath for uint256;\n    using SafeERC20 for IIngotToken;\n\n    IIngotToken public token;\n\n    mapping (address => uint256) public users;\n    uint256 public constant SAFE_MULTIPLIER = 1e18;\n    uint256 public MAX_ETH_USER = 1 * SAFE_MULTIPLIER;\n    uint256 public MIN_ETH_USER = 1 * 1e17;\n\n    uint256 public weiRaised = 0;\n    uint256 public ETH_CAP = 1000 * SAFE_MULTIPLIER;\n    uint256 public RATIO_WEI_TOKEN = 1950;\n    bool public isPrivateSale = true;\n\n    constructor(IIngotToken _token) public {\n        token = _token;\n    }\n\n    /* ========== PUBLIC ========== */\n\n    function buyTokens() public nonReentrant payable {\n        require(isPrivateSale, \"Private Sale Ended\");\n        uint256 weiAmount = msg.value;\n        require(weiAmount >= MIN_ETH_USER, \"Private Sale: invalid argument\");\n        require(weiRaised.add(weiAmount) <= ETH_CAP, \"ETH CAP Overlimit\");\n        require(users[msg.sender].add(weiAmount) <= MAX_ETH_USER, \"ETH PER USER Overlimit\");\n        uint256 tokenAmount = weiAmount.mul(RATIO_WEI_TOKEN);\n        \n        users[msg.sender] = users[msg.sender].add(weiAmount);\n        weiRaised = weiRaised.add(weiAmount);\n        token.mint(msg.sender, tokenAmount);   \n    }\n\n    /* ========== OWNER ONLY FUNCTIONS ========== */\n\n    function extractEther() public onlyOwner {\n       payable(owner()).transfer(address(this).balance);\n   }\n\n    function setMaxETHUser(uint256 cap) public onlyOwner {\n        MAX_ETH_USER = cap;\n    }\n\n    function setMinETHUser(uint256 cap) public onlyOwner {\n        MIN_ETH_USER = cap;\n    }\n\n    function setETHCap(uint256 cap) public onlyOwner {\n        ETH_CAP = cap;\n    }\n\n    function setRatioWeiToken(uint256 ratio) public onlyOwner {\n        RATIO_WEI_TOKEN = ratio;\n    }\n\n    function setIsPrivateSale(bool flag) public onlyOwner {\n        isPrivateSale= flag;\n    }\n}",
  "sourcePath": "/Users/p489548/SmartContracts/Ingot Farming Project/ingot-contracts/contracts/PrivateSale.sol",
  "compiler": {
    "name": "solc",
    "version": "0.8.6+commit.11564f7e.Emscripten.clang"
  },
  "schemaVersion": "3.3.4",
  "updatedAt": "2021-07-04T12:20:48.012Z",
  "networkType": "ethereum",
  "devdoc": {
    "kind": "dev",
    "methods": {
      "owner()": {
        "details": "Returns the address of the current owner."
      },
      "renounceOwnership()": {
        "details": "Leaves the contract without owner. It will not be possible to call `onlyOwner` functions anymore. Can only be called by the current owner. NOTE: Renouncing ownership will leave the contract without an owner, thereby removing any functionality that is only available to the owner."
      },
      "transferOwnership(address)": {
        "details": "Transfers ownership of the contract to a new account (`newOwner`). Can only be called by the current owner."
      }
    },
    "version": 1
  },
  "userdoc": {
    "kind": "user",
    "methods": {},
    "version": 1
  }
}