{
  "contractName": "Store",
  "abi": [
    {
      "inputs": [
        {
          "internalType": "contract IFAMToken",
          "name": "_token",
          "type": "address"
        },
        {
          "internalType": "contract IFAMAsset",
          "name": "_asset",
          "type": "address"
        }
      ],
      "stateMutability": "nonpayable",
      "type": "constructor"
    },
    {
      "anonymous": false,
      "inputs": [
        {
          "indexed": true,
          "internalType": "address",
          "name": "previousOwner",
          "type": "address"
        },
        {
          "indexed": true,
          "internalType": "address",
          "name": "newOwner",
          "type": "address"
        }
      ],
      "name": "OwnershipTransferred",
      "type": "event"
    },
    {
      "inputs": [],
      "name": "asset",
      "outputs": [
        {
          "internalType": "contract IFAMAsset",
          "name": "",
          "type": "address"
        }
      ],
      "stateMutability": "view",
      "type": "function"
    },
    {
      "inputs": [
        {
          "internalType": "uint256",
          "name": "",
          "type": "uint256"
        }
      ],
      "name": "maxAmountAllowedNft",
      "outputs": [
        {
          "internalType": "uint256",
          "name": "",
          "type": "uint256"
        }
      ],
      "stateMutability": "view",
      "type": "function"
    },
    {
      "inputs": [
        {
          "internalType": "uint256",
          "name": "",
          "type": "uint256"
        }
      ],
      "name": "minedNft",
      "outputs": [
        {
          "internalType": "uint256",
          "name": "",
          "type": "uint256"
        }
      ],
      "stateMutability": "view",
      "type": "function"
    },
    {
      "inputs": [],
      "name": "owner",
      "outputs": [
        {
          "internalType": "address",
          "name": "",
          "type": "address"
        }
      ],
      "stateMutability": "view",
      "type": "function"
    },
    {
      "inputs": [
        {
          "internalType": "uint256",
          "name": "",
          "type": "uint256"
        }
      ],
      "name": "priceNft",
      "outputs": [
        {
          "internalType": "uint256",
          "name": "",
          "type": "uint256"
        }
      ],
      "stateMutability": "view",
      "type": "function"
    },
    {
      "inputs": [],
      "name": "renounceOwnership",
      "outputs": [],
      "stateMutability": "nonpayable",
      "type": "function"
    },
    {
      "inputs": [],
      "name": "token",
      "outputs": [
        {
          "internalType": "contract IFAMToken",
          "name": "",
          "type": "address"
        }
      ],
      "stateMutability": "view",
      "type": "function"
    },
    {
      "inputs": [
        {
          "internalType": "address",
          "name": "newOwner",
          "type": "address"
        }
      ],
      "name": "transferOwnership",
      "outputs": [],
      "stateMutability": "nonpayable",
      "type": "function"
    },
    {
      "inputs": [
        {
          "internalType": "uint256",
          "name": "id",
          "type": "uint256"
        },
        {
          "internalType": "uint256",
          "name": "amount",
          "type": "uint256"
        }
      ],
      "name": "buyNft",
      "outputs": [],
      "stateMutability": "nonpayable",
      "type": "function"
    },
    {
      "inputs": [
        {
          "internalType": "uint256[]",
          "name": "_ids",
          "type": "uint256[]"
        },
        {
          "internalType": "uint256[]",
          "name": "_amounts",
          "type": "uint256[]"
        }
      ],
      "name": "buyBatchNft",
      "outputs": [],
      "stateMutability": "nonpayable",
      "type": "function"
    },
    {
      "inputs": [
        {
          "internalType": "uint256",
          "name": "id",
          "type": "uint256"
        },
        {
          "internalType": "uint256",
          "name": "amount",
          "type": "uint256"
        }
      ],
      "name": "setMaxAmountAllowed",
      "outputs": [],
      "stateMutability": "nonpayable",
      "type": "function"
    },
    {
      "inputs": [
        {
          "internalType": "uint256",
          "name": "id",
          "type": "uint256"
        },
        {
          "internalType": "uint256",
          "name": "price",
          "type": "uint256"
        }
      ],
      "name": "setPriceNft",
      "outputs": [],
      "stateMutability": "nonpayable",
      "type": "function"
    }
  ],
  "bytecode": "0x608060405234801561001057600080fd5b506040516118383803806118388339818101604052604081101561003357600080fd5b810190808051906020019092919080519060200190929190505050600061005e61018c60201b60201c565b9050806000806101000a81548173ffffffffffffffffffffffffffffffffffffffff021916908373ffffffffffffffffffffffffffffffffffffffff1602179055508073ffffffffffffffffffffffffffffffffffffffff16600073ffffffffffffffffffffffffffffffffffffffff167f8be0079c531659141344cd1fd0a4f28419497f9722a3daafe3b4186f6b6457e060405160405180910390a3506001808190555081600260006101000a81548173ffffffffffffffffffffffffffffffffffffffff021916908373ffffffffffffffffffffffffffffffffffffffff16021790555080600360006101000a81548173ffffffffffffffffffffffffffffffffffffffff021916908373ffffffffffffffffffffffffffffffffffffffff1602179055505050610194565b600033905090565b611695806101a36000396000f3fe608060405234801561001057600080fd5b50600436106100b45760003560e01c8063a767d16311610071578063a767d16314610209578063d6f79b7714610355578063ebaa40a11461038d578063f2b7dc9d146103cf578063f2fde38b14610411578063fc0c546a14610455576100b4565b806338d52e0f146100b9578063556f80841461010357806363466c1b1461013b578063715018a6146101735780638da5cb5b1461017d578063a606b336146101c7575b600080fd5b6100c161049f565b604051808273ffffffffffffffffffffffffffffffffffffffff1673ffffffffffffffffffffffffffffffffffffffff16815260200191505060405180910390f35b6101396004803603604081101561011957600080fd5b8101908080359060200190929190803590602001909291905050506104c5565b005b6101716004803603604081101561015157600080fd5b8101908080359060200190929190803590602001909291905050506108ad565b005b61017b610978565b005b610185610ae6565b604051808273ffffffffffffffffffffffffffffffffffffffff1673ffffffffffffffffffffffffffffffffffffffff16815260200191505060405180910390f35b6101f3600480360360208110156101dd57600080fd5b8101908080359060200190929190505050610b0f565b6040518082815260200191505060405180910390f35b6103536004803603604081101561021f57600080fd5b810190808035906020019064010000000081111561023c57600080fd5b82018360208201111561024e57600080fd5b8035906020019184602083028401116401000000008311171561027057600080fd5b919080806020026020016040519081016040528093929190818152602001838360200280828437600081840152601f19601f820116905080830192505050505050509192919290803590602001906401000000008111156102d057600080fd5b8201836020820111156102e257600080fd5b8035906020019184602083028401116401000000008311171561030457600080fd5b919080806020026020016040519081016040528093929190818152602001838360200280828437600081840152601f19601f820116905080830192505050505050509192919290505050610b27565b005b61038b6004803603604081101561036b57600080fd5b81019080803590602001909291908035906020019092919050505061116b565b005b6103b9600480360360208110156103a357600080fd5b8101908080359060200190929190505050611236565b6040518082815260200191505060405180910390f35b6103fb600480360360208110156103e557600080fd5b810190808035906020019092919050505061124e565b6040518082815260200191505060405180910390f35b6104536004803603602081101561042757600080fd5b81019080803573ffffffffffffffffffffffffffffffffffffffff169060200190929190505050611266565b005b61045d611459565b604051808273ffffffffffffffffffffffffffffffffffffffff1673ffffffffffffffffffffffffffffffffffffffff16815260200191505060405180910390f35b600360009054906101000a900473ffffffffffffffffffffffffffffffffffffffff1681565b6002600154141561053e576040517f08c379a000000000000000000000000000000000000000000000000000000000815260040180806020018281038252601f8152602001807f5265656e7472616e637947756172643a207265656e7472616e742063616c6c0081525060200191505060405180910390fd5b60026001819055506000811161055357600080fd5b600082101561056157600080fd5b8061059b6004600085815260200190815260200160002054600660008681526020019081526020016000205461147f90919063ffffffff16565b10156105a657600080fd5b60006005600084815260200190815260200160002054116105c657600080fd5b60006105ee82600560008681526020019081526020016000205461150290919063ffffffff16565b9050600081116105fd57600080fd5b600260009054906101000a900473ffffffffffffffffffffffffffffffffffffffff1673ffffffffffffffffffffffffffffffffffffffff166323b872dd3330846040518463ffffffff1660e01b8152600401808473ffffffffffffffffffffffffffffffffffffffff1673ffffffffffffffffffffffffffffffffffffffff1681526020018373ffffffffffffffffffffffffffffffffffffffff1673ffffffffffffffffffffffffffffffffffffffff1681526020018281526020019350505050602060405180830381600087803b1580156106da57600080fd5b505af11580156106ee573d6000803e3d6000fd5b505050506040513d602081101561070457600080fd5b8101908080519060200190929190505050610787576040517f08c379a00000000000000000000000000000000000000000000000000000000081526004018080602001828103825260158152602001807f546f6b656e205472616e73666572206661696c6564000000000000000000000081525060200191505060405180910390fd5b6107ad82600460008681526020019081526020016000205461158890919063ffffffff16565b6004600085815260200190815260200160002081905550600360009054906101000a900473ffffffffffffffffffffffffffffffffffffffff1673ffffffffffffffffffffffffffffffffffffffff1663731133e93385856040518463ffffffff1660e01b8152600401808473ffffffffffffffffffffffffffffffffffffffff1673ffffffffffffffffffffffffffffffffffffffff16815260200183815260200182815260200180602001828103825260008152602001602001945050505050600060405180830381600087803b15801561088957600080fd5b505af115801561089d573d6000803e3d6000fd5b5050505050600180819055505050565b6108b5611610565b73ffffffffffffffffffffffffffffffffffffffff166108d3610ae6565b73ffffffffffffffffffffffffffffffffffffffff161461095c576040517f08c379a00000000000000000000000000000000000000000000000000000000081526004018080602001828103825260208152602001807f4f776e61626c653a2063616c6c6572206973206e6f7420746865206f776e657281525060200191505060405180910390fd5b8060066000848152602001908152602001600020819055505050565b610980611610565b73ffffffffffffffffffffffffffffffffffffffff1661099e610ae6565b73ffffffffffffffffffffffffffffffffffffffff1614610a27576040517f08c379a00000000000000000000000000000000000000000000000000000000081526004018080602001828103825260208152602001807f4f776e61626c653a2063616c6c6572206973206e6f7420746865206f776e657281525060200191505060405180910390fd5b600073ffffffffffffffffffffffffffffffffffffffff166000809054906101000a900473ffffffffffffffffffffffffffffffffffffffff1673ffffffffffffffffffffffffffffffffffffffff167f8be0079c531659141344cd1fd0a4f28419497f9722a3daafe3b4186f6b6457e060405160405180910390a360008060006101000a81548173ffffffffffffffffffffffffffffffffffffffff021916908373ffffffffffffffffffffffffffffffffffffffff160217905550565b60008060009054906101000a900473ffffffffffffffffffffffffffffffffffffffff16905090565b60066020528060005260406000206000915090505481565b60026001541415610ba0576040517f08c379a000000000000000000000000000000000000000000000000000000000815260040180806020018281038252601f8152602001807f5265656e7472616e637947756172643a207265656e7472616e742063616c6c0081525060200191505060405180910390fd5b60026001819055506000825111610c1f576040517f08c379a00000000000000000000000000000000000000000000000000000000081526004018080602001828103825260178152602001807f53746f72653a20696e76616c696420617267756d656e7400000000000000000081525060200191505060405180910390fd5b6000815111610c96576040517f08c379a00000000000000000000000000000000000000000000000000000000081526004018080602001828103825260178152602001807f53746f72653a20696e76616c696420617267756d656e7400000000000000000081525060200191505060405180910390fd5b8051825114610d0d576040517f08c379a00000000000000000000000000000000000000000000000000000000081526004018080602001828103825260168152602001807f506f6f6c3a20696e76616c696420617267756d656e740000000000000000000081525060200191505060405180910390fd5b600080905060008090505b8351811015610de2576000848281518110610d2f57fe5b602002602001015190506000811015610d4757600080fd5b6000600560008381526020019081526020016000205411610d6757600080fd5b6000848281518110610d7557fe5b602002602001015111610d8757600080fd5b610dd2610dc3858381518110610d9957fe5b6020026020010151600560008581526020019081526020016000205461150290919063ffffffff16565b8461158890919063ffffffff16565b9250508080600101915050610d18565b5060008111610df057600080fd5b600260009054906101000a900473ffffffffffffffffffffffffffffffffffffffff1673ffffffffffffffffffffffffffffffffffffffff166323b872dd3330846040518463ffffffff1660e01b8152600401808473ffffffffffffffffffffffffffffffffffffffff1673ffffffffffffffffffffffffffffffffffffffff1681526020018373ffffffffffffffffffffffffffffffffffffffff1673ffffffffffffffffffffffffffffffffffffffff1681526020018281526020019350505050602060405180830381600087803b158015610ecd57600080fd5b505af1158015610ee1573d6000803e3d6000fd5b505050506040513d6020811015610ef757600080fd5b8101908080519060200190929190505050610f7a576040517f08c379a00000000000000000000000000000000000000000000000000000000081526004018080602001828103825260158152602001807f546f6b656e205472616e73666572206661696c6564000000000000000000000081525060200191505060405180910390fd5b60008090505b8351811015610fff576000848281518110610f9757fe5b60200260200101519050610fda848281518110610fb057fe5b6020026020010151600460008481526020019081526020016000205461158890919063ffffffff16565b6004600083815260200190815260200160002081905550508080600101915050610f80565b50600360009054906101000a900473ffffffffffffffffffffffffffffffffffffffff1673ffffffffffffffffffffffffffffffffffffffff16631f7fdffa3385856040518463ffffffff1660e01b8152600401808473ffffffffffffffffffffffffffffffffffffffff1673ffffffffffffffffffffffffffffffffffffffff168152602001806020018060200180602001848103845286818151815260200191508051906020019060200280838360005b838110156110cd5780820151818401526020810190506110b2565b50505050905001848103835285818151815260200191508051906020019060200280838360005b8381101561110f5780820151818401526020810190506110f4565b505050509050018481038252600081526020016020019650505050505050600060405180830381600087803b15801561114757600080fd5b505af115801561115b573d6000803e3d6000fd5b5050505050600180819055505050565b611173611610565b73ffffffffffffffffffffffffffffffffffffffff16611191610ae6565b73ffffffffffffffffffffffffffffffffffffffff161461121a576040517f08c379a00000000000000000000000000000000000000000000000000000000081526004018080602001828103825260208152602001807f4f776e61626c653a2063616c6c6572206973206e6f7420746865206f776e657281525060200191505060405180910390fd5b8060056000848152602001908152602001600020819055505050565b60046020528060005260406000206000915090505481565b60056020528060005260406000206000915090505481565b61126e611610565b73ffffffffffffffffffffffffffffffffffffffff1661128c610ae6565b73ffffffffffffffffffffffffffffffffffffffff1614611315576040517f08c379a00000000000000000000000000000000000000000000000000000000081526004018080602001828103825260208152602001807f4f776e61626c653a2063616c6c6572206973206e6f7420746865206f776e657281525060200191505060405180910390fd5b600073ffffffffffffffffffffffffffffffffffffffff168173ffffffffffffffffffffffffffffffffffffffff16141561139b576040517f08c379a00000000000000000000000000000000000000000000000000000000081526004018080602001828103825260268152602001806116196026913960400191505060405180910390fd5b8073ffffffffffffffffffffffffffffffffffffffff166000809054906101000a900473ffffffffffffffffffffffffffffffffffffffff1673ffffffffffffffffffffffffffffffffffffffff167f8be0079c531659141344cd1fd0a4f28419497f9722a3daafe3b4186f6b6457e060405160405180910390a3806000806101000a81548173ffffffffffffffffffffffffffffffffffffffff021916908373ffffffffffffffffffffffffffffffffffffffff16021790555050565b600260009054906101000a900473ffffffffffffffffffffffffffffffffffffffff1681565b6000828211156114f7576040517f08c379a000000000000000000000000000000000000000000000000000000000815260040180806020018281038252601e8152602001807f536166654d6174683a207375627472616374696f6e206f766572666c6f77000081525060200191505060405180910390fd5b818303905092915050565b6000808314156115155760009050611582565b600082840290508284828161152657fe5b041461157d576040517f08c379a000000000000000000000000000000000000000000000000000000000815260040180806020018281038252602181526020018061163f6021913960400191505060405180910390fd5b809150505b92915050565b600080828401905083811015611606576040517f08c379a000000000000000000000000000000000000000000000000000000000815260040180806020018281038252601b8152602001807f536166654d6174683a206164646974696f6e206f766572666c6f77000000000081525060200191505060405180910390fd5b8091505092915050565b60003390509056fe4f776e61626c653a206e6577206f776e657220697320746865207a65726f2061646472657373536166654d6174683a206d756c7469706c69636174696f6e206f766572666c6f77a2646970667358221220cccc735e9ff518a82ec152cb8067c86c7b3b46371d6835a805f507d92abf70c764736f6c63430006020033",
  "source": "pragma solidity ^0.6.0;\n\nimport \"@openzeppelin/contracts/token/ERC20/SafeERC20.sol\";\nimport \"@openzeppelin/contracts/utils/ReentrancyGuard.sol\";\nimport \"@openzeppelin/contracts/math/SafeMath.sol\";\nimport \"@openzeppelin/contracts/access/Ownable.sol\";\n\nimport \"./interfaces/IFAMToken.sol\";\nimport \"./interfaces/IFAMAsset.sol\";\n\ncontract Store is Ownable, ReentrancyGuard{\n    using SafeMath for uint256;\n    using SafeERC20 for IERC20;\n\n    IFAMToken public token;\n    IFAMAsset public asset;\n\n    \n    mapping(uint256 => uint256) public minedNft;\n\n    mapping(uint256 => uint256) public priceNft;\n    mapping(uint256 => uint256) public maxAmountAllowedNft;\n\n    constructor(IFAMToken _token, IFAMAsset _asset) public {\n        token = _token;\n        asset = _asset;\n    }\n    function _initializeNft() internal{\n        maxAmountAllowedNft[0] = 50;\n        maxAmountAllowedNft[1] = 70;\n        maxAmountAllowedNft[2] = 130;\n\n        priceNft[0] = 3000;\n        priceNft[1] = 1000;\n        priceNft[2] = 4000;\n    }\n\n    function buyNft(uint256 id, uint256 amount) public nonReentrant {\n        require(amount>0);\n        require(id>=0);\n        require(maxAmountAllowedNft[id].sub(minedNft[id]) >= amount);\n        require(priceNft[id]>0);\n    \n        uint256  amountRequired = priceNft[id].mul(amount);\n        require(amountRequired>0);\n\n        require (token.transferFrom(msg.sender, address(this), amountRequired), \"Token Transfer failed\");\n        \n        minedNft[id] = minedNft[id].add(amount);\n        asset.mint(msg.sender, id, amount,\"\");\n\n    }\n\n    function buyBatchNft(uint256[] memory _ids, uint256[] memory _amounts) public nonReentrant {\n        require(_ids.length > 0, \"Store: invalid argument\");\n        require(_amounts.length > 0, \"Store: invalid argument\");\n        require(_ids.length == _amounts.length, \"Pool: invalid argument\");\n\n        uint256  amountRequired = 0;\n        for (uint256 i = 0; i < _ids.length; i++) {\n            uint256 id = _ids[i];\n            require(id>=0);\n            require(priceNft[id]>0);\n            require(_amounts[id]>0);\n            amountRequired = amountRequired.add(priceNft[id].mul(_amounts[id]));\n        }\n        require(amountRequired>0);\n        require (token.transferFrom(msg.sender, address(this), amountRequired), \"Token Transfer failed\");\n        \n        for (uint256 i = 0; i < _ids.length; i++) {\n            uint256 id = _ids[i];\n            minedNft[id] = minedNft[id].add(_amounts[id]);\n        }\n        asset.mintBatch(msg.sender, _ids, _amounts,\"\");\n\n    }\n\n    function setMaxAmountAllowed(uint256 id, uint256 amount) public onlyOwner {\n        maxAmountAllowedNft[id] = amount;\n    }\n    function setPriceNft(uint256 id, uint256 price) public onlyOwner {\n        priceNft[id] = price;\n    }\n}",
  "sourcePath": "/Users/p489548/SmartContracts/tokenfarm/contracts/Store.sol",
  "compiler": {
    "name": "solc",
    "version": "0.6.2+commit.bacdbe57.Emscripten.clang"
  },
  "schemaVersion": "3.3.4",
  "updatedAt": "2021-03-30T21:45:20.976Z",
  "devdoc": {
    "methods": {
      "owner()": {
        "details": "Returns the address of the current owner."
      },
      "renounceOwnership()": {
        "details": "Leaves the contract without owner. It will not be possible to call `onlyOwner` functions anymore. Can only be called by the current owner.     * NOTE: Renouncing ownership will leave the contract without an owner, thereby removing any functionality that is only available to the owner."
      },
      "transferOwnership(address)": {
        "details": "Transfers ownership of the contract to a new account (`newOwner`). Can only be called by the current owner."
      }
    }
  },
  "userdoc": {
    "methods": {}
  }
}