{
  "contractName": "Store",
  "abi": [
    {
      "inputs": [
        {
          "internalType": "contract IIngotToken",
          "name": "_token",
          "type": "address"
        },
        {
          "internalType": "contract IIngotNFT",
          "name": "_asset",
          "type": "address"
        }
      ],
      "stateMutability": "nonpayable",
      "type": "constructor"
    },
    {
      "anonymous": false,
      "inputs": [
        {
          "indexed": true,
          "internalType": "address",
          "name": "previousOwner",
          "type": "address"
        },
        {
          "indexed": true,
          "internalType": "address",
          "name": "newOwner",
          "type": "address"
        }
      ],
      "name": "OwnershipTransferred",
      "type": "event"
    },
    {
      "inputs": [],
      "name": "SAFE_MULTIPLIER",
      "outputs": [
        {
          "internalType": "uint256",
          "name": "",
          "type": "uint256"
        }
      ],
      "stateMutability": "view",
      "type": "function"
    },
    {
      "inputs": [],
      "name": "asset",
      "outputs": [
        {
          "internalType": "contract IIngotNFT",
          "name": "",
          "type": "address"
        }
      ],
      "stateMutability": "view",
      "type": "function"
    },
    {
      "inputs": [],
      "name": "isStoreOpen",
      "outputs": [
        {
          "internalType": "bool",
          "name": "",
          "type": "bool"
        }
      ],
      "stateMutability": "view",
      "type": "function"
    },
    {
      "inputs": [],
      "name": "owner",
      "outputs": [
        {
          "internalType": "address",
          "name": "",
          "type": "address"
        }
      ],
      "stateMutability": "view",
      "type": "function"
    },
    {
      "inputs": [
        {
          "internalType": "uint256",
          "name": "",
          "type": "uint256"
        }
      ],
      "name": "priceNFT",
      "outputs": [
        {
          "internalType": "uint256",
          "name": "",
          "type": "uint256"
        }
      ],
      "stateMutability": "view",
      "type": "function"
    },
    {
      "inputs": [],
      "name": "renounceOwnership",
      "outputs": [],
      "stateMutability": "nonpayable",
      "type": "function"
    },
    {
      "inputs": [],
      "name": "token",
      "outputs": [
        {
          "internalType": "contract IIngotToken",
          "name": "",
          "type": "address"
        }
      ],
      "stateMutability": "view",
      "type": "function"
    },
    {
      "inputs": [
        {
          "internalType": "address",
          "name": "newOwner",
          "type": "address"
        }
      ],
      "name": "transferOwnership",
      "outputs": [],
      "stateMutability": "nonpayable",
      "type": "function"
    },
    {
      "inputs": [
        {
          "internalType": "uint256[]",
          "name": "_ids",
          "type": "uint256[]"
        },
        {
          "internalType": "uint256[]",
          "name": "_amounts",
          "type": "uint256[]"
        }
      ],
      "name": "buyBatchNft",
      "outputs": [],
      "stateMutability": "nonpayable",
      "type": "function"
    },
    {
      "inputs": [
        {
          "internalType": "uint256",
          "name": "id",
          "type": "uint256"
        },
        {
          "internalType": "uint256",
          "name": "price",
          "type": "uint256"
        }
      ],
      "name": "setPriceNft",
      "outputs": [],
      "stateMutability": "nonpayable",
      "type": "function"
    },
    {
      "inputs": [
        {
          "internalType": "bool",
          "name": "flag",
          "type": "bool"
        }
      ],
      "name": "setIsStoreOpen",
      "outputs": [],
      "stateMutability": "nonpayable",
      "type": "function"
    }
  ],
  "bytecode": "0x60806040526005805460ff191690553480156200001b57600080fd5b506040516200129a3803806200129a8339810160408190526200003e91620004ad565b600080546001600160a01b031916339081178255604051909182917f8be0079c531659141344cd1fd0a4f28419497f9722a3daafe3b4186f6b6457e0908290a35060018055600280546001600160a01b03199081166001600160a01b038581169190911790925560038054909116918316919091179055620000d6670de0b6b3a7640000606462000498602090811b6200069717901c565b60008052600460209081527f17ef568e3e12ab5b9c7254a8d58478811de00f9e6eb34345acd53bf8fd09d3ec919091556200012790670de0b6b3a7640000906082906200069762000498821b17901c565b6001600052600460209081527fabd6e7cb50984ff9c2f3e18a2660c3353dadf4e3291deeb275dae2cd1e44fe05919091556200017990670de0b6b3a76400009060a9906200069762000498821b17901c565b6002600052600460209081527f91da3fd0782e51c6b3986e9e672fd566868e71f3dbc2d6c2cd6fbb3e361af2a791909155620001cb90670de0b6b3a76400009060dc906200069762000498821b17901c565b6003600052600460209081527f2e174c10e159ea99b867ce3205125c24a42d128804e4070ed6fcc8cc98166aa0919091556200021e90670de0b6b3a76400009061011d906200069762000498821b17901c565b6004600081905260209081527f1a1e6821cde7d0159c0d293177871e09677b4e42307c7db3ba94f8648a5a050f919091556200027190670de0b6b3a764000090610173906200069762000498821b17901c565b6005600052600460209081527f04cde762ef08b6b6c5ded8e8c4c0b3f4e5c9ad7342c88fcc93681b4588b73f0591909155620002c490670de0b6b3a7640000906101e3906200069762000498821b17901c565b6006600052600460209081527fc59312466997bb42aaaf719ece141047820e6b34531e1670dc1852a453648f0f919091556200031790670de0b6b3a764000090610273906200069762000498821b17901c565b6007600052600460209081527fbeb3bad75134cb432e5707980e3245c52c5998a1125ee30f2f0dbf3925b1e551919091556200036a90670de0b6b3a764000090610330906200069762000498821b17901c565b6008600052600460209081527f2645749a946633740611cfc8178319f0958659d6922e4bf7e3a08b44789f53a491909155620003bd90670de0b6b3a764000090610424906200069762000498821b17901c565b6009600052600460209081527f4ad5a04d53b5856f318545bb721f67d3f6d0a5a999f25eec7e20eaeb4c47b933919091556200041090670de0b6b3a764000090610562906200069762000498821b17901c565b600a600052600460209081527f5c6b02db8b672415ffad906d7ccee10bd53dbad7d0b29e2bc0e50c93d5f31093919091556200046390670de0b6b3a764000090610700906200069762000498821b17901c565b600b60005260046020527f0c1469ad586d86b6976c45826d7ae56d76ee516e37a2bccffbe904b74dbae7ea5550620005339050565b6000620004a68284620004ec565b9392505050565b60008060408385031215620004c157600080fd5b8251620004ce816200051a565b6020840151909250620004e1816200051a565b809150509250929050565b60008160001904831182151516156200051557634e487b7160e01b600052601160045260246000fd5b500290565b6001600160a01b03811681146200053057600080fd5b50565b610d5780620005436000396000f3fe608060405234801561001057600080fd5b50600436106100a95760003560e01c8063a767d16311610071578063a767d16314610129578063b14b35661461013c578063d6f79b771461016a578063dc7e0ce81461017d578063f2fde38b1461018c578063fc0c546a1461019f57600080fd5b806306d1e7e4146100ae578063209c36b6146100d057806338d52e0f146100e5578063715018a6146101105780638da5cb5b14610118575b600080fd5b6005546100bb9060ff1681565b60405190151581526020015b60405180910390f35b6100e36100de366004610a93565b6101b2565b005b6003546100f8906001600160a01b031681565b6040516001600160a01b0390911681526020016100c7565b6100e36101f8565b6000546001600160a01b03166100f8565b6100e3610137366004610a2f565b61026c565b61015c61014a366004610acd565b60046020526000908152604090205481565b6040519081526020016100c7565b6100e3610178366004610ae6565b610571565b61015c670de0b6b3a764000081565b6100e361019a366004610a06565b6105ad565b6002546100f8906001600160a01b031681565b6000546001600160a01b031633146101e55760405162461bcd60e51b81526004016101dc90610c1b565b60405180910390fd5b6005805460ff1916911515919091179055565b6000546001600160a01b031633146102225760405162461bcd60e51b81526004016101dc90610c1b565b600080546040516001600160a01b03909116907f8be0079c531659141344cd1fd0a4f28419497f9722a3daafe3b4186f6b6457e0908390a3600080546001600160a01b0319169055565b600260015414156102bf5760405162461bcd60e51b815260206004820152601f60248201527f5265656e7472616e637947756172643a207265656e7472616e742063616c6c0060448201526064016101dc565b600260015560055460ff166103085760405162461bcd60e51b815260206004820152600f60248201526e14dd1bdc99481a5cc818db1bdcd959608a1b60448201526064016101dc565b60008251116103295760405162461bcd60e51b81526004016101dc90610be4565b600081511161034a5760405162461bcd60e51b81526004016101dc90610be4565b80518251146103945760405162461bcd60e51b8152602060048201526016602482015275141bdbdb0e881a5b9d985b1a5908185c99dd5b595b9d60521b60448201526064016101dc565b6000805b835181101561046b5760008482815181106103b5576103b5610ce4565b6020026020010151905060008483815181106103d3576103d3610ce4565b6020026020010151905060006004600084815260200190815260200160002054116104105760405162461bcd60e51b81526004016101dc90610be4565b600081116104305760405162461bcd60e51b81526004016101dc90610be4565b6000828152600460205260409020546104549061044d9083610697565b85906106aa565b93505050808061046390610cb3565b915050610398565b506000811161048c5760405162461bcd60e51b81526004016101dc90610be4565b6002546104a4906001600160a01b03163330846106b6565b600254604051636d1b229d60e01b8152600481018390526001600160a01b0390911690636d1b229d90602401600060405180830381600087803b1580156104ea57600080fd5b505af11580156104fe573d6000803e3d6000fd5b5050600354604051630fbfeffd60e11b81526001600160a01b039091169250631f7fdffa915061053690339087908790600401610b5f565b600060405180830381600087803b15801561055057600080fd5b505af1158015610564573d6000803e3d6000fd5b5050600180555050505050565b6000546001600160a01b0316331461059b5760405162461bcd60e51b81526004016101dc90610c1b565b60009182526004602052604090912055565b6000546001600160a01b031633146105d75760405162461bcd60e51b81526004016101dc90610c1b565b6001600160a01b03811661063c5760405162461bcd60e51b815260206004820152602660248201527f4f776e61626c653a206e6577206f776e657220697320746865207a65726f206160448201526564647265737360d01b60648201526084016101dc565b600080546040516001600160a01b03808516939216917f8be0079c531659141344cd1fd0a4f28419497f9722a3daafe3b4186f6b6457e091a3600080546001600160a01b0319166001600160a01b0392909216919091179055565b60006106a38284610c68565b9392505050565b60006106a38284610c50565b604080516001600160a01b0385811660248301528416604482015260648082018490528251808303909101815260849091019091526020810180516001600160e01b03166323b872dd60e01b179052610710908590610716565b50505050565b600061076b826040518060400160405280602081526020017f5361666545524332303a206c6f772d6c6576656c2063616c6c206661696c6564815250856001600160a01b03166107ed9092919063ffffffff16565b8051909150156107e857808060200190518101906107899190610ab0565b6107e85760405162461bcd60e51b815260206004820152602a60248201527f5361666545524332303a204552433230206f7065726174696f6e20646964206e6044820152691bdd081cdd58d8d9595960b21b60648201526084016101dc565b505050565b60606107fc8484600085610804565b949350505050565b6060824710156108655760405162461bcd60e51b815260206004820152602660248201527f416464726573733a20696e73756666696369656e742062616c616e636520666f6044820152651c8818d85b1b60d21b60648201526084016101dc565b843b6108b35760405162461bcd60e51b815260206004820152601d60248201527f416464726573733a2063616c6c20746f206e6f6e2d636f6e747261637400000060448201526064016101dc565b600080866001600160a01b031685876040516108cf9190610b43565b60006040518083038185875af1925050503d806000811461090c576040519150601f19603f3d011682016040523d82523d6000602084013e610911565b606091505b509150915061092182828661092c565b979650505050505050565b6060831561093b5750816106a3565b82511561094b5782518084602001fd5b8160405162461bcd60e51b81526004016101dc9190610bb1565b600082601f83011261097657600080fd5b8135602067ffffffffffffffff8083111561099357610993610cfa565b8260051b604051601f19603f830116810181811084821117156109b8576109b8610cfa565b604052848152838101925086840182880185018910156109d757600080fd5b600092505b858310156109fa5780358452928401926001929092019184016109dc565b50979650505050505050565b600060208284031215610a1857600080fd5b81356001600160a01b03811681146106a357600080fd5b60008060408385031215610a4257600080fd5b823567ffffffffffffffff80821115610a5a57600080fd5b610a6686838701610965565b93506020850135915080821115610a7c57600080fd5b50610a8985828601610965565b9150509250929050565b600060208284031215610aa557600080fd5b81356106a381610d10565b600060208284031215610ac257600080fd5b81516106a381610d10565b600060208284031215610adf57600080fd5b5035919050565b60008060408385031215610af957600080fd5b50508035926020909101359150565b600081518084526020808501945080840160005b83811015610b3857815187529582019590820190600101610b1c565b509495945050505050565b60008251610b55818460208701610c87565b9190910192915050565b6001600160a01b0384168152608060208201819052600090610b8390830185610b08565b8281036040840152610b958185610b08565b8381036060909401939093525050600081526020019392505050565b6020815260008251806020840152610bd0816040850160208701610c87565b601f01601f19169190910160400192915050565b60208082526017908201527f53746f72653a20696e76616c696420617267756d656e74000000000000000000604082015260600190565b6020808252818101527f4f776e61626c653a2063616c6c6572206973206e6f7420746865206f776e6572604082015260600190565b60008219821115610c6357610c63610cce565b500190565b6000816000190483118215151615610c8257610c82610cce565b500290565b60005b83811015610ca2578181015183820152602001610c8a565b838111156107105750506000910152565b6000600019821415610cc757610cc7610cce565b5060010190565b634e487b7160e01b600052601160045260246000fd5b634e487b7160e01b600052603260045260246000fd5b634e487b7160e01b600052604160045260246000fd5b8015158114610d1e57600080fd5b5056fea26469706673582212207e0ea04e730cca22021786aa153a008c865ff6084e99263b917de34de8ac056264736f6c63430008060033",
  "immutableReferences": {},
  "source": "pragma solidity ^0.8.0;\n\nimport \"@openzeppelin/contracts/token/ERC20/utils/SafeERC20.sol\";\nimport \"@openzeppelin/contracts/security/ReentrancyGuard.sol\";\nimport \"@openzeppelin/contracts/utils/math/SafeMath.sol\";\nimport \"@openzeppelin/contracts/access/Ownable.sol\";\n\nimport \"./interfaces/IIngotToken.sol\";\nimport \"./interfaces/IIngotNFT.sol\";\n\ncontract Store is Ownable, ReentrancyGuard{\n    using SafeMath for uint256;\n    using SafeERC20 for IIngotToken;\n\n    IIngotToken public token;\n    IIngotNFT public asset;\n\n    mapping(uint256 => uint256) public priceNFT;\n    bool public isStoreOpen = false;\n    uint256 public constant SAFE_MULTIPLIER = 1e18;\n\n\n    constructor(IIngotToken _token, IIngotNFT _asset) public {\n        token = _token;\n        asset = _asset;\n        \n        priceNFT[0] = SAFE_MULTIPLIER.mul(100);\n        priceNFT[1] = SAFE_MULTIPLIER.mul(130);\n        priceNFT[2] = SAFE_MULTIPLIER.mul(169);\n        priceNFT[3] = SAFE_MULTIPLIER.mul(220);\n        priceNFT[4] = SAFE_MULTIPLIER.mul(285);\n        priceNFT[5] = SAFE_MULTIPLIER.mul(371);\n        priceNFT[6] = SAFE_MULTIPLIER.mul(483);\n        priceNFT[7] = SAFE_MULTIPLIER.mul(627);\n        priceNFT[8] = SAFE_MULTIPLIER.mul(816);\n        priceNFT[9] = SAFE_MULTIPLIER.mul(1060);\n        priceNFT[10] = SAFE_MULTIPLIER.mul(1378);\n        priceNFT[11] = SAFE_MULTIPLIER.mul(1792);\n    }\n\n    /* ========== PUBLIC ========== */\n\n    function buyBatchNft(uint256[] memory _ids, uint256[] memory _amounts) public nonReentrant {\n        require(isStoreOpen, \"Store is closed\");\n        require(_ids.length > 0, \"Store: invalid argument\");\n        require(_amounts.length > 0, \"Store: invalid argument\");\n        require(_ids.length == _amounts.length, \"Pool: invalid argument\");\n\n        uint256  amountRequired = 0;\n        for (uint256 i = 0; i < _ids.length; i++) {\n            uint256 id = _ids[i];\n            uint256 amount = _amounts[i];\n            require(priceNFT[id]>0, \"Store: invalid argument\");\n            require(amount>0, \"Store: invalid argument\");\n            //require(maxAmountAllowedNft[id].sub(minedNft[id]) >= amount, \"Store: invalid argument\");\n            amountRequired = amountRequired.add(priceNFT[id].mul(amount));\n        }\n        require(amountRequired>0, \"Store: invalid argument\");\n\n        token.safeTransferFrom(msg.sender, address(this), amountRequired);\n        token.burnTokens(amountRequired);\n        asset.mintBatch(msg.sender, _ids, _amounts,\"\");\n    }\n    /* ========== OWNER ONLY FUNCTIONS ========== */\n\n    function setPriceNft(uint256 id, uint256 price) public onlyOwner {\n        priceNFT[id] = price;\n    }\n\n    function setIsStoreOpen(bool flag) public onlyOwner {\n        isStoreOpen = flag;\n    }\n}",
  "sourcePath": "/Users/p489548/SmartContracts/Ingot Farming Project/ingot-contracts/contracts/Store.sol",
  "compiler": {
    "name": "solc",
    "version": "0.8.6+commit.11564f7e.Emscripten.clang"
  },
  "schemaVersion": "3.3.4",
  "updatedAt": "2021-07-04T12:20:46.644Z",
  "devdoc": {
    "kind": "dev",
    "methods": {
      "owner()": {
        "details": "Returns the address of the current owner."
      },
      "renounceOwnership()": {
        "details": "Leaves the contract without owner. It will not be possible to call `onlyOwner` functions anymore. Can only be called by the current owner. NOTE: Renouncing ownership will leave the contract without an owner, thereby removing any functionality that is only available to the owner."
      },
      "transferOwnership(address)": {
        "details": "Transfers ownership of the contract to a new account (`newOwner`). Can only be called by the current owner."
      }
    },
    "version": 1
  },
  "userdoc": {
    "kind": "user",
    "methods": {},
    "version": 1
  }
}