{
  "contractName": "Store",
  "abi": [
    {
      "inputs": [
        {
          "internalType": "contract IFAMToken",
          "name": "_token",
          "type": "address"
        },
        {
          "internalType": "contract IFAMAsset",
          "name": "_asset",
          "type": "address"
        }
      ],
      "stateMutability": "nonpayable",
      "type": "constructor"
    },
    {
      "anonymous": false,
      "inputs": [
        {
          "indexed": true,
          "internalType": "address",
          "name": "previousOwner",
          "type": "address"
        },
        {
          "indexed": true,
          "internalType": "address",
          "name": "newOwner",
          "type": "address"
        }
      ],
      "name": "OwnershipTransferred",
      "type": "event"
    },
    {
      "inputs": [],
      "name": "asset",
      "outputs": [
        {
          "internalType": "contract IFAMAsset",
          "name": "",
          "type": "address"
        }
      ],
      "stateMutability": "view",
      "type": "function",
      "constant": true
    },
    {
      "inputs": [],
      "name": "factorWeiToken",
      "outputs": [
        {
          "internalType": "uint256",
          "name": "",
          "type": "uint256"
        }
      ],
      "stateMutability": "view",
      "type": "function",
      "constant": true
    },
    {
      "inputs": [
        {
          "internalType": "uint256",
          "name": "",
          "type": "uint256"
        }
      ],
      "name": "maxAmountAllowedNft",
      "outputs": [
        {
          "internalType": "uint256",
          "name": "",
          "type": "uint256"
        }
      ],
      "stateMutability": "view",
      "type": "function",
      "constant": true
    },
    {
      "inputs": [
        {
          "internalType": "uint256",
          "name": "",
          "type": "uint256"
        }
      ],
      "name": "minedNft",
      "outputs": [
        {
          "internalType": "uint256",
          "name": "",
          "type": "uint256"
        }
      ],
      "stateMutability": "view",
      "type": "function",
      "constant": true
    },
    {
      "inputs": [],
      "name": "owner",
      "outputs": [
        {
          "internalType": "address",
          "name": "",
          "type": "address"
        }
      ],
      "stateMutability": "view",
      "type": "function",
      "constant": true
    },
    {
      "inputs": [
        {
          "internalType": "uint256",
          "name": "",
          "type": "uint256"
        }
      ],
      "name": "priceNft",
      "outputs": [
        {
          "internalType": "uint256",
          "name": "",
          "type": "uint256"
        }
      ],
      "stateMutability": "view",
      "type": "function",
      "constant": true
    },
    {
      "inputs": [],
      "name": "renounceOwnership",
      "outputs": [],
      "stateMutability": "nonpayable",
      "type": "function"
    },
    {
      "inputs": [],
      "name": "token",
      "outputs": [
        {
          "internalType": "contract IFAMToken",
          "name": "",
          "type": "address"
        }
      ],
      "stateMutability": "view",
      "type": "function",
      "constant": true
    },
    {
      "inputs": [
        {
          "internalType": "address",
          "name": "newOwner",
          "type": "address"
        }
      ],
      "name": "transferOwnership",
      "outputs": [],
      "stateMutability": "nonpayable",
      "type": "function"
    },
    {
      "inputs": [
        {
          "internalType": "uint256[]",
          "name": "_ids",
          "type": "uint256[]"
        },
        {
          "internalType": "uint256[]",
          "name": "_amounts",
          "type": "uint256[]"
        }
      ],
      "name": "buyBatchNft",
      "outputs": [],
      "stateMutability": "nonpayable",
      "type": "function"
    },
    {
      "inputs": [],
      "name": "buyTokens",
      "outputs": [],
      "stateMutability": "payable",
      "type": "function",
      "payable": true
    },
    {
      "inputs": [],
      "name": "extractEther",
      "outputs": [],
      "stateMutability": "nonpayable",
      "type": "function"
    },
    {
      "inputs": [
        {
          "internalType": "uint256",
          "name": "id",
          "type": "uint256"
        },
        {
          "internalType": "uint256",
          "name": "amount",
          "type": "uint256"
        }
      ],
      "name": "setMaxAmountAllowed",
      "outputs": [],
      "stateMutability": "nonpayable",
      "type": "function"
    },
    {
      "inputs": [
        {
          "internalType": "uint256",
          "name": "id",
          "type": "uint256"
        },
        {
          "internalType": "uint256",
          "name": "price",
          "type": "uint256"
        }
      ],
      "name": "setPriceNft",
      "outputs": [],
      "stateMutability": "nonpayable",
      "type": "function"
    }
  ],
  "bytecode": "0x608060405261271060075534801561001657600080fd5b50604051611ec1380380611ec18339818101604052604081101561003957600080fd5b81019080805190602001909291908051906020019092919050505060006100646101a060201b60201c565b9050806000806101000a81548173ffffffffffffffffffffffffffffffffffffffff021916908373ffffffffffffffffffffffffffffffffffffffff1602179055508073ffffffffffffffffffffffffffffffffffffffff16600073ffffffffffffffffffffffffffffffffffffffff167f8be0079c531659141344cd1fd0a4f28419497f9722a3daafe3b4186f6b6457e060405160405180910390a3506001808190555081600260006101000a81548173ffffffffffffffffffffffffffffffffffffffff021916908373ffffffffffffffffffffffffffffffffffffffff16021790555080600360006101000a81548173ffffffffffffffffffffffffffffffffffffffff021916908373ffffffffffffffffffffffffffffffffffffffff1602179055506101996101a860201b60201c565b5050610247565b600033905090565b6032600660008081526020019081526020016000208190555060466006600060018152602001908152602001600020819055506082600660006002815260200190815260200160002081905550610bb860056000808152602001908152602001600020819055506103e8600560006001815260200190815260200160002081905550610fa0600560006002815260200190815260200160002081905550565b611c6b806102566000396000f3fe6080604052600436106100dd5760003560e01c8063bcffc3c91161007f578063ebaa40a111610059578063ebaa40a114610425578063f2b7dc9d14610474578063f2fde38b146104c3578063fc0c546a14610514576100dd565b8063bcffc3c9146103ab578063d0febe4c146103d6578063d6f79b77146103e0576100dd565b80638da5cb5b116100bb5780638da5cb5b146101955780639fee597b146101ec578063a606b33614610203578063a767d16314610252576100dd565b806338d52e0f146100e257806363466c1b14610139578063715018a61461017e575b600080fd5b3480156100ee57600080fd5b506100f761056b565b604051808273ffffffffffffffffffffffffffffffffffffffff1673ffffffffffffffffffffffffffffffffffffffff16815260200191505060405180910390f35b34801561014557600080fd5b5061017c6004803603604081101561015c57600080fd5b810190808035906020019092919080359060200190929190505050610591565b005b34801561018a57600080fd5b5061019361065c565b005b3480156101a157600080fd5b506101aa6107ca565b604051808273ffffffffffffffffffffffffffffffffffffffff1673ffffffffffffffffffffffffffffffffffffffff16815260200191505060405180910390f35b3480156101f857600080fd5b506102016107f3565b005b34801561020f57600080fd5b5061023c6004803603602081101561022657600080fd5b81019080803590602001909291905050506108f2565b6040518082815260200191505060405180910390f35b34801561025e57600080fd5b506103a96004803603604081101561027557600080fd5b810190808035906020019064010000000081111561029257600080fd5b8201836020820111156102a457600080fd5b803590602001918460208302840111640100000000831117156102c657600080fd5b919080806020026020016040519081016040528093929190818152602001838360200280828437600081840152601f19601f8201169050808301925050505050505091929192908035906020019064010000000081111561032657600080fd5b82018360208201111561033857600080fd5b8035906020019184602083028401116401000000008311171561035a57600080fd5b919080806020026020016040519081016040528093929190818152602001838360200280828437600081840152601f19601f82011690508083019250505050505050919291929050505061090a565b005b3480156103b757600080fd5b506103c061108e565b6040518082815260200191505060405180910390f35b6103de611094565b005b3480156103ec57600080fd5b506104236004803603604081101561040357600080fd5b810190808035906020019092919080359060200190929190505050611275565b005b34801561043157600080fd5b5061045e6004803603602081101561044857600080fd5b8101908080359060200190929190505050611340565b6040518082815260200191505060405180910390f35b34801561048057600080fd5b506104ad6004803603602081101561049757600080fd5b8101908080359060200190929190505050611358565b6040518082815260200191505060405180910390f35b3480156104cf57600080fd5b50610512600480360360208110156104e657600080fd5b81019080803573ffffffffffffffffffffffffffffffffffffffff169060200190929190505050611370565b005b34801561052057600080fd5b50610529611563565b604051808273ffffffffffffffffffffffffffffffffffffffff1673ffffffffffffffffffffffffffffffffffffffff16815260200191505060405180910390f35b600360009054906101000a900473ffffffffffffffffffffffffffffffffffffffff1681565b610599611589565b73ffffffffffffffffffffffffffffffffffffffff166105b76107ca565b73ffffffffffffffffffffffffffffffffffffffff1614610640576040517f08c379a00000000000000000000000000000000000000000000000000000000081526004018080602001828103825260208152602001807f4f776e61626c653a2063616c6c6572206973206e6f7420746865206f776e657281525060200191505060405180910390fd5b8060066000848152602001908152602001600020819055505050565b610664611589565b73ffffffffffffffffffffffffffffffffffffffff166106826107ca565b73ffffffffffffffffffffffffffffffffffffffff161461070b576040517f08c379a00000000000000000000000000000000000000000000000000000000081526004018080602001828103825260208152602001807f4f776e61626c653a2063616c6c6572206973206e6f7420746865206f776e657281525060200191505060405180910390fd5b600073ffffffffffffffffffffffffffffffffffffffff166000809054906101000a900473ffffffffffffffffffffffffffffffffffffffff1673ffffffffffffffffffffffffffffffffffffffff167f8be0079c531659141344cd1fd0a4f28419497f9722a3daafe3b4186f6b6457e060405160405180910390a360008060006101000a81548173ffffffffffffffffffffffffffffffffffffffff021916908373ffffffffffffffffffffffffffffffffffffffff160217905550565b60008060009054906101000a900473ffffffffffffffffffffffffffffffffffffffff16905090565b6107fb611589565b73ffffffffffffffffffffffffffffffffffffffff166108196107ca565b73ffffffffffffffffffffffffffffffffffffffff16146108a2576040517f08c379a00000000000000000000000000000000000000000000000000000000081526004018080602001828103825260208152602001807f4f776e61626c653a2063616c6c6572206973206e6f7420746865206f776e657281525060200191505060405180910390fd5b6108aa6107ca565b73ffffffffffffffffffffffffffffffffffffffff166108fc479081150290604051600060405180830381858888f193505050501580156108ef573d6000803e3d6000fd5b50565b60066020528060005260406000206000915090505481565b60026001541415610983576040517f08c379a000000000000000000000000000000000000000000000000000000000815260040180806020018281038252601f8152602001807f5265656e7472616e637947756172643a207265656e7472616e742063616c6c0081525060200191505060405180910390fd5b60026001819055506000825111610a02576040517f08c379a00000000000000000000000000000000000000000000000000000000081526004018080602001828103825260178152602001807f53746f72653a20696e76616c696420617267756d656e7400000000000000000081525060200191505060405180910390fd5b6000815111610a79576040517f08c379a00000000000000000000000000000000000000000000000000000000081526004018080602001828103825260178152602001807f53746f72653a20696e76616c696420617267756d656e7400000000000000000081525060200191505060405180910390fd5b8051825114610af0576040517f08c379a00000000000000000000000000000000000000000000000000000000081526004018080602001828103825260168152602001807f506f6f6c3a20696e76616c696420617267756d656e740000000000000000000081525060200191505060405180910390fd5b600080905060008090505b8351811015610d4a576000848281518110610b1257fe5b602002602001015190506000600560008381526020019081526020016000205411610ba5576040517f08c379a00000000000000000000000000000000000000000000000000000000081526004018080602001828103825260178152602001807f53746f72653a20696e76616c696420617267756d656e7400000000000000000081525060200191505060405180910390fd5b6000848281518110610bb357fe5b602002602001015111610c2e576040517f08c379a00000000000000000000000000000000000000000000000000000000081526004018080602001828103825260178152602001807f53746f72653a20696e76616c696420617267756d656e7400000000000000000081525060200191505060405180910390fd5b838181518110610c3a57fe5b6020026020010151610c7b6004600084815260200190815260200160002054600660008581526020019081526020016000205461159190919063ffffffff16565b1015610cef576040517f08c379a00000000000000000000000000000000000000000000000000000000081526004018080602001828103825260178152602001807f53746f72653a20696e76616c696420617267756d656e7400000000000000000081525060200191505060405180910390fd5b610d3a610d2b858381518110610d0157fe5b6020026020010151600560008581526020019081526020016000205461161490919063ffffffff16565b8461169a90919063ffffffff16565b9250508080600101915050610afb565b5060008111610dc1576040517f08c379a00000000000000000000000000000000000000000000000000000000081526004018080602001828103825260178152602001807f53746f72653a20696e76616c696420617267756d656e7400000000000000000081525060200191505060405180910390fd5b610e10333083600260009054906101000a900473ffffffffffffffffffffffffffffffffffffffff1673ffffffffffffffffffffffffffffffffffffffff16611722909392919063ffffffff16565b600260009054906101000a900473ffffffffffffffffffffffffffffffffffffffff1673ffffffffffffffffffffffffffffffffffffffff1663bb7d129b826040518263ffffffff1660e01b815260040180828152602001915050600060405180830381600087803b158015610e8557600080fd5b505af1158015610e99573d6000803e3d6000fd5b5050505060008090505b8351811015610f22576000848281518110610eba57fe5b60200260200101519050610efd848281518110610ed357fe5b6020026020010151600460008481526020019081526020016000205461169a90919063ffffffff16565b6004600083815260200190815260200160002081905550508080600101915050610ea3565b50600360009054906101000a900473ffffffffffffffffffffffffffffffffffffffff1673ffffffffffffffffffffffffffffffffffffffff16631f7fdffa3385856040518463ffffffff1660e01b8152600401808473ffffffffffffffffffffffffffffffffffffffff1673ffffffffffffffffffffffffffffffffffffffff168152602001806020018060200180602001848103845286818151815260200191508051906020019060200280838360005b83811015610ff0578082015181840152602081019050610fd5565b50505050905001848103835285818151815260200191508051906020019060200280838360005b83811015611032578082015181840152602081019050611017565b505050509050018481038252600081526020016020019650505050505050600060405180830381600087803b15801561106a57600080fd5b505af115801561107e573d6000803e3d6000fd5b5050505050600180819055505050565b60075481565b6002600154141561110d576040517f08c379a000000000000000000000000000000000000000000000000000000000815260040180806020018281038252601f8152602001807f5265656e7472616e637947756172643a207265656e7472616e742063616c6c0081525060200191505060405180910390fd5b6002600181905550600034905060008111611190576040517f08c379a00000000000000000000000000000000000000000000000000000000081526004018080602001828103825260178152602001807f53746f72653a20696e76616c696420617267756d656e7400000000000000000081525060200191505060405180910390fd5b60006111a76007548361161490919063ffffffff16565b9050600260009054906101000a900473ffffffffffffffffffffffffffffffffffffffff1673ffffffffffffffffffffffffffffffffffffffff166340c10f1933836040518363ffffffff1660e01b8152600401808373ffffffffffffffffffffffffffffffffffffffff1673ffffffffffffffffffffffffffffffffffffffff16815260200182815260200192505050600060405180830381600087803b15801561125257600080fd5b505af1158015611266573d6000803e3d6000fd5b50505050505060018081905550565b61127d611589565b73ffffffffffffffffffffffffffffffffffffffff1661129b6107ca565b73ffffffffffffffffffffffffffffffffffffffff1614611324576040517f08c379a00000000000000000000000000000000000000000000000000000000081526004018080602001828103825260208152602001807f4f776e61626c653a2063616c6c6572206973206e6f7420746865206f776e657281525060200191505060405180910390fd5b8060056000848152602001908152602001600020819055505050565b60046020528060005260406000206000915090505481565b60056020528060005260406000206000915090505481565b611378611589565b73ffffffffffffffffffffffffffffffffffffffff166113966107ca565b73ffffffffffffffffffffffffffffffffffffffff161461141f576040517f08c379a00000000000000000000000000000000000000000000000000000000081526004018080602001828103825260208152602001807f4f776e61626c653a2063616c6c6572206973206e6f7420746865206f776e657281525060200191505060405180910390fd5b600073ffffffffffffffffffffffffffffffffffffffff168173ffffffffffffffffffffffffffffffffffffffff1614156114a5576040517f08c379a0000000000000000000000000000000000000000000000000000000008152600401808060200182810382526026815260200180611b9f6026913960400191505060405180910390fd5b8073ffffffffffffffffffffffffffffffffffffffff166000809054906101000a900473ffffffffffffffffffffffffffffffffffffffff1673ffffffffffffffffffffffffffffffffffffffff167f8be0079c531659141344cd1fd0a4f28419497f9722a3daafe3b4186f6b6457e060405160405180910390a3806000806101000a81548173ffffffffffffffffffffffffffffffffffffffff021916908373ffffffffffffffffffffffffffffffffffffffff16021790555050565b600260009054906101000a900473ffffffffffffffffffffffffffffffffffffffff1681565b600033905090565b600082821115611609576040517f08c379a000000000000000000000000000000000000000000000000000000000815260040180806020018281038252601e8152602001807f536166654d6174683a207375627472616374696f6e206f766572666c6f77000081525060200191505060405180910390fd5b818303905092915050565b6000808314156116275760009050611694565b600082840290508284828161163857fe5b041461168f576040517f08c379a0000000000000000000000000000000000000000000000000000000008152600401808060200182810382526021815260200180611beb6021913960400191505060405180910390fd5b809150505b92915050565b600080828401905083811015611718576040517f08c379a000000000000000000000000000000000000000000000000000000000815260040180806020018281038252601b8152602001807f536166654d6174683a206164646974696f6e206f766572666c6f77000000000081525060200191505060405180910390fd5b8091505092915050565b611809846323b872dd60e01b858585604051602401808473ffffffffffffffffffffffffffffffffffffffff1673ffffffffffffffffffffffffffffffffffffffff1681526020018373ffffffffffffffffffffffffffffffffffffffff1673ffffffffffffffffffffffffffffffffffffffff1681526020018281526020019350505050604051602081830303815290604052907bffffffffffffffffffffffffffffffffffffffffffffffffffffffff19166020820180517bffffffffffffffffffffffffffffffffffffffffffffffffffffffff838183161783525050505061180f565b50505050565b6060611871826040518060400160405280602081526020017f5361666545524332303a206c6f772d6c6576656c2063616c6c206661696c65648152508573ffffffffffffffffffffffffffffffffffffffff166118fe9092919063ffffffff16565b90506000815111156118f95780806020019051602081101561189257600080fd5b81019080805190602001909291905050506118f8576040517f08c379a000000000000000000000000000000000000000000000000000000000815260040180806020018281038252602a815260200180611c0c602a913960400191505060405180910390fd5b5b505050565b606061190d8484600085611916565b90509392505050565b606082471015611971576040517f08c379a0000000000000000000000000000000000000000000000000000000008152600401808060200182810382526026815260200180611bc56026913960400191505060405180910390fd5b61197a85611abf565b6119ec576040517f08c379a000000000000000000000000000000000000000000000000000000000815260040180806020018281038252601d8152602001807f416464726573733a2063616c6c20746f206e6f6e2d636f6e747261637400000081525060200191505060405180910390fd5b600060608673ffffffffffffffffffffffffffffffffffffffff1685876040518082805190602001908083835b60208310611a3c5780518252602082019150602081019050602083039250611a19565b6001836020036101000a03801982511681845116808217855250505050505090500191505060006040518083038185875af1925050503d8060008114611a9e576040519150601f19603f3d011682016040523d82523d6000602084013e611aa3565b606091505b5091509150611ab3828286611ad2565b92505050949350505050565b600080823b905060008111915050919050565b60608315611ae257829050611b97565b600083511115611af55782518084602001fd5b816040517f08c379a00000000000000000000000000000000000000000000000000000000081526004018080602001828103825283818151815260200191508051906020019080838360005b83811015611b5c578082015181840152602081019050611b41565b50505050905090810190601f168015611b895780820380516001836020036101000a031916815260200191505b509250505060405180910390fd5b939250505056fe4f776e61626c653a206e6577206f776e657220697320746865207a65726f2061646472657373416464726573733a20696e73756666696369656e742062616c616e636520666f722063616c6c536166654d6174683a206d756c7469706c69636174696f6e206f766572666c6f775361666545524332303a204552433230206f7065726174696f6e20646964206e6f742073756363656564a26469706673582212201c3b1bc652a1b462b801d3e5e360ffd705979a9e23d57e327b99afc9a59069b064736f6c63430006020033",
  "source": "pragma solidity ^0.6.0;\n\nimport \"@openzeppelin/contracts/token/ERC20/SafeERC20.sol\";\nimport \"@openzeppelin/contracts/utils/ReentrancyGuard.sol\";\nimport \"@openzeppelin/contracts/math/SafeMath.sol\";\nimport \"@openzeppelin/contracts/access/Ownable.sol\";\n\nimport \"./interfaces/IFAMToken.sol\";\nimport \"./interfaces/IFAMAsset.sol\";\n\ncontract Store is Ownable, ReentrancyGuard{\n    using SafeMath for uint256;\n    using SafeERC20 for IFAMToken;\n\n    IFAMToken public token;\n    IFAMAsset public asset;\n    \n    mapping(uint256 => uint256) public minedNft;\n\n    mapping(uint256 => uint256) public priceNft;\n    mapping(uint256 => uint256) public maxAmountAllowedNft;\n\n    uint256 public factorWeiToken = 10000;\n\n    constructor(IFAMToken _token, IFAMAsset _asset) public {\n        token = _token;\n        asset = _asset;\n        _initializeNft();\n    }\n    function _initializeNft() internal{\n        maxAmountAllowedNft[0] = 50;\n        maxAmountAllowedNft[1] = 70;\n        maxAmountAllowedNft[2] = 130;\n\n        priceNft[0] = 3000;\n        priceNft[1] = 1000;\n        priceNft[2] = 4000;\n    }\n    //to test\n    function buyBatchNft(uint256[] memory _ids, uint256[] memory _amounts) public nonReentrant {\n        require(_ids.length > 0, \"Store: invalid argument\");\n        require(_amounts.length > 0, \"Store: invalid argument\");\n        require(_ids.length == _amounts.length, \"Pool: invalid argument\");\n\n        uint256  amountRequired = 0;\n        for (uint256 i = 0; i < _ids.length; i++) {\n            uint256 id = _ids[i];\n            require(priceNft[id]>0, \"Store: invalid argument\");\n            require(_amounts[id]>0, \"Store: invalid argument\");\n            require(maxAmountAllowedNft[id].sub(minedNft[id]) >= _amounts[id], \"Store: invalid argument\");\n            amountRequired = amountRequired.add(priceNft[id].mul(_amounts[id]));\n        }\n        require(amountRequired>0, \"Store: invalid argument\");\n        token.safeTransferFrom(msg.sender, address(this), amountRequired);\n        token.burnOwnToken(amountRequired);\n        \n        for (uint256 i = 0; i < _ids.length; i++) {\n            uint256 id = _ids[i];\n            minedNft[id] = minedNft[id].add(_amounts[id]);\n        }\n        asset.mintBatch(msg.sender, _ids, _amounts,\"\");\n\n    }\n\n    function buyTokens() public nonReentrant payable {\n        uint256 weiAmount = msg.value;\n        require(weiAmount>0, \"Store: invalid argument\");\n        uint256 tokenAmount = weiAmount.mul(factorWeiToken);\n        \n        // payable(owner()).transfer(weiAmount);\n        token.mint(msg.sender, tokenAmount);   \n    }\n\n    function extractEther() public onlyOwner {\n       payable(owner()).transfer(address(this).balance);\n   }\n\n    function setMaxAmountAllowed(uint256 id, uint256 amount) public onlyOwner {\n        maxAmountAllowedNft[id] = amount;\n    }\n    function setPriceNft(uint256 id, uint256 price) public onlyOwner {\n        priceNft[id] = price;\n    }\n}",
  "sourcePath": "/Users/p489548/SmartContracts/tokenfarm/contracts/Store.sol",
  "compiler": {
    "name": "solc",
    "version": "0.6.2+commit.bacdbe57.Emscripten.clang"
  },
  "schemaVersion": "3.3.4",
  "updatedAt": "2021-04-02T22:11:59.144Z",
  "networkType": "ethereum",
  "devdoc": {
    "methods": {
      "owner()": {
        "details": "Returns the address of the current owner."
      },
      "renounceOwnership()": {
        "details": "Leaves the contract without owner. It will not be possible to call `onlyOwner` functions anymore. Can only be called by the current owner.     * NOTE: Renouncing ownership will leave the contract without an owner, thereby removing any functionality that is only available to the owner."
      },
      "transferOwnership(address)": {
        "details": "Transfers ownership of the contract to a new account (`newOwner`). Can only be called by the current owner."
      }
    }
  },
  "userdoc": {
    "methods": {}
  }
}