{
  "contractName": "Store",
  "abi": [
    {
      "inputs": [
        {
          "internalType": "contract IFAMToken",
          "name": "_token",
          "type": "address"
        },
        {
          "internalType": "contract IFAMAsset",
          "name": "_asset",
          "type": "address"
        }
      ],
      "stateMutability": "nonpayable",
      "type": "constructor"
    },
    {
      "anonymous": false,
      "inputs": [
        {
          "indexed": true,
          "internalType": "address",
          "name": "previousOwner",
          "type": "address"
        },
        {
          "indexed": true,
          "internalType": "address",
          "name": "newOwner",
          "type": "address"
        }
      ],
      "name": "OwnershipTransferred",
      "type": "event"
    },
    {
      "inputs": [],
      "name": "ETH_CAP",
      "outputs": [
        {
          "internalType": "uint256",
          "name": "",
          "type": "uint256"
        }
      ],
      "stateMutability": "view",
      "type": "function",
      "constant": true
    },
    {
      "inputs": [],
      "name": "RATIO_WEI_TOKEN",
      "outputs": [
        {
          "internalType": "uint256",
          "name": "",
          "type": "uint256"
        }
      ],
      "stateMutability": "view",
      "type": "function",
      "constant": true
    },
    {
      "inputs": [],
      "name": "SAFE_MULTIPLIER",
      "outputs": [
        {
          "internalType": "uint256",
          "name": "",
          "type": "uint256"
        }
      ],
      "stateMutability": "view",
      "type": "function",
      "constant": true
    },
    {
      "inputs": [],
      "name": "asset",
      "outputs": [
        {
          "internalType": "contract IFAMAsset",
          "name": "",
          "type": "address"
        }
      ],
      "stateMutability": "view",
      "type": "function",
      "constant": true
    },
    {
      "inputs": [],
      "name": "isPresale",
      "outputs": [
        {
          "internalType": "bool",
          "name": "",
          "type": "bool"
        }
      ],
      "stateMutability": "view",
      "type": "function",
      "constant": true
    },
    {
      "inputs": [],
      "name": "owner",
      "outputs": [
        {
          "internalType": "address",
          "name": "",
          "type": "address"
        }
      ],
      "stateMutability": "view",
      "type": "function",
      "constant": true
    },
    {
      "inputs": [
        {
          "internalType": "uint256",
          "name": "",
          "type": "uint256"
        }
      ],
      "name": "priceNft",
      "outputs": [
        {
          "internalType": "uint256",
          "name": "",
          "type": "uint256"
        }
      ],
      "stateMutability": "view",
      "type": "function",
      "constant": true
    },
    {
      "inputs": [],
      "name": "renounceOwnership",
      "outputs": [],
      "stateMutability": "nonpayable",
      "type": "function"
    },
    {
      "inputs": [],
      "name": "token",
      "outputs": [
        {
          "internalType": "contract IFAMToken",
          "name": "",
          "type": "address"
        }
      ],
      "stateMutability": "view",
      "type": "function",
      "constant": true
    },
    {
      "inputs": [
        {
          "internalType": "address",
          "name": "newOwner",
          "type": "address"
        }
      ],
      "name": "transferOwnership",
      "outputs": [],
      "stateMutability": "nonpayable",
      "type": "function"
    },
    {
      "inputs": [],
      "name": "weiRaised",
      "outputs": [
        {
          "internalType": "uint256",
          "name": "",
          "type": "uint256"
        }
      ],
      "stateMutability": "view",
      "type": "function",
      "constant": true
    },
    {
      "inputs": [
        {
          "internalType": "uint256[]",
          "name": "_ids",
          "type": "uint256[]"
        },
        {
          "internalType": "uint256[]",
          "name": "_amounts",
          "type": "uint256[]"
        }
      ],
      "name": "buyBatchNft",
      "outputs": [],
      "stateMutability": "nonpayable",
      "type": "function"
    },
    {
      "inputs": [],
      "name": "buyTokens",
      "outputs": [],
      "stateMutability": "payable",
      "type": "function",
      "payable": true
    },
    {
      "inputs": [],
      "name": "extractEther",
      "outputs": [],
      "stateMutability": "nonpayable",
      "type": "function"
    },
    {
      "inputs": [
        {
          "internalType": "uint256",
          "name": "id",
          "type": "uint256"
        },
        {
          "internalType": "uint256",
          "name": "price",
          "type": "uint256"
        }
      ],
      "name": "setPriceNft",
      "outputs": [],
      "stateMutability": "nonpayable",
      "type": "function"
    },
    {
      "inputs": [
        {
          "internalType": "uint256",
          "name": "cap",
          "type": "uint256"
        }
      ],
      "name": "setETHCap",
      "outputs": [],
      "stateMutability": "nonpayable",
      "type": "function"
    },
    {
      "inputs": [
        {
          "internalType": "uint256",
          "name": "ratio",
          "type": "uint256"
        }
      ],
      "name": "setRatioWeiToken",
      "outputs": [],
      "stateMutability": "nonpayable",
      "type": "function"
    },
    {
      "inputs": [
        {
          "internalType": "bool",
          "name": "flag",
          "type": "bool"
        }
      ],
      "name": "setIsPresale",
      "outputs": [],
      "stateMutability": "nonpayable",
      "type": "function"
    }
  ],
  "bytecode": "0x60806040526000600555683635c9adc5dea000006006556127106007556001600860006101000a81548160ff0219169083151502179055503480156200004457600080fd5b50604051620025993803806200259983398181016040528101906200006a9190620002bb565b60006200007c620001bb60201b60201c565b9050806000806101000a81548173ffffffffffffffffffffffffffffffffffffffff021916908373ffffffffffffffffffffffffffffffffffffffff1602179055508073ffffffffffffffffffffffffffffffffffffffff16600073ffffffffffffffffffffffffffffffffffffffff167f8be0079c531659141344cd1fd0a4f28419497f9722a3daafe3b4186f6b6457e060405160405180910390a3506001808190555081600260006101000a81548173ffffffffffffffffffffffffffffffffffffffff021916908373ffffffffffffffffffffffffffffffffffffffff16021790555080600360006101000a81548173ffffffffffffffffffffffffffffffffffffffff021916908373ffffffffffffffffffffffffffffffffffffffff160217905550620001b3620001c360201b60201c565b505062000426565b600033905090565b620001e66003670de0b6b3a76400006200027560201b620010dd1790919060201c565b6004600080815260200190815260200160002081905550620002206001670de0b6b3a76400006200027560201b620010dd1790919060201c565b6004600060018152602001908152602001600020819055506200025b6004670de0b6b3a76400006200027560201b620010dd1790919060201c565b600460006002815260200190815260200160002081905550565b60008183620002859190620002fc565b905092915050565b6000815190506200029e81620003f2565b92915050565b600081519050620002b5816200040c565b92915050565b60008060408385031215620002cf57600080fd5b6000620002df85828601620002a4565b9250506020620002f2858286016200028d565b9150509250929050565b60006200030982620003b9565b91506200031683620003b9565b9250817fffffffffffffffffffffffffffffffffffffffffffffffffffffffffffffffff0483118215151615620003525762000351620003c3565b5b828202905092915050565b60006200036a8262000399565b9050919050565b60006200037e826200035d565b9050919050565b600062000392826200035d565b9050919050565b600073ffffffffffffffffffffffffffffffffffffffff82169050919050565b6000819050919050565b7f4e487b7100000000000000000000000000000000000000000000000000000000600052601160045260246000fd5b620003fd8162000371565b81146200040957600080fd5b50565b620004178162000385565b81146200042357600080fd5b50565b61216380620004366000396000f3fe6080604052600436106101095760003560e01c8063d0febe4c11610095578063f2b7dc9d11610064578063f2b7dc9d146102ee578063f2fde38b1461032b578063f803d17114610354578063f88f49931461037d578063fc0c546a146103a657610109565b8063d0febe4c14610265578063d6f79b771461026f578063dc7e0ce814610298578063e931e39d146102c357610109565b806395364a84116100dc57806395364a84146101a65780639d837ccd146101d15780639fee597b146101fc578063a767d16314610213578063bfc177331461023c57610109565b806338d52e0f1461010e5780634042b66f14610139578063715018a6146101645780638da5cb5b1461017b575b600080fd5b34801561011a57600080fd5b506101236103d1565b60405161013091906119fd565b60405180910390f35b34801561014557600080fd5b5061014e6103f7565b60405161015b9190611b95565b60405180910390f35b34801561017057600080fd5b506101796103fd565b005b34801561018757600080fd5b50610190610537565b60405161019d919061190f565b60405180910390f35b3480156101b257600080fd5b506101bb610560565b6040516101c891906119e2565b60405180910390f35b3480156101dd57600080fd5b506101e6610573565b6040516101f39190611b95565b60405180910390f35b34801561020857600080fd5b50610211610579565b005b34801561021f57600080fd5b5061023a6004803603810190610235919061151a565b610645565b005b34801561024857600080fd5b50610263600480360381019061025e9190611586565b610a9b565b005b61026d610b34565b005b34801561027b57600080fd5b5061029660048036038101906102919190611601565b610d40565b005b3480156102a457600080fd5b506102ad610dd8565b6040516102ba9190611b95565b60405180910390f35b3480156102cf57600080fd5b506102d8610de4565b6040516102e59190611b95565b60405180910390f35b3480156102fa57600080fd5b50610315600480360381019061031091906115d8565b610dea565b6040516103229190611b95565b60405180910390f35b34801561033757600080fd5b50610352600480360381019061034d91906114f1565b610e02565b005b34801561036057600080fd5b5061037b600480360381019061037691906115d8565b610fab565b005b34801561038957600080fd5b506103a4600480360381019061039f91906115d8565b611031565b005b3480156103b257600080fd5b506103bb6110b7565b6040516103c89190611a18565b60405180910390f35b600360009054906101000a900473ffffffffffffffffffffffffffffffffffffffff1681565b60055481565b6104056110f3565b73ffffffffffffffffffffffffffffffffffffffff16610423610537565b73ffffffffffffffffffffffffffffffffffffffff1614610479576040517f08c379a000000000000000000000000000000000000000000000000000000000815260040161047090611ad5565b60405180910390fd5b600073ffffffffffffffffffffffffffffffffffffffff1660008054906101000a900473ffffffffffffffffffffffffffffffffffffffff1673ffffffffffffffffffffffffffffffffffffffff167f8be0079c531659141344cd1fd0a4f28419497f9722a3daafe3b4186f6b6457e060405160405180910390a360008060006101000a81548173ffffffffffffffffffffffffffffffffffffffff021916908373ffffffffffffffffffffffffffffffffffffffff160217905550565b60008060009054906101000a900473ffffffffffffffffffffffffffffffffffffffff16905090565b600860009054906101000a900460ff1681565b60065481565b6105816110f3565b73ffffffffffffffffffffffffffffffffffffffff1661059f610537565b73ffffffffffffffffffffffffffffffffffffffff16146105f5576040517f08c379a00000000000000000000000000000000000000000000000000000000081526004016105ec90611ad5565b60405180910390fd5b6105fd610537565b73ffffffffffffffffffffffffffffffffffffffff166108fc479081150290604051600060405180830381858888f19350505050158015610642573d6000803e3d6000fd5b50565b6002600154141561068b576040517f08c379a000000000000000000000000000000000000000000000000000000000815260040161068290611b75565b60405180910390fd5b600260018190555060008251116106d7576040517f08c379a00000000000000000000000000000000000000000000000000000000081526004016106ce90611a75565b60405180910390fd5b600081511161071b576040517f08c379a000000000000000000000000000000000000000000000000000000000815260040161071290611a75565b60405180910390fd5b805182511461075f576040517f08c379a000000000000000000000000000000000000000000000000000000000815260040161075690611ab5565b60405180910390fd5b6000805b83518110156108de5760008482815181106107a7577f4e487b7100000000000000000000000000000000000000000000000000000000600052603260045260246000fd5b6020026020010151905060008483815181106107ec577f4e487b7100000000000000000000000000000000000000000000000000000000600052603260045260246000fd5b60200260200101519050600060046000848152602001908152602001600020541161084c576040517f08c379a000000000000000000000000000000000000000000000000000000000815260040161084390611a75565b60405180910390fd5b6000811161088f576040517f08c379a000000000000000000000000000000000000000000000000000000000815260040161088690611a75565b60405180910390fd5b6108c76108b88260046000868152602001908152602001600020546110dd90919063ffffffff16565b856110fb90919063ffffffff16565b9350505080806108d690611e21565b915050610763565b5060008111610922576040517f08c379a000000000000000000000000000000000000000000000000000000000815260040161091990611a75565b60405180910390fd5b610971333083600260009054906101000a900473ffffffffffffffffffffffffffffffffffffffff1673ffffffffffffffffffffffffffffffffffffffff16611111909392919063ffffffff16565b600260009054906101000a900473ffffffffffffffffffffffffffffffffffffffff1673ffffffffffffffffffffffffffffffffffffffff1663bb7d129b826040518263ffffffff1660e01b81526004016109cc9190611b95565b600060405180830381600087803b1580156109e657600080fd5b505af11580156109fa573d6000803e3d6000fd5b50505050600360009054906101000a900473ffffffffffffffffffffffffffffffffffffffff1673ffffffffffffffffffffffffffffffffffffffff16631f7fdffa3385856040518463ffffffff1660e01b8152600401610a5d93929190611961565b600060405180830381600087803b158015610a7757600080fd5b505af1158015610a8b573d6000803e3d6000fd5b5050505050600180819055505050565b610aa36110f3565b73ffffffffffffffffffffffffffffffffffffffff16610ac1610537565b73ffffffffffffffffffffffffffffffffffffffff1614610b17576040517f08c379a0000000000000000000000000000000000000000000000000000000008152600401610b0e90611ad5565b60405180910390fd5b80600860006101000a81548160ff02191690831515021790555050565b60026001541415610b7a576040517f08c379a0000000000000000000000000000000000000000000000000000000008152600401610b7190611b75565b60405180910390fd5b6002600181905550600860009054906101000a900460ff16610bd1576040517f08c379a0000000000000000000000000000000000000000000000000000000008152600401610bc890611b55565b60405180910390fd5b600034905060008111610c19576040517f08c379a0000000000000000000000000000000000000000000000000000000008152600401610c1090611a75565b60405180910390fd5b600654610c31826005546110fb90919063ffffffff16565b1115610c72576040517f08c379a0000000000000000000000000000000000000000000000000000000008152600401610c6990611b35565b60405180910390fd5b6000610c89600754836110dd90919063ffffffff16565b9050610ca0826005546110fb90919063ffffffff16565b600581905550600260009054906101000a900473ffffffffffffffffffffffffffffffffffffffff1673ffffffffffffffffffffffffffffffffffffffff166340c10f1933836040518363ffffffff1660e01b8152600401610d039291906119b9565b600060405180830381600087803b158015610d1d57600080fd5b505af1158015610d31573d6000803e3d6000fd5b50505050505060018081905550565b610d486110f3565b73ffffffffffffffffffffffffffffffffffffffff16610d66610537565b73ffffffffffffffffffffffffffffffffffffffff1614610dbc576040517f08c379a0000000000000000000000000000000000000000000000000000000008152600401610db390611ad5565b60405180910390fd5b8060046000848152602001908152602001600020819055505050565b670de0b6b3a764000081565b60075481565b60046020528060005260406000206000915090505481565b610e0a6110f3565b73ffffffffffffffffffffffffffffffffffffffff16610e28610537565b73ffffffffffffffffffffffffffffffffffffffff1614610e7e576040517f08c379a0000000000000000000000000000000000000000000000000000000008152600401610e7590611ad5565b60405180910390fd5b600073ffffffffffffffffffffffffffffffffffffffff168173ffffffffffffffffffffffffffffffffffffffff161415610eee576040517f08c379a0000000000000000000000000000000000000000000000000000000008152600401610ee590611a55565b60405180910390fd5b8073ffffffffffffffffffffffffffffffffffffffff1660008054906101000a900473ffffffffffffffffffffffffffffffffffffffff1673ffffffffffffffffffffffffffffffffffffffff167f8be0079c531659141344cd1fd0a4f28419497f9722a3daafe3b4186f6b6457e060405160405180910390a3806000806101000a81548173ffffffffffffffffffffffffffffffffffffffff021916908373ffffffffffffffffffffffffffffffffffffffff16021790555050565b610fb36110f3565b73ffffffffffffffffffffffffffffffffffffffff16610fd1610537565b73ffffffffffffffffffffffffffffffffffffffff1614611027576040517f08c379a000000000000000000000000000000000000000000000000000000000815260040161101e90611ad5565b60405180910390fd5b8060068190555050565b6110396110f3565b73ffffffffffffffffffffffffffffffffffffffff16611057610537565b73ffffffffffffffffffffffffffffffffffffffff16146110ad576040517f08c379a00000000000000000000000000000000000000000000000000000000081526004016110a490611ad5565b60405180910390fd5b8060078190555050565b600260009054906101000a900473ffffffffffffffffffffffffffffffffffffffff1681565b600081836110eb9190611cd3565b905092915050565b600033905090565b600081836111099190611c7d565b905092915050565b611194846323b872dd60e01b8585856040516024016111329392919061192a565b604051602081830303815290604052907bffffffffffffffffffffffffffffffffffffffffffffffffffffffff19166020820180517bffffffffffffffffffffffffffffffffffffffffffffffffffffffff838183161783525050505061119a565b50505050565b60006111fc826040518060400160405280602081526020017f5361666545524332303a206c6f772d6c6576656c2063616c6c206661696c65648152508573ffffffffffffffffffffffffffffffffffffffff166112619092919063ffffffff16565b905060008151111561125c578080602001905181019061121c91906115af565b61125b576040517f08c379a000000000000000000000000000000000000000000000000000000000815260040161125290611b15565b60405180910390fd5b5b505050565b60606112708484600085611279565b90509392505050565b6060824710156112be576040517f08c379a00000000000000000000000000000000000000000000000000000000081526004016112b590611a95565b60405180910390fd5b6112c78561138d565b611306576040517f08c379a00000000000000000000000000000000000000000000000000000000081526004016112fd90611af5565b60405180910390fd5b6000808673ffffffffffffffffffffffffffffffffffffffff16858760405161132f91906118f8565b60006040518083038185875af1925050503d806000811461136c576040519150601f19603f3d011682016040523d82523d6000602084013e611371565b606091505b50915091506113818282866113a0565b92505050949350505050565b600080823b905060008111915050919050565b606083156113b057829050611400565b6000835111156113c35782518084602001fd5b816040517f08c379a00000000000000000000000000000000000000000000000000000000081526004016113f79190611a33565b60405180910390fd5b9392505050565b600061141a61141584611bd5565b611bb0565b9050808382526020820190508285602086028201111561143957600080fd5b60005b85811015611469578161144f88826114dc565b84526020840193506020830192505060018101905061143c565b5050509392505050565b600081359050611482816120e8565b92915050565b600082601f83011261149957600080fd5b81356114a9848260208601611407565b91505092915050565b6000813590506114c1816120ff565b92915050565b6000815190506114d6816120ff565b92915050565b6000813590506114eb81612116565b92915050565b60006020828403121561150357600080fd5b600061151184828501611473565b91505092915050565b6000806040838503121561152d57600080fd5b600083013567ffffffffffffffff81111561154757600080fd5b61155385828601611488565b925050602083013567ffffffffffffffff81111561157057600080fd5b61157c85828601611488565b9150509250929050565b60006020828403121561159857600080fd5b60006115a6848285016114b2565b91505092915050565b6000602082840312156115c157600080fd5b60006115cf848285016114c7565b91505092915050565b6000602082840312156115ea57600080fd5b60006115f8848285016114dc565b91505092915050565b6000806040838503121561161457600080fd5b6000611622858286016114dc565b9250506020611633858286016114dc565b9150509250929050565b600061164983836118da565b60208301905092915050565b61165e81611d2d565b82525050565b600061166f82611c11565b6116798185611c3f565b935061168483611c01565b8060005b838110156116b557815161169c888261163d565b97506116a783611c32565b925050600181019050611688565b5085935050505092915050565b6116cb81611d3f565b82525050565b60006116dc82611c1c565b6116e68185611c61565b93506116f6818560208601611dbd565b80840191505092915050565b61170b81611d75565b82525050565b61171a81611d99565b82525050565b600061172b82611c27565b6117358185611c6c565b9350611745818560208601611dbd565b61174e81611ec8565b840191505092915050565b6000611766602683611c6c565b915061177182611ed9565b604082019050919050565b6000611789601783611c6c565b915061179482611f28565b602082019050919050565b60006117ac602683611c6c565b91506117b782611f51565b604082019050919050565b60006117cf601683611c6c565b91506117da82611fa0565b602082019050919050565b60006117f2602083611c6c565b91506117fd82611fc9565b602082019050919050565b6000611815600083611c50565b915061182082611ff2565b600082019050919050565b6000611838601d83611c6c565b915061184382611ff5565b602082019050919050565b600061185b602a83611c6c565b91506118668261201e565b604082019050919050565b600061187e601183611c6c565b91506118898261206d565b602082019050919050565b60006118a1600d83611c6c565b91506118ac82612096565b602082019050919050565b60006118c4601f83611c6c565b91506118cf826120bf565b602082019050919050565b6118e381611d6b565b82525050565b6118f281611d6b565b82525050565b600061190482846116d1565b915081905092915050565b60006020820190506119246000830184611655565b92915050565b600060608201905061193f6000830186611655565b61194c6020830185611655565b61195960408301846118e9565b949350505050565b60006080820190506119766000830186611655565b81810360208301526119888185611664565b9050818103604083015261199c8184611664565b905081810360608301526119af81611808565b9050949350505050565b60006040820190506119ce6000830185611655565b6119db60208301846118e9565b9392505050565b60006020820190506119f760008301846116c2565b92915050565b6000602082019050611a126000830184611702565b92915050565b6000602082019050611a2d6000830184611711565b92915050565b60006020820190508181036000830152611a4d8184611720565b905092915050565b60006020820190508181036000830152611a6e81611759565b9050919050565b60006020820190508181036000830152611a8e8161177c565b9050919050565b60006020820190508181036000830152611aae8161179f565b9050919050565b60006020820190508181036000830152611ace816117c2565b9050919050565b60006020820190508181036000830152611aee816117e5565b9050919050565b60006020820190508181036000830152611b0e8161182b565b9050919050565b60006020820190508181036000830152611b2e8161184e565b9050919050565b60006020820190508181036000830152611b4e81611871565b9050919050565b60006020820190508181036000830152611b6e81611894565b9050919050565b60006020820190508181036000830152611b8e816118b7565b9050919050565b6000602082019050611baa60008301846118e9565b92915050565b6000611bba611bcb565b9050611bc68282611df0565b919050565b6000604051905090565b600067ffffffffffffffff821115611bf057611bef611e99565b5b602082029050602081019050919050565b6000819050602082019050919050565b600081519050919050565b600081519050919050565b600081519050919050565b6000602082019050919050565b600082825260208201905092915050565b600082825260208201905092915050565b600081905092915050565b600082825260208201905092915050565b6000611c8882611d6b565b9150611c9383611d6b565b9250827fffffffffffffffffffffffffffffffffffffffffffffffffffffffffffffffff03821115611cc857611cc7611e6a565b5b828201905092915050565b6000611cde82611d6b565b9150611ce983611d6b565b9250817fffffffffffffffffffffffffffffffffffffffffffffffffffffffffffffffff0483118215151615611d2257611d21611e6a565b5b828202905092915050565b6000611d3882611d4b565b9050919050565b60008115159050919050565b600073ffffffffffffffffffffffffffffffffffffffff82169050919050565b6000819050919050565b6000611d8082611d87565b9050919050565b6000611d9282611d4b565b9050919050565b6000611da482611dab565b9050919050565b6000611db682611d4b565b9050919050565b60005b83811015611ddb578082015181840152602081019050611dc0565b83811115611dea576000848401525b50505050565b611df982611ec8565b810181811067ffffffffffffffff82111715611e1857611e17611e99565b5b80604052505050565b6000611e2c82611d6b565b91507fffffffffffffffffffffffffffffffffffffffffffffffffffffffffffffffff821415611e5f57611e5e611e6a565b5b600182019050919050565b7f4e487b7100000000000000000000000000000000000000000000000000000000600052601160045260246000fd5b7f4e487b7100000000000000000000000000000000000000000000000000000000600052604160045260246000fd5b6000601f19601f8301169050919050565b7f4f776e61626c653a206e6577206f776e657220697320746865207a65726f206160008201527f6464726573730000000000000000000000000000000000000000000000000000602082015250565b7f53746f72653a20696e76616c696420617267756d656e74000000000000000000600082015250565b7f416464726573733a20696e73756666696369656e742062616c616e636520666f60008201527f722063616c6c0000000000000000000000000000000000000000000000000000602082015250565b7f506f6f6c3a20696e76616c696420617267756d656e7400000000000000000000600082015250565b7f4f776e61626c653a2063616c6c6572206973206e6f7420746865206f776e6572600082015250565b50565b7f416464726573733a2063616c6c20746f206e6f6e2d636f6e7472616374000000600082015250565b7f5361666545524332303a204552433230206f7065726174696f6e20646964206e60008201527f6f74207375636365656400000000000000000000000000000000000000000000602082015250565b7f45544820434150204f7665726c696d6974000000000000000000000000000000600082015250565b7f50726573616c6520456e64656400000000000000000000000000000000000000600082015250565b7f5265656e7472616e637947756172643a207265656e7472616e742063616c6c00600082015250565b6120f181611d2d565b81146120fc57600080fd5b50565b61210881611d3f565b811461211357600080fd5b50565b61211f81611d6b565b811461212a57600080fd5b5056fea2646970667358221220dd1125063d2a6479a131c816f216197f97d7324a7d25a78b0e4cb215f6636bdd64736f6c63430008040033",
  "immutableReferences": {},
  "source": "pragma solidity ^0.8.0;\n\nimport \"@openzeppelin/contracts/token/ERC20/utils/SafeERC20.sol\";\nimport \"@openzeppelin/contracts/security/ReentrancyGuard.sol\";\nimport \"@openzeppelin/contracts/utils/math/SafeMath.sol\";\nimport \"@openzeppelin/contracts/access/Ownable.sol\";\n\nimport \"./interfaces/IFAMToken.sol\";\nimport \"./interfaces/IFAMAsset.sol\";\n\ncontract Store is Ownable, ReentrancyGuard{\n    using SafeMath for uint256;\n    using SafeERC20 for IFAMToken;\n\n    IFAMToken public token;\n    IFAMAsset public asset;\n\n    mapping(uint256 => uint256) public priceNft;\n\n    uint256 public constant SAFE_MULTIPLIER = 1e18;\n    uint256 public weiRaised = 0;\n\n    uint256 public ETH_CAP = 1000 * 1e18;\n    uint256 public RATIO_WEI_TOKEN = 10000;\n    bool public isPresale = true;\n    constructor(IFAMToken _token, IFAMAsset _asset) public {\n        token = _token;\n        asset = _asset;\n        _initializeNft();\n    }\n    function _initializeNft() internal{\n        priceNft[0] = SAFE_MULTIPLIER.mul(3);\n        priceNft[1] = SAFE_MULTIPLIER.mul(1);\n        priceNft[2] = SAFE_MULTIPLIER.mul(4);\n    }\n    //to test\n    function buyBatchNft(uint256[] memory _ids, uint256[] memory _amounts) public nonReentrant {\n        require(_ids.length > 0, \"Store: invalid argument\");\n        require(_amounts.length > 0, \"Store: invalid argument\");\n        require(_ids.length == _amounts.length, \"Pool: invalid argument\");\n\n        uint256  amountRequired = 0;\n        for (uint256 i = 0; i < _ids.length; i++) {\n            uint256 id = _ids[i];\n            uint256 amount = _amounts[i];\n            require(priceNft[id]>0, \"Store: invalid argument\");\n            require(amount>0, \"Store: invalid argument\");\n            //require(maxAmountAllowedNft[id].sub(minedNft[id]) >= amount, \"Store: invalid argument\");\n            amountRequired = amountRequired.add(priceNft[id].mul(amount));\n        }\n        require(amountRequired>0, \"Store: invalid argument\");\n\n        token.safeTransferFrom(msg.sender, address(this), amountRequired);\n        token.burnOwnToken(amountRequired);\n        asset.mintBatch(msg.sender, _ids, _amounts,\"\");\n    }\n\n    function buyTokens() public nonReentrant payable {\n        require(isPresale, \"Presale Ended\");\n        uint256 weiAmount = msg.value;\n        require(weiAmount>0, \"Store: invalid argument\");\n        require(weiRaised.add(weiAmount) <= ETH_CAP, \"ETH CAP Overlimit\");\n        uint256 tokenAmount = weiAmount.mul(RATIO_WEI_TOKEN);\n    \n        weiRaised = weiRaised.add(weiAmount);\n        token.mint(msg.sender, tokenAmount);   \n    }\n    function extractEther() public onlyOwner {\n       payable(owner()).transfer(address(this).balance);\n   }\n    function setPriceNft(uint256 id, uint256 price) public onlyOwner {\n        priceNft[id] = price;\n    }\n    function setETHCap(uint256 cap) public onlyOwner {\n        ETH_CAP = cap;\n    }\n    function setRatioWeiToken(uint256 ratio) public onlyOwner {\n        RATIO_WEI_TOKEN = ratio;\n    }\n    function setIsPresale(bool flag) public onlyOwner {\n        isPresale = flag;\n    }\n}",
  "sourcePath": "/Users/p489548/SmartContracts/FAMSystem/contracts/Store.sol",
  "compiler": {
    "name": "solc",
    "version": "0.8.4+commit.c7e474f2.Emscripten.clang"
  },
  "schemaVersion": "3.3.4",
  "updatedAt": "2021-05-12T16:27:38.498Z",
  "networkType": "ethereum",
  "devdoc": {
    "kind": "dev",
    "methods": {
      "owner()": {
        "details": "Returns the address of the current owner."
      },
      "renounceOwnership()": {
        "details": "Leaves the contract without owner. It will not be possible to call `onlyOwner` functions anymore. Can only be called by the current owner. NOTE: Renouncing ownership will leave the contract without an owner, thereby removing any functionality that is only available to the owner."
      },
      "transferOwnership(address)": {
        "details": "Transfers ownership of the contract to a new account (`newOwner`). Can only be called by the current owner."
      }
    },
    "version": 1
  },
  "userdoc": {
    "kind": "user",
    "methods": {},
    "version": 1
  }
}