{
  "contractName": "Store",
  "abi": [
    {
      "inputs": [
        {
          "internalType": "contract IINGOTToken",
          "name": "_token",
          "type": "address"
        },
        {
          "internalType": "contract IINGOTAsset",
          "name": "_asset",
          "type": "address"
        }
      ],
      "stateMutability": "nonpayable",
      "type": "constructor"
    },
    {
      "anonymous": false,
      "inputs": [
        {
          "indexed": true,
          "internalType": "address",
          "name": "previousOwner",
          "type": "address"
        },
        {
          "indexed": true,
          "internalType": "address",
          "name": "newOwner",
          "type": "address"
        }
      ],
      "name": "OwnershipTransferred",
      "type": "event"
    },
    {
      "inputs": [],
      "name": "ETH_CAP",
      "outputs": [
        {
          "internalType": "uint256",
          "name": "",
          "type": "uint256"
        }
      ],
      "stateMutability": "view",
      "type": "function",
      "constant": true
    },
    {
      "inputs": [],
      "name": "RATIO_WEI_TOKEN",
      "outputs": [
        {
          "internalType": "uint256",
          "name": "",
          "type": "uint256"
        }
      ],
      "stateMutability": "view",
      "type": "function",
      "constant": true
    },
    {
      "inputs": [],
      "name": "SAFE_MULTIPLIER",
      "outputs": [
        {
          "internalType": "uint256",
          "name": "",
          "type": "uint256"
        }
      ],
      "stateMutability": "view",
      "type": "function",
      "constant": true
    },
    {
      "inputs": [],
      "name": "asset",
      "outputs": [
        {
          "internalType": "contract IINGOTAsset",
          "name": "",
          "type": "address"
        }
      ],
      "stateMutability": "view",
      "type": "function",
      "constant": true
    },
    {
      "inputs": [],
      "name": "isPresale",
      "outputs": [
        {
          "internalType": "bool",
          "name": "",
          "type": "bool"
        }
      ],
      "stateMutability": "view",
      "type": "function",
      "constant": true
    },
    {
      "inputs": [],
      "name": "isStoreOpen",
      "outputs": [
        {
          "internalType": "bool",
          "name": "",
          "type": "bool"
        }
      ],
      "stateMutability": "view",
      "type": "function",
      "constant": true
    },
    {
      "inputs": [],
      "name": "owner",
      "outputs": [
        {
          "internalType": "address",
          "name": "",
          "type": "address"
        }
      ],
      "stateMutability": "view",
      "type": "function",
      "constant": true
    },
    {
      "inputs": [
        {
          "internalType": "uint256",
          "name": "",
          "type": "uint256"
        }
      ],
      "name": "priceNft",
      "outputs": [
        {
          "internalType": "uint256",
          "name": "",
          "type": "uint256"
        }
      ],
      "stateMutability": "view",
      "type": "function",
      "constant": true
    },
    {
      "inputs": [],
      "name": "renounceOwnership",
      "outputs": [],
      "stateMutability": "nonpayable",
      "type": "function"
    },
    {
      "inputs": [],
      "name": "token",
      "outputs": [
        {
          "internalType": "contract IINGOTToken",
          "name": "",
          "type": "address"
        }
      ],
      "stateMutability": "view",
      "type": "function",
      "constant": true
    },
    {
      "inputs": [
        {
          "internalType": "address",
          "name": "newOwner",
          "type": "address"
        }
      ],
      "name": "transferOwnership",
      "outputs": [],
      "stateMutability": "nonpayable",
      "type": "function"
    },
    {
      "inputs": [],
      "name": "weiRaised",
      "outputs": [
        {
          "internalType": "uint256",
          "name": "",
          "type": "uint256"
        }
      ],
      "stateMutability": "view",
      "type": "function",
      "constant": true
    },
    {
      "inputs": [
        {
          "internalType": "uint256[]",
          "name": "_ids",
          "type": "uint256[]"
        },
        {
          "internalType": "uint256[]",
          "name": "_amounts",
          "type": "uint256[]"
        }
      ],
      "name": "buyBatchNft",
      "outputs": [],
      "stateMutability": "nonpayable",
      "type": "function"
    },
    {
      "inputs": [],
      "name": "buyTokens",
      "outputs": [],
      "stateMutability": "payable",
      "type": "function",
      "payable": true
    },
    {
      "inputs": [],
      "name": "extractEther",
      "outputs": [],
      "stateMutability": "nonpayable",
      "type": "function"
    },
    {
      "inputs": [
        {
          "internalType": "uint256",
          "name": "id",
          "type": "uint256"
        },
        {
          "internalType": "uint256",
          "name": "price",
          "type": "uint256"
        }
      ],
      "name": "setPriceNft",
      "outputs": [],
      "stateMutability": "nonpayable",
      "type": "function"
    },
    {
      "inputs": [
        {
          "internalType": "uint256",
          "name": "cap",
          "type": "uint256"
        }
      ],
      "name": "setETHCap",
      "outputs": [],
      "stateMutability": "nonpayable",
      "type": "function"
    },
    {
      "inputs": [
        {
          "internalType": "uint256",
          "name": "ratio",
          "type": "uint256"
        }
      ],
      "name": "setRatioWeiToken",
      "outputs": [],
      "stateMutability": "nonpayable",
      "type": "function"
    },
    {
      "inputs": [
        {
          "internalType": "bool",
          "name": "flag",
          "type": "bool"
        }
      ],
      "name": "setIsPresale",
      "outputs": [],
      "stateMutability": "nonpayable",
      "type": "function"
    },
    {
      "inputs": [
        {
          "internalType": "bool",
          "name": "flag",
          "type": "bool"
        }
      ],
      "name": "setIsStoreOpen",
      "outputs": [],
      "stateMutability": "nonpayable",
      "type": "function"
    }
  ],
  "bytecode": "0x60806040526005805460ff19169055600060065562000029670de0b6b3a76400006103e862000524565b60075561079e6008556009805460ff191690553480156200004957600080fd5b5060405162001743380380620017438339810160408190526200006c91620004e6565b600080546001600160a01b031916339081178255604051909182917f8be0079c531659141344cd1fd0a4f28419497f9722a3daafe3b4186f6b6457e0908290a35060018055600280546001600160a01b038085166001600160a01b0319928316179092556003805492841692909116919091179055620000eb620000f3565b505062000569565b620001166064670de0b6b3a7640000620004d160201b62000b331790919060201c565b60008052600460209081527f17ef568e3e12ab5b9c7254a8d58478811de00f9e6eb34345acd53bf8fd09d3ec919091556200016790670de0b6b3a76400009060829062000b33620004d1821b17901c565b6001600052600460209081527fabd6e7cb50984ff9c2f3e18a2660c3353dadf4e3291deeb275dae2cd1e44fe0591909155620001b990670de0b6b3a76400009060a99062000b33620004d1821b17901c565b6002600052600460209081527f91da3fd0782e51c6b3986e9e672fd566868e71f3dbc2d6c2cd6fbb3e361af2a7919091556200020b90670de0b6b3a76400009060dc9062000b33620004d1821b17901c565b6003600052600460209081527f2e174c10e159ea99b867ce3205125c24a42d128804e4070ed6fcc8cc98166aa0919091556200025e90670de0b6b3a76400009061011d9062000b33620004d1821b17901c565b6004600081905260209081527f1a1e6821cde7d0159c0d293177871e09677b4e42307c7db3ba94f8648a5a050f91909155620002b190670de0b6b3a7640000906101739062000b33620004d1821b17901c565b6005600052600460209081527f04cde762ef08b6b6c5ded8e8c4c0b3f4e5c9ad7342c88fcc93681b4588b73f05919091556200030490670de0b6b3a7640000906101e39062000b33620004d1821b17901c565b6006600052600460209081527fc59312466997bb42aaaf719ece141047820e6b34531e1670dc1852a453648f0f919091556200035790670de0b6b3a7640000906102739062000b33620004d1821b17901c565b6007600052600460209081527fbeb3bad75134cb432e5707980e3245c52c5998a1125ee30f2f0dbf3925b1e55191909155620003aa90670de0b6b3a7640000906103309062000b33620004d1821b17901c565b6008600052600460209081527f2645749a946633740611cfc8178319f0958659d6922e4bf7e3a08b44789f53a491909155620003fd90670de0b6b3a7640000906104249062000b33620004d1821b17901c565b6009600052600460209081527f4ad5a04d53b5856f318545bb721f67d3f6d0a5a999f25eec7e20eaeb4c47b933919091556200045090670de0b6b3a7640000906105629062000b33620004d1821b17901c565b600a600052600460209081527f5c6b02db8b672415ffad906d7ccee10bd53dbad7d0b29e2bc0e50c93d5f3109391909155620004a390670de0b6b3a7640000906107009062000b33620004d1821b17901c565b600b60005260046020527f0c1469ad586d86b6976c45826d7ae56d76ee516e37a2bccffbe904b74dbae7ea55565b6000620004df828462000524565b9392505050565b60008060408385031215620004f9578182fd5b8251620005068162000550565b6020840151909250620005198162000550565b809150509250929050565b60008160001904831182151516156200054b57634e487b7160e01b81526011600452602481fd5b500290565b6001600160a01b03811681146200056657600080fd5b50565b6111ca80620005796000396000f3fe60806040526004361061011f5760003560e01c8063bfc17733116100a0578063f2b7dc9d11610064578063f2b7dc9d146102e3578063f2fde38b14610310578063f803d17114610330578063f88f499314610350578063fc0c546a1461037057600080fd5b8063bfc1773314610269578063d0febe4c14610289578063d6f79b7714610291578063dc7e0ce8146102b1578063e931e39d146102cd57600080fd5b80638da5cb5b116100e75780638da5cb5b146101e657806395364a84146102045780639d837ccd1461021e5780639fee597b14610234578063a767d1631461024957600080fd5b806306d1e7e414610124578063209c36b61461015357806338d52e0f146101755780634042b66f146101ad578063715018a6146101d1575b600080fd5b34801561013057600080fd5b5060055461013e9060ff1681565b60405190151581526020015b60405180910390f35b34801561015f57600080fd5b5061017361016e366004610f27565b610390565b005b34801561018157600080fd5b50600354610195906001600160a01b031681565b6040516001600160a01b03909116815260200161014a565b3480156101b957600080fd5b506101c360065481565b60405190815260200161014a565b3480156101dd57600080fd5b506101736103d6565b3480156101f257600080fd5b506000546001600160a01b0316610195565b34801561021057600080fd5b5060095461013e9060ff1681565b34801561022a57600080fd5b506101c360075481565b34801561024057600080fd5b5061017361044a565b34801561025557600080fd5b50610173610264366004610ec6565b6104b1565b34801561027557600080fd5b50610173610284366004610f27565b6107d2565b61017361080f565b34801561029d57600080fd5b506101736102ac366004610f77565b6109af565b3480156102bd57600080fd5b506101c3670de0b6b3a764000081565b3480156102d957600080fd5b506101c360085481565b3480156102ef57600080fd5b506101c36102fe366004610f5f565b60046020526000908152604090205481565b34801561031c57600080fd5b5061017361032b366004610e9f565b6109eb565b34801561033c57600080fd5b5061017361034b366004610f5f565b610ad5565b34801561035c57600080fd5b5061017361036b366004610f5f565b610b04565b34801561037c57600080fd5b50600254610195906001600160a01b031681565b6000546001600160a01b031633146103c35760405162461bcd60e51b81526004016103ba906110a7565b60405180910390fd5b6005805460ff1916911515919091179055565b6000546001600160a01b031633146104005760405162461bcd60e51b81526004016103ba906110a7565b600080546040516001600160a01b03909116907f8be0079c531659141344cd1fd0a4f28419497f9722a3daafe3b4186f6b6457e0908390a3600080546001600160a01b0319169055565b6000546001600160a01b031633146104745760405162461bcd60e51b81526004016103ba906110a7565b600080546040516001600160a01b03909116914780156108fc02929091818181858888f193505050501580156104ae573d6000803e3d6000fd5b50565b600260015414156105045760405162461bcd60e51b815260206004820152601f60248201527f5265656e7472616e637947756172643a207265656e7472616e742063616c6c0060448201526064016103ba565b600260015560055460ff1661054d5760405162461bcd60e51b815260206004820152600f60248201526e14dd1bdc99481a5cc818db1bdcd959608a1b60448201526064016103ba565b600082511161056e5760405162461bcd60e51b81526004016103ba90611070565b600081511161058f5760405162461bcd60e51b81526004016103ba90611070565b80518251146105d95760405162461bcd60e51b8152602060048201526016602482015275141bdbdb0e881a5b9d985b1a5908185c99dd5b595b9d60521b60448201526064016103ba565b6000805b83518110156106cc57600084828151811061060857634e487b7160e01b600052603260045260246000fd5b60200260200101519050600084838151811061063457634e487b7160e01b600052603260045260246000fd5b6020026020010151905060006004600084815260200190815260200160002054116106715760405162461bcd60e51b81526004016103ba90611070565b600081116106915760405162461bcd60e51b81526004016103ba90611070565b6000828152600460205260409020546106b5906106ae9083610b33565b8590610b46565b9350505080806106c49061113f565b9150506105dd565b50600081116106ed5760405162461bcd60e51b81526004016103ba90611070565b600254610705906001600160a01b0316333084610b52565b60025460405163bb7d129b60e01b8152600481018390526001600160a01b039091169063bb7d129b90602401600060405180830381600087803b15801561074b57600080fd5b505af115801561075f573d6000803e3d6000fd5b5050600354604051630fbfeffd60e11b81526001600160a01b039091169250631f7fdffa915061079790339087908790600401610fee565b600060405180830381600087803b1580156107b157600080fd5b505af11580156107c5573d6000803e3d6000fd5b5050600180555050505050565b6000546001600160a01b031633146107fc5760405162461bcd60e51b81526004016103ba906110a7565b6009805460ff1916911515919091179055565b600260015414156108625760405162461bcd60e51b815260206004820152601f60248201527f5265656e7472616e637947756172643a207265656e7472616e742063616c6c0060448201526064016103ba565b600260015560095460ff166108a95760405162461bcd60e51b815260206004820152600d60248201526c141c995cd85b1948115b991959609a1b60448201526064016103ba565b34806108c75760405162461bcd60e51b81526004016103ba90611070565b6007546006546108d79083610b46565b11156109195760405162461bcd60e51b81526020600482015260116024820152701155120810d0540813dd995c9b1a5b5a5d607a1b60448201526064016103ba565b600061093060085483610b3390919063ffffffff16565b6006549091506109409083610b46565b6006556002546040516340c10f1960e01b8152336004820152602481018390526001600160a01b03909116906340c10f1990604401600060405180830381600087803b15801561098f57600080fd5b505af11580156109a3573d6000803e3d6000fd5b50506001805550505050565b6000546001600160a01b031633146109d95760405162461bcd60e51b81526004016103ba906110a7565b60009182526004602052604090912055565b6000546001600160a01b03163314610a155760405162461bcd60e51b81526004016103ba906110a7565b6001600160a01b038116610a7a5760405162461bcd60e51b815260206004820152602660248201527f4f776e61626c653a206e6577206f776e657220697320746865207a65726f206160448201526564647265737360d01b60648201526084016103ba565b600080546040516001600160a01b03808516939216917f8be0079c531659141344cd1fd0a4f28419497f9722a3daafe3b4186f6b6457e091a3600080546001600160a01b0319166001600160a01b0392909216919091179055565b6000546001600160a01b03163314610aff5760405162461bcd60e51b81526004016103ba906110a7565b600755565b6000546001600160a01b03163314610b2e5760405162461bcd60e51b81526004016103ba906110a7565b600855565b6000610b3f82846110f4565b9392505050565b6000610b3f82846110dc565b604080516001600160a01b0385811660248301528416604482015260648082018490528251808303909101815260849091019091526020810180516001600160e01b03166323b872dd60e01b179052610bac908590610bb2565b50505050565b6000610c07826040518060400160405280602081526020017f5361666545524332303a206c6f772d6c6576656c2063616c6c206661696c6564815250856001600160a01b0316610c899092919063ffffffff16565b805190915015610c845780806020019051810190610c259190610f43565b610c845760405162461bcd60e51b815260206004820152602a60248201527f5361666545524332303a204552433230206f7065726174696f6e20646964206e6044820152691bdd081cdd58d8d9595960b21b60648201526084016103ba565b505050565b6060610c988484600085610ca0565b949350505050565b606082471015610d015760405162461bcd60e51b815260206004820152602660248201527f416464726573733a20696e73756666696369656e742062616c616e636520666f6044820152651c8818d85b1b60d21b60648201526084016103ba565b843b610d4f5760405162461bcd60e51b815260206004820152601d60248201527f416464726573733a2063616c6c20746f206e6f6e2d636f6e747261637400000060448201526064016103ba565b600080866001600160a01b03168587604051610d6b9190610fd2565b60006040518083038185875af1925050503d8060008114610da8576040519150601f19603f3d011682016040523d82523d6000602084013e610dad565b606091505b5091509150610dbd828286610dc8565b979650505050505050565b60608315610dd7575081610b3f565b825115610de75782518084602001fd5b8160405162461bcd60e51b81526004016103ba919061103d565b600082601f830112610e11578081fd5b8135602067ffffffffffffffff80831115610e2e57610e2e611170565b8260051b604051601f19603f83011681018181108482111715610e5357610e53611170565b60405284815283810192508684018288018501891015610e71578687fd5b8692505b85831015610e93578035845292840192600192909201918401610e75565b50979650505050505050565b600060208284031215610eb0578081fd5b81356001600160a01b0381168114610b3f578182fd5b60008060408385031215610ed8578081fd5b823567ffffffffffffffff80821115610eef578283fd5b610efb86838701610e01565b93506020850135915080821115610f10578283fd5b50610f1d85828601610e01565b9150509250929050565b600060208284031215610f38578081fd5b8135610b3f81611186565b600060208284031215610f54578081fd5b8151610b3f81611186565b600060208284031215610f70578081fd5b5035919050565b60008060408385031215610f89578182fd5b50508035926020909101359150565b6000815180845260208085019450808401835b83811015610fc757815187529582019590820190600101610fab565b509495945050505050565b60008251610fe4818460208701611113565b9190910192915050565b6001600160a01b038416815260806020820181905260009061101290830185610f98565b82810360408401526110248185610f98565b8381036060909401939093525081526020019392505050565b602081526000825180602084015261105c816040850160208701611113565b601f01601f19169190910160400192915050565b60208082526017908201527f53746f72653a20696e76616c696420617267756d656e74000000000000000000604082015260600190565b6020808252818101527f4f776e61626c653a2063616c6c6572206973206e6f7420746865206f776e6572604082015260600190565b600082198211156110ef576110ef61115a565b500190565b600081600019048311821515161561110e5761110e61115a565b500290565b60005b8381101561112e578181015183820152602001611116565b83811115610bac5750506000910152565b60006000198214156111535761115361115a565b5060010190565b634e487b7160e01b600052601160045260246000fd5b634e487b7160e01b600052604160045260246000fd5b80151581146104ae57600080fdfea2646970667358221220ec2fa929f7b3920f4c79356ec821e65fff52d01ac26ba1ca8172b8cd391d957564736f6c63430008040033",
  "immutableReferences": {},
  "source": "pragma solidity ^0.8.0;\n\nimport \"@openzeppelin/contracts/token/ERC20/utils/SafeERC20.sol\";\nimport \"@openzeppelin/contracts/security/ReentrancyGuard.sol\";\nimport \"@openzeppelin/contracts/utils/math/SafeMath.sol\";\nimport \"@openzeppelin/contracts/access/Ownable.sol\";\n\nimport \"./interfaces/IINGOTToken.sol\";\nimport \"./interfaces/IINGOTAsset.sol\";\n\ncontract Store is Ownable, ReentrancyGuard{\n    using SafeMath for uint256;\n    using SafeERC20 for IINGOTToken;\n\n    IINGOTToken public token;\n    IINGOTAsset public asset;\n\n    mapping(uint256 => uint256) public priceNft;\n    bool public isStoreOpen = false;\n\n\n    uint256 public constant SAFE_MULTIPLIER = 1e18;\n    uint256 public weiRaised = 0;\n\n    uint256 public ETH_CAP = 1000 * SAFE_MULTIPLIER;\n    uint256 public RATIO_WEI_TOKEN = 1950;\n    bool public isPresale = false;\n\n    constructor(IINGOTToken _token, IINGOTAsset _asset) public {\n        token = _token;\n        asset = _asset;\n        _initializeNft();\n    }\n    function _initializeNft() internal{\n        priceNft[0] = SAFE_MULTIPLIER.mul(100);\n        priceNft[1] = SAFE_MULTIPLIER.mul(130);\n        priceNft[2] = SAFE_MULTIPLIER.mul(169);\n        priceNft[3] = SAFE_MULTIPLIER.mul(220);\n        priceNft[4] = SAFE_MULTIPLIER.mul(285);\n        priceNft[5] = SAFE_MULTIPLIER.mul(371);\n        priceNft[6] = SAFE_MULTIPLIER.mul(483);\n        priceNft[7] = SAFE_MULTIPLIER.mul(627);\n        priceNft[8] = SAFE_MULTIPLIER.mul(816);\n        priceNft[9] = SAFE_MULTIPLIER.mul(1060);\n        priceNft[10] = SAFE_MULTIPLIER.mul(1378);\n        priceNft[11] = SAFE_MULTIPLIER.mul(1792);\n\n    }\n    //to test\n    function buyBatchNft(uint256[] memory _ids, uint256[] memory _amounts) public nonReentrant {\n        require(isStoreOpen, \"Store is closed\");\n        require(_ids.length > 0, \"Store: invalid argument\");\n        require(_amounts.length > 0, \"Store: invalid argument\");\n        require(_ids.length == _amounts.length, \"Pool: invalid argument\");\n\n        uint256  amountRequired = 0;\n        for (uint256 i = 0; i < _ids.length; i++) {\n            uint256 id = _ids[i];\n            uint256 amount = _amounts[i];\n            require(priceNft[id]>0, \"Store: invalid argument\");\n            require(amount>0, \"Store: invalid argument\");\n            //require(maxAmountAllowedNft[id].sub(minedNft[id]) >= amount, \"Store: invalid argument\");\n            amountRequired = amountRequired.add(priceNft[id].mul(amount));\n        }\n        require(amountRequired>0, \"Store: invalid argument\");\n\n        token.safeTransferFrom(msg.sender, address(this), amountRequired);\n        token.burnOwnToken(amountRequired);\n        asset.mintBatch(msg.sender, _ids, _amounts,\"\");\n    }\n\n    function buyTokens() public nonReentrant payable {\n        require(isPresale, \"Presale Ended\");\n        uint256 weiAmount = msg.value;\n        require(weiAmount>0, \"Store: invalid argument\");\n        require(weiRaised.add(weiAmount) <= ETH_CAP, \"ETH CAP Overlimit\");\n        uint256 tokenAmount = weiAmount.mul(RATIO_WEI_TOKEN);\n    \n        weiRaised = weiRaised.add(weiAmount);\n        token.mint(msg.sender, tokenAmount);   \n    }\n    function extractEther() public onlyOwner {\n       payable(owner()).transfer(address(this).balance);\n   }\n    function setPriceNft(uint256 id, uint256 price) public onlyOwner {\n        priceNft[id] = price;\n    }\n    function setETHCap(uint256 cap) public onlyOwner {\n        ETH_CAP = cap;\n    }\n    function setRatioWeiToken(uint256 ratio) public onlyOwner {\n        RATIO_WEI_TOKEN = ratio;\n    }\n    function setIsPresale(bool flag) public onlyOwner {\n        isPresale = flag;\n    }\n    function setIsStoreOpen(bool flag) public onlyOwner {\n        isStoreOpen = flag;\n    }\n}",
  "sourcePath": "/Users/p489548/SmartContracts/FAMSystem/contracts/Store.sol",
  "compiler": {
    "name": "solc",
    "version": "0.8.4+commit.c7e474f2.Emscripten.clang"
  },
  "schemaVersion": "3.3.4",
  "updatedAt": "2021-05-31T10:23:58.846Z",
  "networkType": "ethereum",
  "devdoc": {
    "kind": "dev",
    "methods": {
      "owner()": {
        "details": "Returns the address of the current owner."
      },
      "renounceOwnership()": {
        "details": "Leaves the contract without owner. It will not be possible to call `onlyOwner` functions anymore. Can only be called by the current owner. NOTE: Renouncing ownership will leave the contract without an owner, thereby removing any functionality that is only available to the owner."
      },
      "transferOwnership(address)": {
        "details": "Transfers ownership of the contract to a new account (`newOwner`). Can only be called by the current owner."
      }
    },
    "version": 1
  },
  "userdoc": {
    "kind": "user",
    "methods": {},
    "version": 1
  }
}